{"abi":[{"type":"constructor","inputs":[{"name":"_underlyingToken","type":"address","internalType":"address"}],"stateMutability":"nonpayable"},{"type":"function","name":"approve","inputs":[{"name":"to","type":"address","internalType":"address"},{"name":"tokenId","type":"uint256","internalType":"uint256"}],"outputs":[],"stateMutability":"nonpayable"},{"type":"function","name":"balanceOf","inputs":[{"name":"owner","type":"address","internalType":"address"}],"outputs":[{"name":"","type":"uint256","internalType":"uint256"}],"stateMutability":"view"},{"type":"function","name":"claimDelegates","inputs":[{"name":"","type":"uint256","internalType":"uint256"}],"outputs":[{"name":"","type":"address","internalType":"address"}],"stateMutability":"view"},{"type":"function","name":"claimVestedTokens","inputs":[{"name":"tokenId","type":"uint256","internalType":"uint256"}],"outputs":[{"name":"","type":"uint256","internalType":"uint256"}],"stateMutability":"nonpayable"},{"type":"function","name":"claimable","inputs":[{"name":"tokenId","type":"uint256","internalType":"uint256"}],"outputs":[{"name":"","type":"uint256","internalType":"uint256"}],"stateMutability":"view"},{"type":"function","name":"fund","inputs":[{"name":"amount","type":"uint256","internalType":"uint256"}],"outputs":[],"stateMutability":"nonpayable"},{"type":"function","name":"getApproved","inputs":[{"name":"tokenId","type":"uint256","internalType":"uint256"}],"outputs":[{"name":"","type":"address","internalType":"address"}],"stateMutability":"view"},{"type":"function","name":"getTotalAmount","inputs":[{"name":"tokenId","type":"uint256","internalType":"uint256"}],"outputs":[{"name":"","type":"uint256","internalType":"uint256"}],"stateMutability":"view"},{"type":"function","name":"getVestedAmount","inputs":[{"name":"tokenId","type":"uint256","internalType":"uint256"}],"outputs":[{"name":"","type":"uint256","internalType":"uint256"}],"stateMutability":"view"},{"type":"function","name":"isApprovedForAll","inputs":[{"name":"owner","type":"address","internalType":"address"},{"name":"operator","type":"address","internalType":"address"}],"outputs":[{"name":"","type":"bool","internalType":"bool"}],"stateMutability":"view"},{"type":"function","name":"name","inputs":[],"outputs":[{"name":"","type":"string","internalType":"string"}],"stateMutability":"view"},{"type":"function","name":"owner","inputs":[],"outputs":[{"name":"","type":"address","internalType":"address"}],"stateMutability":"view"},{"type":"function","name":"ownerOf","inputs":[{"name":"tokenId","type":"uint256","internalType":"uint256"}],"outputs":[{"name":"","type":"address","internalType":"address"}],"stateMutability":"view"},{"type":"function","name":"renounceOwnership","inputs":[],"outputs":[],"stateMutability":"nonpayable"},{"type":"function","name":"safeMint","inputs":[{"name":"to","type":"address","internalType":"address"},{"name":"principalAmount","type":"uint256","internalType":"uint256"},{"name":"vestingDuration","type":"uint256","internalType":"uint256"}],"outputs":[],"stateMutability":"nonpayable"},{"type":"function","name":"safeTransferFrom","inputs":[{"name":"from","type":"address","internalType":"address"},{"name":"to","type":"address","internalType":"address"},{"name":"tokenId","type":"uint256","internalType":"uint256"}],"outputs":[],"stateMutability":"nonpayable"},{"type":"function","name":"safeTransferFrom","inputs":[{"name":"from","type":"address","internalType":"address"},{"name":"to","type":"address","internalType":"address"},{"name":"tokenId","type":"uint256","internalType":"uint256"},{"name":"data","type":"bytes","internalType":"bytes"}],"outputs":[],"stateMutability":"nonpayable"},{"type":"function","name":"setApprovalForAll","inputs":[{"name":"operator","type":"address","internalType":"address"},{"name":"approved","type":"bool","internalType":"bool"}],"outputs":[],"stateMutability":"nonpayable"},{"type":"function","name":"setClaimDelegate","inputs":[{"name":"tokenId","type":"uint256","internalType":"uint256"},{"name":"delegate","type":"address","internalType":"address"}],"outputs":[],"stateMutability":"nonpayable"},{"type":"function","name":"supportsInterface","inputs":[{"name":"interfaceId","type":"bytes4","internalType":"bytes4"}],"outputs":[{"name":"","type":"bool","internalType":"bool"}],"stateMutability":"view"},{"type":"function","name":"symbol","inputs":[],"outputs":[{"name":"","type":"string","internalType":"string"}],"stateMutability":"view"},{"type":"function","name":"tokenURI","inputs":[{"name":"tokenId","type":"uint256","internalType":"uint256"}],"outputs":[{"name":"","type":"string","internalType":"string"}],"stateMutability":"view"},{"type":"function","name":"transferFrom","inputs":[{"name":"from","type":"address","internalType":"address"},{"name":"to","type":"address","internalType":"address"},{"name":"tokenId","type":"uint256","internalType":"uint256"}],"outputs":[],"stateMutability":"nonpayable"},{"type":"function","name":"transferOwnership","inputs":[{"name":"newOwner","type":"address","internalType":"address"}],"outputs":[],"stateMutability":"nonpayable"},{"type":"function","name":"underlyingToken","inputs":[],"outputs":[{"name":"","type":"address","internalType":"contract IERC20"}],"stateMutability":"view"},{"type":"function","name":"vestingSchedules","inputs":[{"name":"","type":"uint256","internalType":"uint256"}],"outputs":[{"name":"principalAmount","type":"uint256","internalType":"uint256"},{"name":"vestingStart","type":"uint256","internalType":"uint256"},{"name":"vestingDuration","type":"uint256","internalType":"uint256"},{"name":"claimedAmount","type":"uint256","internalType":"uint256"}],"stateMutability":"view"},{"type":"event","name":"Approval","inputs":[{"name":"owner","type":"address","indexed":true,"internalType":"address"},{"name":"approved","type":"address","indexed":true,"internalType":"address"},{"name":"tokenId","type":"uint256","indexed":true,"internalType":"uint256"}],"anonymous":false},{"type":"event","name":"ApprovalForAll","inputs":[{"name":"owner","type":"address","indexed":true,"internalType":"address"},{"name":"operator","type":"address","indexed":true,"internalType":"address"},{"name":"approved","type":"bool","indexed":false,"internalType":"bool"}],"anonymous":false},{"type":"event","name":"OwnershipTransferred","inputs":[{"name":"previousOwner","type":"address","indexed":true,"internalType":"address"},{"name":"newOwner","type":"address","indexed":true,"internalType":"address"}],"anonymous":false},{"type":"event","name":"Transfer","inputs":[{"name":"from","type":"address","indexed":true,"internalType":"address"},{"name":"to","type":"address","indexed":true,"internalType":"address"},{"name":"tokenId","type":"uint256","indexed":true,"internalType":"uint256"}],"anonymous":false},{"type":"error","name":"ERC721IncorrectOwner","inputs":[{"name":"sender","type":"address","internalType":"address"},{"name":"tokenId","type":"uint256","internalType":"uint256"},{"name":"owner","type":"address","internalType":"address"}]},{"type":"error","name":"ERC721InsufficientApproval","inputs":[{"name":"operator","type":"address","internalType":"address"},{"name":"tokenId","type":"uint256","internalType":"uint256"}]},{"type":"error","name":"ERC721InvalidApprover","inputs":[{"name":"approver","type":"address","internalType":"address"}]},{"type":"error","name":"ERC721InvalidOperator","inputs":[{"name":"operator","type":"address","internalType":"address"}]},{"type":"error","name":"ERC721InvalidOwner","inputs":[{"name":"owner","type":"address","internalType":"address"}]},{"type":"error","name":"ERC721InvalidReceiver","inputs":[{"name":"receiver","type":"address","internalType":"address"}]},{"type":"error","name":"ERC721InvalidSender","inputs":[{"name":"sender","type":"address","internalType":"address"}]},{"type":"error","name":"ERC721NonexistentToken","inputs":[{"name":"tokenId","type":"uint256","internalType":"uint256"}]},{"type":"error","name":"OwnableInvalidOwner","inputs":[{"name":"owner","type":"address","internalType":"address"}]},{"type":"error","name":"OwnableUnauthorizedAccount","inputs":[{"name":"account","type":"address","internalType":"address"}]}],"bytecode":{"object":"0x60a060405234801561000f575f5ffd5b506040516133fd3803806133fd8339818101604052810190610031919061029a565b336040518060400160405280601681526020017f5465737420536f6e69632056657374696e67204e4654000000000000000000008152506040518060400160405280600781526020017f74532d664e465400000000000000000000000000000000000000000000000000815250815f90816100ac9190610502565b5080600190816100bc9190610502565b5050505f73ffffffffffffffffffffffffffffffffffffffff168173ffffffffffffffffffffffffffffffffffffffff160361012f575f6040517f1e4fbdf700000000000000000000000000000000000000000000000000000000815260040161012691906105e0565b60405180910390fd5b61013e8161017960201b60201c565b508073ffffffffffffffffffffffffffffffffffffffff1660808173ffffffffffffffffffffffffffffffffffffffff1681525050506105f9565b5f60065f9054906101000a900473ffffffffffffffffffffffffffffffffffffffff1690508160065f6101000a81548173ffffffffffffffffffffffffffffffffffffffff021916908373ffffffffffffffffffffffffffffffffffffffff1602179055508173ffffffffffffffffffffffffffffffffffffffff168173ffffffffffffffffffffffffffffffffffffffff167f8be0079c531659141344cd1fd0a4f28419497f9722a3daafe3b4186f6b6457e060405160405180910390a35050565b5f5ffd5b5f73ffffffffffffffffffffffffffffffffffffffff82169050919050565b5f61026982610240565b9050919050565b6102798161025f565b8114610283575f5ffd5b50565b5f8151905061029481610270565b92915050565b5f602082840312156102af576102ae61023c565b5b5f6102bc84828501610286565b91505092915050565b5f81519050919050565b7f4e487b71000000000000000000000000000000000000000000000000000000005f52604160045260245ffd5b7f4e487b71000000000000000000000000000000000000000000000000000000005f52602260045260245ffd5b5f600282049050600182168061034057607f821691505b602082108103610353576103526102fc565b5b50919050565b5f819050815f5260205f209050919050565b5f6020601f8301049050919050565b5f82821b905092915050565b5f600883026103b57fffffffffffffffffffffffffffffffffffffffffffffffffffffffffffffffff8261037a565b6103bf868361037a565b95508019841693508086168417925050509392505050565b5f819050919050565b5f819050919050565b5f6104036103fe6103f9846103d7565b6103e0565b6103d7565b9050919050565b5f819050919050565b61041c836103e9565b6104306104288261040a565b848454610386565b825550505050565b5f5f905090565b610447610438565b610452818484610413565b505050565b5b818110156104755761046a5f8261043f565b600181019050610458565b5050565b601f8211156104ba5761048b81610359565b6104948461036b565b810160208510156104a3578190505b6104b76104af8561036b565b830182610457565b50505b505050565b5f82821c905092915050565b5f6104da5f19846008026104bf565b1980831691505092915050565b5f6104f283836104cb565b9150826002028217905092915050565b61050b826102c5565b67ffffffffffffffff811115610524576105236102cf565b5b61052e8254610329565b610539828285610479565b5f60209050601f83116001811461056a575f8415610558578287015190505b61056285826104e7565b8655506105c9565b601f19841661057886610359565b5f5b8281101561059f5784890151825560018201915060208501945060208101905061057a565b868310156105bc57848901516105b8601f8916826104cb565b8355505b6001600288020188555050505b505050505050565b6105da8161025f565b82525050565b5f6020820190506105f35f8301846105d1565b92915050565b608051612dde61061f5f395f81816107f301528181610bee0152610ef10152612dde5ff3fe608060405234801561000f575f5ffd5b506004361061018c575f3560e01c80638da5cb5b116100dc578063c87b56dd11610095578063d1d58b251161006f578063d1d58b25146104a5578063e985e9c5146104d5578063f0e4066214610505578063f2fde38b146105355761018c565b8063c87b56dd14610429578063ca1d209d14610459578063cafeedf6146104755761018c565b80638da5cb5b1461036957806395d89b4114610387578063a22cb465146103a5578063b88d4fde146103c1578063bc160bf6146103dd578063c6b84b09146103f95761018c565b806324eeedf6116101495780636d3cbe21116101235780636d3cbe21146102cc57806370a08231146102ff578063715018a61461032f5780637935510b146103395761018c565b806324eeedf61461026457806342842e0e146102805780636352211e1461029c5761018c565b806301ffc9a71461019057806306fdde03146101c0578063081812fc146101de578063095ea7b31461020e57806323b872dd1461022a5780632495a59914610246575b5f5ffd5b6101aa60048036038101906101a591906121bf565b610551565b6040516101b79190612204565b60405180910390f35b6101c8610632565b6040516101d5919061228d565b60405180910390f35b6101f860048036038101906101f391906122e0565b6106c1565b604051610205919061234a565b60405180910390f35b6102286004803603810190610223919061238d565b6106dc565b005b610244600480360381019061023f91906123cb565b6106f2565b005b61024e6107f1565b60405161025b9190612476565b60405180910390f35b61027e6004803603810190610279919061248f565b610815565b005b61029a600480360381019061029591906123cb565b6108a1565b005b6102b660048036038101906102b191906122e0565b6108c0565b6040516102c3919061234a565b60405180910390f35b6102e660048036038101906102e191906122e0565b6108d1565b6040516102f694939291906124ee565b60405180910390f35b61031960048036038101906103149190612531565b6108fd565b604051610326919061255c565b60405180910390f35b6103376109b3565b005b610353600480360381019061034e91906122e0565b6109c6565b604051610360919061255c565b60405180910390f35b610371610c95565b60405161037e919061234a565b60405180910390f35b61038f610cbd565b60405161039c919061228d565b60405180910390f35b6103bf60048036038101906103ba919061259f565b610d4d565b005b6103db60048036038101906103d69190612709565b610d63565b005b6103f760048036038101906103f29190612789565b610d88565b005b610413600480360381019061040e91906122e0565b610e51565b604051610420919061234a565b60405180910390f35b610443600480360381019061043e91906122e0565b610e81565b604051610450919061228d565b60405180910390f35b610473600480360381019061046e91906122e0565b610ee7565b005b61048f600480360381019061048a91906122e0565b610f90565b60405161049c919061255c565b60405180910390f35b6104bf60048036038101906104ba91906122e0565b611087565b6040516104cc919061255c565b60405180910390f35b6104ef60048036038101906104ea91906127c7565b6110d7565b6040516104fc9190612204565b60405180910390f35b61051f600480360381019061051a91906122e0565b611165565b60405161052c919061255c565b60405180910390f35b61054f600480360381019061054a9190612531565b611181565b005b5f7f80ac58cd000000000000000000000000000000000000000000000000000000007bffffffffffffffffffffffffffffffffffffffffffffffffffffffff1916827bffffffffffffffffffffffffffffffffffffffffffffffffffffffff1916148061061b57507f5b5e139f000000000000000000000000000000000000000000000000000000007bffffffffffffffffffffffffffffffffffffffffffffffffffffffff1916827bffffffffffffffffffffffffffffffffffffffffffffffffffffffff1916145b8061062b575061062a82611205565b5b9050919050565b60605f805461064090612832565b80601f016020809104026020016040519081016040528092919081815260200182805461066c90612832565b80156106b75780601f1061068e576101008083540402835291602001916106b7565b820191905f5260205f20905b81548152906001019060200180831161069a57829003601f168201915b5050505050905090565b5f6106cb8261126e565b506106d5826112f4565b9050919050565b6106ee82826106e961132d565b611334565b5050565b5f73ffffffffffffffffffffffffffffffffffffffff168273ffffffffffffffffffffffffffffffffffffffff1603610762575f6040517f64a0ae92000000000000000000000000000000000000000000000000000000008152600401610759919061234a565b60405180910390fd5b5f610775838361077061132d565b611346565b90508373ffffffffffffffffffffffffffffffffffffffff168173ffffffffffffffffffffffffffffffffffffffff16146107eb578382826040517f64283d7b0000000000000000000000000000000000000000000000000000000081526004016107e293929190612862565b60405180910390fd5b50505050565b7f000000000000000000000000000000000000000000000000000000000000000081565b61081d611410565b5f60075f815480929190610830906128c4565b9190505590506108408482611497565b60405180608001604052808481526020014281526020018381526020015f81525060085f8381526020019081526020015f205f820151815f015560208201518160010155604082015181600201556060820151816003015590505050505050565b6108bb83838360405180602001604052805f815250610d63565b505050565b5f6108ca8261126e565b9050919050565b6008602052805f5260405f205f91509050805f0154908060010154908060020154908060030154905084565b5f5f73ffffffffffffffffffffffffffffffffffffffff168273ffffffffffffffffffffffffffffffffffffffff160361096e575f6040517f89c62b64000000000000000000000000000000000000000000000000000000008152600401610965919061234a565b60405180910390fd5b60035f8373ffffffffffffffffffffffffffffffffffffffff1673ffffffffffffffffffffffffffffffffffffffff1681526020019081526020015f20549050919050565b6109bb611410565b6109c45f6114b4565b565b5f5f6109d1836108c0565b90505f60095f8581526020019081526020015f205f9054906101000a900473ffffffffffffffffffffffffffffffffffffffff1690508173ffffffffffffffffffffffffffffffffffffffff163373ffffffffffffffffffffffffffffffffffffffff161480610a7457503373ffffffffffffffffffffffffffffffffffffffff16610a5c856106c1565b73ffffffffffffffffffffffffffffffffffffffff16145b80610a855750610a8482336110d7565b5b80610abb57508073ffffffffffffffffffffffffffffffffffffffff163373ffffffffffffffffffffffffffffffffffffffff16145b610afa576040517f08c379a0000000000000000000000000000000000000000000000000000000008152600401610af190612955565b60405180910390fd5b5f60085f8681526020019081526020015f2090505f610b1886611087565b90505f8111610b5c576040517f08c379a0000000000000000000000000000000000000000000000000000000008152600401610b53906129bd565b60405180910390fd5b80826003015f828254610b6f91906129db565b925050819055505f8373ffffffffffffffffffffffffffffffffffffffff163373ffffffffffffffffffffffffffffffffffffffff16148015610bde57505f73ffffffffffffffffffffffffffffffffffffffff168473ffffffffffffffffffffffffffffffffffffffff1614155b610be85733610bea565b835b90507f000000000000000000000000000000000000000000000000000000000000000073ffffffffffffffffffffffffffffffffffffffff1663a9059cbb82846040518363ffffffff1660e01b8152600401610c47929190612a0e565b6020604051808303815f875af1158015610c63573d5f5f3e3d5ffd5b505050506040513d601f19601f82011682018060405250810190610c879190612a49565b508195505050505050919050565b5f60065f9054906101000a900473ffffffffffffffffffffffffffffffffffffffff16905090565b606060018054610ccc90612832565b80601f0160208091040260200160405190810160405280929190818152602001828054610cf890612832565b8015610d435780601f10610d1a57610100808354040283529160200191610d43565b820191905f5260205f20905b815481529060010190602001808311610d2657829003601f168201915b5050505050905090565b610d5f610d5861132d565b8383611577565b5050565b610d6e8484846106f2565b610d82610d7961132d565b858585856116e0565b50505050565b3373ffffffffffffffffffffffffffffffffffffffff16610da8836108c0565b73ffffffffffffffffffffffffffffffffffffffff1614610dfe576040517f08c379a0000000000000000000000000000000000000000000000000000000008152600401610df590612abe565b60405180910390fd5b8060095f8481526020019081526020015f205f6101000a81548173ffffffffffffffffffffffffffffffffffffffff021916908373ffffffffffffffffffffffffffffffffffffffff1602179055505050565b6009602052805f5260405f205f915054906101000a900473ffffffffffffffffffffffffffffffffffffffff1681565b6060610e8c8261126e565b505f610e9661188c565b90505f815111610eb45760405180602001604052805f815250610edf565b80610ebe846118a2565b604051602001610ecf929190612b16565b6040516020818303038152906040525b915050919050565b610eef611410565b7f000000000000000000000000000000000000000000000000000000000000000073ffffffffffffffffffffffffffffffffffffffff166323b872dd3330846040518463ffffffff1660e01b8152600401610f4c93929190612b39565b6020604051808303815f875af1158015610f68573d5f5f3e3d5ffd5b505050506040513d601f19601f82011682018060405250810190610f8c9190612a49565b5050565b5f5f60085f8481526020019081526020015f2090508060010154421015610fd55760646019825f0154610fc39190612b6e565b610fcd9190612bdc565b915050611082565b5f816001015442610fe69190612c0c565b90505f60646019845f0154610ffb9190612b6e565b6110059190612bdc565b90505f83600201548310611036576064604b855f01546110259190612b6e565b61102f9190612bdc565b905061106f565b836002015460646110479190612b6e565b83604b865f01546110589190612b6e565b6110629190612b6e565b61106c9190612bdc565b90505b808261107b91906129db565b9450505050505b919050565b5f5f60085f8481526020019081526020015f2090505f6110a684610f90565b9050816003015481116110bd575f925050506110d2565b8160030154816110cd9190612c0c565b925050505b919050565b5f60055f8473ffffffffffffffffffffffffffffffffffffffff1673ffffffffffffffffffffffffffffffffffffffff1681526020019081526020015f205f8373ffffffffffffffffffffffffffffffffffffffff1673ffffffffffffffffffffffffffffffffffffffff1681526020019081526020015f205f9054906101000a900460ff16905092915050565b5f60085f8381526020019081526020015f205f01549050919050565b611189611410565b5f73ffffffffffffffffffffffffffffffffffffffff168173ffffffffffffffffffffffffffffffffffffffff16036111f9575f6040517f1e4fbdf70000000000000000000000000000000000000000000000000000000081526004016111f0919061234a565b60405180910390fd5b611202816114b4565b50565b5f7f01ffc9a7000000000000000000000000000000000000000000000000000000007bffffffffffffffffffffffffffffffffffffffffffffffffffffffff1916827bffffffffffffffffffffffffffffffffffffffffffffffffffffffff1916149050919050565b5f5f6112798361196c565b90505f73ffffffffffffffffffffffffffffffffffffffff168173ffffffffffffffffffffffffffffffffffffffff16036112eb57826040517f7e2732890000000000000000000000000000000000000000000000000000000081526004016112e2919061255c565b60405180910390fd5b80915050919050565b5f60045f8381526020019081526020015f205f9054906101000a900473ffffffffffffffffffffffffffffffffffffffff169050919050565b5f33905090565b61134183838360016119a5565b505050565b5f5f6113518461196c565b90505f73ffffffffffffffffffffffffffffffffffffffff168173ffffffffffffffffffffffffffffffffffffffff16141580156113bb57505f73ffffffffffffffffffffffffffffffffffffffff168573ffffffffffffffffffffffffffffffffffffffff1614155b156113fb576040517f08c379a00000000000000000000000000000000000000000000000000000000081526004016113f290612caf565b60405180910390fd5b611406858585611b64565b9150509392505050565b61141861132d565b73ffffffffffffffffffffffffffffffffffffffff16611436610c95565b73ffffffffffffffffffffffffffffffffffffffff16146114955761145961132d565b6040517f118cdaa700000000000000000000000000000000000000000000000000000000815260040161148c919061234a565b60405180910390fd5b565b6114b0828260405180602001604052805f815250611d6f565b5050565b5f60065f9054906101000a900473ffffffffffffffffffffffffffffffffffffffff1690508160065f6101000a81548173ffffffffffffffffffffffffffffffffffffffff021916908373ffffffffffffffffffffffffffffffffffffffff1602179055508173ffffffffffffffffffffffffffffffffffffffff168173ffffffffffffffffffffffffffffffffffffffff167f8be0079c531659141344cd1fd0a4f28419497f9722a3daafe3b4186f6b6457e060405160405180910390a35050565b5f73ffffffffffffffffffffffffffffffffffffffff168273ffffffffffffffffffffffffffffffffffffffff16036115e757816040517f5b08ba180000000000000000000000000000000000000000000000000000000081526004016115de919061234a565b60405180910390fd5b8060055f8573ffffffffffffffffffffffffffffffffffffffff1673ffffffffffffffffffffffffffffffffffffffff1681526020019081526020015f205f8473ffffffffffffffffffffffffffffffffffffffff1673ffffffffffffffffffffffffffffffffffffffff1681526020019081526020015f205f6101000a81548160ff0219169083151502179055508173ffffffffffffffffffffffffffffffffffffffff168373ffffffffffffffffffffffffffffffffffffffff167f17307eab39ab6107e8899845ad3d59bd9653f200f220920489ca2b5937696c31836040516116d39190612204565b60405180910390a3505050565b5f8373ffffffffffffffffffffffffffffffffffffffff163b1115611885578273ffffffffffffffffffffffffffffffffffffffff1663150b7a02868685856040518563ffffffff1660e01b815260040161173e9493929190612d1f565b6020604051808303815f875af192505050801561177957506040513d601f19601f820116820180604052508101906117769190612d7d565b60015b6117fa573d805f81146117a7576040519150601f19603f3d011682016040523d82523d5f602084013e6117ac565b606091505b505f8151036117f257836040517f64a0ae920000000000000000000000000000000000000000000000000000000081526004016117e9919061234a565b60405180910390fd5b805160208201fd5b63150b7a0260e01b7bffffffffffffffffffffffffffffffffffffffffffffffffffffffff1916817bffffffffffffffffffffffffffffffffffffffffffffffffffffffff19161461188357836040517f64a0ae9200000000000000000000000000000000000000000000000000000000815260040161187a919061234a565b60405180910390fd5b505b5050505050565b606060405180602001604052805f815250905090565b60605f60016118b084611d92565b0190505f8167ffffffffffffffff8111156118ce576118cd6125e5565b5b6040519080825280601f01601f1916602001820160405280156119005781602001600182028036833780820191505090505b5090505f82602083010190505b600115611961578080600190039150507f3031323334353637383961626364656600000000000000000000000000000000600a86061a8153600a858161195657611955612baf565b5b0494505f850361190d575b819350505050919050565b5f60025f8381526020019081526020015f205f9054906101000a900473ffffffffffffffffffffffffffffffffffffffff169050919050565b80806119dd57505f73ffffffffffffffffffffffffffffffffffffffff168273ffffffffffffffffffffffffffffffffffffffff1614155b15611b0f575f6119ec8461126e565b90505f73ffffffffffffffffffffffffffffffffffffffff168373ffffffffffffffffffffffffffffffffffffffff1614158015611a5657508273ffffffffffffffffffffffffffffffffffffffff168173ffffffffffffffffffffffffffffffffffffffff1614155b8015611a695750611a6781846110d7565b155b15611aab57826040517fa9fbf51f000000000000000000000000000000000000000000000000000000008152600401611aa2919061234a565b60405180910390fd5b8115611b0d57838573ffffffffffffffffffffffffffffffffffffffff168273ffffffffffffffffffffffffffffffffffffffff167f8c5be1e5ebec7d5bd14f71427d1e84f3dd0314c0f7b2291e5b200ac8c7c3b92560405160405180910390a45b505b8360045f8581526020019081526020015f205f6101000a81548173ffffffffffffffffffffffffffffffffffffffff021916908373ffffffffffffffffffffffffffffffffffffffff16021790555050505050565b5f5f611b6f8461196c565b90505f73ffffffffffffffffffffffffffffffffffffffff168373ffffffffffffffffffffffffffffffffffffffff1614611bb057611baf818486611ee3565b5b5f73ffffffffffffffffffffffffffffffffffffffff168173ffffffffffffffffffffffffffffffffffffffff1614611c3b57611bef5f855f5f6119a5565b600160035f8373ffffffffffffffffffffffffffffffffffffffff1673ffffffffffffffffffffffffffffffffffffffff1681526020019081526020015f205f82825403925050819055505b5f73ffffffffffffffffffffffffffffffffffffffff168573ffffffffffffffffffffffffffffffffffffffff1614611cba57600160035f8773ffffffffffffffffffffffffffffffffffffffff1673ffffffffffffffffffffffffffffffffffffffff1681526020019081526020015f205f82825401925050819055505b8460025f8681526020019081526020015f205f6101000a81548173ffffffffffffffffffffffffffffffffffffffff021916908373ffffffffffffffffffffffffffffffffffffffff160217905550838573ffffffffffffffffffffffffffffffffffffffff168273ffffffffffffffffffffffffffffffffffffffff167fddf252ad1be2c89b69c2b068fc378daa952ba7f163c4a11628f55a4df523b3ef60405160405180910390a4809150509392505050565b611d798383611fa6565b611d8d611d8461132d565b5f8585856116e0565b505050565b5f5f5f90507a184f03e93ff9f4daa797ed6e38ed64bf6a1f0100000000000000008310611dee577a184f03e93ff9f4daa797ed6e38ed64bf6a1f0100000000000000008381611de457611de3612baf565b5b0492506040810190505b6d04ee2d6d415b85acef81000000008310611e2b576d04ee2d6d415b85acef81000000008381611e2157611e20612baf565b5b0492506020810190505b662386f26fc100008310611e5a57662386f26fc100008381611e5057611e4f612baf565b5b0492506010810190505b6305f5e1008310611e83576305f5e1008381611e7957611e78612baf565b5b0492506008810190505b6127108310611ea8576127108381611e9e57611e9d612baf565b5b0492506004810190505b60648310611ecb5760648381611ec157611ec0612baf565b5b0492506002810190505b600a8310611eda576001810190505b80915050919050565b611eee838383612099565b611fa1575f73ffffffffffffffffffffffffffffffffffffffff168373ffffffffffffffffffffffffffffffffffffffff1603611f6257806040517f7e273289000000000000000000000000000000000000000000000000000000008152600401611f59919061255c565b60405180910390fd5b81816040517f177e802f000000000000000000000000000000000000000000000000000000008152600401611f98929190612a0e565b60405180910390fd5b505050565b5f73ffffffffffffffffffffffffffffffffffffffff168273ffffffffffffffffffffffffffffffffffffffff1603612016575f6040517f64a0ae9200000000000000000000000000000000000000000000000000000000815260040161200d919061234a565b60405180910390fd5b5f61202283835f611346565b90505f73ffffffffffffffffffffffffffffffffffffffff168173ffffffffffffffffffffffffffffffffffffffff1614612094575f6040517f73c6ac6e00000000000000000000000000000000000000000000000000000000815260040161208b919061234a565b60405180910390fd5b505050565b5f5f73ffffffffffffffffffffffffffffffffffffffff168373ffffffffffffffffffffffffffffffffffffffff161415801561215057508273ffffffffffffffffffffffffffffffffffffffff168473ffffffffffffffffffffffffffffffffffffffff161480612111575061211084846110d7565b5b8061214f57508273ffffffffffffffffffffffffffffffffffffffff16612137836112f4565b73ffffffffffffffffffffffffffffffffffffffff16145b5b90509392505050565b5f604051905090565b5f5ffd5b5f5ffd5b5f7fffffffff0000000000000000000000000000000000000000000000000000000082169050919050565b61219e8161216a565b81146121a8575f5ffd5b50565b5f813590506121b981612195565b92915050565b5f602082840312156121d4576121d3612162565b5b5f6121e1848285016121ab565b91505092915050565b5f8115159050919050565b6121fe816121ea565b82525050565b5f6020820190506122175f8301846121f5565b92915050565b5f81519050919050565b5f82825260208201905092915050565b8281835e5f83830152505050565b5f601f19601f8301169050919050565b5f61225f8261221d565b6122698185612227565b9350612279818560208601612237565b61228281612245565b840191505092915050565b5f6020820190508181035f8301526122a58184612255565b905092915050565b5f819050919050565b6122bf816122ad565b81146122c9575f5ffd5b50565b5f813590506122da816122b6565b92915050565b5f602082840312156122f5576122f4612162565b5b5f612302848285016122cc565b91505092915050565b5f73ffffffffffffffffffffffffffffffffffffffff82169050919050565b5f6123348261230b565b9050919050565b6123448161232a565b82525050565b5f60208201905061235d5f83018461233b565b92915050565b61236c8161232a565b8114612376575f5ffd5b50565b5f8135905061238781612363565b92915050565b5f5f604083850312156123a3576123a2612162565b5b5f6123b085828601612379565b92505060206123c1858286016122cc565b9150509250929050565b5f5f5f606084860312156123e2576123e1612162565b5b5f6123ef86828701612379565b935050602061240086828701612379565b9250506040612411868287016122cc565b9150509250925092565b5f819050919050565b5f61243e6124396124348461230b565b61241b565b61230b565b9050919050565b5f61244f82612424565b9050919050565b5f61246082612445565b9050919050565b61247081612456565b82525050565b5f6020820190506124895f830184612467565b92915050565b5f5f5f606084860312156124a6576124a5612162565b5b5f6124b386828701612379565b93505060206124c4868287016122cc565b92505060406124d5868287016122cc565b9150509250925092565b6124e8816122ad565b82525050565b5f6080820190506125015f8301876124df565b61250e60208301866124df565b61251b60408301856124df565b61252860608301846124df565b95945050505050565b5f6020828403121561254657612545612162565b5b5f61255384828501612379565b91505092915050565b5f60208201905061256f5f8301846124df565b92915050565b61257e816121ea565b8114612588575f5ffd5b50565b5f8135905061259981612575565b92915050565b5f5f604083850312156125b5576125b4612162565b5b5f6125c285828601612379565b92505060206125d38582860161258b565b9150509250929050565b5f5ffd5b5f5ffd5b7f4e487b71000000000000000000000000000000000000000000000000000000005f52604160045260245ffd5b61261b82612245565b810181811067ffffffffffffffff8211171561263a576126396125e5565b5b80604052505050565b5f61264c612159565b90506126588282612612565b919050565b5f67ffffffffffffffff821115612677576126766125e5565b5b61268082612245565b9050602081019050919050565b828183375f83830152505050565b5f6126ad6126a88461265d565b612643565b9050828152602081018484840111156126c9576126c86125e1565b5b6126d484828561268d565b509392505050565b5f82601f8301126126f0576126ef6125dd565b5b813561270084826020860161269b565b91505092915050565b5f5f5f5f6080858703121561272157612720612162565b5b5f61272e87828801612379565b945050602061273f87828801612379565b9350506040612750878288016122cc565b925050606085013567ffffffffffffffff81111561277157612770612166565b5b61277d878288016126dc565b91505092959194509250565b5f5f6040838503121561279f5761279e612162565b5b5f6127ac858286016122cc565b92505060206127bd85828601612379565b9150509250929050565b5f5f604083850312156127dd576127dc612162565b5b5f6127ea85828601612379565b92505060206127fb85828601612379565b9150509250929050565b7f4e487b71000000000000000000000000000000000000000000000000000000005f52602260045260245ffd5b5f600282049050600182168061284957607f821691505b60208210810361285c5761285b612805565b5b50919050565b5f6060820190506128755f83018661233b565b61288260208301856124df565b61288f604083018461233b565b949350505050565b7f4e487b71000000000000000000000000000000000000000000000000000000005f52601160045260245ffd5b5f6128ce826122ad565b91507fffffffffffffffffffffffffffffffffffffffffffffffffffffffffffffffff8203612900576128ff612897565b5b600182019050919050565b7f4e6f7420617574686f72697a656420746f20636c61696d0000000000000000005f82015250565b5f61293f601783612227565b915061294a8261290b565b602082019050919050565b5f6020820190508181035f83015261296c81612933565b9050919050565b7f4e6f7468696e6720746f20636c61696d000000000000000000000000000000005f82015250565b5f6129a7601083612227565b91506129b282612973565b602082019050919050565b5f6020820190508181035f8301526129d48161299b565b9050919050565b5f6129e5826122ad565b91506129f0836122ad565b9250828201905080821115612a0857612a07612897565b5b92915050565b5f604082019050612a215f83018561233b565b612a2e60208301846124df565b9392505050565b5f81519050612a4381612575565b92915050565b5f60208284031215612a5e57612a5d612162565b5b5f612a6b84828501612a35565b91505092915050565b7f4f6e6c79206f776e65722063616e2064656c65676174650000000000000000005f82015250565b5f612aa8601783612227565b9150612ab382612a74565b602082019050919050565b5f6020820190508181035f830152612ad581612a9c565b9050919050565b5f81905092915050565b5f612af08261221d565b612afa8185612adc565b9350612b0a818560208601612237565b80840191505092915050565b5f612b218285612ae6565b9150612b2d8284612ae6565b91508190509392505050565b5f606082019050612b4c5f83018661233b565b612b59602083018561233b565b612b6660408301846124df565b949350505050565b5f612b78826122ad565b9150612b83836122ad565b9250828202612b91816122ad565b91508282048414831517612ba857612ba7612897565b5b5092915050565b7f4e487b71000000000000000000000000000000000000000000000000000000005f52601260045260245ffd5b5f612be6826122ad565b9150612bf1836122ad565b925082612c0157612c00612baf565b5b828204905092915050565b5f612c16826122ad565b9150612c21836122ad565b9250828203905081811115612c3957612c38612897565b5b92915050565b7f5472616e73666572732064697361626c65643a20736f756c626f756e64204e465f8201527f5400000000000000000000000000000000000000000000000000000000000000602082015250565b5f612c99602183612227565b9150612ca482612c3f565b604082019050919050565b5f6020820190508181035f830152612cc681612c8d565b9050919050565b5f81519050919050565b5f82825260208201905092915050565b5f612cf182612ccd565b612cfb8185612cd7565b9350612d0b818560208601612237565b612d1481612245565b840191505092915050565b5f608082019050612d325f83018761233b565b612d3f602083018661233b565b612d4c60408301856124df565b8181036060830152612d5e8184612ce7565b905095945050505050565b5f81519050612d7781612195565b92915050565b5f60208284031215612d9257612d91612162565b5b5f612d9f84828501612d69565b9150509291505056fea2646970667358221220bbf0e13853de306b731056173c7d3d837be83191bb00db48fab6408433eb6f7864736f6c634300081c0033","linkReferences":{}},"methodIdentifiers":{"approve(address,uint256)":"095ea7b3","balanceOf(address)":"70a08231","claimDelegates(uint256)":"c6b84b09","claimVestedTokens(uint256)":"7935510b","claimable(uint256)":"d1d58b25","fund(uint256)":"ca1d209d","getApproved(uint256)":"081812fc","getTotalAmount(uint256)":"f0e40662","getVestedAmount(uint256)":"cafeedf6","isApprovedForAll(address,address)":"e985e9c5","name()":"06fdde03","owner()":"8da5cb5b","ownerOf(uint256)":"6352211e","renounceOwnership()":"715018a6","safeMint(address,uint256,uint256)":"24eeedf6","safeTransferFrom(address,address,uint256)":"42842e0e","safeTransferFrom(address,address,uint256,bytes)":"b88d4fde","setApprovalForAll(address,bool)":"a22cb465","setClaimDelegate(uint256,address)":"bc160bf6","supportsInterface(bytes4)":"01ffc9a7","symbol()":"95d89b41","tokenURI(uint256)":"c87b56dd","transferFrom(address,address,uint256)":"23b872dd","transferOwnership(address)":"f2fde38b","underlyingToken()":"2495a599","vestingSchedules(uint256)":"6d3cbe21"},"id":40}