{"abi":[{"type":"constructor","inputs":[{"name":"_underlyingToken","type":"address","internalType":"address"}],"stateMutability":"nonpayable"},{"type":"function","name":"approve","inputs":[{"name":"to","type":"address","internalType":"address"},{"name":"tokenId","type":"uint256","internalType":"uint256"}],"outputs":[],"stateMutability":"nonpayable"},{"type":"function","name":"balanceOf","inputs":[{"name":"owner","type":"address","internalType":"address"}],"outputs":[{"name":"","type":"uint256","internalType":"uint256"}],"stateMutability":"view"},{"type":"function","name":"claimDelegates","inputs":[{"name":"","type":"uint256","internalType":"uint256"}],"outputs":[{"name":"","type":"address","internalType":"address"}],"stateMutability":"view"},{"type":"function","name":"claimVestedTokens","inputs":[{"name":"tokenId","type":"uint256","internalType":"uint256"}],"outputs":[{"name":"","type":"uint256","internalType":"uint256"}],"stateMutability":"nonpayable"},{"type":"function","name":"claimable","inputs":[{"name":"tokenId","type":"uint256","internalType":"uint256"}],"outputs":[{"name":"","type":"uint256","internalType":"uint256"}],"stateMutability":"view"},{"type":"function","name":"demoMint","inputs":[],"outputs":[],"stateMutability":"nonpayable"},{"type":"function","name":"fund","inputs":[{"name":"amount","type":"uint256","internalType":"uint256"}],"outputs":[],"stateMutability":"nonpayable"},{"type":"function","name":"getApproved","inputs":[{"name":"tokenId","type":"uint256","internalType":"uint256"}],"outputs":[{"name":"","type":"address","internalType":"address"}],"stateMutability":"view"},{"type":"function","name":"getTotalAmount","inputs":[{"name":"tokenId","type":"uint256","internalType":"uint256"}],"outputs":[{"name":"","type":"uint256","internalType":"uint256"}],"stateMutability":"view"},{"type":"function","name":"getVestedAmount","inputs":[{"name":"tokenId","type":"uint256","internalType":"uint256"}],"outputs":[{"name":"","type":"uint256","internalType":"uint256"}],"stateMutability":"view"},{"type":"function","name":"hasMintedDemo","inputs":[{"name":"","type":"address","internalType":"address"}],"outputs":[{"name":"","type":"bool","internalType":"bool"}],"stateMutability":"view"},{"type":"function","name":"isApprovedForAll","inputs":[{"name":"owner","type":"address","internalType":"address"},{"name":"operator","type":"address","internalType":"address"}],"outputs":[{"name":"","type":"bool","internalType":"bool"}],"stateMutability":"view"},{"type":"function","name":"name","inputs":[],"outputs":[{"name":"","type":"string","internalType":"string"}],"stateMutability":"view"},{"type":"function","name":"owner","inputs":[],"outputs":[{"name":"","type":"address","internalType":"address"}],"stateMutability":"view"},{"type":"function","name":"ownerOf","inputs":[{"name":"tokenId","type":"uint256","internalType":"uint256"}],"outputs":[{"name":"","type":"address","internalType":"address"}],"stateMutability":"view"},{"type":"function","name":"renounceOwnership","inputs":[],"outputs":[],"stateMutability":"nonpayable"},{"type":"function","name":"safeMint","inputs":[{"name":"to","type":"address","internalType":"address"},{"name":"principalAmount","type":"uint256","internalType":"uint256"},{"name":"vestingDuration","type":"uint256","internalType":"uint256"}],"outputs":[],"stateMutability":"nonpayable"},{"type":"function","name":"safeTransferFrom","inputs":[{"name":"from","type":"address","internalType":"address"},{"name":"to","type":"address","internalType":"address"},{"name":"tokenId","type":"uint256","internalType":"uint256"}],"outputs":[],"stateMutability":"nonpayable"},{"type":"function","name":"safeTransferFrom","inputs":[{"name":"from","type":"address","internalType":"address"},{"name":"to","type":"address","internalType":"address"},{"name":"tokenId","type":"uint256","internalType":"uint256"},{"name":"data","type":"bytes","internalType":"bytes"}],"outputs":[],"stateMutability":"nonpayable"},{"type":"function","name":"setApprovalForAll","inputs":[{"name":"operator","type":"address","internalType":"address"},{"name":"approved","type":"bool","internalType":"bool"}],"outputs":[],"stateMutability":"nonpayable"},{"type":"function","name":"setClaimDelegate","inputs":[{"name":"tokenId","type":"uint256","internalType":"uint256"},{"name":"delegate","type":"address","internalType":"address"}],"outputs":[],"stateMutability":"nonpayable"},{"type":"function","name":"supportsInterface","inputs":[{"name":"interfaceId","type":"bytes4","internalType":"bytes4"}],"outputs":[{"name":"","type":"bool","internalType":"bool"}],"stateMutability":"view"},{"type":"function","name":"symbol","inputs":[],"outputs":[{"name":"","type":"string","internalType":"string"}],"stateMutability":"view"},{"type":"function","name":"tokenURI","inputs":[{"name":"tokenId","type":"uint256","internalType":"uint256"}],"outputs":[{"name":"","type":"string","internalType":"string"}],"stateMutability":"view"},{"type":"function","name":"transferFrom","inputs":[{"name":"from","type":"address","internalType":"address"},{"name":"to","type":"address","internalType":"address"},{"name":"tokenId","type":"uint256","internalType":"uint256"}],"outputs":[],"stateMutability":"nonpayable"},{"type":"function","name":"transferOwnership","inputs":[{"name":"newOwner","type":"address","internalType":"address"}],"outputs":[],"stateMutability":"nonpayable"},{"type":"function","name":"underlyingToken","inputs":[],"outputs":[{"name":"","type":"address","internalType":"contract IERC20"}],"stateMutability":"view"},{"type":"function","name":"vestingSchedules","inputs":[{"name":"","type":"uint256","internalType":"uint256"}],"outputs":[{"name":"principalAmount","type":"uint256","internalType":"uint256"},{"name":"vestingStart","type":"uint256","internalType":"uint256"},{"name":"vestingDuration","type":"uint256","internalType":"uint256"},{"name":"claimedAmount","type":"uint256","internalType":"uint256"}],"stateMutability":"view"},{"type":"event","name":"Approval","inputs":[{"name":"owner","type":"address","indexed":true,"internalType":"address"},{"name":"approved","type":"address","indexed":true,"internalType":"address"},{"name":"tokenId","type":"uint256","indexed":true,"internalType":"uint256"}],"anonymous":false},{"type":"event","name":"ApprovalForAll","inputs":[{"name":"owner","type":"address","indexed":true,"internalType":"address"},{"name":"operator","type":"address","indexed":true,"internalType":"address"},{"name":"approved","type":"bool","indexed":false,"internalType":"bool"}],"anonymous":false},{"type":"event","name":"OwnershipTransferred","inputs":[{"name":"previousOwner","type":"address","indexed":true,"internalType":"address"},{"name":"newOwner","type":"address","indexed":true,"internalType":"address"}],"anonymous":false},{"type":"event","name":"Transfer","inputs":[{"name":"from","type":"address","indexed":true,"internalType":"address"},{"name":"to","type":"address","indexed":true,"internalType":"address"},{"name":"tokenId","type":"uint256","indexed":true,"internalType":"uint256"}],"anonymous":false},{"type":"error","name":"ERC721IncorrectOwner","inputs":[{"name":"sender","type":"address","internalType":"address"},{"name":"tokenId","type":"uint256","internalType":"uint256"},{"name":"owner","type":"address","internalType":"address"}]},{"type":"error","name":"ERC721InsufficientApproval","inputs":[{"name":"operator","type":"address","internalType":"address"},{"name":"tokenId","type":"uint256","internalType":"uint256"}]},{"type":"error","name":"ERC721InvalidApprover","inputs":[{"name":"approver","type":"address","internalType":"address"}]},{"type":"error","name":"ERC721InvalidOperator","inputs":[{"name":"operator","type":"address","internalType":"address"}]},{"type":"error","name":"ERC721InvalidOwner","inputs":[{"name":"owner","type":"address","internalType":"address"}]},{"type":"error","name":"ERC721InvalidReceiver","inputs":[{"name":"receiver","type":"address","internalType":"address"}]},{"type":"error","name":"ERC721InvalidSender","inputs":[{"name":"sender","type":"address","internalType":"address"}]},{"type":"error","name":"ERC721NonexistentToken","inputs":[{"name":"tokenId","type":"uint256","internalType":"uint256"}]},{"type":"error","name":"OwnableInvalidOwner","inputs":[{"name":"owner","type":"address","internalType":"address"}]},{"type":"error","name":"OwnableUnauthorizedAccount","inputs":[{"name":"account","type":"address","internalType":"address"}]}],"bytecode":{"object":"0x60a060405234801561000f575f5ffd5b5060405161365f38038061365f8339818101604052810190610031919061029a565b336040518060400160405280601681526020017f5465737420536f6e69632056657374696e67204e4654000000000000000000008152506040518060400160405280600781526020017f74532d664e465400000000000000000000000000000000000000000000000000815250815f90816100ac9190610502565b5080600190816100bc9190610502565b5050505f73ffffffffffffffffffffffffffffffffffffffff168173ffffffffffffffffffffffffffffffffffffffff160361012f575f6040517f1e4fbdf700000000000000000000000000000000000000000000000000000000815260040161012691906105e0565b60405180910390fd5b61013e8161017960201b60201c565b508073ffffffffffffffffffffffffffffffffffffffff1660808173ffffffffffffffffffffffffffffffffffffffff1681525050506105f9565b5f60065f9054906101000a900473ffffffffffffffffffffffffffffffffffffffff1690508160065f6101000a81548173ffffffffffffffffffffffffffffffffffffffff021916908373ffffffffffffffffffffffffffffffffffffffff1602179055508173ffffffffffffffffffffffffffffffffffffffff168173ffffffffffffffffffffffffffffffffffffffff167f8be0079c531659141344cd1fd0a4f28419497f9722a3daafe3b4186f6b6457e060405160405180910390a35050565b5f5ffd5b5f73ffffffffffffffffffffffffffffffffffffffff82169050919050565b5f61026982610240565b9050919050565b6102798161025f565b8114610283575f5ffd5b50565b5f8151905061029481610270565b92915050565b5f602082840312156102af576102ae61023c565b5b5f6102bc84828501610286565b91505092915050565b5f81519050919050565b7f4e487b71000000000000000000000000000000000000000000000000000000005f52604160045260245ffd5b7f4e487b71000000000000000000000000000000000000000000000000000000005f52602260045260245ffd5b5f600282049050600182168061034057607f821691505b602082108103610353576103526102fc565b5b50919050565b5f819050815f5260205f209050919050565b5f6020601f8301049050919050565b5f82821b905092915050565b5f600883026103b57fffffffffffffffffffffffffffffffffffffffffffffffffffffffffffffffff8261037a565b6103bf868361037a565b95508019841693508086168417925050509392505050565b5f819050919050565b5f819050919050565b5f6104036103fe6103f9846103d7565b6103e0565b6103d7565b9050919050565b5f819050919050565b61041c836103e9565b6104306104288261040a565b848454610386565b825550505050565b5f5f905090565b610447610438565b610452818484610413565b505050565b5b818110156104755761046a5f8261043f565b600181019050610458565b5050565b601f8211156104ba5761048b81610359565b6104948461036b565b810160208510156104a3578190505b6104b76104af8561036b565b830182610457565b50505b505050565b5f82821c905092915050565b5f6104da5f19846008026104bf565b1980831691505092915050565b5f6104f283836104cb565b9150826002028217905092915050565b61050b826102c5565b67ffffffffffffffff811115610524576105236102cf565b5b61052e8254610329565b610539828285610479565b5f60209050601f83116001811461056a575f8415610558578287015190505b61056285826104e7565b8655506105c9565b601f19841661057886610359565b5f5b8281101561059f5784890151825560018201915060208501945060208101905061057a565b868310156105bc57848901516105b8601f8916826104cb565b8355505b6001600288020188555050505b505050505050565b6105da8161025f565b82525050565b5f6020820190506105f35f8301846105d1565b92915050565b60805161304061061f5f395f81816109d001528181610dcb01526110eb01526130405ff3fe608060405234801561000f575f5ffd5b50600436106101c2575f3560e01c806388c156de116100f7578063c87b56dd11610095578063d1d58b251161006f578063d1d58b2514610515578063e985e9c514610545578063f0e4066214610575578063f2fde38b146105a5576101c2565b8063c87b56dd14610499578063ca1d209d146104c9578063cafeedf6146104e5576101c2565b8063a22cb465116100d1578063a22cb46514610415578063b88d4fde14610431578063bc160bf61461044d578063c6b84b0914610469576101c2565b806388c156de146103a95780638da5cb5b146103d957806395d89b41146103f7576101c2565b806324eeedf6116101645780636d3cbe211161013e5780636d3cbe211461030c57806370a082311461033f578063715018a61461036f5780637935510b14610379576101c2565b806324eeedf6146102a457806342842e0e146102c05780636352211e146102dc576101c2565b8063081812fc116101a0578063081812fc1461021e578063095ea7b31461024e57806323b872dd1461026a5780632495a59914610286576101c2565b806301ffc9a7146101c657806303e8b8ea146101f657806306fdde0314610200575b5f5ffd5b6101e060048036038101906101db91906123b9565b6105c1565b6040516101ed91906123fe565b60405180910390f35b6101fe6106a2565b005b61020861080f565b6040516102159190612487565b60405180910390f35b610238600480360381019061023391906124da565b61089e565b6040516102459190612544565b60405180910390f35b61026860048036038101906102639190612587565b6108b9565b005b610284600480360381019061027f91906125c5565b6108cf565b005b61028e6109ce565b60405161029b9190612670565b60405180910390f35b6102be60048036038101906102b99190612689565b6109f2565b005b6102da60048036038101906102d591906125c5565b610a7e565b005b6102f660048036038101906102f191906124da565b610a9d565b6040516103039190612544565b60405180910390f35b610326600480360381019061032191906124da565b610aae565b60405161033694939291906126e8565b60405180910390f35b6103596004803603810190610354919061272b565b610ada565b6040516103669190612756565b60405180910390f35b610377610b90565b005b610393600480360381019061038e91906124da565b610ba3565b6040516103a09190612756565b60405180910390f35b6103c360048036038101906103be919061272b565b610e72565b6040516103d091906123fe565b60405180910390f35b6103e1610e8f565b6040516103ee9190612544565b60405180910390f35b6103ff610eb7565b60405161040c9190612487565b60405180910390f35b61042f600480360381019061042a9190612799565b610f47565b005b61044b60048036038101906104469190612903565b610f5d565b005b61046760048036038101906104629190612983565b610f82565b005b610483600480360381019061047e91906124da565b61104b565b6040516104909190612544565b60405180910390f35b6104b360048036038101906104ae91906124da565b61107b565b6040516104c09190612487565b60405180910390f35b6104e360048036038101906104de91906124da565b6110e1565b005b6104ff60048036038101906104fa91906124da565b61118a565b60405161050c9190612756565b60405180910390f35b61052f600480360381019061052a91906124da565b611281565b60405161053c9190612756565b60405180910390f35b61055f600480360381019061055a91906129c1565b6112d1565b60405161056c91906123fe565b60405180910390f35b61058f600480360381019061058a91906124da565b61135f565b60405161059c9190612756565b60405180910390f35b6105bf60048036038101906105ba919061272b565b61137b565b005b5f7f80ac58cd000000000000000000000000000000000000000000000000000000007bffffffffffffffffffffffffffffffffffffffffffffffffffffffff1916827bffffffffffffffffffffffffffffffffffffffffffffffffffffffff1916148061068b57507f5b5e139f000000000000000000000000000000000000000000000000000000007bffffffffffffffffffffffffffffffffffffffffffffffffffffffff1916827bffffffffffffffffffffffffffffffffffffffffffffffffffffffff1916145b8061069b575061069a826113ff565b5b9050919050565b600a5f3373ffffffffffffffffffffffffffffffffffffffff1673ffffffffffffffffffffffffffffffffffffffff1681526020019081526020015f205f9054906101000a900460ff161561072c576040517f08c379a000000000000000000000000000000000000000000000000000000000815260040161072390612a49565b60405180910390fd5b6001600a5f3373ffffffffffffffffffffffffffffffffffffffff1673ffffffffffffffffffffffffffffffffffffffff1681526020019081526020015f205f6101000a81548160ff0219169083151502179055505f60075f81548092919061079490612a94565b9190505590506107a43382611468565b6040518060800160405280681b1ae4d6e2ef50000081526020014281526020016301e1338081526020015f81525060085f8381526020019081526020015f205f820151815f015560208201518160010155604082015181600201556060820151816003015590505050565b60605f805461081d90612b08565b80601f016020809104026020016040519081016040528092919081815260200182805461084990612b08565b80156108945780601f1061086b57610100808354040283529160200191610894565b820191905f5260205f20905b81548152906001019060200180831161087757829003601f168201915b5050505050905090565b5f6108a882611485565b506108b28261150b565b9050919050565b6108cb82826108c6611544565b61154b565b5050565b5f73ffffffffffffffffffffffffffffffffffffffff168273ffffffffffffffffffffffffffffffffffffffff160361093f575f6040517f64a0ae920000000000000000000000000000000000000000000000000000000081526004016109369190612544565b60405180910390fd5b5f610952838361094d611544565b61155d565b90508373ffffffffffffffffffffffffffffffffffffffff168173ffffffffffffffffffffffffffffffffffffffff16146109c8578382826040517f64283d7b0000000000000000000000000000000000000000000000000000000081526004016109bf93929190612b38565b60405180910390fd5b50505050565b7f000000000000000000000000000000000000000000000000000000000000000081565b6109fa611627565b5f60075f815480929190610a0d90612a94565b919050559050610a1d8482611468565b60405180608001604052808481526020014281526020018381526020015f81525060085f8381526020019081526020015f205f820151815f015560208201518160010155604082015181600201556060820151816003015590505050505050565b610a9883838360405180602001604052805f815250610f5d565b505050565b5f610aa782611485565b9050919050565b6008602052805f5260405f205f91509050805f0154908060010154908060020154908060030154905084565b5f5f73ffffffffffffffffffffffffffffffffffffffff168273ffffffffffffffffffffffffffffffffffffffff1603610b4b575f6040517f89c62b64000000000000000000000000000000000000000000000000000000008152600401610b429190612544565b60405180910390fd5b60035f8373ffffffffffffffffffffffffffffffffffffffff1673ffffffffffffffffffffffffffffffffffffffff1681526020019081526020015f20549050919050565b610b98611627565b610ba15f6116ae565b565b5f5f610bae83610a9d565b90505f60095f8581526020019081526020015f205f9054906101000a900473ffffffffffffffffffffffffffffffffffffffff1690508173ffffffffffffffffffffffffffffffffffffffff163373ffffffffffffffffffffffffffffffffffffffff161480610c5157503373ffffffffffffffffffffffffffffffffffffffff16610c398561089e565b73ffffffffffffffffffffffffffffffffffffffff16145b80610c625750610c6182336112d1565b5b80610c9857508073ffffffffffffffffffffffffffffffffffffffff163373ffffffffffffffffffffffffffffffffffffffff16145b610cd7576040517f08c379a0000000000000000000000000000000000000000000000000000000008152600401610cce90612bb7565b60405180910390fd5b5f60085f8681526020019081526020015f2090505f610cf586611281565b90505f8111610d39576040517f08c379a0000000000000000000000000000000000000000000000000000000008152600401610d3090612c1f565b60405180910390fd5b80826003015f828254610d4c9190612c3d565b925050819055505f8373ffffffffffffffffffffffffffffffffffffffff163373ffffffffffffffffffffffffffffffffffffffff16148015610dbb57505f73ffffffffffffffffffffffffffffffffffffffff168473ffffffffffffffffffffffffffffffffffffffff1614155b610dc55733610dc7565b835b90507f000000000000000000000000000000000000000000000000000000000000000073ffffffffffffffffffffffffffffffffffffffff1663a9059cbb82846040518363ffffffff1660e01b8152600401610e24929190612c70565b6020604051808303815f875af1158015610e40573d5f5f3e3d5ffd5b505050506040513d601f19601f82011682018060405250810190610e649190612cab565b508195505050505050919050565b600a602052805f5260405f205f915054906101000a900460ff1681565b5f60065f9054906101000a900473ffffffffffffffffffffffffffffffffffffffff16905090565b606060018054610ec690612b08565b80601f0160208091040260200160405190810160405280929190818152602001828054610ef290612b08565b8015610f3d5780601f10610f1457610100808354040283529160200191610f3d565b820191905f5260205f20905b815481529060010190602001808311610f2057829003601f168201915b5050505050905090565b610f59610f52611544565b8383611771565b5050565b610f688484846108cf565b610f7c610f73611544565b858585856118da565b50505050565b3373ffffffffffffffffffffffffffffffffffffffff16610fa283610a9d565b73ffffffffffffffffffffffffffffffffffffffff1614610ff8576040517f08c379a0000000000000000000000000000000000000000000000000000000008152600401610fef90612d20565b60405180910390fd5b8060095f8481526020019081526020015f205f6101000a81548173ffffffffffffffffffffffffffffffffffffffff021916908373ffffffffffffffffffffffffffffffffffffffff1602179055505050565b6009602052805f5260405f205f915054906101000a900473ffffffffffffffffffffffffffffffffffffffff1681565b606061108682611485565b505f611090611a86565b90505f8151116110ae5760405180602001604052805f8152506110d9565b806110b884611a9c565b6040516020016110c9929190612d78565b6040516020818303038152906040525b915050919050565b6110e9611627565b7f000000000000000000000000000000000000000000000000000000000000000073ffffffffffffffffffffffffffffffffffffffff166323b872dd3330846040518463ffffffff1660e01b815260040161114693929190612d9b565b6020604051808303815f875af1158015611162573d5f5f3e3d5ffd5b505050506040513d601f19601f820116820180604052508101906111869190612cab565b5050565b5f5f60085f8481526020019081526020015f20905080600101544210156111cf5760646019825f01546111bd9190612dd0565b6111c79190612e3e565b91505061127c565b5f8160010154426111e09190612e6e565b90505f60646019845f01546111f59190612dd0565b6111ff9190612e3e565b90505f83600201548310611230576064604b855f015461121f9190612dd0565b6112299190612e3e565b9050611269565b836002015460646112419190612dd0565b83604b865f01546112529190612dd0565b61125c9190612dd0565b6112669190612e3e565b90505b80826112759190612c3d565b9450505050505b919050565b5f5f60085f8481526020019081526020015f2090505f6112a08461118a565b9050816003015481116112b7575f925050506112cc565b8160030154816112c79190612e6e565b925050505b919050565b5f60055f8473ffffffffffffffffffffffffffffffffffffffff1673ffffffffffffffffffffffffffffffffffffffff1681526020019081526020015f205f8373ffffffffffffffffffffffffffffffffffffffff1673ffffffffffffffffffffffffffffffffffffffff1681526020019081526020015f205f9054906101000a900460ff16905092915050565b5f60085f8381526020019081526020015f205f01549050919050565b611383611627565b5f73ffffffffffffffffffffffffffffffffffffffff168173ffffffffffffffffffffffffffffffffffffffff16036113f3575f6040517f1e4fbdf70000000000000000000000000000000000000000000000000000000081526004016113ea9190612544565b60405180910390fd5b6113fc816116ae565b50565b5f7f01ffc9a7000000000000000000000000000000000000000000000000000000007bffffffffffffffffffffffffffffffffffffffffffffffffffffffff1916827bffffffffffffffffffffffffffffffffffffffffffffffffffffffff1916149050919050565b611481828260405180602001604052805f815250611b66565b5050565b5f5f61149083611b89565b90505f73ffffffffffffffffffffffffffffffffffffffff168173ffffffffffffffffffffffffffffffffffffffff160361150257826040517f7e2732890000000000000000000000000000000000000000000000000000000081526004016114f99190612756565b60405180910390fd5b80915050919050565b5f60045f8381526020019081526020015f205f9054906101000a900473ffffffffffffffffffffffffffffffffffffffff169050919050565b5f33905090565b6115588383836001611bc2565b505050565b5f5f61156884611b89565b90505f73ffffffffffffffffffffffffffffffffffffffff168173ffffffffffffffffffffffffffffffffffffffff16141580156115d257505f73ffffffffffffffffffffffffffffffffffffffff168573ffffffffffffffffffffffffffffffffffffffff1614155b15611612576040517f08c379a000000000000000000000000000000000000000000000000000000000815260040161160990612f11565b60405180910390fd5b61161d858585611d81565b9150509392505050565b61162f611544565b73ffffffffffffffffffffffffffffffffffffffff1661164d610e8f565b73ffffffffffffffffffffffffffffffffffffffff16146116ac57611670611544565b6040517f118cdaa70000000000000000000000000000000000000000000000000000000081526004016116a39190612544565b60405180910390fd5b565b5f60065f9054906101000a900473ffffffffffffffffffffffffffffffffffffffff1690508160065f6101000a81548173ffffffffffffffffffffffffffffffffffffffff021916908373ffffffffffffffffffffffffffffffffffffffff1602179055508173ffffffffffffffffffffffffffffffffffffffff168173ffffffffffffffffffffffffffffffffffffffff167f8be0079c531659141344cd1fd0a4f28419497f9722a3daafe3b4186f6b6457e060405160405180910390a35050565b5f73ffffffffffffffffffffffffffffffffffffffff168273ffffffffffffffffffffffffffffffffffffffff16036117e157816040517f5b08ba180000000000000000000000000000000000000000000000000000000081526004016117d89190612544565b60405180910390fd5b8060055f8573ffffffffffffffffffffffffffffffffffffffff1673ffffffffffffffffffffffffffffffffffffffff1681526020019081526020015f205f8473ffffffffffffffffffffffffffffffffffffffff1673ffffffffffffffffffffffffffffffffffffffff1681526020019081526020015f205f6101000a81548160ff0219169083151502179055508173ffffffffffffffffffffffffffffffffffffffff168373ffffffffffffffffffffffffffffffffffffffff167f17307eab39ab6107e8899845ad3d59bd9653f200f220920489ca2b5937696c31836040516118cd91906123fe565b60405180910390a3505050565b5f8373ffffffffffffffffffffffffffffffffffffffff163b1115611a7f578273ffffffffffffffffffffffffffffffffffffffff1663150b7a02868685856040518563ffffffff1660e01b81526004016119389493929190612f81565b6020604051808303815f875af192505050801561197357506040513d601f19601f820116820180604052508101906119709190612fdf565b60015b6119f4573d805f81146119a1576040519150601f19603f3d011682016040523d82523d5f602084013e6119a6565b606091505b505f8151036119ec57836040517f64a0ae920000000000000000000000000000000000000000000000000000000081526004016119e39190612544565b60405180910390fd5b805160208201fd5b63150b7a0260e01b7bffffffffffffffffffffffffffffffffffffffffffffffffffffffff1916817bffffffffffffffffffffffffffffffffffffffffffffffffffffffff191614611a7d57836040517f64a0ae92000000000000000000000000000000000000000000000000000000008152600401611a749190612544565b60405180910390fd5b505b5050505050565b606060405180602001604052805f815250905090565b60605f6001611aaa84611f8c565b0190505f8167ffffffffffffffff811115611ac857611ac76127df565b5b6040519080825280601f01601f191660200182016040528015611afa5781602001600182028036833780820191505090505b5090505f82602083010190505b600115611b5b578080600190039150507f3031323334353637383961626364656600000000000000000000000000000000600a86061a8153600a8581611b5057611b4f612e11565b5b0494505f8503611b07575b819350505050919050565b611b7083836120dd565b611b84611b7b611544565b5f8585856118da565b505050565b5f60025f8381526020019081526020015f205f9054906101000a900473ffffffffffffffffffffffffffffffffffffffff169050919050565b8080611bfa57505f73ffffffffffffffffffffffffffffffffffffffff168273ffffffffffffffffffffffffffffffffffffffff1614155b15611d2c575f611c0984611485565b90505f73ffffffffffffffffffffffffffffffffffffffff168373ffffffffffffffffffffffffffffffffffffffff1614158015611c7357508273ffffffffffffffffffffffffffffffffffffffff168173ffffffffffffffffffffffffffffffffffffffff1614155b8015611c865750611c8481846112d1565b155b15611cc857826040517fa9fbf51f000000000000000000000000000000000000000000000000000000008152600401611cbf9190612544565b60405180910390fd5b8115611d2a57838573ffffffffffffffffffffffffffffffffffffffff168273ffffffffffffffffffffffffffffffffffffffff167f8c5be1e5ebec7d5bd14f71427d1e84f3dd0314c0f7b2291e5b200ac8c7c3b92560405160405180910390a45b505b8360045f8581526020019081526020015f205f6101000a81548173ffffffffffffffffffffffffffffffffffffffff021916908373ffffffffffffffffffffffffffffffffffffffff16021790555050505050565b5f5f611d8c84611b89565b90505f73ffffffffffffffffffffffffffffffffffffffff168373ffffffffffffffffffffffffffffffffffffffff1614611dcd57611dcc8184866121d0565b5b5f73ffffffffffffffffffffffffffffffffffffffff168173ffffffffffffffffffffffffffffffffffffffff1614611e5857611e0c5f855f5f611bc2565b600160035f8373ffffffffffffffffffffffffffffffffffffffff1673ffffffffffffffffffffffffffffffffffffffff1681526020019081526020015f205f82825403925050819055505b5f73ffffffffffffffffffffffffffffffffffffffff168573ffffffffffffffffffffffffffffffffffffffff1614611ed757600160035f8773ffffffffffffffffffffffffffffffffffffffff1673ffffffffffffffffffffffffffffffffffffffff1681526020019081526020015f205f82825401925050819055505b8460025f8681526020019081526020015f205f6101000a81548173ffffffffffffffffffffffffffffffffffffffff021916908373ffffffffffffffffffffffffffffffffffffffff160217905550838573ffffffffffffffffffffffffffffffffffffffff168273ffffffffffffffffffffffffffffffffffffffff167fddf252ad1be2c89b69c2b068fc378daa952ba7f163c4a11628f55a4df523b3ef60405160405180910390a4809150509392505050565b5f5f5f90507a184f03e93ff9f4daa797ed6e38ed64bf6a1f0100000000000000008310611fe8577a184f03e93ff9f4daa797ed6e38ed64bf6a1f0100000000000000008381611fde57611fdd612e11565b5b0492506040810190505b6d04ee2d6d415b85acef81000000008310612025576d04ee2d6d415b85acef8100000000838161201b5761201a612e11565b5b0492506020810190505b662386f26fc10000831061205457662386f26fc10000838161204a57612049612e11565b5b0492506010810190505b6305f5e100831061207d576305f5e100838161207357612072612e11565b5b0492506008810190505b61271083106120a257612710838161209857612097612e11565b5b0492506004810190505b606483106120c557606483816120bb576120ba612e11565b5b0492506002810190505b600a83106120d4576001810190505b80915050919050565b5f73ffffffffffffffffffffffffffffffffffffffff168273ffffffffffffffffffffffffffffffffffffffff160361214d575f6040517f64a0ae920000000000000000000000000000000000000000000000000000000081526004016121449190612544565b60405180910390fd5b5f61215983835f61155d565b90505f73ffffffffffffffffffffffffffffffffffffffff168173ffffffffffffffffffffffffffffffffffffffff16146121cb575f6040517f73c6ac6e0000000000000000000000000000000000000000000000000000000081526004016121c29190612544565b60405180910390fd5b505050565b6121db838383612293565b61228e575f73ffffffffffffffffffffffffffffffffffffffff168373ffffffffffffffffffffffffffffffffffffffff160361224f57806040517f7e2732890000000000000000000000000000000000000000000000000000000081526004016122469190612756565b60405180910390fd5b81816040517f177e802f000000000000000000000000000000000000000000000000000000008152600401612285929190612c70565b60405180910390fd5b505050565b5f5f73ffffffffffffffffffffffffffffffffffffffff168373ffffffffffffffffffffffffffffffffffffffff161415801561234a57508273ffffffffffffffffffffffffffffffffffffffff168473ffffffffffffffffffffffffffffffffffffffff16148061230b575061230a84846112d1565b5b8061234957508273ffffffffffffffffffffffffffffffffffffffff166123318361150b565b73ffffffffffffffffffffffffffffffffffffffff16145b5b90509392505050565b5f604051905090565b5f5ffd5b5f5ffd5b5f7fffffffff0000000000000000000000000000000000000000000000000000000082169050919050565b61239881612364565b81146123a2575f5ffd5b50565b5f813590506123b38161238f565b92915050565b5f602082840312156123ce576123cd61235c565b5b5f6123db848285016123a5565b91505092915050565b5f8115159050919050565b6123f8816123e4565b82525050565b5f6020820190506124115f8301846123ef565b92915050565b5f81519050919050565b5f82825260208201905092915050565b8281835e5f83830152505050565b5f601f19601f8301169050919050565b5f61245982612417565b6124638185612421565b9350612473818560208601612431565b61247c8161243f565b840191505092915050565b5f6020820190508181035f83015261249f818461244f565b905092915050565b5f819050919050565b6124b9816124a7565b81146124c3575f5ffd5b50565b5f813590506124d4816124b0565b92915050565b5f602082840312156124ef576124ee61235c565b5b5f6124fc848285016124c6565b91505092915050565b5f73ffffffffffffffffffffffffffffffffffffffff82169050919050565b5f61252e82612505565b9050919050565b61253e81612524565b82525050565b5f6020820190506125575f830184612535565b92915050565b61256681612524565b8114612570575f5ffd5b50565b5f813590506125818161255d565b92915050565b5f5f6040838503121561259d5761259c61235c565b5b5f6125aa85828601612573565b92505060206125bb858286016124c6565b9150509250929050565b5f5f5f606084860312156125dc576125db61235c565b5b5f6125e986828701612573565b93505060206125fa86828701612573565b925050604061260b868287016124c6565b9150509250925092565b5f819050919050565b5f61263861263361262e84612505565b612615565b612505565b9050919050565b5f6126498261261e565b9050919050565b5f61265a8261263f565b9050919050565b61266a81612650565b82525050565b5f6020820190506126835f830184612661565b92915050565b5f5f5f606084860312156126a05761269f61235c565b5b5f6126ad86828701612573565b93505060206126be868287016124c6565b92505060406126cf868287016124c6565b9150509250925092565b6126e2816124a7565b82525050565b5f6080820190506126fb5f8301876126d9565b61270860208301866126d9565b61271560408301856126d9565b61272260608301846126d9565b95945050505050565b5f602082840312156127405761273f61235c565b5b5f61274d84828501612573565b91505092915050565b5f6020820190506127695f8301846126d9565b92915050565b612778816123e4565b8114612782575f5ffd5b50565b5f813590506127938161276f565b92915050565b5f5f604083850312156127af576127ae61235c565b5b5f6127bc85828601612573565b92505060206127cd85828601612785565b9150509250929050565b5f5ffd5b5f5ffd5b7f4e487b71000000000000000000000000000000000000000000000000000000005f52604160045260245ffd5b6128158261243f565b810181811067ffffffffffffffff82111715612834576128336127df565b5b80604052505050565b5f612846612353565b9050612852828261280c565b919050565b5f67ffffffffffffffff821115612871576128706127df565b5b61287a8261243f565b9050602081019050919050565b828183375f83830152505050565b5f6128a76128a284612857565b61283d565b9050828152602081018484840111156128c3576128c26127db565b5b6128ce848285612887565b509392505050565b5f82601f8301126128ea576128e96127d7565b5b81356128fa848260208601612895565b91505092915050565b5f5f5f5f6080858703121561291b5761291a61235c565b5b5f61292887828801612573565b945050602061293987828801612573565b935050604061294a878288016124c6565b925050606085013567ffffffffffffffff81111561296b5761296a612360565b5b612977878288016128d6565b91505092959194509250565b5f5f604083850312156129995761299861235c565b5b5f6129a6858286016124c6565b92505060206129b785828601612573565b9150509250929050565b5f5f604083850312156129d7576129d661235c565b5b5f6129e485828601612573565b92505060206129f585828601612573565b9150509250929050565b7f416c7265616479206d696e7465642064656d6f204e46540000000000000000005f82015250565b5f612a33601783612421565b9150612a3e826129ff565b602082019050919050565b5f6020820190508181035f830152612a6081612a27565b9050919050565b7f4e487b71000000000000000000000000000000000000000000000000000000005f52601160045260245ffd5b5f612a9e826124a7565b91507fffffffffffffffffffffffffffffffffffffffffffffffffffffffffffffffff8203612ad057612acf612a67565b5b600182019050919050565b7f4e487b71000000000000000000000000000000000000000000000000000000005f52602260045260245ffd5b5f6002820490506001821680612b1f57607f821691505b602082108103612b3257612b31612adb565b5b50919050565b5f606082019050612b4b5f830186612535565b612b5860208301856126d9565b612b656040830184612535565b949350505050565b7f4e6f7420617574686f72697a656420746f20636c61696d0000000000000000005f82015250565b5f612ba1601783612421565b9150612bac82612b6d565b602082019050919050565b5f6020820190508181035f830152612bce81612b95565b9050919050565b7f4e6f7468696e6720746f20636c61696d000000000000000000000000000000005f82015250565b5f612c09601083612421565b9150612c1482612bd5565b602082019050919050565b5f6020820190508181035f830152612c3681612bfd565b9050919050565b5f612c47826124a7565b9150612c52836124a7565b9250828201905080821115612c6a57612c69612a67565b5b92915050565b5f604082019050612c835f830185612535565b612c9060208301846126d9565b9392505050565b5f81519050612ca58161276f565b92915050565b5f60208284031215612cc057612cbf61235c565b5b5f612ccd84828501612c97565b91505092915050565b7f4f6e6c79206f776e65722063616e2064656c65676174650000000000000000005f82015250565b5f612d0a601783612421565b9150612d1582612cd6565b602082019050919050565b5f6020820190508181035f830152612d3781612cfe565b9050919050565b5f81905092915050565b5f612d5282612417565b612d5c8185612d3e565b9350612d6c818560208601612431565b80840191505092915050565b5f612d838285612d48565b9150612d8f8284612d48565b91508190509392505050565b5f606082019050612dae5f830186612535565b612dbb6020830185612535565b612dc860408301846126d9565b949350505050565b5f612dda826124a7565b9150612de5836124a7565b9250828202612df3816124a7565b91508282048414831517612e0a57612e09612a67565b5b5092915050565b7f4e487b71000000000000000000000000000000000000000000000000000000005f52601260045260245ffd5b5f612e48826124a7565b9150612e53836124a7565b925082612e6357612e62612e11565b5b828204905092915050565b5f612e78826124a7565b9150612e83836124a7565b9250828203905081811115612e9b57612e9a612a67565b5b92915050565b7f5472616e73666572732064697361626c65643a20736f756c626f756e64204e465f8201527f5400000000000000000000000000000000000000000000000000000000000000602082015250565b5f612efb602183612421565b9150612f0682612ea1565b604082019050919050565b5f6020820190508181035f830152612f2881612eef565b9050919050565b5f81519050919050565b5f82825260208201905092915050565b5f612f5382612f2f565b612f5d8185612f39565b9350612f6d818560208601612431565b612f768161243f565b840191505092915050565b5f608082019050612f945f830187612535565b612fa16020830186612535565b612fae60408301856126d9565b8181036060830152612fc08184612f49565b905095945050505050565b5f81519050612fd98161238f565b92915050565b5f60208284031215612ff457612ff361235c565b5b5f61300184828501612fcb565b9150509291505056fea26469706673582212207e6ab55a04a537026618f3aa2c8093b8a22a16acb0a7fa3c5a5d79a5678226ca64736f6c634300081c0033","linkReferences":{}},"methodIdentifiers":{"approve(address,uint256)":"095ea7b3","balanceOf(address)":"70a08231","claimDelegates(uint256)":"c6b84b09","claimVestedTokens(uint256)":"7935510b","claimable(uint256)":"d1d58b25","demoMint()":"03e8b8ea","fund(uint256)":"ca1d209d","getApproved(uint256)":"081812fc","getTotalAmount(uint256)":"f0e40662","getVestedAmount(uint256)":"cafeedf6","hasMintedDemo(address)":"88c156de","isApprovedForAll(address,address)":"e985e9c5","name()":"06fdde03","owner()":"8da5cb5b","ownerOf(uint256)":"6352211e","renounceOwnership()":"715018a6","safeMint(address,uint256,uint256)":"24eeedf6","safeTransferFrom(address,address,uint256)":"42842e0e","safeTransferFrom(address,address,uint256,bytes)":"b88d4fde","setApprovalForAll(address,bool)":"a22cb465","setClaimDelegate(uint256,address)":"bc160bf6","supportsInterface(bytes4)":"01ffc9a7","symbol()":"95d89b41","tokenURI(uint256)":"c87b56dd","transferFrom(address,address,uint256)":"23b872dd","transferOwnership(address)":"f2fde38b","underlyingToken()":"2495a599","vestingSchedules(uint256)":"6d3cbe21"},"id":47}