{"abi":[{"type":"constructor","inputs":[{"name":"_tS","type":"address","internalType":"address"}],"stateMutability":"nonpayable"},{"type":"function","name":"depositAndMint","inputs":[{"name":"tokenId","type":"uint256","internalType":"uint256"}],"outputs":[],"stateMutability":"nonpayable"},{"type":"function","name":"depositedBy","inputs":[{"name":"","type":"uint256","internalType":"uint256"}],"outputs":[{"name":"","type":"address","internalType":"address"}],"stateMutability":"view"},{"type":"function","name":"fNFT","inputs":[],"outputs":[{"name":"","type":"address","internalType":"contract ITestSonicDecayfNFT"}],"stateMutability":"view"},{"type":"function","name":"fundVault","inputs":[{"name":"amount","type":"uint256","internalType":"uint256"}],"outputs":[],"stateMutability":"nonpayable"},{"type":"function","name":"onERC721Received","inputs":[{"name":"","type":"address","internalType":"address"},{"name":"","type":"address","internalType":"address"},{"name":"","type":"uint256","internalType":"uint256"},{"name":"","type":"bytes","internalType":"bytes"}],"outputs":[{"name":"","type":"bytes4","internalType":"bytes4"}],"stateMutability":"pure"},{"type":"function","name":"owner","inputs":[],"outputs":[{"name":"","type":"address","internalType":"address"}],"stateMutability":"view"},{"type":"function","name":"redeem","inputs":[{"name":"tokenId","type":"uint256","internalType":"uint256"}],"outputs":[],"stateMutability":"nonpayable"},{"type":"function","name":"renounceOwnership","inputs":[],"outputs":[],"stateMutability":"nonpayable"},{"type":"function","name":"setFNFT","inputs":[{"name":"_fNFT","type":"address","internalType":"address"}],"outputs":[],"stateMutability":"nonpayable"},{"type":"function","name":"setVSToken","inputs":[{"name":"_vS","type":"address","internalType":"address"}],"outputs":[],"stateMutability":"nonpayable"},{"type":"function","name":"tS","inputs":[],"outputs":[{"name":"","type":"address","internalType":"contract IERC20"}],"stateMutability":"view"},{"type":"function","name":"transferOwnership","inputs":[{"name":"newOwner","type":"address","internalType":"address"}],"outputs":[],"stateMutability":"nonpayable"},{"type":"function","name":"vS","inputs":[],"outputs":[{"name":"","type":"address","internalType":"contract VSToken"}],"stateMutability":"view"},{"type":"event","name":"Deposited","inputs":[{"name":"user","type":"address","indexed":true,"internalType":"address"},{"name":"tokenId","type":"uint256","indexed":true,"internalType":"uint256"},{"name":"tvSMinted","type":"uint256","indexed":false,"internalType":"uint256"}],"anonymous":false},{"type":"event","name":"OwnershipTransferred","inputs":[{"name":"previousOwner","type":"address","indexed":true,"internalType":"address"},{"name":"newOwner","type":"address","indexed":true,"internalType":"address"}],"anonymous":false},{"type":"event","name":"Redeemed","inputs":[{"name":"user","type":"address","indexed":true,"internalType":"address"},{"name":"tokenId","type":"uint256","indexed":true,"internalType":"uint256"},{"name":"tSRedeemed","type":"uint256","indexed":false,"internalType":"uint256"},{"name":"tvSBurned","type":"uint256","indexed":false,"internalType":"uint256"}],"anonymous":false},{"type":"error","name":"OwnableInvalidOwner","inputs":[{"name":"owner","type":"address","internalType":"address"}]},{"type":"error","name":"OwnableUnauthorizedAccount","inputs":[{"name":"account","type":"address","internalType":"address"}]}],"bytecode":{"object":"0x608060405234801561000f575f5ffd5b5060405161182538038061182583398181016040528101906100319190610217565b335f73ffffffffffffffffffffffffffffffffffffffff168173ffffffffffffffffffffffffffffffffffffffff16036100a2575f6040517f1e4fbdf70000000000000000000000000000000000000000000000000000000081526004016100999190610251565b60405180910390fd5b6100b1816100f860201b60201c565b508060015f6101000a81548173ffffffffffffffffffffffffffffffffffffffff021916908373ffffffffffffffffffffffffffffffffffffffff1602179055505061026a565b5f5f5f9054906101000a900473ffffffffffffffffffffffffffffffffffffffff169050815f5f6101000a81548173ffffffffffffffffffffffffffffffffffffffff021916908373ffffffffffffffffffffffffffffffffffffffff1602179055508173ffffffffffffffffffffffffffffffffffffffff168173ffffffffffffffffffffffffffffffffffffffff167f8be0079c531659141344cd1fd0a4f28419497f9722a3daafe3b4186f6b6457e060405160405180910390a35050565b5f5ffd5b5f73ffffffffffffffffffffffffffffffffffffffff82169050919050565b5f6101e6826101bd565b9050919050565b6101f6816101dc565b8114610200575f5ffd5b50565b5f81519050610211816101ed565b92915050565b5f6020828403121561022c5761022b6101b9565b5b5f61023984828501610203565b91505092915050565b61024b816101dc565b82525050565b5f6020820190506102645f830184610242565b92915050565b6115ae806102775f395ff3fe608060405234801561000f575f5ffd5b50600436106100cd575f3560e01c8063abe73ef51161008a578063d8da856011610064578063d8da8560146101e9578063db006a7514610207578063ead9abfe14610223578063f2fde38b1461023f576100cd565b8063abe73ef514610181578063b280c6cd1461019d578063c51eb769146101cd576100cd565b8063150b7a02146100d157806345fd0465146101015780635ef449fd1461011d578063715018a61461013b5780638da5cb5b14610145578063aa30c4b714610163575b5f5ffd5b6100eb60048036038101906100e69190610f16565b61025b565b6040516100f89190610fd4565b60405180910390f35b61011b60048036038101906101169190610fed565b61026f565b005b6101256105eb565b6040516101329190611073565b60405180910390f35b610143610610565b005b61014d610623565b60405161015a919061109b565b60405180910390f35b61016b61064a565b60405161017891906110d4565b60405180910390f35b61019b60048036038101906101969190610fed565b61066f565b005b6101b760048036038101906101b29190610fed565b610719565b6040516101c4919061109b565b60405180910390f35b6101e760048036038101906101e291906110ed565b610749565b005b6101f1610794565b6040516101fe9190611138565b60405180910390f35b610221600480360381019061021c9190610fed565b6107b9565b005b61023d600480360381019061023891906110ed565b610c02565b005b610259600480360381019061025491906110ed565b610c4d565b005b5f63150b7a0260e01b905095945050505050565b60025f9054906101000a900473ffffffffffffffffffffffffffffffffffffffff1673ffffffffffffffffffffffffffffffffffffffff166342842e0e3330846040518463ffffffff1660e01b81526004016102cd93929190611160565b5f604051808303815f87803b1580156102e4575f5ffd5b505af11580156102f6573d5f5f3e3d5ffd5b505050503360045f8381526020019081526020015f205f6101000a81548173ffffffffffffffffffffffffffffffffffffffff021916908373ffffffffffffffffffffffffffffffffffffffff1602179055505f5f5f5f60025f9054906101000a900473ffffffffffffffffffffffffffffffffffffffff1673ffffffffffffffffffffffffffffffffffffffff16636d3cbe21866040518263ffffffff1660e01b81526004016103a79190611195565b608060405180830381865afa1580156103c2573d5f5f3e3d5ffd5b505050506040513d601f19601f820116820180604052508101906103e691906111c2565b93509350935093505f8211610430576040517f08c379a000000000000000000000000000000000000000000000000000000000815260040161042790611280565b60405180910390fd5b5f83421161043e575f61044b565b834261044a91906112cb565b5b905082811115610459578290505b5f83828761046791906112fe565b610471919061136c565b90505f818761048091906112cb565b90505f838661048f91906112cb565b90505f5f87146104bd5786670de0b6b3a7640000836104ae91906112fe565b6104b8919061136c565b6104bf565b5f5b90505f670de0b6b3a764000082670de0b6b3a76400006104df91906112cb565b856104ea91906112fe565b6104f4919061136c565b90505f8186610503919061139c565b905060035f9054906101000a900473ffffffffffffffffffffffffffffffffffffffff1673ffffffffffffffffffffffffffffffffffffffff166340c10f1933836040518363ffffffff1660e01b81526004016105619291906113cf565b5f604051808303815f87803b158015610578575f5ffd5b505af115801561058a573d5f5f3e3d5ffd5b505050508b3373ffffffffffffffffffffffffffffffffffffffff167f73a19dd210f1a7f902193214c0ee91dd35ee5b4d920cba8d519eca65a7b488ca836040516105d59190611195565b60405180910390a3505050505050505050505050565b60025f9054906101000a900473ffffffffffffffffffffffffffffffffffffffff1681565b610618610cd1565b6106215f610d58565b565b5f5f5f9054906101000a900473ffffffffffffffffffffffffffffffffffffffff16905090565b60035f9054906101000a900473ffffffffffffffffffffffffffffffffffffffff1681565b610677610cd1565b60015f9054906101000a900473ffffffffffffffffffffffffffffffffffffffff1673ffffffffffffffffffffffffffffffffffffffff166323b872dd3330846040518463ffffffff1660e01b81526004016106d593929190611160565b6020604051808303815f875af11580156106f1573d5f5f3e3d5ffd5b505050506040513d601f19601f82011682018060405250810190610715919061142b565b5050565b6004602052805f5260405f205f915054906101000a900473ffffffffffffffffffffffffffffffffffffffff1681565b610751610cd1565b8060035f6101000a81548173ffffffffffffffffffffffffffffffffffffffff021916908373ffffffffffffffffffffffffffffffffffffffff16021790555050565b60015f9054906101000a900473ffffffffffffffffffffffffffffffffffffffff1681565b3373ffffffffffffffffffffffffffffffffffffffff1660045f8381526020019081526020015f205f9054906101000a900473ffffffffffffffffffffffffffffffffffffffff1673ffffffffffffffffffffffffffffffffffffffff1614610857576040517f08c379a000000000000000000000000000000000000000000000000000000000815260040161084e906114a0565b60405180910390fd5b5f5f60025f9054906101000a900473ffffffffffffffffffffffffffffffffffffffff1673ffffffffffffffffffffffffffffffffffffffff16636d3cbe21846040518263ffffffff1660e01b81526004016108b39190611195565b608060405180830381865afa1580156108ce573d5f5f3e3d5ffd5b505050506040513d601f19601f820116820180604052508101906108f291906111c2565b9350935050505f60025f9054906101000a900473ffffffffffffffffffffffffffffffffffffffff1673ffffffffffffffffffffffffffffffffffffffff1663d1d58b25856040518263ffffffff1660e01b81526004016109539190611195565b602060405180830381865afa15801561096e573d5f5f3e3d5ffd5b505050506040513d601f19601f8201168201806040525081019061099291906114be565b90508181116109d6576040517f08c379a00000000000000000000000000000000000000000000000000000000081526004016109cd90611533565b60405180910390fd5b5f82826109e391906112cb565b905060035f9054906101000a900473ffffffffffffffffffffffffffffffffffffffff1673ffffffffffffffffffffffffffffffffffffffff166323b872dd3330846040518463ffffffff1660e01b8152600401610a4393929190611160565b6020604051808303815f875af1158015610a5f573d5f5f3e3d5ffd5b505050506040513d601f19601f82011682018060405250810190610a83919061142b565b5060035f9054906101000a900473ffffffffffffffffffffffffffffffffffffffff1673ffffffffffffffffffffffffffffffffffffffff16639dc29fac30836040518363ffffffff1660e01b8152600401610ae09291906113cf565b5f604051808303815f87803b158015610af7575f5ffd5b505af1158015610b09573d5f5f3e3d5ffd5b5050505060015f9054906101000a900473ffffffffffffffffffffffffffffffffffffffff1673ffffffffffffffffffffffffffffffffffffffff1663a9059cbb33836040518363ffffffff1660e01b8152600401610b699291906113cf565b6020604051808303815f875af1158015610b85573d5f5f3e3d5ffd5b505050506040513d601f19601f82011682018060405250810190610ba9919061142b565b50843373ffffffffffffffffffffffffffffffffffffffff167f484c40561359f3e3b8be9101897f8680aa82fbe1df9fd9038e0dbc62840326468384604051610bf3929190611551565b60405180910390a35050505050565b610c0a610cd1565b8060025f6101000a81548173ffffffffffffffffffffffffffffffffffffffff021916908373ffffffffffffffffffffffffffffffffffffffff16021790555050565b610c55610cd1565b5f73ffffffffffffffffffffffffffffffffffffffff168173ffffffffffffffffffffffffffffffffffffffff1603610cc5575f6040517f1e4fbdf7000000000000000000000000000000000000000000000000000000008152600401610cbc919061109b565b60405180910390fd5b610cce81610d58565b50565b610cd9610e19565b73ffffffffffffffffffffffffffffffffffffffff16610cf7610623565b73ffffffffffffffffffffffffffffffffffffffff1614610d5657610d1a610e19565b6040517f118cdaa7000000000000000000000000000000000000000000000000000000008152600401610d4d919061109b565b60405180910390fd5b565b5f5f5f9054906101000a900473ffffffffffffffffffffffffffffffffffffffff169050815f5f6101000a81548173ffffffffffffffffffffffffffffffffffffffff021916908373ffffffffffffffffffffffffffffffffffffffff1602179055508173ffffffffffffffffffffffffffffffffffffffff168173ffffffffffffffffffffffffffffffffffffffff167f8be0079c531659141344cd1fd0a4f28419497f9722a3daafe3b4186f6b6457e060405160405180910390a35050565b5f33905090565b5f5ffd5b5f5ffd5b5f73ffffffffffffffffffffffffffffffffffffffff82169050919050565b5f610e5182610e28565b9050919050565b610e6181610e47565b8114610e6b575f5ffd5b50565b5f81359050610e7c81610e58565b92915050565b5f819050919050565b610e9481610e82565b8114610e9e575f5ffd5b50565b5f81359050610eaf81610e8b565b92915050565b5f5ffd5b5f5ffd5b5f5ffd5b5f5f83601f840112610ed657610ed5610eb5565b5b8235905067ffffffffffffffff811115610ef357610ef2610eb9565b5b602083019150836001820283011115610f0f57610f0e610ebd565b5b9250929050565b5f5f5f5f5f60808688031215610f2f57610f2e610e20565b5b5f610f3c88828901610e6e565b9550506020610f4d88828901610e6e565b9450506040610f5e88828901610ea1565b935050606086013567ffffffffffffffff811115610f7f57610f7e610e24565b5b610f8b88828901610ec1565b92509250509295509295909350565b5f7fffffffff0000000000000000000000000000000000000000000000000000000082169050919050565b610fce81610f9a565b82525050565b5f602082019050610fe75f830184610fc5565b92915050565b5f6020828403121561100257611001610e20565b5b5f61100f84828501610ea1565b91505092915050565b5f819050919050565b5f61103b61103661103184610e28565b611018565b610e28565b9050919050565b5f61104c82611021565b9050919050565b5f61105d82611042565b9050919050565b61106d81611053565b82525050565b5f6020820190506110865f830184611064565b92915050565b61109581610e47565b82525050565b5f6020820190506110ae5f83018461108c565b92915050565b5f6110be82611042565b9050919050565b6110ce816110b4565b82525050565b5f6020820190506110e75f8301846110c5565b92915050565b5f6020828403121561110257611101610e20565b5b5f61110f84828501610e6e565b91505092915050565b5f61112282611042565b9050919050565b61113281611118565b82525050565b5f60208201905061114b5f830184611129565b92915050565b61115a81610e82565b82525050565b5f6060820190506111735f83018661108c565b611180602083018561108c565b61118d6040830184611151565b949350505050565b5f6020820190506111a85f830184611151565b92915050565b5f815190506111bc81610e8b565b92915050565b5f5f5f5f608085870312156111da576111d9610e20565b5b5f6111e7878288016111ae565b94505060206111f8878288016111ae565b9350506040611209878288016111ae565b925050606061121a878288016111ae565b91505092959194509250565b5f82825260208201905092915050565b7f496e76616c69642076657374696e6700000000000000000000000000000000005f82015250565b5f61126a600f83611226565b915061127582611236565b602082019050919050565b5f6020820190508181035f8301526112978161125e565b9050919050565b7f4e487b71000000000000000000000000000000000000000000000000000000005f52601160045260245ffd5b5f6112d582610e82565b91506112e083610e82565b92508282039050818111156112f8576112f761129e565b5b92915050565b5f61130882610e82565b915061131383610e82565b925082820261132181610e82565b915082820484148315176113385761133761129e565b5b5092915050565b7f4e487b71000000000000000000000000000000000000000000000000000000005f52601260045260245ffd5b5f61137682610e82565b915061138183610e82565b9250826113915761139061133f565b5b828204905092915050565b5f6113a682610e82565b91506113b183610e82565b92508282019050808211156113c9576113c861129e565b5b92915050565b5f6040820190506113e25f83018561108c565b6113ef6020830184611151565b9392505050565b5f8115159050919050565b61140a816113f6565b8114611414575f5ffd5b50565b5f8151905061142581611401565b92915050565b5f602082840312156114405761143f610e20565b5b5f61144d84828501611417565b91505092915050565b7f4e6f74206465706f7369746f72000000000000000000000000000000000000005f82015250565b5f61148a600d83611226565b915061149582611456565b602082019050919050565b5f6020820190508181035f8301526114b78161147e565b9050919050565b5f602082840312156114d3576114d2610e20565b5b5f6114e0848285016111ae565b91505092915050565b7f4e6f7468696e6720746f2072656465656d0000000000000000000000000000005f82015250565b5f61151d601183611226565b9150611528826114e9565b602082019050919050565b5f6020820190508181035f83015261154a81611511565b9050919050565b5f6040820190506115645f830185611151565b6115716020830184611151565b939250505056fea264697066735822122035d3646740a03fdad0f25946e9a1385bb935f161ae4d5b6c2722f4d172252f8764736f6c634300081c0033","linkReferences":{}},"methodIdentifiers":{"depositAndMint(uint256)":"45fd0465","depositedBy(uint256)":"b280c6cd","fNFT()":"5ef449fd","fundVault(uint256)":"abe73ef5","onERC721Received(address,address,uint256,bytes)":"150b7a02","owner()":"8da5cb5b","redeem(uint256)":"db006a75","renounceOwnership()":"715018a6","setFNFT(address)":"ead9abfe","setVSToken(address)":"c51eb769","tS()":"d8da8560","transferOwnership(address)":"f2fde38b","vS()":"aa30c4b7"},"id":50}