{"abi":[{"type":"constructor","inputs":[{"name":"_sToken","type":"address","internalType":"contract IERC20"},{"name":"_fNFT","type":"address","internalType":"address"}],"stateMutability":"nonpayable"},{"type":"function","name":"allowance","inputs":[{"name":"owner","type":"address","internalType":"address"},{"name":"spender","type":"address","internalType":"address"}],"outputs":[{"name":"","type":"uint256","internalType":"uint256"}],"stateMutability":"view"},{"type":"function","name":"approve","inputs":[{"name":"spender","type":"address","internalType":"address"},{"name":"value","type":"uint256","internalType":"uint256"}],"outputs":[{"name":"","type":"bool","internalType":"bool"}],"stateMutability":"nonpayable"},{"type":"function","name":"asset","inputs":[],"outputs":[{"name":"","type":"address","internalType":"address"}],"stateMutability":"view"},{"type":"function","name":"balanceOf","inputs":[{"name":"account","type":"address","internalType":"address"}],"outputs":[{"name":"","type":"uint256","internalType":"uint256"}],"stateMutability":"view"},{"type":"function","name":"convertToAssets","inputs":[{"name":"shares","type":"uint256","internalType":"uint256"}],"outputs":[{"name":"","type":"uint256","internalType":"uint256"}],"stateMutability":"view"},{"type":"function","name":"convertToShares","inputs":[{"name":"assets","type":"uint256","internalType":"uint256"}],"outputs":[{"name":"","type":"uint256","internalType":"uint256"}],"stateMutability":"view"},{"type":"function","name":"decimals","inputs":[],"outputs":[{"name":"","type":"uint8","internalType":"uint8"}],"stateMutability":"view"},{"type":"function","name":"deposit","inputs":[{"name":"assets","type":"uint256","internalType":"uint256"},{"name":"receiver","type":"address","internalType":"address"}],"outputs":[{"name":"","type":"uint256","internalType":"uint256"}],"stateMutability":"nonpayable"},{"type":"function","name":"depositNFT","inputs":[{"name":"nftId","type":"uint256","internalType":"uint256"}],"outputs":[],"stateMutability":"nonpayable"},{"type":"function","name":"fNFT","inputs":[],"outputs":[{"name":"","type":"address","internalType":"address"}],"stateMutability":"view"},{"type":"function","name":"maxDeposit","inputs":[{"name":"","type":"address","internalType":"address"}],"outputs":[{"name":"","type":"uint256","internalType":"uint256"}],"stateMutability":"view"},{"type":"function","name":"maxMint","inputs":[{"name":"","type":"address","internalType":"address"}],"outputs":[{"name":"","type":"uint256","internalType":"uint256"}],"stateMutability":"view"},{"type":"function","name":"maxRedeem","inputs":[{"name":"owner","type":"address","internalType":"address"}],"outputs":[{"name":"","type":"uint256","internalType":"uint256"}],"stateMutability":"view"},{"type":"function","name":"maxWithdraw","inputs":[{"name":"owner","type":"address","internalType":"address"}],"outputs":[{"name":"","type":"uint256","internalType":"uint256"}],"stateMutability":"view"},{"type":"function","name":"mint","inputs":[{"name":"shares","type":"uint256","internalType":"uint256"},{"name":"receiver","type":"address","internalType":"address"}],"outputs":[{"name":"","type":"uint256","internalType":"uint256"}],"stateMutability":"nonpayable"},{"type":"function","name":"name","inputs":[],"outputs":[{"name":"","type":"string","internalType":"string"}],"stateMutability":"view"},{"type":"function","name":"nftOriginalOwner","inputs":[{"name":"","type":"uint256","internalType":"uint256"}],"outputs":[{"name":"","type":"address","internalType":"address"}],"stateMutability":"view"},{"type":"function","name":"onERC721Received","inputs":[{"name":"","type":"address","internalType":"address"},{"name":"","type":"address","internalType":"address"},{"name":"","type":"uint256","internalType":"uint256"},{"name":"","type":"bytes","internalType":"bytes"}],"outputs":[{"name":"","type":"bytes4","internalType":"bytes4"}],"stateMutability":"nonpayable"},{"type":"function","name":"owner","inputs":[],"outputs":[{"name":"","type":"address","internalType":"address"}],"stateMutability":"view"},{"type":"function","name":"previewDeposit","inputs":[{"name":"assets","type":"uint256","internalType":"uint256"}],"outputs":[{"name":"","type":"uint256","internalType":"uint256"}],"stateMutability":"view"},{"type":"function","name":"previewMint","inputs":[{"name":"shares","type":"uint256","internalType":"uint256"}],"outputs":[{"name":"","type":"uint256","internalType":"uint256"}],"stateMutability":"view"},{"type":"function","name":"previewRedeem","inputs":[{"name":"shares","type":"uint256","internalType":"uint256"}],"outputs":[{"name":"","type":"uint256","internalType":"uint256"}],"stateMutability":"view"},{"type":"function","name":"previewWithdraw","inputs":[{"name":"assets","type":"uint256","internalType":"uint256"}],"outputs":[{"name":"","type":"uint256","internalType":"uint256"}],"stateMutability":"view"},{"type":"function","name":"redeem","inputs":[{"name":"shares","type":"uint256","internalType":"uint256"},{"name":"receiver","type":"address","internalType":"address"},{"name":"owner","type":"address","internalType":"address"}],"outputs":[{"name":"","type":"uint256","internalType":"uint256"}],"stateMutability":"nonpayable"},{"type":"function","name":"renounceOwnership","inputs":[],"outputs":[],"stateMutability":"nonpayable"},{"type":"function","name":"symbol","inputs":[],"outputs":[{"name":"","type":"string","internalType":"string"}],"stateMutability":"view"},{"type":"function","name":"totalAssets","inputs":[],"outputs":[{"name":"","type":"uint256","internalType":"uint256"}],"stateMutability":"view"},{"type":"function","name":"totalSupply","inputs":[],"outputs":[{"name":"","type":"uint256","internalType":"uint256"}],"stateMutability":"view"},{"type":"function","name":"transfer","inputs":[{"name":"to","type":"address","internalType":"address"},{"name":"value","type":"uint256","internalType":"uint256"}],"outputs":[{"name":"","type":"bool","internalType":"bool"}],"stateMutability":"nonpayable"},{"type":"function","name":"transferFrom","inputs":[{"name":"from","type":"address","internalType":"address"},{"name":"to","type":"address","internalType":"address"},{"name":"value","type":"uint256","internalType":"uint256"}],"outputs":[{"name":"","type":"bool","internalType":"bool"}],"stateMutability":"nonpayable"},{"type":"function","name":"transferOwnership","inputs":[{"name":"newOwner","type":"address","internalType":"address"}],"outputs":[],"stateMutability":"nonpayable"},{"type":"function","name":"withdraw","inputs":[{"name":"assets","type":"uint256","internalType":"uint256"},{"name":"receiver","type":"address","internalType":"address"},{"name":"owner","type":"address","internalType":"address"}],"outputs":[{"name":"","type":"uint256","internalType":"uint256"}],"stateMutability":"nonpayable"},{"type":"function","name":"withdrawNFT","inputs":[{"name":"nftId","type":"uint256","internalType":"uint256"}],"outputs":[],"stateMutability":"nonpayable"},{"type":"event","name":"Approval","inputs":[{"name":"owner","type":"address","indexed":true,"internalType":"address"},{"name":"spender","type":"address","indexed":true,"internalType":"address"},{"name":"value","type":"uint256","indexed":false,"internalType":"uint256"}],"anonymous":false},{"type":"event","name":"Deposit","inputs":[{"name":"sender","type":"address","indexed":true,"internalType":"address"},{"name":"owner","type":"address","indexed":true,"internalType":"address"},{"name":"assets","type":"uint256","indexed":false,"internalType":"uint256"},{"name":"shares","type":"uint256","indexed":false,"internalType":"uint256"}],"anonymous":false},{"type":"event","name":"NFTDeposited","inputs":[{"name":"user","type":"address","indexed":true,"internalType":"address"},{"name":"nftId","type":"uint256","indexed":true,"internalType":"uint256"},{"name":"value","type":"uint256","indexed":false,"internalType":"uint256"}],"anonymous":false},{"type":"event","name":"NFTWithdrawn","inputs":[{"name":"user","type":"address","indexed":true,"internalType":"address"},{"name":"nftId","type":"uint256","indexed":true,"internalType":"uint256"},{"name":"value","type":"uint256","indexed":false,"internalType":"uint256"}],"anonymous":false},{"type":"event","name":"OwnershipTransferred","inputs":[{"name":"previousOwner","type":"address","indexed":true,"internalType":"address"},{"name":"newOwner","type":"address","indexed":true,"internalType":"address"}],"anonymous":false},{"type":"event","name":"Transfer","inputs":[{"name":"from","type":"address","indexed":true,"internalType":"address"},{"name":"to","type":"address","indexed":true,"internalType":"address"},{"name":"value","type":"uint256","indexed":false,"internalType":"uint256"}],"anonymous":false},{"type":"event","name":"Withdraw","inputs":[{"name":"sender","type":"address","indexed":true,"internalType":"address"},{"name":"receiver","type":"address","indexed":true,"internalType":"address"},{"name":"owner","type":"address","indexed":true,"internalType":"address"},{"name":"assets","type":"uint256","indexed":false,"internalType":"uint256"},{"name":"shares","type":"uint256","indexed":false,"internalType":"uint256"}],"anonymous":false},{"type":"error","name":"ERC20InsufficientAllowance","inputs":[{"name":"spender","type":"address","internalType":"address"},{"name":"allowance","type":"uint256","internalType":"uint256"},{"name":"needed","type":"uint256","internalType":"uint256"}]},{"type":"error","name":"ERC20InsufficientBalance","inputs":[{"name":"sender","type":"address","internalType":"address"},{"name":"balance","type":"uint256","internalType":"uint256"},{"name":"needed","type":"uint256","internalType":"uint256"}]},{"type":"error","name":"ERC20InvalidApprover","inputs":[{"name":"approver","type":"address","internalType":"address"}]},{"type":"error","name":"ERC20InvalidReceiver","inputs":[{"name":"receiver","type":"address","internalType":"address"}]},{"type":"error","name":"ERC20InvalidSender","inputs":[{"name":"sender","type":"address","internalType":"address"}]},{"type":"error","name":"ERC20InvalidSpender","inputs":[{"name":"spender","type":"address","internalType":"address"}]},{"type":"error","name":"ERC4626ExceededMaxDeposit","inputs":[{"name":"receiver","type":"address","internalType":"address"},{"name":"assets","type":"uint256","internalType":"uint256"},{"name":"max","type":"uint256","internalType":"uint256"}]},{"type":"error","name":"ERC4626ExceededMaxMint","inputs":[{"name":"receiver","type":"address","internalType":"address"},{"name":"shares","type":"uint256","internalType":"uint256"},{"name":"max","type":"uint256","internalType":"uint256"}]},{"type":"error","name":"ERC4626ExceededMaxRedeem","inputs":[{"name":"owner","type":"address","internalType":"address"},{"name":"shares","type":"uint256","internalType":"uint256"},{"name":"max","type":"uint256","internalType":"uint256"}]},{"type":"error","name":"ERC4626ExceededMaxWithdraw","inputs":[{"name":"owner","type":"address","internalType":"address"},{"name":"assets","type":"uint256","internalType":"uint256"},{"name":"max","type":"uint256","internalType":"uint256"}]},{"type":"error","name":"NotNFTOwner","inputs":[]},{"type":"error","name":"OwnableInvalidOwner","inputs":[{"name":"owner","type":"address","internalType":"address"}]},{"type":"error","name":"OwnableUnauthorizedAccount","inputs":[{"name":"account","type":"address","internalType":"address"}]},{"type":"error","name":"SafeERC20FailedOperation","inputs":[{"name":"token","type":"address","internalType":"address"}]}],"bytecode":{"object":"0x60e060405234801561000f575f5ffd5b5060405161324438038061324483398181016040528101906100319190610448565b33826040518060400160405280601181526020017f5661756c7420536861726520546f6b656e0000000000000000000000000000008152506040518060400160405280600281526020017f765300000000000000000000000000000000000000000000000000000000000081525081600390816100ae91906106c3565b5080600490816100be91906106c3565b5050505f5f6100d2836101e360201b60201c565b91509150816100e25760126100e4565b805b60ff1660a08160ff16815250508273ffffffffffffffffffffffffffffffffffffffff1660808173ffffffffffffffffffffffffffffffffffffffff16815250505050505f73ffffffffffffffffffffffffffffffffffffffff168173ffffffffffffffffffffffffffffffffffffffff1603610198575f6040517f1e4fbdf700000000000000000000000000000000000000000000000000000000815260040161018f91906107a1565b60405180910390fd5b6101a7816102ec60201b60201c565b508073ffffffffffffffffffffffffffffffffffffffff1660c08173ffffffffffffffffffffffffffffffffffffffff16815250505050610877565b5f5f5f5f8473ffffffffffffffffffffffffffffffffffffffff1660405160240160405160208183030381529060405263313ce56760e01b6020820180517bffffffffffffffffffffffffffffffffffffffffffffffffffffffff8381831617835250505050604051610256919061080c565b5f60405180830381855afa9150503d805f811461028e576040519150601f19603f3d011682016040523d82523d5f602084013e610293565b606091505b50915091508180156102a757506020815110155b156102de575f818060200190518101906102c1919061084c565b905060ff801681116102dc57600181945094505050506102e7565b505b5f5f9350935050505b915091565b5f60055f9054906101000a900473ffffffffffffffffffffffffffffffffffffffff1690508160055f6101000a81548173ffffffffffffffffffffffffffffffffffffffff021916908373ffffffffffffffffffffffffffffffffffffffff1602179055508173ffffffffffffffffffffffffffffffffffffffff168173ffffffffffffffffffffffffffffffffffffffff167f8be0079c531659141344cd1fd0a4f28419497f9722a3daafe3b4186f6b6457e060405160405180910390a35050565b5f5ffd5b5f73ffffffffffffffffffffffffffffffffffffffff82169050919050565b5f6103dc826103b3565b9050919050565b5f6103ed826103d2565b9050919050565b6103fd816103e3565b8114610407575f5ffd5b50565b5f81519050610418816103f4565b92915050565b610427816103d2565b8114610431575f5ffd5b50565b5f815190506104428161041e565b92915050565b5f5f6040838503121561045e5761045d6103af565b5b5f61046b8582860161040a565b925050602061047c85828601610434565b9150509250929050565b5f81519050919050565b7f4e487b71000000000000000000000000000000000000000000000000000000005f52604160045260245ffd5b7f4e487b71000000000000000000000000000000000000000000000000000000005f52602260045260245ffd5b5f600282049050600182168061050157607f821691505b602082108103610514576105136104bd565b5b50919050565b5f819050815f5260205f209050919050565b5f6020601f8301049050919050565b5f82821b905092915050565b5f600883026105767fffffffffffffffffffffffffffffffffffffffffffffffffffffffffffffffff8261053b565b610580868361053b565b95508019841693508086168417925050509392505050565b5f819050919050565b5f819050919050565b5f6105c46105bf6105ba84610598565b6105a1565b610598565b9050919050565b5f819050919050565b6105dd836105aa565b6105f16105e9826105cb565b848454610547565b825550505050565b5f5f905090565b6106086105f9565b6106138184846105d4565b505050565b5b818110156106365761062b5f82610600565b600181019050610619565b5050565b601f82111561067b5761064c8161051a565b6106558461052c565b81016020851015610664578190505b6106786106708561052c565b830182610618565b50505b505050565b5f82821c905092915050565b5f61069b5f1984600802610680565b1980831691505092915050565b5f6106b3838361068c565b9150826002028217905092915050565b6106cc82610486565b67ffffffffffffffff8111156106e5576106e4610490565b5b6106ef82546104ea565b6106fa82828561063a565b5f60209050601f83116001811461072b575f8415610719578287015190505b61072385826106a8565b86555061078a565b601f1984166107398661051a565b5f5b828110156107605784890151825560018201915060208501945060208101905061073b565b8683101561077d5784890151610779601f89168261068c565b8355505b6001600288020188555050505b505050505050565b61079b816103d2565b82525050565b5f6020820190506107b45f830184610792565b92915050565b5f81519050919050565b5f81905092915050565b8281835e5f83830152505050565b5f6107e6826107ba565b6107f081856107c4565b93506108008185602086016107ce565b80840191505092915050565b5f61081782846107dc565b915081905092915050565b61082b81610598565b8114610835575f5ffd5b50565b5f8151905061084681610822565b92915050565b5f60208284031215610861576108606103af565b5b5f61086e84828501610838565b91505092915050565b60805160a05160c0516129956108af5f395f81816108a001528181610b3901526110ab01525f610aa701525f610ad801526129955ff3fe608060405234801561000f575f5ffd5b50600436106101f9575f3560e01c8063715018a611610118578063ba087652116100ab578063d905777e1161007a578063d905777e14610673578063dd62ed3e146106a3578063e91a7ca6146106d3578063ef8b30f7146106ef578063f2fde38b1461071f576101f9565b8063ba087652146105b3578063c63d75b6146105e3578063c6e6f59214610613578063ce96cb7714610643576101f9565b806395d89b41116100e757806395d89b4114610505578063a9059cbb14610523578063b3d7f6b914610553578063b460af9414610583576101f9565b8063715018a61461047d5780637a032634146104875780638da5cb5b146104b757806394bf804d146104d5576101f9565b806323b872dd116101905780634cdad5061161015f5780634cdad506146103cf5780635ef449fd146103ff5780636e553f651461041d57806370a082311461044d576101f9565b806323b872dd14610333578063313ce5671461036357806338d52e0f14610381578063402d267d1461039f576101f9565b8063095ea7b3116101cc578063095ea7b3146102855780630a28a477146102b5578063150b7a02146102e557806318160ddd14610315576101f9565b806301e1d114146101fd578063023245d71461021b57806306fdde031461023757806307a2d13a14610255575b5f5ffd5b61020561073b565b6040516102129190611f90565b60405180910390f35b61023560048036038101906102309190611fe4565b6107c0565b005b61023f61097b565b60405161024c919061207f565b60405180910390f35b61026f600480360381019061026a9190611fe4565b610a0b565b60405161027c9190611f90565b60405180910390f35b61029f600480360381019061029a91906120f9565b610a1d565b6040516102ac9190612151565b60405180910390f35b6102cf60048036038101906102ca9190611fe4565b610a3f565b6040516102dc9190611f90565b60405180910390f35b6102ff60048036038101906102fa9190612296565b610a52565b60405161030c9190612350565b60405180910390f35b61031d610a65565b60405161032a9190611f90565b60405180910390f35b61034d60048036038101906103489190612369565b610a6e565b60405161035a9190612151565b60405180910390f35b61036b610a9c565b60405161037891906123d4565b60405180910390f35b610389610ad5565b60405161039691906123fc565b60405180910390f35b6103b960048036038101906103b49190612415565b610afc565b6040516103c69190611f90565b60405180910390f35b6103e960048036038101906103e49190611fe4565b610b25565b6040516103f69190611f90565b60405180910390f35b610407610b37565b60405161041491906123fc565b60405180910390f35b61043760048036038101906104329190612440565b610b5b565b6040516104449190611f90565b60405180910390f35b61046760048036038101906104629190612415565b610bdb565b6040516104749190611f90565b60405180910390f35b610485610c20565b005b6104a1600480360381019061049c9190611fe4565b610c33565b6040516104ae91906123fc565b60405180910390f35b6104bf610c63565b6040516104cc91906123fc565b60405180910390f35b6104ef60048036038101906104ea9190612440565b610c8b565b6040516104fc9190611f90565b60405180910390f35b61050d610d0b565b60405161051a919061207f565b60405180910390f35b61053d600480360381019061053891906120f9565b610d9b565b60405161054a9190612151565b60405180910390f35b61056d60048036038101906105689190611fe4565b610dbd565b60405161057a9190611f90565b60405180910390f35b61059d6004803603810190610598919061247e565b610dd0565b6040516105aa9190611f90565b60405180910390f35b6105cd60048036038101906105c8919061247e565b610e52565b6040516105da9190611f90565b60405180910390f35b6105fd60048036038101906105f89190612415565b610ed4565b60405161060a9190611f90565b60405180910390f35b61062d60048036038101906106289190611fe4565b610efd565b60405161063a9190611f90565b60405180910390f35b61065d60048036038101906106589190612415565b610f0f565b60405161066a9190611f90565b60405180910390f35b61068d60048036038101906106889190612415565b610f29565b60405161069a9190611f90565b60405180910390f35b6106bd60048036038101906106b891906124ce565b610f3a565b6040516106ca9190611f90565b60405180910390f35b6106ed60048036038101906106e89190611fe4565b610fbc565b005b61070960048036038101906107049190611fe4565b61119c565b6040516107169190611f90565b60405180910390f35b61073960048036038101906107349190612415565b6111ae565b005b5f610744610ad5565b73ffffffffffffffffffffffffffffffffffffffff166370a08231306040518263ffffffff1660e01b815260040161077c91906123fc565b602060405180830381865afa158015610797573d5f5f3e3d5ffd5b505050506040513d601f19601f820116820180604052508101906107bb9190612520565b905090565b3373ffffffffffffffffffffffffffffffffffffffff1660065f8381526020019081526020015f205f9054906101000a900473ffffffffffffffffffffffffffffffffffffffff1673ffffffffffffffffffffffffffffffffffffffff1614610855576040517f4088c61c00000000000000000000000000000000000000000000000000000000815260040160405180910390fd5b5f61085f82611232565b905061086b3382611244565b60065f8381526020019081526020015f205f6101000a81549073ffffffffffffffffffffffffffffffffffffffff02191690557f000000000000000000000000000000000000000000000000000000000000000073ffffffffffffffffffffffffffffffffffffffff166342842e0e3033856040518463ffffffff1660e01b81526004016108fb9392919061254b565b5f604051808303815f87803b158015610912575f5ffd5b505af1158015610924573d5f5f3e3d5ffd5b50505050813373ffffffffffffffffffffffffffffffffffffffff167f8e52db99ce3ea11f5ce05e25a6d21952ef9c65a56f572b7b6039f3dc608808c88360405161096f9190611f90565b60405180910390a35050565b60606003805461098a906125ad565b80601f01602080910402602001604051908101604052809291908181526020018280546109b6906125ad565b8015610a015780601f106109d857610100808354040283529160200191610a01565b820191905f5260205f20905b8154815290600101906020018083116109e457829003601f168201915b5050505050905090565b5f610a16825f6112c3565b9050919050565b5f5f610a2761131b565b9050610a34818585611322565b600191505092915050565b5f610a4b826001611334565b9050919050565b5f63150b7a0260e01b9050949350505050565b5f600254905090565b5f5f610a7861131b565b9050610a8585828561138c565b610a9085858561141f565b60019150509392505050565b5f610aa561150f565b7f0000000000000000000000000000000000000000000000000000000000000000610ad0919061260a565b905090565b5f7f0000000000000000000000000000000000000000000000000000000000000000905090565b5f7fffffffffffffffffffffffffffffffffffffffffffffffffffffffffffffffff9050919050565b5f610b30825f6112c3565b9050919050565b7f000000000000000000000000000000000000000000000000000000000000000081565b5f5f610b6683610afc565b905080841115610bb1578284826040517f79012fb2000000000000000000000000000000000000000000000000000000008152600401610ba89392919061263e565b60405180910390fd5b5f610bbb8561119c565b9050610bd0610bc861131b565b858784611516565b809250505092915050565b5f5f5f8373ffffffffffffffffffffffffffffffffffffffff1673ffffffffffffffffffffffffffffffffffffffff1681526020019081526020015f20549050919050565b610c286115a0565b610c315f611627565b565b6006602052805f5260405f205f915054906101000a900473ffffffffffffffffffffffffffffffffffffffff1681565b5f60055f9054906101000a900473ffffffffffffffffffffffffffffffffffffffff16905090565b5f5f610c9683610ed4565b905080841115610ce1578284826040517f284ff667000000000000000000000000000000000000000000000000000000008152600401610cd89392919061263e565b60405180910390fd5b5f610ceb85610dbd565b9050610d00610cf861131b565b858388611516565b809250505092915050565b606060048054610d1a906125ad565b80601f0160208091040260200160405190810160405280929190818152602001828054610d46906125ad565b8015610d915780601f10610d6857610100808354040283529160200191610d91565b820191905f5260205f20905b815481529060010190602001808311610d7457829003601f168201915b5050505050905090565b5f5f610da561131b565b9050610db281858561141f565b600191505092915050565b5f610dc98260016112c3565b9050919050565b5f5f610ddb83610f0f565b905080851115610e26578285826040517ffe9cceec000000000000000000000000000000000000000000000000000000008152600401610e1d9392919061263e565b60405180910390fd5b5f610e3086610a3f565b9050610e46610e3d61131b565b868689856116ea565b80925050509392505050565b5f5f610e5d83610f29565b905080851115610ea8578285826040517fb94abeec000000000000000000000000000000000000000000000000000000008152600401610e9f9392919061263e565b60405180910390fd5b5f610eb286610b25565b9050610ec8610ebf61131b565b8686848a6116ea565b80925050509392505050565b5f7fffffffffffffffffffffffffffffffffffffffffffffffffffffffffffffffff9050919050565b5f610f08825f611334565b9050919050565b5f610f22610f1c83610bdb565b5f6112c3565b9050919050565b5f610f3382610bdb565b9050919050565b5f60015f8473ffffffffffffffffffffffffffffffffffffffff1673ffffffffffffffffffffffffffffffffffffffff1681526020019081526020015f205f8373ffffffffffffffffffffffffffffffffffffffff1673ffffffffffffffffffffffffffffffffffffffff1681526020019081526020015f2054905092915050565b5f73ffffffffffffffffffffffffffffffffffffffff1660065f8381526020019081526020015f205f9054906101000a900473ffffffffffffffffffffffffffffffffffffffff1673ffffffffffffffffffffffffffffffffffffffff161461105a576040517f08c379a0000000000000000000000000000000000000000000000000000000008152600401611051906126bd565b60405180910390fd5b3360065f8381526020019081526020015f205f6101000a81548173ffffffffffffffffffffffffffffffffffffffff021916908373ffffffffffffffffffffffffffffffffffffffff1602179055507f000000000000000000000000000000000000000000000000000000000000000073ffffffffffffffffffffffffffffffffffffffff166342842e0e3330846040518463ffffffff1660e01b81526004016111069392919061254b565b5f604051808303815f87803b15801561111d575f5ffd5b505af115801561112f573d5f5f3e3d5ffd5b505050505f61113d82611232565b905061114933826117ca565b813373ffffffffffffffffffffffffffffffffffffffff167fdeba2d4291edd2e29ef127ea6e31f12ebb9adc96b42605081927d379bdcb8bed836040516111909190611f90565b60405180910390a35050565b5f6111a7825f611334565b9050919050565b6111b66115a0565b5f73ffffffffffffffffffffffffffffffffffffffff168173ffffffffffffffffffffffffffffffffffffffff1603611226575f6040517f1e4fbdf700000000000000000000000000000000000000000000000000000000815260040161121d91906123fc565b60405180910390fd5b61122f81611627565b50565b5f68056bc75e2d631000009050919050565b5f73ffffffffffffffffffffffffffffffffffffffff168273ffffffffffffffffffffffffffffffffffffffff16036112b4575f6040517f96c6fd1e0000000000000000000000000000000000000000000000000000000081526004016112ab91906123fc565b60405180910390fd5b6112bf825f83611849565b5050565b5f61131360016112d161073b565b6112db91906126db565b6112e361150f565b600a6112ef919061283d565b6112f7610a65565b61130191906126db565b8486611a62909392919063ffffffff16565b905092915050565b5f33905090565b61132f8383836001611aaf565b505050565b5f61138461134061150f565b600a61134c919061283d565b611354610a65565b61135e91906126db565b600161136861073b565b61137291906126db565b8486611a62909392919063ffffffff16565b905092915050565b5f6113978484610f3a565b90507fffffffffffffffffffffffffffffffffffffffffffffffffffffffffffffffff811015611419578181101561140a578281836040517ffb8f41b20000000000000000000000000000000000000000000000000000000081526004016114019392919061263e565b60405180910390fd5b61141884848484035f611aaf565b5b50505050565b5f73ffffffffffffffffffffffffffffffffffffffff168373ffffffffffffffffffffffffffffffffffffffff160361148f575f6040517f96c6fd1e00000000000000000000000000000000000000000000000000000000815260040161148691906123fc565b60405180910390fd5b5f73ffffffffffffffffffffffffffffffffffffffff168273ffffffffffffffffffffffffffffffffffffffff16036114ff575f6040517fec442f050000000000000000000000000000000000000000000000000000000081526004016114f691906123fc565b60405180910390fd5b61150a838383611849565b505050565b5f5f905090565b611529611521610ad5565b853085611c7e565b61153383826117ca565b8273ffffffffffffffffffffffffffffffffffffffff168473ffffffffffffffffffffffffffffffffffffffff167fdcbc1c05240f31ff3ad067ef1ee35ce4997762752e3a095284754544f4c709d78484604051611592929190612887565b60405180910390a350505050565b6115a861131b565b73ffffffffffffffffffffffffffffffffffffffff166115c6610c63565b73ffffffffffffffffffffffffffffffffffffffff1614611625576115e961131b565b6040517f118cdaa700000000000000000000000000000000000000000000000000000000815260040161161c91906123fc565b60405180910390fd5b565b5f60055f9054906101000a900473ffffffffffffffffffffffffffffffffffffffff1690508160055f6101000a81548173ffffffffffffffffffffffffffffffffffffffff021916908373ffffffffffffffffffffffffffffffffffffffff1602179055508173ffffffffffffffffffffffffffffffffffffffff168173ffffffffffffffffffffffffffffffffffffffff167f8be0079c531659141344cd1fd0a4f28419497f9722a3daafe3b4186f6b6457e060405160405180910390a35050565b8273ffffffffffffffffffffffffffffffffffffffff168573ffffffffffffffffffffffffffffffffffffffff16146117295761172883868361138c565b5b6117338382611244565b61174561173e610ad5565b8584611d00565b8273ffffffffffffffffffffffffffffffffffffffff168473ffffffffffffffffffffffffffffffffffffffff168673ffffffffffffffffffffffffffffffffffffffff167ffbde797d201c681b91056529119e0b02407c7bb96a4a2c75c01fc9667232c8db85856040516117bb929190612887565b60405180910390a45050505050565b5f73ffffffffffffffffffffffffffffffffffffffff168273ffffffffffffffffffffffffffffffffffffffff160361183a575f6040517fec442f0500000000000000000000000000000000000000000000000000000000815260040161183191906123fc565b60405180910390fd5b6118455f8383611849565b5050565b5f73ffffffffffffffffffffffffffffffffffffffff168373ffffffffffffffffffffffffffffffffffffffff1603611899578060025f82825461188d91906126db565b92505081905550611967565b5f5f5f8573ffffffffffffffffffffffffffffffffffffffff1673ffffffffffffffffffffffffffffffffffffffff1681526020019081526020015f2054905081811015611922578381836040517fe450d38c0000000000000000000000000000000000000000000000000000000081526004016119199392919061263e565b60405180910390fd5b8181035f5f8673ffffffffffffffffffffffffffffffffffffffff1673ffffffffffffffffffffffffffffffffffffffff1681526020019081526020015f2081905550505b5f73ffffffffffffffffffffffffffffffffffffffff168273ffffffffffffffffffffffffffffffffffffffff16036119ae578060025f82825403925050819055506119f8565b805f5f8473ffffffffffffffffffffffffffffffffffffffff1673ffffffffffffffffffffffffffffffffffffffff1681526020019081526020015f205f82825401925050819055505b8173ffffffffffffffffffffffffffffffffffffffff168373ffffffffffffffffffffffffffffffffffffffff167fddf252ad1be2c89b69c2b068fc378daa952ba7f163c4a11628f55a4df523b3ef83604051611a559190611f90565b60405180910390a3505050565b5f611a90611a6f83611d7f565b8015611a8b57505f8480611a8657611a856128ae565b5b868809115b611dac565b611a9b868686611db7565b611aa591906126db565b9050949350505050565b5f73ffffffffffffffffffffffffffffffffffffffff168473ffffffffffffffffffffffffffffffffffffffff1603611b1f575f6040517fe602df05000000000000000000000000000000000000000000000000000000008152600401611b1691906123fc565b60405180910390fd5b5f73ffffffffffffffffffffffffffffffffffffffff168373ffffffffffffffffffffffffffffffffffffffff1603611b8f575f6040517f94280d62000000000000000000000000000000000000000000000000000000008152600401611b8691906123fc565b60405180910390fd5b8160015f8673ffffffffffffffffffffffffffffffffffffffff1673ffffffffffffffffffffffffffffffffffffffff1681526020019081526020015f205f8573ffffffffffffffffffffffffffffffffffffffff1673ffffffffffffffffffffffffffffffffffffffff1681526020019081526020015f20819055508015611c78578273ffffffffffffffffffffffffffffffffffffffff168473ffffffffffffffffffffffffffffffffffffffff167f8c5be1e5ebec7d5bd14f71427d1e84f3dd0314c0f7b2291e5b200ac8c7c3b92584604051611c6f9190611f90565b60405180910390a35b50505050565b611cfa848573ffffffffffffffffffffffffffffffffffffffff166323b872dd868686604051602401611cb39392919061254b565b604051602081830303815290604052915060e01b6020820180517bffffffffffffffffffffffffffffffffffffffffffffffffffffffff8381831617835250505050611e96565b50505050565b611d7a838473ffffffffffffffffffffffffffffffffffffffff1663a9059cbb8585604051602401611d339291906128db565b604051602081830303815290604052915060e01b6020820180517bffffffffffffffffffffffffffffffffffffffffffffffffffffffff8381831617835250505050611e96565b505050565b5f60016002836003811115611d9757611d96612902565b5b611da1919061292f565b60ff16149050919050565b5f8115159050919050565b5f5f5f611dc48686611f31565b915091505f8203611de957838181611ddf57611dde6128ae565b5b0492505050611e8f565b818411611e0857611e07611e025f861460126011611f4e565b611f67565b5b5f8486880990508181118303925080820391505f855f038616905080860495508083049250600181825f0304019050808402831792505f600287600302189050808702600203810290508087026002038102905080870260020381029050808702600203810290508087026002038102905080870260020381029050808402955050505050505b9392505050565b5f5f60205f8451602086015f885af180611eb5576040513d5f823e3d81fd5b3d92505f519150505f8214611ece576001811415611ee9565b5f8473ffffffffffffffffffffffffffffffffffffffff163b145b15611f2b57836040517f5274afe7000000000000000000000000000000000000000000000000000000008152600401611f2291906123fc565b60405180910390fd5b50505050565b5f5f5f198385098385029150818110828203039250509250929050565b5f611f5884611dac565b82841802821890509392505050565b634e487b715f52806020526024601cfd5b5f819050919050565b611f8a81611f78565b82525050565b5f602082019050611fa35f830184611f81565b92915050565b5f604051905090565b5f5ffd5b5f5ffd5b611fc381611f78565b8114611fcd575f5ffd5b50565b5f81359050611fde81611fba565b92915050565b5f60208284031215611ff957611ff8611fb2565b5b5f61200684828501611fd0565b91505092915050565b5f81519050919050565b5f82825260208201905092915050565b8281835e5f83830152505050565b5f601f19601f8301169050919050565b5f6120518261200f565b61205b8185612019565b935061206b818560208601612029565b61207481612037565b840191505092915050565b5f6020820190508181035f8301526120978184612047565b905092915050565b5f73ffffffffffffffffffffffffffffffffffffffff82169050919050565b5f6120c88261209f565b9050919050565b6120d8816120be565b81146120e2575f5ffd5b50565b5f813590506120f3816120cf565b92915050565b5f5f6040838503121561210f5761210e611fb2565b5b5f61211c858286016120e5565b925050602061212d85828601611fd0565b9150509250929050565b5f8115159050919050565b61214b81612137565b82525050565b5f6020820190506121645f830184612142565b92915050565b5f5ffd5b5f5ffd5b7f4e487b71000000000000000000000000000000000000000000000000000000005f52604160045260245ffd5b6121a882612037565b810181811067ffffffffffffffff821117156121c7576121c6612172565b5b80604052505050565b5f6121d9611fa9565b90506121e5828261219f565b919050565b5f67ffffffffffffffff82111561220457612203612172565b5b61220d82612037565b9050602081019050919050565b828183375f83830152505050565b5f61223a612235846121ea565b6121d0565b9050828152602081018484840111156122565761225561216e565b5b61226184828561221a565b509392505050565b5f82601f83011261227d5761227c61216a565b5b813561228d848260208601612228565b91505092915050565b5f5f5f5f608085870312156122ae576122ad611fb2565b5b5f6122bb878288016120e5565b94505060206122cc878288016120e5565b93505060406122dd87828801611fd0565b925050606085013567ffffffffffffffff8111156122fe576122fd611fb6565b5b61230a87828801612269565b91505092959194509250565b5f7fffffffff0000000000000000000000000000000000000000000000000000000082169050919050565b61234a81612316565b82525050565b5f6020820190506123635f830184612341565b92915050565b5f5f5f606084860312156123805761237f611fb2565b5b5f61238d868287016120e5565b935050602061239e868287016120e5565b92505060406123af86828701611fd0565b9150509250925092565b5f60ff82169050919050565b6123ce816123b9565b82525050565b5f6020820190506123e75f8301846123c5565b92915050565b6123f6816120be565b82525050565b5f60208201905061240f5f8301846123ed565b92915050565b5f6020828403121561242a57612429611fb2565b5b5f612437848285016120e5565b91505092915050565b5f5f6040838503121561245657612455611fb2565b5b5f61246385828601611fd0565b9250506020612474858286016120e5565b9150509250929050565b5f5f5f6060848603121561249557612494611fb2565b5b5f6124a286828701611fd0565b93505060206124b3868287016120e5565b92505060406124c4868287016120e5565b9150509250925092565b5f5f604083850312156124e4576124e3611fb2565b5b5f6124f1858286016120e5565b9250506020612502858286016120e5565b9150509250929050565b5f8151905061251a81611fba565b92915050565b5f6020828403121561253557612534611fb2565b5b5f6125428482850161250c565b91505092915050565b5f60608201905061255e5f8301866123ed565b61256b60208301856123ed565b6125786040830184611f81565b949350505050565b7f4e487b71000000000000000000000000000000000000000000000000000000005f52602260045260245ffd5b5f60028204905060018216806125c457607f821691505b6020821081036125d7576125d6612580565b5b50919050565b7f4e487b71000000000000000000000000000000000000000000000000000000005f52601160045260245ffd5b5f612614826123b9565b915061261f836123b9565b9250828201905060ff811115612638576126376125dd565b5b92915050565b5f6060820190506126515f8301866123ed565b61265e6020830185611f81565b61266b6040830184611f81565b949350505050565b7f4e465420616c7265616479206465706f736974656400000000000000000000005f82015250565b5f6126a7601583612019565b91506126b282612673565b602082019050919050565b5f6020820190508181035f8301526126d48161269b565b9050919050565b5f6126e582611f78565b91506126f083611f78565b9250828201905080821115612708576127076125dd565b5b92915050565b5f8160011c9050919050565b5f5f8291508390505b60018511156127635780860481111561273f5761273e6125dd565b5b600185161561274e5780820291505b808102905061275c8561270e565b9450612723565b94509492505050565b5f8261277b5760019050612836565b81612788575f9050612836565b816001811461279e57600281146127a8576127d7565b6001915050612836565b60ff8411156127ba576127b96125dd565b5b8360020a9150848211156127d1576127d06125dd565b5b50612836565b5060208310610133831016604e8410600b841016171561280c5782820a905083811115612807576128066125dd565b5b612836565b612819848484600161271a565b925090508184048111156128305761282f6125dd565b5b81810290505b9392505050565b5f61284782611f78565b9150612852836123b9565b925061287f7fffffffffffffffffffffffffffffffffffffffffffffffffffffffffffffffff848461276c565b905092915050565b5f60408201905061289a5f830185611f81565b6128a76020830184611f81565b9392505050565b7f4e487b71000000000000000000000000000000000000000000000000000000005f52601260045260245ffd5b5f6040820190506128ee5f8301856123ed565b6128fb6020830184611f81565b9392505050565b7f4e487b71000000000000000000000000000000000000000000000000000000005f52602160045260245ffd5b5f612939826123b9565b9150612944836123b9565b925082612954576129536128ae565b5b82820690509291505056fea2646970667358221220f3997717543cb44b6565422777329e471c8a766f02f17a6768047c3a0eef13f364736f6c634300081c0033","linkReferences":{}},"methodIdentifiers":{"allowance(address,address)":"dd62ed3e","approve(address,uint256)":"095ea7b3","asset()":"38d52e0f","balanceOf(address)":"70a08231","convertToAssets(uint256)":"07a2d13a","convertToShares(uint256)":"c6e6f592","decimals()":"313ce567","deposit(uint256,address)":"6e553f65","depositNFT(uint256)":"e91a7ca6","fNFT()":"5ef449fd","maxDeposit(address)":"402d267d","maxMint(address)":"c63d75b6","maxRedeem(address)":"d905777e","maxWithdraw(address)":"ce96cb77","mint(uint256,address)":"94bf804d","name()":"06fdde03","nftOriginalOwner(uint256)":"7a032634","onERC721Received(address,address,uint256,bytes)":"150b7a02","owner()":"8da5cb5b","previewDeposit(uint256)":"ef8b30f7","previewMint(uint256)":"b3d7f6b9","previewRedeem(uint256)":"4cdad506","previewWithdraw(uint256)":"0a28a477","redeem(uint256,address,address)":"ba087652","renounceOwnership()":"715018a6","symbol()":"95d89b41","totalAssets()":"01e1d114","totalSupply()":"18160ddd","transfer(address,uint256)":"a9059cbb","transferFrom(address,address,uint256)":"23b872dd","transferOwnership(address)":"f2fde38b","withdraw(uint256,address,address)":"b460af94","withdrawNFT(uint256)":"023245d7"},"id":44}