{"abi":[{"type":"constructor","inputs":[{"name":"_sToken","type":"address","internalType":"contract IERC20"},{"name":"_fNFT","type":"address","internalType":"address"}],"stateMutability":"nonpayable"},{"type":"function","name":"allowance","inputs":[{"name":"owner","type":"address","internalType":"address"},{"name":"spender","type":"address","internalType":"address"}],"outputs":[{"name":"","type":"uint256","internalType":"uint256"}],"stateMutability":"view"},{"type":"function","name":"approve","inputs":[{"name":"spender","type":"address","internalType":"address"},{"name":"value","type":"uint256","internalType":"uint256"}],"outputs":[{"name":"","type":"bool","internalType":"bool"}],"stateMutability":"nonpayable"},{"type":"function","name":"asset","inputs":[],"outputs":[{"name":"","type":"address","internalType":"address"}],"stateMutability":"view"},{"type":"function","name":"balanceOf","inputs":[{"name":"account","type":"address","internalType":"address"}],"outputs":[{"name":"","type":"uint256","internalType":"uint256"}],"stateMutability":"view"},{"type":"function","name":"convertToAssets","inputs":[{"name":"shares","type":"uint256","internalType":"uint256"}],"outputs":[{"name":"","type":"uint256","internalType":"uint256"}],"stateMutability":"view"},{"type":"function","name":"convertToShares","inputs":[{"name":"assets","type":"uint256","internalType":"uint256"}],"outputs":[{"name":"","type":"uint256","internalType":"uint256"}],"stateMutability":"view"},{"type":"function","name":"decimals","inputs":[],"outputs":[{"name":"","type":"uint8","internalType":"uint8"}],"stateMutability":"view"},{"type":"function","name":"deposit","inputs":[{"name":"assets","type":"uint256","internalType":"uint256"},{"name":"receiver","type":"address","internalType":"address"}],"outputs":[{"name":"","type":"uint256","internalType":"uint256"}],"stateMutability":"nonpayable"},{"type":"function","name":"depositNFT","inputs":[{"name":"nftId","type":"uint256","internalType":"uint256"}],"outputs":[],"stateMutability":"nonpayable"},{"type":"function","name":"fNFT","inputs":[],"outputs":[{"name":"","type":"address","internalType":"address"}],"stateMutability":"view"},{"type":"function","name":"maxDeposit","inputs":[{"name":"","type":"address","internalType":"address"}],"outputs":[{"name":"","type":"uint256","internalType":"uint256"}],"stateMutability":"view"},{"type":"function","name":"maxMint","inputs":[{"name":"","type":"address","internalType":"address"}],"outputs":[{"name":"","type":"uint256","internalType":"uint256"}],"stateMutability":"view"},{"type":"function","name":"maxRedeem","inputs":[{"name":"owner","type":"address","internalType":"address"}],"outputs":[{"name":"","type":"uint256","internalType":"uint256"}],"stateMutability":"view"},{"type":"function","name":"maxWithdraw","inputs":[{"name":"owner","type":"address","internalType":"address"}],"outputs":[{"name":"","type":"uint256","internalType":"uint256"}],"stateMutability":"view"},{"type":"function","name":"mint","inputs":[{"name":"shares","type":"uint256","internalType":"uint256"},{"name":"receiver","type":"address","internalType":"address"}],"outputs":[{"name":"","type":"uint256","internalType":"uint256"}],"stateMutability":"nonpayable"},{"type":"function","name":"name","inputs":[],"outputs":[{"name":"","type":"string","internalType":"string"}],"stateMutability":"view"},{"type":"function","name":"nftOriginalOwner","inputs":[{"name":"","type":"uint256","internalType":"uint256"}],"outputs":[{"name":"","type":"address","internalType":"address"}],"stateMutability":"view"},{"type":"function","name":"onERC721Received","inputs":[{"name":"","type":"address","internalType":"address"},{"name":"","type":"address","internalType":"address"},{"name":"","type":"uint256","internalType":"uint256"},{"name":"","type":"bytes","internalType":"bytes"}],"outputs":[{"name":"","type":"bytes4","internalType":"bytes4"}],"stateMutability":"nonpayable"},{"type":"function","name":"owner","inputs":[],"outputs":[{"name":"","type":"address","internalType":"address"}],"stateMutability":"view"},{"type":"function","name":"previewDeposit","inputs":[{"name":"assets","type":"uint256","internalType":"uint256"}],"outputs":[{"name":"","type":"uint256","internalType":"uint256"}],"stateMutability":"view"},{"type":"function","name":"previewMint","inputs":[{"name":"shares","type":"uint256","internalType":"uint256"}],"outputs":[{"name":"","type":"uint256","internalType":"uint256"}],"stateMutability":"view"},{"type":"function","name":"previewRedeem","inputs":[{"name":"shares","type":"uint256","internalType":"uint256"}],"outputs":[{"name":"","type":"uint256","internalType":"uint256"}],"stateMutability":"view"},{"type":"function","name":"previewWithdraw","inputs":[{"name":"assets","type":"uint256","internalType":"uint256"}],"outputs":[{"name":"","type":"uint256","internalType":"uint256"}],"stateMutability":"view"},{"type":"function","name":"redeem","inputs":[{"name":"shares","type":"uint256","internalType":"uint256"},{"name":"receiver","type":"address","internalType":"address"},{"name":"owner","type":"address","internalType":"address"}],"outputs":[{"name":"","type":"uint256","internalType":"uint256"}],"stateMutability":"nonpayable"},{"type":"function","name":"redeemVS","inputs":[{"name":"amount","type":"uint256","internalType":"uint256"}],"outputs":[],"stateMutability":"nonpayable"},{"type":"function","name":"renounceOwnership","inputs":[],"outputs":[],"stateMutability":"nonpayable"},{"type":"function","name":"symbol","inputs":[],"outputs":[{"name":"","type":"string","internalType":"string"}],"stateMutability":"view"},{"type":"function","name":"totalAssets","inputs":[],"outputs":[{"name":"","type":"uint256","internalType":"uint256"}],"stateMutability":"view"},{"type":"function","name":"totalSupply","inputs":[],"outputs":[{"name":"","type":"uint256","internalType":"uint256"}],"stateMutability":"view"},{"type":"function","name":"transfer","inputs":[{"name":"to","type":"address","internalType":"address"},{"name":"value","type":"uint256","internalType":"uint256"}],"outputs":[{"name":"","type":"bool","internalType":"bool"}],"stateMutability":"nonpayable"},{"type":"function","name":"transferFrom","inputs":[{"name":"from","type":"address","internalType":"address"},{"name":"to","type":"address","internalType":"address"},{"name":"value","type":"uint256","internalType":"uint256"}],"outputs":[{"name":"","type":"bool","internalType":"bool"}],"stateMutability":"nonpayable"},{"type":"function","name":"transferOwnership","inputs":[{"name":"newOwner","type":"address","internalType":"address"}],"outputs":[],"stateMutability":"nonpayable"},{"type":"function","name":"withdraw","inputs":[{"name":"assets","type":"uint256","internalType":"uint256"},{"name":"receiver","type":"address","internalType":"address"},{"name":"owner","type":"address","internalType":"address"}],"outputs":[{"name":"","type":"uint256","internalType":"uint256"}],"stateMutability":"nonpayable"},{"type":"function","name":"withdrawNFT","inputs":[{"name":"nftId","type":"uint256","internalType":"uint256"}],"outputs":[],"stateMutability":"nonpayable"},{"type":"event","name":"Approval","inputs":[{"name":"owner","type":"address","indexed":true,"internalType":"address"},{"name":"spender","type":"address","indexed":true,"internalType":"address"},{"name":"value","type":"uint256","indexed":false,"internalType":"uint256"}],"anonymous":false},{"type":"event","name":"Deposit","inputs":[{"name":"sender","type":"address","indexed":true,"internalType":"address"},{"name":"owner","type":"address","indexed":true,"internalType":"address"},{"name":"assets","type":"uint256","indexed":false,"internalType":"uint256"},{"name":"shares","type":"uint256","indexed":false,"internalType":"uint256"}],"anonymous":false},{"type":"event","name":"NFTDeposited","inputs":[{"name":"user","type":"address","indexed":true,"internalType":"address"},{"name":"nftId","type":"uint256","indexed":true,"internalType":"uint256"},{"name":"value","type":"uint256","indexed":false,"internalType":"uint256"},{"name":"claimableValue","type":"uint256","indexed":false,"internalType":"uint256"},{"name":"penalty","type":"uint256","indexed":false,"internalType":"uint256"}],"anonymous":false},{"type":"event","name":"NFTWithdrawn","inputs":[{"name":"user","type":"address","indexed":true,"internalType":"address"},{"name":"nftId","type":"uint256","indexed":true,"internalType":"uint256"},{"name":"value","type":"uint256","indexed":false,"internalType":"uint256"},{"name":"claimableValue","type":"uint256","indexed":false,"internalType":"uint256"},{"name":"penalty","type":"uint256","indexed":false,"internalType":"uint256"}],"anonymous":false},{"type":"event","name":"OwnershipTransferred","inputs":[{"name":"previousOwner","type":"address","indexed":true,"internalType":"address"},{"name":"newOwner","type":"address","indexed":true,"internalType":"address"}],"anonymous":false},{"type":"event","name":"Redeemed","inputs":[{"name":"user","type":"address","indexed":true,"internalType":"address"},{"name":"amount","type":"uint256","indexed":false,"internalType":"uint256"},{"name":"claimableValue","type":"uint256","indexed":false,"internalType":"uint256"},{"name":"penalty","type":"uint256","indexed":false,"internalType":"uint256"}],"anonymous":false},{"type":"event","name":"Transfer","inputs":[{"name":"from","type":"address","indexed":true,"internalType":"address"},{"name":"to","type":"address","indexed":true,"internalType":"address"},{"name":"value","type":"uint256","indexed":false,"internalType":"uint256"}],"anonymous":false},{"type":"event","name":"Withdraw","inputs":[{"name":"sender","type":"address","indexed":true,"internalType":"address"},{"name":"receiver","type":"address","indexed":true,"internalType":"address"},{"name":"owner","type":"address","indexed":true,"internalType":"address"},{"name":"assets","type":"uint256","indexed":false,"internalType":"uint256"},{"name":"shares","type":"uint256","indexed":false,"internalType":"uint256"}],"anonymous":false},{"type":"error","name":"ERC20InsufficientAllowance","inputs":[{"name":"spender","type":"address","internalType":"address"},{"name":"allowance","type":"uint256","internalType":"uint256"},{"name":"needed","type":"uint256","internalType":"uint256"}]},{"type":"error","name":"ERC20InsufficientBalance","inputs":[{"name":"sender","type":"address","internalType":"address"},{"name":"balance","type":"uint256","internalType":"uint256"},{"name":"needed","type":"uint256","internalType":"uint256"}]},{"type":"error","name":"ERC20InvalidApprover","inputs":[{"name":"approver","type":"address","internalType":"address"}]},{"type":"error","name":"ERC20InvalidReceiver","inputs":[{"name":"receiver","type":"address","internalType":"address"}]},{"type":"error","name":"ERC20InvalidSender","inputs":[{"name":"sender","type":"address","internalType":"address"}]},{"type":"error","name":"ERC20InvalidSpender","inputs":[{"name":"spender","type":"address","internalType":"address"}]},{"type":"error","name":"ERC4626ExceededMaxDeposit","inputs":[{"name":"receiver","type":"address","internalType":"address"},{"name":"assets","type":"uint256","internalType":"uint256"},{"name":"max","type":"uint256","internalType":"uint256"}]},{"type":"error","name":"ERC4626ExceededMaxMint","inputs":[{"name":"receiver","type":"address","internalType":"address"},{"name":"shares","type":"uint256","internalType":"uint256"},{"name":"max","type":"uint256","internalType":"uint256"}]},{"type":"error","name":"ERC4626ExceededMaxRedeem","inputs":[{"name":"owner","type":"address","internalType":"address"},{"name":"shares","type":"uint256","internalType":"uint256"},{"name":"max","type":"uint256","internalType":"uint256"}]},{"type":"error","name":"ERC4626ExceededMaxWithdraw","inputs":[{"name":"owner","type":"address","internalType":"address"},{"name":"assets","type":"uint256","internalType":"uint256"},{"name":"max","type":"uint256","internalType":"uint256"}]},{"type":"error","name":"NotNFTOwner","inputs":[]},{"type":"error","name":"OwnableInvalidOwner","inputs":[{"name":"owner","type":"address","internalType":"address"}]},{"type":"error","name":"OwnableUnauthorizedAccount","inputs":[{"name":"account","type":"address","internalType":"address"}]},{"type":"error","name":"SafeERC20FailedOperation","inputs":[{"name":"token","type":"address","internalType":"address"}]}],"bytecode":{"object":"0x60e060405234801561000f575f5ffd5b506040516136b63803806136b683398181016040528101906100319190610448565b33826040518060400160405280601181526020017f5661756c7420536861726520546f6b656e0000000000000000000000000000008152506040518060400160405280600281526020017f765300000000000000000000000000000000000000000000000000000000000081525081600390816100ae91906106c3565b5080600490816100be91906106c3565b5050505f5f6100d2836101e360201b60201c565b91509150816100e25760126100e4565b805b60ff1660a08160ff16815250508273ffffffffffffffffffffffffffffffffffffffff1660808173ffffffffffffffffffffffffffffffffffffffff16815250505050505f73ffffffffffffffffffffffffffffffffffffffff168173ffffffffffffffffffffffffffffffffffffffff1603610198575f6040517f1e4fbdf700000000000000000000000000000000000000000000000000000000815260040161018f91906107a1565b60405180910390fd5b6101a7816102ec60201b60201c565b508073ffffffffffffffffffffffffffffffffffffffff1660c08173ffffffffffffffffffffffffffffffffffffffff16815250505050610877565b5f5f5f5f8473ffffffffffffffffffffffffffffffffffffffff1660405160240160405160208183030381529060405263313ce56760e01b6020820180517bffffffffffffffffffffffffffffffffffffffffffffffffffffffff8381831617835250505050604051610256919061080c565b5f60405180830381855afa9150503d805f811461028e576040519150601f19603f3d011682016040523d82523d5f602084013e610293565b606091505b50915091508180156102a757506020815110155b156102de575f818060200190518101906102c1919061084c565b905060ff801681116102dc57600181945094505050506102e7565b505b5f5f9350935050505b915091565b5f60055f9054906101000a900473ffffffffffffffffffffffffffffffffffffffff1690508160055f6101000a81548173ffffffffffffffffffffffffffffffffffffffff021916908373ffffffffffffffffffffffffffffffffffffffff1602179055508173ffffffffffffffffffffffffffffffffffffffff168173ffffffffffffffffffffffffffffffffffffffff167f8be0079c531659141344cd1fd0a4f28419497f9722a3daafe3b4186f6b6457e060405160405180910390a35050565b5f5ffd5b5f73ffffffffffffffffffffffffffffffffffffffff82169050919050565b5f6103dc826103b3565b9050919050565b5f6103ed826103d2565b9050919050565b6103fd816103e3565b8114610407575f5ffd5b50565b5f81519050610418816103f4565b92915050565b610427816103d2565b8114610431575f5ffd5b50565b5f815190506104428161041e565b92915050565b5f5f6040838503121561045e5761045d6103af565b5b5f61046b8582860161040a565b925050602061047c85828601610434565b9150509250929050565b5f81519050919050565b7f4e487b71000000000000000000000000000000000000000000000000000000005f52604160045260245ffd5b7f4e487b71000000000000000000000000000000000000000000000000000000005f52602260045260245ffd5b5f600282049050600182168061050157607f821691505b602082108103610514576105136104bd565b5b50919050565b5f819050815f5260205f209050919050565b5f6020601f8301049050919050565b5f82821b905092915050565b5f600883026105767fffffffffffffffffffffffffffffffffffffffffffffffffffffffffffffffff8261053b565b610580868361053b565b95508019841693508086168417925050509392505050565b5f819050919050565b5f819050919050565b5f6105c46105bf6105ba84610598565b6105a1565b610598565b9050919050565b5f819050919050565b6105dd836105aa565b6105f16105e9826105cb565b848454610547565b825550505050565b5f5f905090565b6106086105f9565b6106138184846105d4565b505050565b5b818110156106365761062b5f82610600565b600181019050610619565b5050565b601f82111561067b5761064c8161051a565b6106558461052c565b81016020851015610664578190505b6106786106708561052c565b830182610618565b50505b505050565b5f82821c905092915050565b5f61069b5f1984600802610680565b1980831691505092915050565b5f6106b3838361068c565b9150826002028217905092915050565b6106cc82610486565b67ffffffffffffffff8111156106e5576106e4610490565b5b6106ef82546104ea565b6106fa82828561063a565b5f60209050601f83116001811461072b575f8415610719578287015190505b61072385826106a8565b86555061078a565b601f1984166107398661051a565b5f5b828110156107605784890151825560018201915060208501945060208101905061073b565b8683101561077d5784890151610779601f89168261068c565b8355505b6001600288020188555050505b505050505050565b61079b816103d2565b82525050565b5f6020820190506107b45f830184610792565b92915050565b5f81519050919050565b5f81905092915050565b8281835e5f83830152505050565b5f6107e6826107ba565b6107f081856107c4565b93506108008185602086016107ce565b80840191505092915050565b5f61081782846107dc565b915081905092915050565b61082b81610598565b8114610835575f5ffd5b50565b5f8151905061084681610822565b92915050565b5f60208284031215610861576108606103af565b5b5f61086e84828501610838565b91505092915050565b60805160a05160c051612deb6108cb5f395f818161087f0152818161091a015281816109f101528181610d71015281816112e30152818161136e015261140901525f610cdf01525f610d100152612deb5ff3fe608060405234801561000f575f5ffd5b5060043610610204575f3560e01c8063715018a611610118578063ba087652116100ab578063d905777e1161007a578063d905777e1461069a578063dd62ed3e146106ca578063e91a7ca6146106fa578063ef8b30f714610716578063f2fde38b1461074657610204565b8063ba087652146105da578063c63d75b61461060a578063c6e6f5921461063a578063ce96cb771461066a57610204565b806395d89b41116100e757806395d89b411461052c578063a9059cbb1461054a578063b3d7f6b91461057a578063b460af94146105aa57610204565b8063715018a6146104a45780637a032634146104ae5780638da5cb5b146104de57806394bf804d146104fc57610204565b806323b872dd1161019b578063402d267d1161016a578063402d267d146103c65780634cdad506146103f65780635ef449fd146104265780636e553f651461044457806370a082311461047457610204565b806323b872dd1461033e57806324462d071461036e578063313ce5671461038a57806338d52e0f146103a857610204565b8063095ea7b3116101d7578063095ea7b3146102905780630a28a477146102c0578063150b7a02146102f057806318160ddd1461032057610204565b806301e1d11414610208578063023245d71461022657806306fdde031461024257806307a2d13a14610260575b5f5ffd5b610210610762565b60405161021d91906122e5565b60405180910390f35b610240600480360381019061023b9190612339565b6107e7565b005b61024a610ad1565b60405161025791906123d4565b60405180910390f35b61027a60048036038101906102759190612339565b610b61565b60405161028791906122e5565b60405180910390f35b6102aa60048036038101906102a5919061244e565b610b73565b6040516102b791906124a6565b60405180910390f35b6102da60048036038101906102d59190612339565b610b95565b6040516102e791906122e5565b60405180910390f35b61030a600480360381019061030591906125eb565b610ba8565b60405161031791906126a5565b60405180910390f35b610328610bbb565b60405161033591906122e5565b60405180910390f35b610358600480360381019061035391906126be565b610bc4565b60405161036591906124a6565b60405180910390f35b61038860048036038101906103839190612339565b610bf2565b005b610392610cd4565b60405161039f9190612729565b60405180910390f35b6103b0610d0d565b6040516103bd9190612751565b60405180910390f35b6103e060048036038101906103db919061276a565b610d34565b6040516103ed91906122e5565b60405180910390f35b610410600480360381019061040b9190612339565b610d5d565b60405161041d91906122e5565b60405180910390f35b61042e610d6f565b60405161043b9190612751565b60405180910390f35b61045e60048036038101906104599190612795565b610d93565b60405161046b91906122e5565b60405180910390f35b61048e6004803603810190610489919061276a565b610e13565b60405161049b91906122e5565b60405180910390f35b6104ac610e58565b005b6104c860048036038101906104c39190612339565b610e6b565b6040516104d59190612751565b60405180910390f35b6104e6610e9b565b6040516104f39190612751565b60405180910390f35b61051660048036038101906105119190612795565b610ec3565b60405161052391906122e5565b60405180910390f35b610534610f43565b60405161054191906123d4565b60405180910390f35b610564600480360381019061055f919061244e565b610fd3565b60405161057191906124a6565b60405180910390f35b610594600480360381019061058f9190612339565b610ff5565b6040516105a191906122e5565b60405180910390f35b6105c460048036038101906105bf91906127d3565b611008565b6040516105d191906122e5565b60405180910390f35b6105f460048036038101906105ef91906127d3565b61108a565b60405161060191906122e5565b60405180910390f35b610624600480360381019061061f919061276a565b61110c565b60405161063191906122e5565b60405180910390f35b610654600480360381019061064f9190612339565b611135565b60405161066191906122e5565b60405180910390f35b610684600480360381019061067f919061276a565b611147565b60405161069191906122e5565b60405180910390f35b6106b460048036038101906106af919061276a565b611161565b6040516106c191906122e5565b60405180910390f35b6106e460048036038101906106df9190612823565b611172565b6040516106f191906122e5565b60405180910390f35b610714600480360381019061070f9190612339565b6111f4565b005b610730600480360381019061072b9190612339565b611503565b60405161073d91906122e5565b60405180910390f35b610760600480360381019061075b919061276a565b611515565b005b5f61076b610d0d565b73ffffffffffffffffffffffffffffffffffffffff166370a08231306040518263ffffffff1660e01b81526004016107a39190612751565b602060405180830381865afa1580156107be573d5f5f3e3d5ffd5b505050506040513d601f19601f820116820180604052508101906107e29190612875565b905090565b3373ffffffffffffffffffffffffffffffffffffffff1660065f8381526020019081526020015f205f9054906101000a900473ffffffffffffffffffffffffffffffffffffffff1673ffffffffffffffffffffffffffffffffffffffff161461087c576040517f4088c61c00000000000000000000000000000000000000000000000000000000815260040160405180910390fd5b5f7f000000000000000000000000000000000000000000000000000000000000000073ffffffffffffffffffffffffffffffffffffffff1663d1d58b25836040518263ffffffff1660e01b81526004016108d691906122e5565b602060405180830381865afa1580156108f1573d5f5f3e3d5ffd5b505050506040513d601f19601f820116820180604052508101906109159190612875565b90505f7f000000000000000000000000000000000000000000000000000000000000000073ffffffffffffffffffffffffffffffffffffffff16636f9064d7846040518263ffffffff1660e01b815260040161097191906122e5565b602060405180830381865afa15801561098c573d5f5f3e3d5ffd5b505050506040513d601f19601f820116820180604052508101906109b09190612875565b90506109bc3383611599565b60065f8481526020019081526020015f205f6101000a81549073ffffffffffffffffffffffffffffffffffffffff02191690557f000000000000000000000000000000000000000000000000000000000000000073ffffffffffffffffffffffffffffffffffffffff166342842e0e3033866040518463ffffffff1660e01b8152600401610a4c939291906128a0565b5f604051808303815f87803b158015610a63575f5ffd5b505af1158015610a75573d5f5f3e3d5ffd5b50505050823373ffffffffffffffffffffffffffffffffffffffff167fc58e8be693652abce8254ac71c4711e4f613f8141f2863bf1db17c69958500ca848585604051610ac4939291906128d5565b60405180910390a3505050565b606060038054610ae090612937565b80601f0160208091040260200160405190810160405280929190818152602001828054610b0c90612937565b8015610b575780601f10610b2e57610100808354040283529160200191610b57565b820191905f5260205f20905b815481529060010190602001808311610b3a57829003601f168201915b5050505050905090565b5f610b6c825f611618565b9050919050565b5f5f610b7d611670565b9050610b8a818585611677565b600191505092915050565b5f610ba1826001611689565b9050919050565b5f63150b7a0260e01b9050949350505050565b5f600254905090565b5f5f610bce611670565b9050610bdb8582856116e1565b610be6858585611774565b60019150509392505050565b610bfc3382611599565b610c04610d0d565b73ffffffffffffffffffffffffffffffffffffffff1663a9059cbb33836040518363ffffffff1660e01b8152600401610c3e929190612967565b6020604051808303815f875af1158015610c5a573d5f5f3e3d5ffd5b505050506040513d601f19601f82011682018060405250810190610c7e91906129b8565b503373ffffffffffffffffffffffffffffffffffffffff167f484c40561359f3e3b8be9101897f8680aa82fbe1df9fd9038e0dbc628403264682835f604051610cc993929190612a25565b60405180910390a250565b5f610cdd611864565b7f0000000000000000000000000000000000000000000000000000000000000000610d089190612a87565b905090565b5f7f0000000000000000000000000000000000000000000000000000000000000000905090565b5f7fffffffffffffffffffffffffffffffffffffffffffffffffffffffffffffffff9050919050565b5f610d68825f611618565b9050919050565b7f000000000000000000000000000000000000000000000000000000000000000081565b5f5f610d9e83610d34565b905080841115610de9578284826040517f79012fb2000000000000000000000000000000000000000000000000000000008152600401610de093929190612abb565b60405180910390fd5b5f610df385611503565b9050610e08610e00611670565b85878461186b565b809250505092915050565b5f5f5f8373ffffffffffffffffffffffffffffffffffffffff1673ffffffffffffffffffffffffffffffffffffffff1681526020019081526020015f20549050919050565b610e606118f5565b610e695f61197c565b565b6006602052805f5260405f205f915054906101000a900473ffffffffffffffffffffffffffffffffffffffff1681565b5f60055f9054906101000a900473ffffffffffffffffffffffffffffffffffffffff16905090565b5f5f610ece8361110c565b905080841115610f19578284826040517f284ff667000000000000000000000000000000000000000000000000000000008152600401610f1093929190612abb565b60405180910390fd5b5f610f2385610ff5565b9050610f38610f30611670565b85838861186b565b809250505092915050565b606060048054610f5290612937565b80601f0160208091040260200160405190810160405280929190818152602001828054610f7e90612937565b8015610fc95780601f10610fa057610100808354040283529160200191610fc9565b820191905f5260205f20905b815481529060010190602001808311610fac57829003601f168201915b5050505050905090565b5f5f610fdd611670565b9050610fea818585611774565b600191505092915050565b5f611001826001611618565b9050919050565b5f5f61101383611147565b90508085111561105e578285826040517ffe9cceec00000000000000000000000000000000000000000000000000000000815260040161105593929190612abb565b60405180910390fd5b5f61106886610b95565b905061107e611075611670565b86868985611a3f565b80925050509392505050565b5f5f61109583611161565b9050808511156110e0578285826040517fb94abeec0000000000000000000000000000000000000000000000000000000081526004016110d793929190612abb565b60405180910390fd5b5f6110ea86610d5d565b90506111006110f7611670565b8686848a611a3f565b80925050509392505050565b5f7fffffffffffffffffffffffffffffffffffffffffffffffffffffffffffffffff9050919050565b5f611140825f611689565b9050919050565b5f61115a61115483610e13565b5f611618565b9050919050565b5f61116b82610e13565b9050919050565b5f60015f8473ffffffffffffffffffffffffffffffffffffffff1673ffffffffffffffffffffffffffffffffffffffff1681526020019081526020015f205f8373ffffffffffffffffffffffffffffffffffffffff1673ffffffffffffffffffffffffffffffffffffffff1681526020019081526020015f2054905092915050565b5f73ffffffffffffffffffffffffffffffffffffffff1660065f8381526020019081526020015f205f9054906101000a900473ffffffffffffffffffffffffffffffffffffffff1673ffffffffffffffffffffffffffffffffffffffff1614611292576040517f08c379a000000000000000000000000000000000000000000000000000000000815260040161128990612b3a565b60405180910390fd5b3360065f8381526020019081526020015f205f6101000a81548173ffffffffffffffffffffffffffffffffffffffff021916908373ffffffffffffffffffffffffffffffffffffffff1602179055507f000000000000000000000000000000000000000000000000000000000000000073ffffffffffffffffffffffffffffffffffffffff166342842e0e3330846040518463ffffffff1660e01b815260040161133e939291906128a0565b5f604051808303815f87803b158015611355575f5ffd5b505af1158015611367573d5f5f3e3d5ffd5b505050505f7f000000000000000000000000000000000000000000000000000000000000000073ffffffffffffffffffffffffffffffffffffffff1663d1d58b25836040518263ffffffff1660e01b81526004016113c591906122e5565b602060405180830381865afa1580156113e0573d5f5f3e3d5ffd5b505050506040513d601f19601f820116820180604052508101906114049190612875565b90505f7f000000000000000000000000000000000000000000000000000000000000000073ffffffffffffffffffffffffffffffffffffffff16636f9064d7846040518263ffffffff1660e01b815260040161146091906122e5565b602060405180830381865afa15801561147b573d5f5f3e3d5ffd5b505050506040513d601f19601f8201168201806040525081019061149f9190612875565b90506114ab3383611b1f565b823373ffffffffffffffffffffffffffffffffffffffff167f63832bb431f29036a0bc30d43616764a64910fb6a6d267960da3470beb2de7868485856040516114f6939291906128d5565b60405180910390a3505050565b5f61150e825f611689565b9050919050565b61151d6118f5565b5f73ffffffffffffffffffffffffffffffffffffffff168173ffffffffffffffffffffffffffffffffffffffff160361158d575f6040517f1e4fbdf70000000000000000000000000000000000000000000000000000000081526004016115849190612751565b60405180910390fd5b6115968161197c565b50565b5f73ffffffffffffffffffffffffffffffffffffffff168273ffffffffffffffffffffffffffffffffffffffff1603611609575f6040517f96c6fd1e0000000000000000000000000000000000000000000000000000000081526004016116009190612751565b60405180910390fd5b611614825f83611b9e565b5050565b5f6116686001611626610762565b6116309190612b58565b611638611864565b600a6116449190612cba565b61164c610bbb565b6116569190612b58565b8486611db7909392919063ffffffff16565b905092915050565b5f33905090565b6116848383836001611e04565b505050565b5f6116d9611695611864565b600a6116a19190612cba565b6116a9610bbb565b6116b39190612b58565b60016116bd610762565b6116c79190612b58565b8486611db7909392919063ffffffff16565b905092915050565b5f6116ec8484611172565b90507fffffffffffffffffffffffffffffffffffffffffffffffffffffffffffffffff81101561176e578181101561175f578281836040517ffb8f41b200000000000000000000000000000000000000000000000000000000815260040161175693929190612abb565b60405180910390fd5b61176d84848484035f611e04565b5b50505050565b5f73ffffffffffffffffffffffffffffffffffffffff168373ffffffffffffffffffffffffffffffffffffffff16036117e4575f6040517f96c6fd1e0000000000000000000000000000000000000000000000000000000081526004016117db9190612751565b60405180910390fd5b5f73ffffffffffffffffffffffffffffffffffffffff168273ffffffffffffffffffffffffffffffffffffffff1603611854575f6040517fec442f0500000000000000000000000000000000000000000000000000000000815260040161184b9190612751565b60405180910390fd5b61185f838383611b9e565b505050565b5f5f905090565b61187e611876610d0d565b853085611fd3565b6118888382611b1f565b8273ffffffffffffffffffffffffffffffffffffffff168473ffffffffffffffffffffffffffffffffffffffff167fdcbc1c05240f31ff3ad067ef1ee35ce4997762752e3a095284754544f4c709d784846040516118e7929190612d04565b60405180910390a350505050565b6118fd611670565b73ffffffffffffffffffffffffffffffffffffffff1661191b610e9b565b73ffffffffffffffffffffffffffffffffffffffff161461197a5761193e611670565b6040517f118cdaa70000000000000000000000000000000000000000000000000000000081526004016119719190612751565b60405180910390fd5b565b5f60055f9054906101000a900473ffffffffffffffffffffffffffffffffffffffff1690508160055f6101000a81548173ffffffffffffffffffffffffffffffffffffffff021916908373ffffffffffffffffffffffffffffffffffffffff1602179055508173ffffffffffffffffffffffffffffffffffffffff168173ffffffffffffffffffffffffffffffffffffffff167f8be0079c531659141344cd1fd0a4f28419497f9722a3daafe3b4186f6b6457e060405160405180910390a35050565b8273ffffffffffffffffffffffffffffffffffffffff168573ffffffffffffffffffffffffffffffffffffffff1614611a7e57611a7d8386836116e1565b5b611a888382611599565b611a9a611a93610d0d565b8584612055565b8273ffffffffffffffffffffffffffffffffffffffff168473ffffffffffffffffffffffffffffffffffffffff168673ffffffffffffffffffffffffffffffffffffffff167ffbde797d201c681b91056529119e0b02407c7bb96a4a2c75c01fc9667232c8db8585604051611b10929190612d04565b60405180910390a45050505050565b5f73ffffffffffffffffffffffffffffffffffffffff168273ffffffffffffffffffffffffffffffffffffffff1603611b8f575f6040517fec442f05000000000000000000000000000000000000000000000000000000008152600401611b869190612751565b60405180910390fd5b611b9a5f8383611b9e565b5050565b5f73ffffffffffffffffffffffffffffffffffffffff168373ffffffffffffffffffffffffffffffffffffffff1603611bee578060025f828254611be29190612b58565b92505081905550611cbc565b5f5f5f8573ffffffffffffffffffffffffffffffffffffffff1673ffffffffffffffffffffffffffffffffffffffff1681526020019081526020015f2054905081811015611c77578381836040517fe450d38c000000000000000000000000000000000000000000000000000000008152600401611c6e93929190612abb565b60405180910390fd5b8181035f5f8673ffffffffffffffffffffffffffffffffffffffff1673ffffffffffffffffffffffffffffffffffffffff1681526020019081526020015f2081905550505b5f73ffffffffffffffffffffffffffffffffffffffff168273ffffffffffffffffffffffffffffffffffffffff1603611d03578060025f8282540392505081905550611d4d565b805f5f8473ffffffffffffffffffffffffffffffffffffffff1673ffffffffffffffffffffffffffffffffffffffff1681526020019081526020015f205f82825401925050819055505b8173ffffffffffffffffffffffffffffffffffffffff168373ffffffffffffffffffffffffffffffffffffffff167fddf252ad1be2c89b69c2b068fc378daa952ba7f163c4a11628f55a4df523b3ef83604051611daa91906122e5565b60405180910390a3505050565b5f611de5611dc4836120d4565b8015611de057505f8480611ddb57611dda612d2b565b5b868809115b612101565b611df086868661210c565b611dfa9190612b58565b9050949350505050565b5f73ffffffffffffffffffffffffffffffffffffffff168473ffffffffffffffffffffffffffffffffffffffff1603611e74575f6040517fe602df05000000000000000000000000000000000000000000000000000000008152600401611e6b9190612751565b60405180910390fd5b5f73ffffffffffffffffffffffffffffffffffffffff168373ffffffffffffffffffffffffffffffffffffffff1603611ee4575f6040517f94280d62000000000000000000000000000000000000000000000000000000008152600401611edb9190612751565b60405180910390fd5b8160015f8673ffffffffffffffffffffffffffffffffffffffff1673ffffffffffffffffffffffffffffffffffffffff1681526020019081526020015f205f8573ffffffffffffffffffffffffffffffffffffffff1673ffffffffffffffffffffffffffffffffffffffff1681526020019081526020015f20819055508015611fcd578273ffffffffffffffffffffffffffffffffffffffff168473ffffffffffffffffffffffffffffffffffffffff167f8c5be1e5ebec7d5bd14f71427d1e84f3dd0314c0f7b2291e5b200ac8c7c3b92584604051611fc491906122e5565b60405180910390a35b50505050565b61204f848573ffffffffffffffffffffffffffffffffffffffff166323b872dd868686604051602401612008939291906128a0565b604051602081830303815290604052915060e01b6020820180517bffffffffffffffffffffffffffffffffffffffffffffffffffffffff83818316178352505050506121eb565b50505050565b6120cf838473ffffffffffffffffffffffffffffffffffffffff1663a9059cbb8585604051602401612088929190612967565b604051602081830303815290604052915060e01b6020820180517bffffffffffffffffffffffffffffffffffffffffffffffffffffffff83818316178352505050506121eb565b505050565b5f600160028360038111156120ec576120eb612d58565b5b6120f69190612d85565b60ff16149050919050565b5f8115159050919050565b5f5f5f6121198686612286565b915091505f820361213e5783818161213457612133612d2b565b5b04925050506121e4565b81841161215d5761215c6121575f8614601260116122a3565b6122bc565b5b5f8486880990508181118303925080820391505f855f038616905080860495508083049250600181825f0304019050808402831792505f600287600302189050808702600203810290508087026002038102905080870260020381029050808702600203810290508087026002038102905080870260020381029050808402955050505050505b9392505050565b5f5f60205f8451602086015f885af18061220a576040513d5f823e3d81fd5b3d92505f519150505f821461222357600181141561223e565b5f8473ffffffffffffffffffffffffffffffffffffffff163b145b1561228057836040517f5274afe70000000000000000000000000000000000000000000000000000000081526004016122779190612751565b60405180910390fd5b50505050565b5f5f5f198385098385029150818110828203039250509250929050565b5f6122ad84612101565b82841802821890509392505050565b634e487b715f52806020526024601cfd5b5f819050919050565b6122df816122cd565b82525050565b5f6020820190506122f85f8301846122d6565b92915050565b5f604051905090565b5f5ffd5b5f5ffd5b612318816122cd565b8114612322575f5ffd5b50565b5f813590506123338161230f565b92915050565b5f6020828403121561234e5761234d612307565b5b5f61235b84828501612325565b91505092915050565b5f81519050919050565b5f82825260208201905092915050565b8281835e5f83830152505050565b5f601f19601f8301169050919050565b5f6123a682612364565b6123b0818561236e565b93506123c081856020860161237e565b6123c98161238c565b840191505092915050565b5f6020820190508181035f8301526123ec818461239c565b905092915050565b5f73ffffffffffffffffffffffffffffffffffffffff82169050919050565b5f61241d826123f4565b9050919050565b61242d81612413565b8114612437575f5ffd5b50565b5f8135905061244881612424565b92915050565b5f5f6040838503121561246457612463612307565b5b5f6124718582860161243a565b925050602061248285828601612325565b9150509250929050565b5f8115159050919050565b6124a08161248c565b82525050565b5f6020820190506124b95f830184612497565b92915050565b5f5ffd5b5f5ffd5b7f4e487b71000000000000000000000000000000000000000000000000000000005f52604160045260245ffd5b6124fd8261238c565b810181811067ffffffffffffffff8211171561251c5761251b6124c7565b5b80604052505050565b5f61252e6122fe565b905061253a82826124f4565b919050565b5f67ffffffffffffffff821115612559576125586124c7565b5b6125628261238c565b9050602081019050919050565b828183375f83830152505050565b5f61258f61258a8461253f565b612525565b9050828152602081018484840111156125ab576125aa6124c3565b5b6125b684828561256f565b509392505050565b5f82601f8301126125d2576125d16124bf565b5b81356125e284826020860161257d565b91505092915050565b5f5f5f5f6080858703121561260357612602612307565b5b5f6126108782880161243a565b94505060206126218782880161243a565b935050604061263287828801612325565b925050606085013567ffffffffffffffff8111156126535761265261230b565b5b61265f878288016125be565b91505092959194509250565b5f7fffffffff0000000000000000000000000000000000000000000000000000000082169050919050565b61269f8161266b565b82525050565b5f6020820190506126b85f830184612696565b92915050565b5f5f5f606084860312156126d5576126d4612307565b5b5f6126e28682870161243a565b93505060206126f38682870161243a565b925050604061270486828701612325565b9150509250925092565b5f60ff82169050919050565b6127238161270e565b82525050565b5f60208201905061273c5f83018461271a565b92915050565b61274b81612413565b82525050565b5f6020820190506127645f830184612742565b92915050565b5f6020828403121561277f5761277e612307565b5b5f61278c8482850161243a565b91505092915050565b5f5f604083850312156127ab576127aa612307565b5b5f6127b885828601612325565b92505060206127c98582860161243a565b9150509250929050565b5f5f5f606084860312156127ea576127e9612307565b5b5f6127f786828701612325565b93505060206128088682870161243a565b92505060406128198682870161243a565b9150509250925092565b5f5f6040838503121561283957612838612307565b5b5f6128468582860161243a565b92505060206128578582860161243a565b9150509250929050565b5f8151905061286f8161230f565b92915050565b5f6020828403121561288a57612889612307565b5b5f61289784828501612861565b91505092915050565b5f6060820190506128b35f830186612742565b6128c06020830185612742565b6128cd60408301846122d6565b949350505050565b5f6060820190506128e85f8301866122d6565b6128f560208301856122d6565b61290260408301846122d6565b949350505050565b7f4e487b71000000000000000000000000000000000000000000000000000000005f52602260045260245ffd5b5f600282049050600182168061294e57607f821691505b6020821081036129615761296061290a565b5b50919050565b5f60408201905061297a5f830185612742565b61298760208301846122d6565b9392505050565b6129978161248c565b81146129a1575f5ffd5b50565b5f815190506129b28161298e565b92915050565b5f602082840312156129cd576129cc612307565b5b5f6129da848285016129a4565b91505092915050565b5f819050919050565b5f819050919050565b5f612a0f612a0a612a05846129e3565b6129ec565b6122cd565b9050919050565b612a1f816129f5565b82525050565b5f606082019050612a385f8301866122d6565b612a4560208301856122d6565b612a526040830184612a16565b949350505050565b7f4e487b71000000000000000000000000000000000000000000000000000000005f52601160045260245ffd5b5f612a918261270e565b9150612a9c8361270e565b9250828201905060ff811115612ab557612ab4612a5a565b5b92915050565b5f606082019050612ace5f830186612742565b612adb60208301856122d6565b612ae860408301846122d6565b949350505050565b7f4e465420616c7265616479206465706f736974656400000000000000000000005f82015250565b5f612b2460158361236e565b9150612b2f82612af0565b602082019050919050565b5f6020820190508181035f830152612b5181612b18565b9050919050565b5f612b62826122cd565b9150612b6d836122cd565b9250828201905080821115612b8557612b84612a5a565b5b92915050565b5f8160011c9050919050565b5f5f8291508390505b6001851115612be057808604811115612bbc57612bbb612a5a565b5b6001851615612bcb5780820291505b8081029050612bd985612b8b565b9450612ba0565b94509492505050565b5f82612bf85760019050612cb3565b81612c05575f9050612cb3565b8160018114612c1b5760028114612c2557612c54565b6001915050612cb3565b60ff841115612c3757612c36612a5a565b5b8360020a915084821115612c4e57612c4d612a5a565b5b50612cb3565b5060208310610133831016604e8410600b8410161715612c895782820a905083811115612c8457612c83612a5a565b5b612cb3565b612c968484846001612b97565b92509050818404811115612cad57612cac612a5a565b5b81810290505b9392505050565b5f612cc4826122cd565b9150612ccf8361270e565b9250612cfc7fffffffffffffffffffffffffffffffffffffffffffffffffffffffffffffffff8484612be9565b905092915050565b5f604082019050612d175f8301856122d6565b612d2460208301846122d6565b9392505050565b7f4e487b71000000000000000000000000000000000000000000000000000000005f52601260045260245ffd5b7f4e487b71000000000000000000000000000000000000000000000000000000005f52602160045260245ffd5b5f612d8f8261270e565b9150612d9a8361270e565b925082612daa57612da9612d2b565b5b82820690509291505056fea26469706673582212205d02d49e2ecba82fae8b247167a6949d658272cdb61cdacba0604f76228d326f64736f6c634300081c0033","linkReferences":{}},"methodIdentifiers":{"allowance(address,address)":"dd62ed3e","approve(address,uint256)":"095ea7b3","asset()":"38d52e0f","balanceOf(address)":"70a08231","convertToAssets(uint256)":"07a2d13a","convertToShares(uint256)":"c6e6f592","decimals()":"313ce567","deposit(uint256,address)":"6e553f65","depositNFT(uint256)":"e91a7ca6","fNFT()":"5ef449fd","maxDeposit(address)":"402d267d","maxMint(address)":"c63d75b6","maxRedeem(address)":"d905777e","maxWithdraw(address)":"ce96cb77","mint(uint256,address)":"94bf804d","name()":"06fdde03","nftOriginalOwner(uint256)":"7a032634","onERC721Received(address,address,uint256,bytes)":"150b7a02","owner()":"8da5cb5b","previewDeposit(uint256)":"ef8b30f7","previewMint(uint256)":"b3d7f6b9","previewRedeem(uint256)":"4cdad506","previewWithdraw(uint256)":"0a28a477","redeem(uint256,address,address)":"ba087652","redeemVS(uint256)":"24462d07","renounceOwnership()":"715018a6","symbol()":"95d89b41","totalAssets()":"01e1d114","totalSupply()":"18160ddd","transfer(address,uint256)":"a9059cbb","transferFrom(address,address,uint256)":"23b872dd","transferOwnership(address)":"f2fde38b","withdraw(uint256,address,address)":"b460af94","withdrawNFT(uint256)":"023245d7"},"id":44}