{"abi":[{"type":"constructor","inputs":[{"name":"_sToken","type":"address","internalType":"contract IERC20"},{"name":"_fNFT","type":"address","internalType":"address"}],"stateMutability":"nonpayable"},{"type":"function","name":"allowance","inputs":[{"name":"owner","type":"address","internalType":"address"},{"name":"spender","type":"address","internalType":"address"}],"outputs":[{"name":"","type":"uint256","internalType":"uint256"}],"stateMutability":"view"},{"type":"function","name":"approve","inputs":[{"name":"spender","type":"address","internalType":"address"},{"name":"value","type":"uint256","internalType":"uint256"}],"outputs":[{"name":"","type":"bool","internalType":"bool"}],"stateMutability":"nonpayable"},{"type":"function","name":"asset","inputs":[],"outputs":[{"name":"","type":"address","internalType":"address"}],"stateMutability":"view"},{"type":"function","name":"balanceOf","inputs":[{"name":"account","type":"address","internalType":"address"}],"outputs":[{"name":"","type":"uint256","internalType":"uint256"}],"stateMutability":"view"},{"type":"function","name":"convertToAssets","inputs":[{"name":"shares","type":"uint256","internalType":"uint256"}],"outputs":[{"name":"","type":"uint256","internalType":"uint256"}],"stateMutability":"view"},{"type":"function","name":"convertToShares","inputs":[{"name":"assets","type":"uint256","internalType":"uint256"}],"outputs":[{"name":"","type":"uint256","internalType":"uint256"}],"stateMutability":"view"},{"type":"function","name":"decimals","inputs":[],"outputs":[{"name":"","type":"uint8","internalType":"uint8"}],"stateMutability":"view"},{"type":"function","name":"deposit","inputs":[{"name":"assets","type":"uint256","internalType":"uint256"},{"name":"receiver","type":"address","internalType":"address"}],"outputs":[{"name":"","type":"uint256","internalType":"uint256"}],"stateMutability":"nonpayable"},{"type":"function","name":"depositNFT","inputs":[{"name":"nftId","type":"uint256","internalType":"uint256"}],"outputs":[],"stateMutability":"nonpayable"},{"type":"function","name":"fNFT","inputs":[],"outputs":[{"name":"","type":"address","internalType":"address"}],"stateMutability":"view"},{"type":"function","name":"maxDeposit","inputs":[{"name":"","type":"address","internalType":"address"}],"outputs":[{"name":"","type":"uint256","internalType":"uint256"}],"stateMutability":"view"},{"type":"function","name":"maxMint","inputs":[{"name":"","type":"address","internalType":"address"}],"outputs":[{"name":"","type":"uint256","internalType":"uint256"}],"stateMutability":"view"},{"type":"function","name":"maxRedeem","inputs":[{"name":"owner","type":"address","internalType":"address"}],"outputs":[{"name":"","type":"uint256","internalType":"uint256"}],"stateMutability":"view"},{"type":"function","name":"maxWithdraw","inputs":[{"name":"owner","type":"address","internalType":"address"}],"outputs":[{"name":"","type":"uint256","internalType":"uint256"}],"stateMutability":"view"},{"type":"function","name":"mint","inputs":[{"name":"shares","type":"uint256","internalType":"uint256"},{"name":"receiver","type":"address","internalType":"address"}],"outputs":[{"name":"","type":"uint256","internalType":"uint256"}],"stateMutability":"nonpayable"},{"type":"function","name":"name","inputs":[],"outputs":[{"name":"","type":"string","internalType":"string"}],"stateMutability":"view"},{"type":"function","name":"nftOriginalOwner","inputs":[{"name":"","type":"uint256","internalType":"uint256"}],"outputs":[{"name":"","type":"address","internalType":"address"}],"stateMutability":"view"},{"type":"function","name":"onERC721Received","inputs":[{"name":"","type":"address","internalType":"address"},{"name":"","type":"address","internalType":"address"},{"name":"","type":"uint256","internalType":"uint256"},{"name":"","type":"bytes","internalType":"bytes"}],"outputs":[{"name":"","type":"bytes4","internalType":"bytes4"}],"stateMutability":"nonpayable"},{"type":"function","name":"owner","inputs":[],"outputs":[{"name":"","type":"address","internalType":"address"}],"stateMutability":"view"},{"type":"function","name":"previewDeposit","inputs":[{"name":"assets","type":"uint256","internalType":"uint256"}],"outputs":[{"name":"","type":"uint256","internalType":"uint256"}],"stateMutability":"view"},{"type":"function","name":"previewMint","inputs":[{"name":"shares","type":"uint256","internalType":"uint256"}],"outputs":[{"name":"","type":"uint256","internalType":"uint256"}],"stateMutability":"view"},{"type":"function","name":"previewRedeem","inputs":[{"name":"shares","type":"uint256","internalType":"uint256"}],"outputs":[{"name":"","type":"uint256","internalType":"uint256"}],"stateMutability":"view"},{"type":"function","name":"previewWithdraw","inputs":[{"name":"assets","type":"uint256","internalType":"uint256"}],"outputs":[{"name":"","type":"uint256","internalType":"uint256"}],"stateMutability":"view"},{"type":"function","name":"redeem","inputs":[{"name":"shares","type":"uint256","internalType":"uint256"},{"name":"receiver","type":"address","internalType":"address"},{"name":"owner","type":"address","internalType":"address"}],"outputs":[{"name":"","type":"uint256","internalType":"uint256"}],"stateMutability":"nonpayable"},{"type":"function","name":"renounceOwnership","inputs":[],"outputs":[],"stateMutability":"nonpayable"},{"type":"function","name":"symbol","inputs":[],"outputs":[{"name":"","type":"string","internalType":"string"}],"stateMutability":"view"},{"type":"function","name":"totalAssets","inputs":[],"outputs":[{"name":"","type":"uint256","internalType":"uint256"}],"stateMutability":"view"},{"type":"function","name":"totalSupply","inputs":[],"outputs":[{"name":"","type":"uint256","internalType":"uint256"}],"stateMutability":"view"},{"type":"function","name":"transfer","inputs":[{"name":"to","type":"address","internalType":"address"},{"name":"value","type":"uint256","internalType":"uint256"}],"outputs":[{"name":"","type":"bool","internalType":"bool"}],"stateMutability":"nonpayable"},{"type":"function","name":"transferFrom","inputs":[{"name":"from","type":"address","internalType":"address"},{"name":"to","type":"address","internalType":"address"},{"name":"value","type":"uint256","internalType":"uint256"}],"outputs":[{"name":"","type":"bool","internalType":"bool"}],"stateMutability":"nonpayable"},{"type":"function","name":"transferOwnership","inputs":[{"name":"newOwner","type":"address","internalType":"address"}],"outputs":[],"stateMutability":"nonpayable"},{"type":"function","name":"withdraw","inputs":[{"name":"assets","type":"uint256","internalType":"uint256"},{"name":"receiver","type":"address","internalType":"address"},{"name":"owner","type":"address","internalType":"address"}],"outputs":[{"name":"","type":"uint256","internalType":"uint256"}],"stateMutability":"nonpayable"},{"type":"function","name":"withdrawNFT","inputs":[{"name":"nftId","type":"uint256","internalType":"uint256"}],"outputs":[],"stateMutability":"nonpayable"},{"type":"event","name":"Approval","inputs":[{"name":"owner","type":"address","indexed":true,"internalType":"address"},{"name":"spender","type":"address","indexed":true,"internalType":"address"},{"name":"value","type":"uint256","indexed":false,"internalType":"uint256"}],"anonymous":false},{"type":"event","name":"Deposit","inputs":[{"name":"sender","type":"address","indexed":true,"internalType":"address"},{"name":"owner","type":"address","indexed":true,"internalType":"address"},{"name":"assets","type":"uint256","indexed":false,"internalType":"uint256"},{"name":"shares","type":"uint256","indexed":false,"internalType":"uint256"}],"anonymous":false},{"type":"event","name":"OwnershipTransferred","inputs":[{"name":"previousOwner","type":"address","indexed":true,"internalType":"address"},{"name":"newOwner","type":"address","indexed":true,"internalType":"address"}],"anonymous":false},{"type":"event","name":"Transfer","inputs":[{"name":"from","type":"address","indexed":true,"internalType":"address"},{"name":"to","type":"address","indexed":true,"internalType":"address"},{"name":"value","type":"uint256","indexed":false,"internalType":"uint256"}],"anonymous":false},{"type":"event","name":"Withdraw","inputs":[{"name":"sender","type":"address","indexed":true,"internalType":"address"},{"name":"receiver","type":"address","indexed":true,"internalType":"address"},{"name":"owner","type":"address","indexed":true,"internalType":"address"},{"name":"assets","type":"uint256","indexed":false,"internalType":"uint256"},{"name":"shares","type":"uint256","indexed":false,"internalType":"uint256"}],"anonymous":false},{"type":"error","name":"ERC20InsufficientAllowance","inputs":[{"name":"spender","type":"address","internalType":"address"},{"name":"allowance","type":"uint256","internalType":"uint256"},{"name":"needed","type":"uint256","internalType":"uint256"}]},{"type":"error","name":"ERC20InsufficientBalance","inputs":[{"name":"sender","type":"address","internalType":"address"},{"name":"balance","type":"uint256","internalType":"uint256"},{"name":"needed","type":"uint256","internalType":"uint256"}]},{"type":"error","name":"ERC20InvalidApprover","inputs":[{"name":"approver","type":"address","internalType":"address"}]},{"type":"error","name":"ERC20InvalidReceiver","inputs":[{"name":"receiver","type":"address","internalType":"address"}]},{"type":"error","name":"ERC20InvalidSender","inputs":[{"name":"sender","type":"address","internalType":"address"}]},{"type":"error","name":"ERC20InvalidSpender","inputs":[{"name":"spender","type":"address","internalType":"address"}]},{"type":"error","name":"ERC4626ExceededMaxDeposit","inputs":[{"name":"receiver","type":"address","internalType":"address"},{"name":"assets","type":"uint256","internalType":"uint256"},{"name":"max","type":"uint256","internalType":"uint256"}]},{"type":"error","name":"ERC4626ExceededMaxMint","inputs":[{"name":"receiver","type":"address","internalType":"address"},{"name":"shares","type":"uint256","internalType":"uint256"},{"name":"max","type":"uint256","internalType":"uint256"}]},{"type":"error","name":"ERC4626ExceededMaxRedeem","inputs":[{"name":"owner","type":"address","internalType":"address"},{"name":"shares","type":"uint256","internalType":"uint256"},{"name":"max","type":"uint256","internalType":"uint256"}]},{"type":"error","name":"ERC4626ExceededMaxWithdraw","inputs":[{"name":"owner","type":"address","internalType":"address"},{"name":"assets","type":"uint256","internalType":"uint256"},{"name":"max","type":"uint256","internalType":"uint256"}]},{"type":"error","name":"NotNFTOwner","inputs":[]},{"type":"error","name":"OwnableInvalidOwner","inputs":[{"name":"owner","type":"address","internalType":"address"}]},{"type":"error","name":"OwnableUnauthorizedAccount","inputs":[{"name":"account","type":"address","internalType":"address"}]},{"type":"error","name":"SafeERC20FailedOperation","inputs":[{"name":"token","type":"address","internalType":"address"}]}],"bytecode":{"object":"0x60e060405234801561000f575f5ffd5b506040516131a63803806131a683398181016040528101906100319190610448565b33826040518060400160405280601181526020017f5661756c7420536861726520546f6b656e0000000000000000000000000000008152506040518060400160405280600281526020017f765300000000000000000000000000000000000000000000000000000000000081525081600390816100ae91906106c3565b5080600490816100be91906106c3565b5050505f5f6100d2836101e360201b60201c565b91509150816100e25760126100e4565b805b60ff1660a08160ff16815250508273ffffffffffffffffffffffffffffffffffffffff1660808173ffffffffffffffffffffffffffffffffffffffff16815250505050505f73ffffffffffffffffffffffffffffffffffffffff168173ffffffffffffffffffffffffffffffffffffffff1603610198575f6040517f1e4fbdf700000000000000000000000000000000000000000000000000000000815260040161018f91906107a1565b60405180910390fd5b6101a7816102ec60201b60201c565b508073ffffffffffffffffffffffffffffffffffffffff1660c08173ffffffffffffffffffffffffffffffffffffffff16815250505050610877565b5f5f5f5f8473ffffffffffffffffffffffffffffffffffffffff1660405160240160405160208183030381529060405263313ce56760e01b6020820180517bffffffffffffffffffffffffffffffffffffffffffffffffffffffff8381831617835250505050604051610256919061080c565b5f60405180830381855afa9150503d805f811461028e576040519150601f19603f3d011682016040523d82523d5f602084013e610293565b606091505b50915091508180156102a757506020815110155b156102de575f818060200190518101906102c1919061084c565b905060ff801681116102dc57600181945094505050506102e7565b505b5f5f9350935050505b915091565b5f60055f9054906101000a900473ffffffffffffffffffffffffffffffffffffffff1690508160055f6101000a81548173ffffffffffffffffffffffffffffffffffffffff021916908373ffffffffffffffffffffffffffffffffffffffff1602179055508173ffffffffffffffffffffffffffffffffffffffff168173ffffffffffffffffffffffffffffffffffffffff167f8be0079c531659141344cd1fd0a4f28419497f9722a3daafe3b4186f6b6457e060405160405180910390a35050565b5f5ffd5b5f73ffffffffffffffffffffffffffffffffffffffff82169050919050565b5f6103dc826103b3565b9050919050565b5f6103ed826103d2565b9050919050565b6103fd816103e3565b8114610407575f5ffd5b50565b5f81519050610418816103f4565b92915050565b610427816103d2565b8114610431575f5ffd5b50565b5f815190506104428161041e565b92915050565b5f5f6040838503121561045e5761045d6103af565b5b5f61046b8582860161040a565b925050602061047c85828601610434565b9150509250929050565b5f81519050919050565b7f4e487b71000000000000000000000000000000000000000000000000000000005f52604160045260245ffd5b7f4e487b71000000000000000000000000000000000000000000000000000000005f52602260045260245ffd5b5f600282049050600182168061050157607f821691505b602082108103610514576105136104bd565b5b50919050565b5f819050815f5260205f209050919050565b5f6020601f8301049050919050565b5f82821b905092915050565b5f600883026105767fffffffffffffffffffffffffffffffffffffffffffffffffffffffffffffffff8261053b565b610580868361053b565b95508019841693508086168417925050509392505050565b5f819050919050565b5f819050919050565b5f6105c46105bf6105ba84610598565b6105a1565b610598565b9050919050565b5f819050919050565b6105dd836105aa565b6105f16105e9826105cb565b848454610547565b825550505050565b5f5f905090565b6106086105f9565b6106138184846105d4565b505050565b5b818110156106365761062b5f82610600565b600181019050610619565b5050565b601f82111561067b5761064c8161051a565b6106558461052c565b81016020851015610664578190505b6106786106708561052c565b830182610618565b50505b505050565b5f82821c905092915050565b5f61069b5f1984600802610680565b1980831691505092915050565b5f6106b3838361068c565b9150826002028217905092915050565b6106cc82610486565b67ffffffffffffffff8111156106e5576106e4610490565b5b6106ef82546104ea565b6106fa82828561063a565b5f60209050601f83116001811461072b575f8415610719578287015190505b61072385826106a8565b86555061078a565b601f1984166107398661051a565b5f5b828110156107605784890151825560018201915060208501945060208101905061073b565b8683101561077d5784890151610779601f89168261068c565b8355505b6001600288020188555050505b505050505050565b61079b816103d2565b82525050565b5f6020820190506107b45f830184610792565b92915050565b5f81519050919050565b5f81905092915050565b8281835e5f83830152505050565b5f6107e6826107ba565b6107f081856107c4565b93506108008185602086016107ce565b80840191505092915050565b5f61081782846107dc565b915081905092915050565b61082b81610598565b8114610835575f5ffd5b50565b5f8151905061084681610822565b92915050565b5f60208284031215610861576108606103af565b5b5f61086e84828501610838565b91505092915050565b60805160a05160c0516128f76108af5f395f81816108a001528181610aea015261105c01525f610a5801525f610a8901526128f75ff3fe608060405234801561000f575f5ffd5b50600436106101f9575f3560e01c8063715018a611610118578063ba087652116100ab578063d905777e1161007a578063d905777e14610673578063dd62ed3e146106a3578063e91a7ca6146106d3578063ef8b30f7146106ef578063f2fde38b1461071f576101f9565b8063ba087652146105b3578063c63d75b6146105e3578063c6e6f59214610613578063ce96cb7714610643576101f9565b806395d89b41116100e757806395d89b4114610505578063a9059cbb14610523578063b3d7f6b914610553578063b460af9414610583576101f9565b8063715018a61461047d5780637a032634146104875780638da5cb5b146104b757806394bf804d146104d5576101f9565b806323b872dd116101905780634cdad5061161015f5780634cdad506146103cf5780635ef449fd146103ff5780636e553f651461041d57806370a082311461044d576101f9565b806323b872dd14610333578063313ce5671461036357806338d52e0f14610381578063402d267d1461039f576101f9565b8063095ea7b3116101cc578063095ea7b3146102855780630a28a477146102b5578063150b7a02146102e557806318160ddd14610315576101f9565b806301e1d114146101fd578063023245d71461021b57806306fdde031461023757806307a2d13a14610255575b5f5ffd5b61020561073b565b6040516102129190611ef2565b60405180910390f35b61023560048036038101906102309190611f46565b6107c0565b005b61023f61092c565b60405161024c9190611fe1565b60405180910390f35b61026f600480360381019061026a9190611f46565b6109bc565b60405161027c9190611ef2565b60405180910390f35b61029f600480360381019061029a919061205b565b6109ce565b6040516102ac91906120b3565b60405180910390f35b6102cf60048036038101906102ca9190611f46565b6109f0565b6040516102dc9190611ef2565b60405180910390f35b6102ff60048036038101906102fa91906121f8565b610a03565b60405161030c91906122b2565b60405180910390f35b61031d610a16565b60405161032a9190611ef2565b60405180910390f35b61034d600480360381019061034891906122cb565b610a1f565b60405161035a91906120b3565b60405180910390f35b61036b610a4d565b6040516103789190612336565b60405180910390f35b610389610a86565b604051610396919061235e565b60405180910390f35b6103b960048036038101906103b49190612377565b610aad565b6040516103c69190611ef2565b60405180910390f35b6103e960048036038101906103e49190611f46565b610ad6565b6040516103f69190611ef2565b60405180910390f35b610407610ae8565b604051610414919061235e565b60405180910390f35b610437600480360381019061043291906123a2565b610b0c565b6040516104449190611ef2565b60405180910390f35b61046760048036038101906104629190612377565b610b8c565b6040516104749190611ef2565b60405180910390f35b610485610bd1565b005b6104a1600480360381019061049c9190611f46565b610be4565b6040516104ae919061235e565b60405180910390f35b6104bf610c14565b6040516104cc919061235e565b60405180910390f35b6104ef60048036038101906104ea91906123a2565b610c3c565b6040516104fc9190611ef2565b60405180910390f35b61050d610cbc565b60405161051a9190611fe1565b60405180910390f35b61053d6004803603810190610538919061205b565b610d4c565b60405161054a91906120b3565b60405180910390f35b61056d60048036038101906105689190611f46565b610d6e565b60405161057a9190611ef2565b60405180910390f35b61059d600480360381019061059891906123e0565b610d81565b6040516105aa9190611ef2565b60405180910390f35b6105cd60048036038101906105c891906123e0565b610e03565b6040516105da9190611ef2565b60405180910390f35b6105fd60048036038101906105f89190612377565b610e85565b60405161060a9190611ef2565b60405180910390f35b61062d60048036038101906106289190611f46565b610eae565b60405161063a9190611ef2565b60405180910390f35b61065d60048036038101906106589190612377565b610ec0565b60405161066a9190611ef2565b60405180910390f35b61068d60048036038101906106889190612377565b610eda565b60405161069a9190611ef2565b60405180910390f35b6106bd60048036038101906106b89190612430565b610eeb565b6040516106ca9190611ef2565b60405180910390f35b6106ed60048036038101906106e89190611f46565b610f6d565b005b61070960048036038101906107049190611f46565b6110fe565b6040516107169190611ef2565b60405180910390f35b61073960048036038101906107349190612377565b611110565b005b5f610744610a86565b73ffffffffffffffffffffffffffffffffffffffff166370a08231306040518263ffffffff1660e01b815260040161077c919061235e565b602060405180830381865afa158015610797573d5f5f3e3d5ffd5b505050506040513d601f19601f820116820180604052508101906107bb9190612482565b905090565b3373ffffffffffffffffffffffffffffffffffffffff1660065f8381526020019081526020015f205f9054906101000a900473ffffffffffffffffffffffffffffffffffffffff1673ffffffffffffffffffffffffffffffffffffffff1614610855576040517f4088c61c00000000000000000000000000000000000000000000000000000000815260040160405180910390fd5b5f61085f82611194565b905061086b33826111a6565b60065f8381526020019081526020015f205f6101000a81549073ffffffffffffffffffffffffffffffffffffffff02191690557f000000000000000000000000000000000000000000000000000000000000000073ffffffffffffffffffffffffffffffffffffffff166342842e0e3033856040518463ffffffff1660e01b81526004016108fb939291906124ad565b5f604051808303815f87803b158015610912575f5ffd5b505af1158015610924573d5f5f3e3d5ffd5b505050505050565b60606003805461093b9061250f565b80601f01602080910402602001604051908101604052809291908181526020018280546109679061250f565b80156109b25780601f10610989576101008083540402835291602001916109b2565b820191905f5260205f20905b81548152906001019060200180831161099557829003601f168201915b5050505050905090565b5f6109c7825f611225565b9050919050565b5f5f6109d861127d565b90506109e5818585611284565b600191505092915050565b5f6109fc826001611296565b9050919050565b5f63150b7a0260e01b9050949350505050565b5f600254905090565b5f5f610a2961127d565b9050610a368582856112ee565b610a41858585611381565b60019150509392505050565b5f610a56611471565b7f0000000000000000000000000000000000000000000000000000000000000000610a81919061256c565b905090565b5f7f0000000000000000000000000000000000000000000000000000000000000000905090565b5f7fffffffffffffffffffffffffffffffffffffffffffffffffffffffffffffffff9050919050565b5f610ae1825f611225565b9050919050565b7f000000000000000000000000000000000000000000000000000000000000000081565b5f5f610b1783610aad565b905080841115610b62578284826040517f79012fb2000000000000000000000000000000000000000000000000000000008152600401610b59939291906125a0565b60405180910390fd5b5f610b6c856110fe565b9050610b81610b7961127d565b858784611478565b809250505092915050565b5f5f5f8373ffffffffffffffffffffffffffffffffffffffff1673ffffffffffffffffffffffffffffffffffffffff1681526020019081526020015f20549050919050565b610bd9611502565b610be25f611589565b565b6006602052805f5260405f205f915054906101000a900473ffffffffffffffffffffffffffffffffffffffff1681565b5f60055f9054906101000a900473ffffffffffffffffffffffffffffffffffffffff16905090565b5f5f610c4783610e85565b905080841115610c92578284826040517f284ff667000000000000000000000000000000000000000000000000000000008152600401610c89939291906125a0565b60405180910390fd5b5f610c9c85610d6e565b9050610cb1610ca961127d565b858388611478565b809250505092915050565b606060048054610ccb9061250f565b80601f0160208091040260200160405190810160405280929190818152602001828054610cf79061250f565b8015610d425780601f10610d1957610100808354040283529160200191610d42565b820191905f5260205f20905b815481529060010190602001808311610d2557829003601f168201915b5050505050905090565b5f5f610d5661127d565b9050610d63818585611381565b600191505092915050565b5f610d7a826001611225565b9050919050565b5f5f610d8c83610ec0565b905080851115610dd7578285826040517ffe9cceec000000000000000000000000000000000000000000000000000000008152600401610dce939291906125a0565b60405180910390fd5b5f610de1866109f0565b9050610df7610dee61127d565b8686898561164c565b80925050509392505050565b5f5f610e0e83610eda565b905080851115610e59578285826040517fb94abeec000000000000000000000000000000000000000000000000000000008152600401610e50939291906125a0565b60405180910390fd5b5f610e6386610ad6565b9050610e79610e7061127d565b8686848a61164c565b80925050509392505050565b5f7fffffffffffffffffffffffffffffffffffffffffffffffffffffffffffffffff9050919050565b5f610eb9825f611296565b9050919050565b5f610ed3610ecd83610b8c565b5f611225565b9050919050565b5f610ee482610b8c565b9050919050565b5f60015f8473ffffffffffffffffffffffffffffffffffffffff1673ffffffffffffffffffffffffffffffffffffffff1681526020019081526020015f205f8373ffffffffffffffffffffffffffffffffffffffff1673ffffffffffffffffffffffffffffffffffffffff1681526020019081526020015f2054905092915050565b5f73ffffffffffffffffffffffffffffffffffffffff1660065f8381526020019081526020015f205f9054906101000a900473ffffffffffffffffffffffffffffffffffffffff1673ffffffffffffffffffffffffffffffffffffffff161461100b576040517f08c379a00000000000000000000000000000000000000000000000000000000081526004016110029061261f565b60405180910390fd5b3360065f8381526020019081526020015f205f6101000a81548173ffffffffffffffffffffffffffffffffffffffff021916908373ffffffffffffffffffffffffffffffffffffffff1602179055507f000000000000000000000000000000000000000000000000000000000000000073ffffffffffffffffffffffffffffffffffffffff166342842e0e3330846040518463ffffffff1660e01b81526004016110b7939291906124ad565b5f604051808303815f87803b1580156110ce575f5ffd5b505af11580156110e0573d5f5f3e3d5ffd5b505050505f6110ee82611194565b90506110fa338261172c565b5050565b5f611109825f611296565b9050919050565b611118611502565b5f73ffffffffffffffffffffffffffffffffffffffff168173ffffffffffffffffffffffffffffffffffffffff1603611188575f6040517f1e4fbdf700000000000000000000000000000000000000000000000000000000815260040161117f919061235e565b60405180910390fd5b61119181611589565b50565b5f68056bc75e2d631000009050919050565b5f73ffffffffffffffffffffffffffffffffffffffff168273ffffffffffffffffffffffffffffffffffffffff1603611216575f6040517f96c6fd1e00000000000000000000000000000000000000000000000000000000815260040161120d919061235e565b60405180910390fd5b611221825f836117ab565b5050565b5f611275600161123361073b565b61123d919061263d565b611245611471565b600a611251919061279f565b611259610a16565b611263919061263d565b84866119c4909392919063ffffffff16565b905092915050565b5f33905090565b6112918383836001611a11565b505050565b5f6112e66112a2611471565b600a6112ae919061279f565b6112b6610a16565b6112c0919061263d565b60016112ca61073b565b6112d4919061263d565b84866119c4909392919063ffffffff16565b905092915050565b5f6112f98484610eeb565b90507fffffffffffffffffffffffffffffffffffffffffffffffffffffffffffffffff81101561137b578181101561136c578281836040517ffb8f41b2000000000000000000000000000000000000000000000000000000008152600401611363939291906125a0565b60405180910390fd5b61137a84848484035f611a11565b5b50505050565b5f73ffffffffffffffffffffffffffffffffffffffff168373ffffffffffffffffffffffffffffffffffffffff16036113f1575f6040517f96c6fd1e0000000000000000000000000000000000000000000000000000000081526004016113e8919061235e565b60405180910390fd5b5f73ffffffffffffffffffffffffffffffffffffffff168273ffffffffffffffffffffffffffffffffffffffff1603611461575f6040517fec442f05000000000000000000000000000000000000000000000000000000008152600401611458919061235e565b60405180910390fd5b61146c8383836117ab565b505050565b5f5f905090565b61148b611483610a86565b853085611be0565b611495838261172c565b8273ffffffffffffffffffffffffffffffffffffffff168473ffffffffffffffffffffffffffffffffffffffff167fdcbc1c05240f31ff3ad067ef1ee35ce4997762752e3a095284754544f4c709d784846040516114f49291906127e9565b60405180910390a350505050565b61150a61127d565b73ffffffffffffffffffffffffffffffffffffffff16611528610c14565b73ffffffffffffffffffffffffffffffffffffffff16146115875761154b61127d565b6040517f118cdaa700000000000000000000000000000000000000000000000000000000815260040161157e919061235e565b60405180910390fd5b565b5f60055f9054906101000a900473ffffffffffffffffffffffffffffffffffffffff1690508160055f6101000a81548173ffffffffffffffffffffffffffffffffffffffff021916908373ffffffffffffffffffffffffffffffffffffffff1602179055508173ffffffffffffffffffffffffffffffffffffffff168173ffffffffffffffffffffffffffffffffffffffff167f8be0079c531659141344cd1fd0a4f28419497f9722a3daafe3b4186f6b6457e060405160405180910390a35050565b8273ffffffffffffffffffffffffffffffffffffffff168573ffffffffffffffffffffffffffffffffffffffff161461168b5761168a8386836112ee565b5b61169583826111a6565b6116a76116a0610a86565b8584611c62565b8273ffffffffffffffffffffffffffffffffffffffff168473ffffffffffffffffffffffffffffffffffffffff168673ffffffffffffffffffffffffffffffffffffffff167ffbde797d201c681b91056529119e0b02407c7bb96a4a2c75c01fc9667232c8db858560405161171d9291906127e9565b60405180910390a45050505050565b5f73ffffffffffffffffffffffffffffffffffffffff168273ffffffffffffffffffffffffffffffffffffffff160361179c575f6040517fec442f05000000000000000000000000000000000000000000000000000000008152600401611793919061235e565b60405180910390fd5b6117a75f83836117ab565b5050565b5f73ffffffffffffffffffffffffffffffffffffffff168373ffffffffffffffffffffffffffffffffffffffff16036117fb578060025f8282546117ef919061263d565b925050819055506118c9565b5f5f5f8573ffffffffffffffffffffffffffffffffffffffff1673ffffffffffffffffffffffffffffffffffffffff1681526020019081526020015f2054905081811015611884578381836040517fe450d38c00000000000000000000000000000000000000000000000000000000815260040161187b939291906125a0565b60405180910390fd5b8181035f5f8673ffffffffffffffffffffffffffffffffffffffff1673ffffffffffffffffffffffffffffffffffffffff1681526020019081526020015f2081905550505b5f73ffffffffffffffffffffffffffffffffffffffff168273ffffffffffffffffffffffffffffffffffffffff1603611910578060025f828254039250508190555061195a565b805f5f8473ffffffffffffffffffffffffffffffffffffffff1673ffffffffffffffffffffffffffffffffffffffff1681526020019081526020015f205f82825401925050819055505b8173ffffffffffffffffffffffffffffffffffffffff168373ffffffffffffffffffffffffffffffffffffffff167fddf252ad1be2c89b69c2b068fc378daa952ba7f163c4a11628f55a4df523b3ef836040516119b79190611ef2565b60405180910390a3505050565b5f6119f26119d183611ce1565b80156119ed57505f84806119e8576119e7612810565b5b868809115b611d0e565b6119fd868686611d19565b611a07919061263d565b9050949350505050565b5f73ffffffffffffffffffffffffffffffffffffffff168473ffffffffffffffffffffffffffffffffffffffff1603611a81575f6040517fe602df05000000000000000000000000000000000000000000000000000000008152600401611a78919061235e565b60405180910390fd5b5f73ffffffffffffffffffffffffffffffffffffffff168373ffffffffffffffffffffffffffffffffffffffff1603611af1575f6040517f94280d62000000000000000000000000000000000000000000000000000000008152600401611ae8919061235e565b60405180910390fd5b8160015f8673ffffffffffffffffffffffffffffffffffffffff1673ffffffffffffffffffffffffffffffffffffffff1681526020019081526020015f205f8573ffffffffffffffffffffffffffffffffffffffff1673ffffffffffffffffffffffffffffffffffffffff1681526020019081526020015f20819055508015611bda578273ffffffffffffffffffffffffffffffffffffffff168473ffffffffffffffffffffffffffffffffffffffff167f8c5be1e5ebec7d5bd14f71427d1e84f3dd0314c0f7b2291e5b200ac8c7c3b92584604051611bd19190611ef2565b60405180910390a35b50505050565b611c5c848573ffffffffffffffffffffffffffffffffffffffff166323b872dd868686604051602401611c15939291906124ad565b604051602081830303815290604052915060e01b6020820180517bffffffffffffffffffffffffffffffffffffffffffffffffffffffff8381831617835250505050611df8565b50505050565b611cdc838473ffffffffffffffffffffffffffffffffffffffff1663a9059cbb8585604051602401611c9592919061283d565b604051602081830303815290604052915060e01b6020820180517bffffffffffffffffffffffffffffffffffffffffffffffffffffffff8381831617835250505050611df8565b505050565b5f60016002836003811115611cf957611cf8612864565b5b611d039190612891565b60ff16149050919050565b5f8115159050919050565b5f5f5f611d268686611e93565b915091505f8203611d4b57838181611d4157611d40612810565b5b0492505050611df1565b818411611d6a57611d69611d645f861460126011611eb0565b611ec9565b5b5f8486880990508181118303925080820391505f855f038616905080860495508083049250600181825f0304019050808402831792505f600287600302189050808702600203810290508087026002038102905080870260020381029050808702600203810290508087026002038102905080870260020381029050808402955050505050505b9392505050565b5f5f60205f8451602086015f885af180611e17576040513d5f823e3d81fd5b3d92505f519150505f8214611e30576001811415611e4b565b5f8473ffffffffffffffffffffffffffffffffffffffff163b145b15611e8d57836040517f5274afe7000000000000000000000000000000000000000000000000000000008152600401611e84919061235e565b60405180910390fd5b50505050565b5f5f5f198385098385029150818110828203039250509250929050565b5f611eba84611d0e565b82841802821890509392505050565b634e487b715f52806020526024601cfd5b5f819050919050565b611eec81611eda565b82525050565b5f602082019050611f055f830184611ee3565b92915050565b5f604051905090565b5f5ffd5b5f5ffd5b611f2581611eda565b8114611f2f575f5ffd5b50565b5f81359050611f4081611f1c565b92915050565b5f60208284031215611f5b57611f5a611f14565b5b5f611f6884828501611f32565b91505092915050565b5f81519050919050565b5f82825260208201905092915050565b8281835e5f83830152505050565b5f601f19601f8301169050919050565b5f611fb382611f71565b611fbd8185611f7b565b9350611fcd818560208601611f8b565b611fd681611f99565b840191505092915050565b5f6020820190508181035f830152611ff98184611fa9565b905092915050565b5f73ffffffffffffffffffffffffffffffffffffffff82169050919050565b5f61202a82612001565b9050919050565b61203a81612020565b8114612044575f5ffd5b50565b5f8135905061205581612031565b92915050565b5f5f6040838503121561207157612070611f14565b5b5f61207e85828601612047565b925050602061208f85828601611f32565b9150509250929050565b5f8115159050919050565b6120ad81612099565b82525050565b5f6020820190506120c65f8301846120a4565b92915050565b5f5ffd5b5f5ffd5b7f4e487b71000000000000000000000000000000000000000000000000000000005f52604160045260245ffd5b61210a82611f99565b810181811067ffffffffffffffff82111715612129576121286120d4565b5b80604052505050565b5f61213b611f0b565b90506121478282612101565b919050565b5f67ffffffffffffffff821115612166576121656120d4565b5b61216f82611f99565b9050602081019050919050565b828183375f83830152505050565b5f61219c6121978461214c565b612132565b9050828152602081018484840111156121b8576121b76120d0565b5b6121c384828561217c565b509392505050565b5f82601f8301126121df576121de6120cc565b5b81356121ef84826020860161218a565b91505092915050565b5f5f5f5f608085870312156122105761220f611f14565b5b5f61221d87828801612047565b945050602061222e87828801612047565b935050604061223f87828801611f32565b925050606085013567ffffffffffffffff8111156122605761225f611f18565b5b61226c878288016121cb565b91505092959194509250565b5f7fffffffff0000000000000000000000000000000000000000000000000000000082169050919050565b6122ac81612278565b82525050565b5f6020820190506122c55f8301846122a3565b92915050565b5f5f5f606084860312156122e2576122e1611f14565b5b5f6122ef86828701612047565b935050602061230086828701612047565b925050604061231186828701611f32565b9150509250925092565b5f60ff82169050919050565b6123308161231b565b82525050565b5f6020820190506123495f830184612327565b92915050565b61235881612020565b82525050565b5f6020820190506123715f83018461234f565b92915050565b5f6020828403121561238c5761238b611f14565b5b5f61239984828501612047565b91505092915050565b5f5f604083850312156123b8576123b7611f14565b5b5f6123c585828601611f32565b92505060206123d685828601612047565b9150509250929050565b5f5f5f606084860312156123f7576123f6611f14565b5b5f61240486828701611f32565b935050602061241586828701612047565b925050604061242686828701612047565b9150509250925092565b5f5f6040838503121561244657612445611f14565b5b5f61245385828601612047565b925050602061246485828601612047565b9150509250929050565b5f8151905061247c81611f1c565b92915050565b5f6020828403121561249757612496611f14565b5b5f6124a48482850161246e565b91505092915050565b5f6060820190506124c05f83018661234f565b6124cd602083018561234f565b6124da6040830184611ee3565b949350505050565b7f4e487b71000000000000000000000000000000000000000000000000000000005f52602260045260245ffd5b5f600282049050600182168061252657607f821691505b602082108103612539576125386124e2565b5b50919050565b7f4e487b71000000000000000000000000000000000000000000000000000000005f52601160045260245ffd5b5f6125768261231b565b91506125818361231b565b9250828201905060ff81111561259a5761259961253f565b5b92915050565b5f6060820190506125b35f83018661234f565b6125c06020830185611ee3565b6125cd6040830184611ee3565b949350505050565b7f4e465420616c7265616479206465706f736974656400000000000000000000005f82015250565b5f612609601583611f7b565b9150612614826125d5565b602082019050919050565b5f6020820190508181035f830152612636816125fd565b9050919050565b5f61264782611eda565b915061265283611eda565b925082820190508082111561266a5761266961253f565b5b92915050565b5f8160011c9050919050565b5f5f8291508390505b60018511156126c5578086048111156126a1576126a061253f565b5b60018516156126b05780820291505b80810290506126be85612670565b9450612685565b94509492505050565b5f826126dd5760019050612798565b816126ea575f9050612798565b8160018114612700576002811461270a57612739565b6001915050612798565b60ff84111561271c5761271b61253f565b5b8360020a9150848211156127335761273261253f565b5b50612798565b5060208310610133831016604e8410600b841016171561276e5782820a9050838111156127695761276861253f565b5b612798565b61277b848484600161267c565b925090508184048111156127925761279161253f565b5b81810290505b9392505050565b5f6127a982611eda565b91506127b48361231b565b92506127e17fffffffffffffffffffffffffffffffffffffffffffffffffffffffffffffffff84846126ce565b905092915050565b5f6040820190506127fc5f830185611ee3565b6128096020830184611ee3565b9392505050565b7f4e487b71000000000000000000000000000000000000000000000000000000005f52601260045260245ffd5b5f6040820190506128505f83018561234f565b61285d6020830184611ee3565b9392505050565b7f4e487b71000000000000000000000000000000000000000000000000000000005f52602160045260245ffd5b5f61289b8261231b565b91506128a68361231b565b9250826128b6576128b5612810565b5b82820690509291505056fea26469706673582212208a326e88919ef967292f7968db59a9cf4c324dda1a59f7a6fa9fccbfe67e613164736f6c634300081c0033","linkReferences":{}},"methodIdentifiers":{"allowance(address,address)":"dd62ed3e","approve(address,uint256)":"095ea7b3","asset()":"38d52e0f","balanceOf(address)":"70a08231","convertToAssets(uint256)":"07a2d13a","convertToShares(uint256)":"c6e6f592","decimals()":"313ce567","deposit(uint256,address)":"6e553f65","depositNFT(uint256)":"e91a7ca6","fNFT()":"5ef449fd","maxDeposit(address)":"402d267d","maxMint(address)":"c63d75b6","maxRedeem(address)":"d905777e","maxWithdraw(address)":"ce96cb77","mint(uint256,address)":"94bf804d","name()":"06fdde03","nftOriginalOwner(uint256)":"7a032634","onERC721Received(address,address,uint256,bytes)":"150b7a02","owner()":"8da5cb5b","previewDeposit(uint256)":"ef8b30f7","previewMint(uint256)":"b3d7f6b9","previewRedeem(uint256)":"4cdad506","previewWithdraw(uint256)":"0a28a477","redeem(uint256,address,address)":"ba087652","renounceOwnership()":"715018a6","symbol()":"95d89b41","totalAssets()":"01e1d114","totalSupply()":"18160ddd","transfer(address,uint256)":"a9059cbb","transferFrom(address,address,uint256)":"23b872dd","transferOwnership(address)":"f2fde38b","withdraw(uint256,address,address)":"b460af94","withdrawNFT(uint256)":"023245d7"},"id":58}