{"abi":[{"type":"constructor","inputs":[],"stateMutability":"nonpayable"},{"type":"function","name":"allowance","inputs":[{"name":"owner","type":"address","internalType":"address"},{"name":"spender","type":"address","internalType":"address"}],"outputs":[{"name":"","type":"uint256","internalType":"uint256"}],"stateMutability":"view"},{"type":"function","name":"approve","inputs":[{"name":"spender","type":"address","internalType":"address"},{"name":"value","type":"uint256","internalType":"uint256"}],"outputs":[{"name":"","type":"bool","internalType":"bool"}],"stateMutability":"nonpayable"},{"type":"function","name":"balanceOf","inputs":[{"name":"account","type":"address","internalType":"address"}],"outputs":[{"name":"","type":"uint256","internalType":"uint256"}],"stateMutability":"view"},{"type":"function","name":"burn","inputs":[{"name":"from","type":"address","internalType":"address"},{"name":"amount","type":"uint256","internalType":"uint256"}],"outputs":[],"stateMutability":"nonpayable"},{"type":"function","name":"decimals","inputs":[],"outputs":[{"name":"","type":"uint8","internalType":"uint8"}],"stateMutability":"view"},{"type":"function","name":"demoMint","inputs":[{"name":"to","type":"address","internalType":"address"},{"name":"amount","type":"uint256","internalType":"uint256"}],"outputs":[],"stateMutability":"nonpayable"},{"type":"function","name":"emergencyMint","inputs":[{"name":"to","type":"address","internalType":"address"},{"name":"amount","type":"uint256","internalType":"uint256"}],"outputs":[],"stateMutability":"nonpayable"},{"type":"function","name":"mint","inputs":[{"name":"to","type":"address","internalType":"address"},{"name":"amount","type":"uint256","internalType":"uint256"}],"outputs":[],"stateMutability":"nonpayable"},{"type":"function","name":"minter","inputs":[],"outputs":[{"name":"","type":"address","internalType":"address"}],"stateMutability":"view"},{"type":"function","name":"name","inputs":[],"outputs":[{"name":"","type":"string","internalType":"string"}],"stateMutability":"view"},{"type":"function","name":"owner","inputs":[],"outputs":[{"name":"","type":"address","internalType":"address"}],"stateMutability":"view"},{"type":"function","name":"renounceOwnership","inputs":[],"outputs":[],"stateMutability":"nonpayable"},{"type":"function","name":"setMinter","inputs":[{"name":"_minter","type":"address","internalType":"address"}],"outputs":[],"stateMutability":"nonpayable"},{"type":"function","name":"symbol","inputs":[],"outputs":[{"name":"","type":"string","internalType":"string"}],"stateMutability":"view"},{"type":"function","name":"totalSupply","inputs":[],"outputs":[{"name":"","type":"uint256","internalType":"uint256"}],"stateMutability":"view"},{"type":"function","name":"transfer","inputs":[{"name":"to","type":"address","internalType":"address"},{"name":"value","type":"uint256","internalType":"uint256"}],"outputs":[{"name":"","type":"bool","internalType":"bool"}],"stateMutability":"nonpayable"},{"type":"function","name":"transferFrom","inputs":[{"name":"from","type":"address","internalType":"address"},{"name":"to","type":"address","internalType":"address"},{"name":"value","type":"uint256","internalType":"uint256"}],"outputs":[{"name":"","type":"bool","internalType":"bool"}],"stateMutability":"nonpayable"},{"type":"function","name":"transferOwnership","inputs":[{"name":"newOwner","type":"address","internalType":"address"}],"outputs":[],"stateMutability":"nonpayable"},{"type":"event","name":"Approval","inputs":[{"name":"owner","type":"address","indexed":true,"internalType":"address"},{"name":"spender","type":"address","indexed":true,"internalType":"address"},{"name":"value","type":"uint256","indexed":false,"internalType":"uint256"}],"anonymous":false},{"type":"event","name":"OwnershipTransferred","inputs":[{"name":"previousOwner","type":"address","indexed":true,"internalType":"address"},{"name":"newOwner","type":"address","indexed":true,"internalType":"address"}],"anonymous":false},{"type":"event","name":"Transfer","inputs":[{"name":"from","type":"address","indexed":true,"internalType":"address"},{"name":"to","type":"address","indexed":true,"internalType":"address"},{"name":"value","type":"uint256","indexed":false,"internalType":"uint256"}],"anonymous":false},{"type":"error","name":"ERC20InsufficientAllowance","inputs":[{"name":"spender","type":"address","internalType":"address"},{"name":"allowance","type":"uint256","internalType":"uint256"},{"name":"needed","type":"uint256","internalType":"uint256"}]},{"type":"error","name":"ERC20InsufficientBalance","inputs":[{"name":"sender","type":"address","internalType":"address"},{"name":"balance","type":"uint256","internalType":"uint256"},{"name":"needed","type":"uint256","internalType":"uint256"}]},{"type":"error","name":"ERC20InvalidApprover","inputs":[{"name":"approver","type":"address","internalType":"address"}]},{"type":"error","name":"ERC20InvalidReceiver","inputs":[{"name":"receiver","type":"address","internalType":"address"}]},{"type":"error","name":"ERC20InvalidSender","inputs":[{"name":"sender","type":"address","internalType":"address"}]},{"type":"error","name":"ERC20InvalidSpender","inputs":[{"name":"spender","type":"address","internalType":"address"}]},{"type":"error","name":"OwnableInvalidOwner","inputs":[{"name":"owner","type":"address","internalType":"address"}]},{"type":"error","name":"OwnableUnauthorizedAccount","inputs":[{"name":"account","type":"address","internalType":"address"}]}],"bytecode":{"object":"0x608060405234801561000f575f5ffd5b50336040518060400160405280600781526020017f44656d6f207653000000000000000000000000000000000000000000000000008152506040518060400160405280600481526020017f442d765300000000000000000000000000000000000000000000000000000000815250816003908161008c9190610424565b50806004908161009c9190610424565b5050505f73ffffffffffffffffffffffffffffffffffffffff168173ffffffffffffffffffffffffffffffffffffffff160361010f575f6040517f1e4fbdf70000000000000000000000000000000000000000000000000000000081526004016101069190610532565b60405180910390fd5b61011e8161012460201b60201c565b5061054b565b5f60055f9054906101000a900473ffffffffffffffffffffffffffffffffffffffff1690508160055f6101000a81548173ffffffffffffffffffffffffffffffffffffffff021916908373ffffffffffffffffffffffffffffffffffffffff1602179055508173ffffffffffffffffffffffffffffffffffffffff168173ffffffffffffffffffffffffffffffffffffffff167f8be0079c531659141344cd1fd0a4f28419497f9722a3daafe3b4186f6b6457e060405160405180910390a35050565b5f81519050919050565b7f4e487b71000000000000000000000000000000000000000000000000000000005f52604160045260245ffd5b7f4e487b71000000000000000000000000000000000000000000000000000000005f52602260045260245ffd5b5f600282049050600182168061026257607f821691505b6020821081036102755761027461021e565b5b50919050565b5f819050815f5260205f209050919050565b5f6020601f8301049050919050565b5f82821b905092915050565b5f600883026102d77fffffffffffffffffffffffffffffffffffffffffffffffffffffffffffffffff8261029c565b6102e1868361029c565b95508019841693508086168417925050509392505050565b5f819050919050565b5f819050919050565b5f61032561032061031b846102f9565b610302565b6102f9565b9050919050565b5f819050919050565b61033e8361030b565b61035261034a8261032c565b8484546102a8565b825550505050565b5f5f905090565b61036961035a565b610374818484610335565b505050565b5b818110156103975761038c5f82610361565b60018101905061037a565b5050565b601f8211156103dc576103ad8161027b565b6103b68461028d565b810160208510156103c5578190505b6103d96103d18561028d565b830182610379565b50505b505050565b5f82821c905092915050565b5f6103fc5f19846008026103e1565b1980831691505092915050565b5f61041483836103ed565b9150826002028217905092915050565b61042d826101e7565b67ffffffffffffffff811115610446576104456101f1565b5b610450825461024b565b61045b82828561039b565b5f60209050601f83116001811461048c575f841561047a578287015190505b6104848582610409565b8655506104eb565b601f19841661049a8661027b565b5f5b828110156104c15784890151825560018201915060208501945060208101905061049c565b868310156104de57848901516104da601f8916826103ed565b8355505b6001600288020188555050505b505050505050565b5f73ffffffffffffffffffffffffffffffffffffffff82169050919050565b5f61051c826104f3565b9050919050565b61052c81610512565b82525050565b5f6020820190506105455f830184610523565b92915050565b611704806105585f395ff3fe608060405234801561000f575f5ffd5b5060043610610114575f3560e01c8063715018a6116100a05780639dc29fac1161006f5780639dc29fac146102ba578063a9059cbb146102d6578063dd62ed3e14610306578063f2fde38b14610336578063fca3b5aa1461035257610114565b8063715018a6146102585780638b12a262146102625780638da5cb5b1461027e57806395d89b411461029c57610114565b806323b872dd116100e757806323b872dd146101a2578063313ce567146101d257806340c10f19146101f057806343785dc91461020c57806370a082311461022857610114565b806306fdde03146101185780630754617214610136578063095ea7b31461015457806318160ddd14610184575b5f5ffd5b61012061036e565b60405161012d9190611245565b60405180910390f35b61013e6103fe565b60405161014b91906112a4565b60405180910390f35b61016e6004803603810190610169919061131e565b610423565b60405161017b9190611376565b60405180910390f35b61018c610445565b604051610199919061139e565b60405180910390f35b6101bc60048036038101906101b791906113b7565b61044e565b6040516101c99190611376565b60405180910390f35b6101da61047c565b6040516101e79190611422565b60405180910390f35b61020a6004803603810190610205919061131e565b610484565b005b6102266004803603810190610221919061131e565b610521565b005b610242600480360381019061023d919061143b565b610584565b60405161024f919061139e565b60405180910390f35b6102606105c9565b005b61027c6004803603810190610277919061131e565b6105dc565b005b610286610741565b60405161029391906112a4565b60405180910390f35b6102a4610769565b6040516102b19190611245565b60405180910390f35b6102d460048036038101906102cf919061131e565b6107f9565b005b6102f060048036038101906102eb919061131e565b610896565b6040516102fd9190611376565b60405180910390f35b610320600480360381019061031b9190611466565b6108b8565b60405161032d919061139e565b60405180910390f35b610350600480360381019061034b919061143b565b61093a565b005b61036c6004803603810190610367919061143b565b6109be565b005b60606003805461037d906114d1565b80601f01602080910402602001604051908101604052809291908181526020018280546103a9906114d1565b80156103f45780601f106103cb576101008083540402835291602001916103f4565b820191905f5260205f20905b8154815290600101906020018083116103d757829003601f168201915b5050505050905090565b60065f9054906101000a900473ffffffffffffffffffffffffffffffffffffffff1681565b5f5f61042d610a09565b905061043a818585610a10565b600191505092915050565b5f600254905090565b5f5f610458610a09565b9050610465858285610a22565b610470858585610ab5565b60019150509392505050565b5f6012905090565b60065f9054906101000a900473ffffffffffffffffffffffffffffffffffffffff1673ffffffffffffffffffffffffffffffffffffffff163373ffffffffffffffffffffffffffffffffffffffff1614610513576040517f08c379a000000000000000000000000000000000000000000000000000000000815260040161050a9061154b565b60405180910390fd5b61051d8282610ba5565b5050565b610529610c24565b690a968163f0a57b400000811115610576576040517f08c379a000000000000000000000000000000000000000000000000000000000815260040161056d906115b3565b60405180910390fd5b6105808282610ba5565b5050565b5f5f5f8373ffffffffffffffffffffffffffffffffffffffff1673ffffffffffffffffffffffffffffffffffffffff1681526020019081526020015f20549050919050565b6105d1610c24565b6105da5f610cab565b565b60065f9054906101000a900473ffffffffffffffffffffffffffffffffffffffff1673ffffffffffffffffffffffffffffffffffffffff163373ffffffffffffffffffffffffffffffffffffffff161461066b576040517f08c379a00000000000000000000000000000000000000000000000000000000081526004016106629061154b565b60405180910390fd5b683635c9adc5dea000008111156106b7576040517f08c379a00000000000000000000000000000000000000000000000000000000081526004016106ae9061161b565b60405180910390fd5b60028054828101808355845f525f60205260405f208054858101825550505050508173ffffffffffffffffffffffffffffffffffffffff165f73ffffffffffffffffffffffffffffffffffffffff167fddf252ad1be2c89b69c2b068fc378daa952ba7f163c4a11628f55a4df523b3ef83604051610735919061139e565b60405180910390a35050565b5f60055f9054906101000a900473ffffffffffffffffffffffffffffffffffffffff16905090565b606060048054610778906114d1565b80601f01602080910402602001604051908101604052809291908181526020018280546107a4906114d1565b80156107ef5780601f106107c6576101008083540402835291602001916107ef565b820191905f5260205f20905b8154815290600101906020018083116107d257829003601f168201915b5050505050905090565b60065f9054906101000a900473ffffffffffffffffffffffffffffffffffffffff1673ffffffffffffffffffffffffffffffffffffffff163373ffffffffffffffffffffffffffffffffffffffff1614610888576040517f08c379a000000000000000000000000000000000000000000000000000000000815260040161087f9061154b565b60405180910390fd5b6108928282610d6e565b5050565b5f5f6108a0610a09565b90506108ad818585610ab5565b600191505092915050565b5f60015f8473ffffffffffffffffffffffffffffffffffffffff1673ffffffffffffffffffffffffffffffffffffffff1681526020019081526020015f205f8373ffffffffffffffffffffffffffffffffffffffff1673ffffffffffffffffffffffffffffffffffffffff1681526020019081526020015f2054905092915050565b610942610c24565b5f73ffffffffffffffffffffffffffffffffffffffff168173ffffffffffffffffffffffffffffffffffffffff16036109b2575f6040517f1e4fbdf70000000000000000000000000000000000000000000000000000000081526004016109a991906112a4565b60405180910390fd5b6109bb81610cab565b50565b6109c6610c24565b8060065f6101000a81548173ffffffffffffffffffffffffffffffffffffffff021916908373ffffffffffffffffffffffffffffffffffffffff16021790555050565b5f33905090565b610a1d8383836001610ded565b505050565b5f610a2d84846108b8565b90507fffffffffffffffffffffffffffffffffffffffffffffffffffffffffffffffff811015610aaf5781811015610aa0578281836040517ffb8f41b2000000000000000000000000000000000000000000000000000000008152600401610a9793929190611639565b60405180910390fd5b610aae84848484035f610ded565b5b50505050565b5f73ffffffffffffffffffffffffffffffffffffffff168373ffffffffffffffffffffffffffffffffffffffff1603610b25575f6040517f96c6fd1e000000000000000000000000000000000000000000000000000000008152600401610b1c91906112a4565b60405180910390fd5b5f73ffffffffffffffffffffffffffffffffffffffff168273ffffffffffffffffffffffffffffffffffffffff1603610b95575f6040517fec442f05000000000000000000000000000000000000000000000000000000008152600401610b8c91906112a4565b60405180910390fd5b610ba0838383610fbc565b505050565b5f73ffffffffffffffffffffffffffffffffffffffff168273ffffffffffffffffffffffffffffffffffffffff1603610c15575f6040517fec442f05000000000000000000000000000000000000000000000000000000008152600401610c0c91906112a4565b60405180910390fd5b610c205f8383610fbc565b5050565b610c2c610a09565b73ffffffffffffffffffffffffffffffffffffffff16610c4a610741565b73ffffffffffffffffffffffffffffffffffffffff1614610ca957610c6d610a09565b6040517f118cdaa7000000000000000000000000000000000000000000000000000000008152600401610ca091906112a4565b60405180910390fd5b565b5f60055f9054906101000a900473ffffffffffffffffffffffffffffffffffffffff1690508160055f6101000a81548173ffffffffffffffffffffffffffffffffffffffff021916908373ffffffffffffffffffffffffffffffffffffffff1602179055508173ffffffffffffffffffffffffffffffffffffffff168173ffffffffffffffffffffffffffffffffffffffff167f8be0079c531659141344cd1fd0a4f28419497f9722a3daafe3b4186f6b6457e060405160405180910390a35050565b5f73ffffffffffffffffffffffffffffffffffffffff168273ffffffffffffffffffffffffffffffffffffffff1603610dde575f6040517f96c6fd1e000000000000000000000000000000000000000000000000000000008152600401610dd591906112a4565b60405180910390fd5b610de9825f83610fbc565b5050565b5f73ffffffffffffffffffffffffffffffffffffffff168473ffffffffffffffffffffffffffffffffffffffff1603610e5d575f6040517fe602df05000000000000000000000000000000000000000000000000000000008152600401610e5491906112a4565b60405180910390fd5b5f73ffffffffffffffffffffffffffffffffffffffff168373ffffffffffffffffffffffffffffffffffffffff1603610ecd575f6040517f94280d62000000000000000000000000000000000000000000000000000000008152600401610ec491906112a4565b60405180910390fd5b8160015f8673ffffffffffffffffffffffffffffffffffffffff1673ffffffffffffffffffffffffffffffffffffffff1681526020019081526020015f205f8573ffffffffffffffffffffffffffffffffffffffff1673ffffffffffffffffffffffffffffffffffffffff1681526020019081526020015f20819055508015610fb6578273ffffffffffffffffffffffffffffffffffffffff168473ffffffffffffffffffffffffffffffffffffffff167f8c5be1e5ebec7d5bd14f71427d1e84f3dd0314c0f7b2291e5b200ac8c7c3b92584604051610fad919061139e565b60405180910390a35b50505050565b5f73ffffffffffffffffffffffffffffffffffffffff168373ffffffffffffffffffffffffffffffffffffffff160361100c578060025f828254611000919061169b565b925050819055506110da565b5f5f5f8573ffffffffffffffffffffffffffffffffffffffff1673ffffffffffffffffffffffffffffffffffffffff1681526020019081526020015f2054905081811015611095578381836040517fe450d38c00000000000000000000000000000000000000000000000000000000815260040161108c93929190611639565b60405180910390fd5b8181035f5f8673ffffffffffffffffffffffffffffffffffffffff1673ffffffffffffffffffffffffffffffffffffffff1681526020019081526020015f2081905550505b5f73ffffffffffffffffffffffffffffffffffffffff168273ffffffffffffffffffffffffffffffffffffffff1603611121578060025f828254039250508190555061116b565b805f5f8473ffffffffffffffffffffffffffffffffffffffff1673ffffffffffffffffffffffffffffffffffffffff1681526020019081526020015f205f82825401925050819055505b8173ffffffffffffffffffffffffffffffffffffffff168373ffffffffffffffffffffffffffffffffffffffff167fddf252ad1be2c89b69c2b068fc378daa952ba7f163c4a11628f55a4df523b3ef836040516111c8919061139e565b60405180910390a3505050565b5f81519050919050565b5f82825260208201905092915050565b8281835e5f83830152505050565b5f601f19601f8301169050919050565b5f611217826111d5565b61122181856111df565b93506112318185602086016111ef565b61123a816111fd565b840191505092915050565b5f6020820190508181035f83015261125d818461120d565b905092915050565b5f73ffffffffffffffffffffffffffffffffffffffff82169050919050565b5f61128e82611265565b9050919050565b61129e81611284565b82525050565b5f6020820190506112b75f830184611295565b92915050565b5f5ffd5b6112ca81611284565b81146112d4575f5ffd5b50565b5f813590506112e5816112c1565b92915050565b5f819050919050565b6112fd816112eb565b8114611307575f5ffd5b50565b5f81359050611318816112f4565b92915050565b5f5f60408385031215611334576113336112bd565b5b5f611341858286016112d7565b92505060206113528582860161130a565b9150509250929050565b5f8115159050919050565b6113708161135c565b82525050565b5f6020820190506113895f830184611367565b92915050565b611398816112eb565b82525050565b5f6020820190506113b15f83018461138f565b92915050565b5f5f5f606084860312156113ce576113cd6112bd565b5b5f6113db868287016112d7565b93505060206113ec868287016112d7565b92505060406113fd8682870161130a565b9150509250925092565b5f60ff82169050919050565b61141c81611407565b82525050565b5f6020820190506114355f830184611413565b92915050565b5f602082840312156114505761144f6112bd565b5b5f61145d848285016112d7565b91505092915050565b5f5f6040838503121561147c5761147b6112bd565b5b5f611489858286016112d7565b925050602061149a858286016112d7565b9150509250929050565b7f4e487b71000000000000000000000000000000000000000000000000000000005f52602260045260245ffd5b5f60028204905060018216806114e857607f821691505b6020821081036114fb576114fa6114a4565b5b50919050565b7f4e6f74206d696e746572000000000000000000000000000000000000000000005f82015250565b5f611535600a836111df565b915061154082611501565b602082019050919050565b5f6020820190508181035f83015261156281611529565b9050919050565b7f44454d4f3a204578636565647320656d657267656e6379206c696d69740000005f82015250565b5f61159d601d836111df565b91506115a882611569565b602082019050919050565b5f6020820190508181035f8301526115ca81611591565b9050919050565b7f44656d6f206d696e743a206d6178203130303020746f6b656e730000000000005f82015250565b5f611605601a836111df565b9150611610826115d1565b602082019050919050565b5f6020820190508181035f830152611632816115f9565b9050919050565b5f60608201905061164c5f830186611295565b611659602083018561138f565b611666604083018461138f565b949350505050565b7f4e487b71000000000000000000000000000000000000000000000000000000005f52601160045260245ffd5b5f6116a5826112eb565b91506116b0836112eb565b92508282019050808211156116c8576116c761166e565b5b9291505056fea2646970667358221220b5b0909703afe0734a176e5a57de02850c45e1f19b7debc091ab01f2b367df9264736f6c634300081c0033","linkReferences":{}},"methodIdentifiers":{"allowance(address,address)":"dd62ed3e","approve(address,uint256)":"095ea7b3","balanceOf(address)":"70a08231","burn(address,uint256)":"9dc29fac","decimals()":"313ce567","demoMint(address,uint256)":"8b12a262","emergencyMint(address,uint256)":"43785dc9","mint(address,uint256)":"40c10f19","minter()":"07546172","name()":"06fdde03","owner()":"8da5cb5b","renounceOwnership()":"715018a6","setMinter(address)":"fca3b5aa","symbol()":"95d89b41","totalSupply()":"18160ddd","transfer(address,uint256)":"a9059cbb","transferFrom(address,address,uint256)":"23b872dd","transferOwnership(address)":"f2fde38b"},"id":44}