{"abi":[{"type":"constructor","inputs":[],"stateMutability":"nonpayable"},{"type":"function","name":"allowance","inputs":[{"name":"owner","type":"address","internalType":"address"},{"name":"spender","type":"address","internalType":"address"}],"outputs":[{"name":"","type":"uint256","internalType":"uint256"}],"stateMutability":"view"},{"type":"function","name":"approve","inputs":[{"name":"spender","type":"address","internalType":"address"},{"name":"value","type":"uint256","internalType":"uint256"}],"outputs":[{"name":"","type":"bool","internalType":"bool"}],"stateMutability":"nonpayable"},{"type":"function","name":"balanceOf","inputs":[{"name":"account","type":"address","internalType":"address"}],"outputs":[{"name":"","type":"uint256","internalType":"uint256"}],"stateMutability":"view"},{"type":"function","name":"burn","inputs":[{"name":"from","type":"address","internalType":"address"},{"name":"amount","type":"uint256","internalType":"uint256"}],"outputs":[],"stateMutability":"nonpayable"},{"type":"function","name":"decimals","inputs":[],"outputs":[{"name":"","type":"uint8","internalType":"uint8"}],"stateMutability":"view"},{"type":"function","name":"emergencyMint","inputs":[{"name":"to","type":"address","internalType":"address"},{"name":"amount","type":"uint256","internalType":"uint256"}],"outputs":[],"stateMutability":"nonpayable"},{"type":"function","name":"mint","inputs":[{"name":"to","type":"address","internalType":"address"},{"name":"amount","type":"uint256","internalType":"uint256"}],"outputs":[],"stateMutability":"nonpayable"},{"type":"function","name":"minter","inputs":[],"outputs":[{"name":"","type":"address","internalType":"address"}],"stateMutability":"view"},{"type":"function","name":"name","inputs":[],"outputs":[{"name":"","type":"string","internalType":"string"}],"stateMutability":"view"},{"type":"function","name":"owner","inputs":[],"outputs":[{"name":"","type":"address","internalType":"address"}],"stateMutability":"view"},{"type":"function","name":"renounceOwnership","inputs":[],"outputs":[],"stateMutability":"nonpayable"},{"type":"function","name":"setMinter","inputs":[{"name":"_minter","type":"address","internalType":"address"}],"outputs":[],"stateMutability":"nonpayable"},{"type":"function","name":"symbol","inputs":[],"outputs":[{"name":"","type":"string","internalType":"string"}],"stateMutability":"view"},{"type":"function","name":"totalSupply","inputs":[],"outputs":[{"name":"","type":"uint256","internalType":"uint256"}],"stateMutability":"view"},{"type":"function","name":"transfer","inputs":[{"name":"to","type":"address","internalType":"address"},{"name":"value","type":"uint256","internalType":"uint256"}],"outputs":[{"name":"","type":"bool","internalType":"bool"}],"stateMutability":"nonpayable"},{"type":"function","name":"transferFrom","inputs":[{"name":"from","type":"address","internalType":"address"},{"name":"to","type":"address","internalType":"address"},{"name":"value","type":"uint256","internalType":"uint256"}],"outputs":[{"name":"","type":"bool","internalType":"bool"}],"stateMutability":"nonpayable"},{"type":"function","name":"transferOwnership","inputs":[{"name":"newOwner","type":"address","internalType":"address"}],"outputs":[],"stateMutability":"nonpayable"},{"type":"event","name":"Approval","inputs":[{"name":"owner","type":"address","indexed":true,"internalType":"address"},{"name":"spender","type":"address","indexed":true,"internalType":"address"},{"name":"value","type":"uint256","indexed":false,"internalType":"uint256"}],"anonymous":false},{"type":"event","name":"OwnershipTransferred","inputs":[{"name":"previousOwner","type":"address","indexed":true,"internalType":"address"},{"name":"newOwner","type":"address","indexed":true,"internalType":"address"}],"anonymous":false},{"type":"event","name":"Transfer","inputs":[{"name":"from","type":"address","indexed":true,"internalType":"address"},{"name":"to","type":"address","indexed":true,"internalType":"address"},{"name":"value","type":"uint256","indexed":false,"internalType":"uint256"}],"anonymous":false},{"type":"error","name":"ERC20InsufficientAllowance","inputs":[{"name":"spender","type":"address","internalType":"address"},{"name":"allowance","type":"uint256","internalType":"uint256"},{"name":"needed","type":"uint256","internalType":"uint256"}]},{"type":"error","name":"ERC20InsufficientBalance","inputs":[{"name":"sender","type":"address","internalType":"address"},{"name":"balance","type":"uint256","internalType":"uint256"},{"name":"needed","type":"uint256","internalType":"uint256"}]},{"type":"error","name":"ERC20InvalidApprover","inputs":[{"name":"approver","type":"address","internalType":"address"}]},{"type":"error","name":"ERC20InvalidReceiver","inputs":[{"name":"receiver","type":"address","internalType":"address"}]},{"type":"error","name":"ERC20InvalidSender","inputs":[{"name":"sender","type":"address","internalType":"address"}]},{"type":"error","name":"ERC20InvalidSpender","inputs":[{"name":"spender","type":"address","internalType":"address"}]},{"type":"error","name":"OwnableInvalidOwner","inputs":[{"name":"owner","type":"address","internalType":"address"}]},{"type":"error","name":"OwnableUnauthorizedAccount","inputs":[{"name":"account","type":"address","internalType":"address"}]}],"bytecode":{"object":"0x608060405234801561000f575f5ffd5b50336040518060400160405280600781526020017f44656d6f207653000000000000000000000000000000000000000000000000008152506040518060400160405280600481526020017f442d765300000000000000000000000000000000000000000000000000000000815250816003908161008c9190610424565b50806004908161009c9190610424565b5050505f73ffffffffffffffffffffffffffffffffffffffff168173ffffffffffffffffffffffffffffffffffffffff160361010f575f6040517f1e4fbdf70000000000000000000000000000000000000000000000000000000081526004016101069190610532565b60405180910390fd5b61011e8161012460201b60201c565b5061054b565b5f60055f9054906101000a900473ffffffffffffffffffffffffffffffffffffffff1690508160055f6101000a81548173ffffffffffffffffffffffffffffffffffffffff021916908373ffffffffffffffffffffffffffffffffffffffff1602179055508173ffffffffffffffffffffffffffffffffffffffff168173ffffffffffffffffffffffffffffffffffffffff167f8be0079c531659141344cd1fd0a4f28419497f9722a3daafe3b4186f6b6457e060405160405180910390a35050565b5f81519050919050565b7f4e487b71000000000000000000000000000000000000000000000000000000005f52604160045260245ffd5b7f4e487b71000000000000000000000000000000000000000000000000000000005f52602260045260245ffd5b5f600282049050600182168061026257607f821691505b6020821081036102755761027461021e565b5b50919050565b5f819050815f5260205f209050919050565b5f6020601f8301049050919050565b5f82821b905092915050565b5f600883026102d77fffffffffffffffffffffffffffffffffffffffffffffffffffffffffffffffff8261029c565b6102e1868361029c565b95508019841693508086168417925050509392505050565b5f819050919050565b5f819050919050565b5f61032561032061031b846102f9565b610302565b6102f9565b9050919050565b5f819050919050565b61033e8361030b565b61035261034a8261032c565b8484546102a8565b825550505050565b5f5f905090565b61036961035a565b610374818484610335565b505050565b5b818110156103975761038c5f82610361565b60018101905061037a565b5050565b601f8211156103dc576103ad8161027b565b6103b68461028d565b810160208510156103c5578190505b6103d96103d18561028d565b830182610379565b50505b505050565b5f82821c905092915050565b5f6103fc5f19846008026103e1565b1980831691505092915050565b5f61041483836103ed565b9150826002028217905092915050565b61042d826101e7565b67ffffffffffffffff811115610446576104456101f1565b5b610450825461024b565b61045b82828561039b565b5f60209050601f83116001811461048c575f841561047a578287015190505b6104848582610409565b8655506104eb565b601f19841661049a8661027b565b5f5b828110156104c15784890151825560018201915060208501945060208101905061049c565b868310156104de57848901516104da601f8916826103ed565b8355505b6001600288020188555050505b505050505050565b5f73ffffffffffffffffffffffffffffffffffffffff82169050919050565b5f61051c826104f3565b9050919050565b61052c81610512565b82525050565b5f6020820190506105455f830184610523565b92915050565b611510806105585f395ff3fe608060405234801561000f575f5ffd5b5060043610610109575f3560e01c806370a08231116100a05780639dc29fac1161006f5780639dc29fac14610293578063a9059cbb146102af578063dd62ed3e146102df578063f2fde38b1461030f578063fca3b5aa1461032b57610109565b806370a082311461021d578063715018a61461024d5780638da5cb5b1461025757806395d89b411461027557610109565b806323b872dd116100dc57806323b872dd14610197578063313ce567146101c757806340c10f19146101e557806343785dc91461020157610109565b806306fdde031461010d578063075461721461012b578063095ea7b31461014957806318160ddd14610179575b5f5ffd5b610115610347565b60405161012291906110b9565b60405180910390f35b6101336103d7565b6040516101409190611118565b60405180910390f35b610163600480360381019061015e9190611192565b6103fc565b60405161017091906111ea565b60405180910390f35b61018161041e565b60405161018e9190611212565b60405180910390f35b6101b160048036038101906101ac919061122b565b610427565b6040516101be91906111ea565b60405180910390f35b6101cf610455565b6040516101dc9190611296565b60405180910390f35b6101ff60048036038101906101fa9190611192565b61045d565b005b61021b60048036038101906102169190611192565b6104fa565b005b610237600480360381019061023291906112af565b61055d565b6040516102449190611212565b60405180910390f35b6102556105a2565b005b61025f6105b5565b60405161026c9190611118565b60405180910390f35b61027d6105dd565b60405161028a91906110b9565b60405180910390f35b6102ad60048036038101906102a89190611192565b61066d565b005b6102c960048036038101906102c49190611192565b61070a565b6040516102d691906111ea565b60405180910390f35b6102f960048036038101906102f491906112da565b61072c565b6040516103069190611212565b60405180910390f35b610329600480360381019061032491906112af565b6107ae565b005b610345600480360381019061034091906112af565b610832565b005b60606003805461035690611345565b80601f016020809104026020016040519081016040528092919081815260200182805461038290611345565b80156103cd5780601f106103a4576101008083540402835291602001916103cd565b820191905f5260205f20905b8154815290600101906020018083116103b057829003601f168201915b5050505050905090565b60065f9054906101000a900473ffffffffffffffffffffffffffffffffffffffff1681565b5f5f61040661087d565b9050610413818585610884565b600191505092915050565b5f600254905090565b5f5f61043161087d565b905061043e858285610896565b610449858585610929565b60019150509392505050565b5f6012905090565b60065f9054906101000a900473ffffffffffffffffffffffffffffffffffffffff1673ffffffffffffffffffffffffffffffffffffffff163373ffffffffffffffffffffffffffffffffffffffff16146104ec576040517f08c379a00000000000000000000000000000000000000000000000000000000081526004016104e3906113bf565b60405180910390fd5b6104f68282610a19565b5050565b610502610a98565b690a968163f0a57b40000081111561054f576040517f08c379a000000000000000000000000000000000000000000000000000000000815260040161054690611427565b60405180910390fd5b6105598282610a19565b5050565b5f5f5f8373ffffffffffffffffffffffffffffffffffffffff1673ffffffffffffffffffffffffffffffffffffffff1681526020019081526020015f20549050919050565b6105aa610a98565b6105b35f610b1f565b565b5f60055f9054906101000a900473ffffffffffffffffffffffffffffffffffffffff16905090565b6060600480546105ec90611345565b80601f016020809104026020016040519081016040528092919081815260200182805461061890611345565b80156106635780601f1061063a57610100808354040283529160200191610663565b820191905f5260205f20905b81548152906001019060200180831161064657829003601f168201915b5050505050905090565b60065f9054906101000a900473ffffffffffffffffffffffffffffffffffffffff1673ffffffffffffffffffffffffffffffffffffffff163373ffffffffffffffffffffffffffffffffffffffff16146106fc576040517f08c379a00000000000000000000000000000000000000000000000000000000081526004016106f3906113bf565b60405180910390fd5b6107068282610be2565b5050565b5f5f61071461087d565b9050610721818585610929565b600191505092915050565b5f60015f8473ffffffffffffffffffffffffffffffffffffffff1673ffffffffffffffffffffffffffffffffffffffff1681526020019081526020015f205f8373ffffffffffffffffffffffffffffffffffffffff1673ffffffffffffffffffffffffffffffffffffffff1681526020019081526020015f2054905092915050565b6107b6610a98565b5f73ffffffffffffffffffffffffffffffffffffffff168173ffffffffffffffffffffffffffffffffffffffff1603610826575f6040517f1e4fbdf700000000000000000000000000000000000000000000000000000000815260040161081d9190611118565b60405180910390fd5b61082f81610b1f565b50565b61083a610a98565b8060065f6101000a81548173ffffffffffffffffffffffffffffffffffffffff021916908373ffffffffffffffffffffffffffffffffffffffff16021790555050565b5f33905090565b6108918383836001610c61565b505050565b5f6108a1848461072c565b90507fffffffffffffffffffffffffffffffffffffffffffffffffffffffffffffffff8110156109235781811015610914578281836040517ffb8f41b200000000000000000000000000000000000000000000000000000000815260040161090b93929190611445565b60405180910390fd5b61092284848484035f610c61565b5b50505050565b5f73ffffffffffffffffffffffffffffffffffffffff168373ffffffffffffffffffffffffffffffffffffffff1603610999575f6040517f96c6fd1e0000000000000000000000000000000000000000000000000000000081526004016109909190611118565b60405180910390fd5b5f73ffffffffffffffffffffffffffffffffffffffff168273ffffffffffffffffffffffffffffffffffffffff1603610a09575f6040517fec442f05000000000000000000000000000000000000000000000000000000008152600401610a009190611118565b60405180910390fd5b610a14838383610e30565b505050565b5f73ffffffffffffffffffffffffffffffffffffffff168273ffffffffffffffffffffffffffffffffffffffff1603610a89575f6040517fec442f05000000000000000000000000000000000000000000000000000000008152600401610a809190611118565b60405180910390fd5b610a945f8383610e30565b5050565b610aa061087d565b73ffffffffffffffffffffffffffffffffffffffff16610abe6105b5565b73ffffffffffffffffffffffffffffffffffffffff1614610b1d57610ae161087d565b6040517f118cdaa7000000000000000000000000000000000000000000000000000000008152600401610b149190611118565b60405180910390fd5b565b5f60055f9054906101000a900473ffffffffffffffffffffffffffffffffffffffff1690508160055f6101000a81548173ffffffffffffffffffffffffffffffffffffffff021916908373ffffffffffffffffffffffffffffffffffffffff1602179055508173ffffffffffffffffffffffffffffffffffffffff168173ffffffffffffffffffffffffffffffffffffffff167f8be0079c531659141344cd1fd0a4f28419497f9722a3daafe3b4186f6b6457e060405160405180910390a35050565b5f73ffffffffffffffffffffffffffffffffffffffff168273ffffffffffffffffffffffffffffffffffffffff1603610c52575f6040517f96c6fd1e000000000000000000000000000000000000000000000000000000008152600401610c499190611118565b60405180910390fd5b610c5d825f83610e30565b5050565b5f73ffffffffffffffffffffffffffffffffffffffff168473ffffffffffffffffffffffffffffffffffffffff1603610cd1575f6040517fe602df05000000000000000000000000000000000000000000000000000000008152600401610cc89190611118565b60405180910390fd5b5f73ffffffffffffffffffffffffffffffffffffffff168373ffffffffffffffffffffffffffffffffffffffff1603610d41575f6040517f94280d62000000000000000000000000000000000000000000000000000000008152600401610d389190611118565b60405180910390fd5b8160015f8673ffffffffffffffffffffffffffffffffffffffff1673ffffffffffffffffffffffffffffffffffffffff1681526020019081526020015f205f8573ffffffffffffffffffffffffffffffffffffffff1673ffffffffffffffffffffffffffffffffffffffff1681526020019081526020015f20819055508015610e2a578273ffffffffffffffffffffffffffffffffffffffff168473ffffffffffffffffffffffffffffffffffffffff167f8c5be1e5ebec7d5bd14f71427d1e84f3dd0314c0f7b2291e5b200ac8c7c3b92584604051610e219190611212565b60405180910390a35b50505050565b5f73ffffffffffffffffffffffffffffffffffffffff168373ffffffffffffffffffffffffffffffffffffffff1603610e80578060025f828254610e7491906114a7565b92505081905550610f4e565b5f5f5f8573ffffffffffffffffffffffffffffffffffffffff1673ffffffffffffffffffffffffffffffffffffffff1681526020019081526020015f2054905081811015610f09578381836040517fe450d38c000000000000000000000000000000000000000000000000000000008152600401610f0093929190611445565b60405180910390fd5b8181035f5f8673ffffffffffffffffffffffffffffffffffffffff1673ffffffffffffffffffffffffffffffffffffffff1681526020019081526020015f2081905550505b5f73ffffffffffffffffffffffffffffffffffffffff168273ffffffffffffffffffffffffffffffffffffffff1603610f95578060025f8282540392505081905550610fdf565b805f5f8473ffffffffffffffffffffffffffffffffffffffff1673ffffffffffffffffffffffffffffffffffffffff1681526020019081526020015f205f82825401925050819055505b8173ffffffffffffffffffffffffffffffffffffffff168373ffffffffffffffffffffffffffffffffffffffff167fddf252ad1be2c89b69c2b068fc378daa952ba7f163c4a11628f55a4df523b3ef8360405161103c9190611212565b60405180910390a3505050565b5f81519050919050565b5f82825260208201905092915050565b8281835e5f83830152505050565b5f601f19601f8301169050919050565b5f61108b82611049565b6110958185611053565b93506110a5818560208601611063565b6110ae81611071565b840191505092915050565b5f6020820190508181035f8301526110d18184611081565b905092915050565b5f73ffffffffffffffffffffffffffffffffffffffff82169050919050565b5f611102826110d9565b9050919050565b611112816110f8565b82525050565b5f60208201905061112b5f830184611109565b92915050565b5f5ffd5b61113e816110f8565b8114611148575f5ffd5b50565b5f8135905061115981611135565b92915050565b5f819050919050565b6111718161115f565b811461117b575f5ffd5b50565b5f8135905061118c81611168565b92915050565b5f5f604083850312156111a8576111a7611131565b5b5f6111b58582860161114b565b92505060206111c68582860161117e565b9150509250929050565b5f8115159050919050565b6111e4816111d0565b82525050565b5f6020820190506111fd5f8301846111db565b92915050565b61120c8161115f565b82525050565b5f6020820190506112255f830184611203565b92915050565b5f5f5f6060848603121561124257611241611131565b5b5f61124f8682870161114b565b93505060206112608682870161114b565b92505060406112718682870161117e565b9150509250925092565b5f60ff82169050919050565b6112908161127b565b82525050565b5f6020820190506112a95f830184611287565b92915050565b5f602082840312156112c4576112c3611131565b5b5f6112d18482850161114b565b91505092915050565b5f5f604083850312156112f0576112ef611131565b5b5f6112fd8582860161114b565b925050602061130e8582860161114b565b9150509250929050565b7f4e487b71000000000000000000000000000000000000000000000000000000005f52602260045260245ffd5b5f600282049050600182168061135c57607f821691505b60208210810361136f5761136e611318565b5b50919050565b7f4e6f74206d696e746572000000000000000000000000000000000000000000005f82015250565b5f6113a9600a83611053565b91506113b482611375565b602082019050919050565b5f6020820190508181035f8301526113d68161139d565b9050919050565b7f4578636565647320656d657267656e6379206c696d69740000000000000000005f82015250565b5f611411601783611053565b915061141c826113dd565b602082019050919050565b5f6020820190508181035f83015261143e81611405565b9050919050565b5f6060820190506114585f830186611109565b6114656020830185611203565b6114726040830184611203565b949350505050565b7f4e487b71000000000000000000000000000000000000000000000000000000005f52601160045260245ffd5b5f6114b18261115f565b91506114bc8361115f565b92508282019050808211156114d4576114d361147a565b5b9291505056fea26469706673582212208e710aa7b2a10c93d3e34a60a0ec7457b8febd33ca115fd04384dcb2e67c41cd64736f6c634300081c0033","linkReferences":{}},"methodIdentifiers":{"allowance(address,address)":"dd62ed3e","approve(address,uint256)":"095ea7b3","balanceOf(address)":"70a08231","burn(address,uint256)":"9dc29fac","decimals()":"313ce567","emergencyMint(address,uint256)":"43785dc9","mint(address,uint256)":"40c10f19","minter()":"07546172","name()":"06fdde03","owner()":"8da5cb5b","renounceOwnership()":"715018a6","setMinter(address)":"fca3b5aa","symbol()":"95d89b41","totalSupply()":"18160ddd","transfer(address,uint256)":"a9059cbb","transferFrom(address,address,uint256)":"23b872dd","transferOwnership(address)":"f2fde38b"},"id":47}