{"abi":[{"type":"constructor","inputs":[],"stateMutability":"nonpayable"},{"type":"function","name":"allowance","inputs":[{"name":"owner","type":"address","internalType":"address"},{"name":"spender","type":"address","internalType":"address"}],"outputs":[{"name":"","type":"uint256","internalType":"uint256"}],"stateMutability":"view"},{"type":"function","name":"approve","inputs":[{"name":"spender","type":"address","internalType":"address"},{"name":"value","type":"uint256","internalType":"uint256"}],"outputs":[{"name":"","type":"bool","internalType":"bool"}],"stateMutability":"nonpayable"},{"type":"function","name":"balanceOf","inputs":[{"name":"account","type":"address","internalType":"address"}],"outputs":[{"name":"","type":"uint256","internalType":"uint256"}],"stateMutability":"view"},{"type":"function","name":"decimals","inputs":[],"outputs":[{"name":"","type":"uint8","internalType":"uint8"}],"stateMutability":"view"},{"type":"function","name":"faucet","inputs":[],"outputs":[],"stateMutability":"nonpayable"},{"type":"function","name":"mint","inputs":[{"name":"to","type":"address","internalType":"address"},{"name":"amount","type":"uint256","internalType":"uint256"}],"outputs":[],"stateMutability":"nonpayable"},{"type":"function","name":"name","inputs":[],"outputs":[{"name":"","type":"string","internalType":"string"}],"stateMutability":"view"},{"type":"function","name":"owner","inputs":[],"outputs":[{"name":"","type":"address","internalType":"address"}],"stateMutability":"view"},{"type":"function","name":"renounceOwnership","inputs":[],"outputs":[],"stateMutability":"nonpayable"},{"type":"function","name":"symbol","inputs":[],"outputs":[{"name":"","type":"string","internalType":"string"}],"stateMutability":"view"},{"type":"function","name":"totalSupply","inputs":[],"outputs":[{"name":"","type":"uint256","internalType":"uint256"}],"stateMutability":"view"},{"type":"function","name":"transfer","inputs":[{"name":"to","type":"address","internalType":"address"},{"name":"value","type":"uint256","internalType":"uint256"}],"outputs":[{"name":"","type":"bool","internalType":"bool"}],"stateMutability":"nonpayable"},{"type":"function","name":"transferFrom","inputs":[{"name":"from","type":"address","internalType":"address"},{"name":"to","type":"address","internalType":"address"},{"name":"value","type":"uint256","internalType":"uint256"}],"outputs":[{"name":"","type":"bool","internalType":"bool"}],"stateMutability":"nonpayable"},{"type":"function","name":"transferOwnership","inputs":[{"name":"newOwner","type":"address","internalType":"address"}],"outputs":[],"stateMutability":"nonpayable"},{"type":"event","name":"Approval","inputs":[{"name":"owner","type":"address","indexed":true,"internalType":"address"},{"name":"spender","type":"address","indexed":true,"internalType":"address"},{"name":"value","type":"uint256","indexed":false,"internalType":"uint256"}],"anonymous":false},{"type":"event","name":"OwnershipTransferred","inputs":[{"name":"previousOwner","type":"address","indexed":true,"internalType":"address"},{"name":"newOwner","type":"address","indexed":true,"internalType":"address"}],"anonymous":false},{"type":"event","name":"Transfer","inputs":[{"name":"from","type":"address","indexed":true,"internalType":"address"},{"name":"to","type":"address","indexed":true,"internalType":"address"},{"name":"value","type":"uint256","indexed":false,"internalType":"uint256"}],"anonymous":false},{"type":"error","name":"ERC20InsufficientAllowance","inputs":[{"name":"spender","type":"address","internalType":"address"},{"name":"allowance","type":"uint256","internalType":"uint256"},{"name":"needed","type":"uint256","internalType":"uint256"}]},{"type":"error","name":"ERC20InsufficientBalance","inputs":[{"name":"sender","type":"address","internalType":"address"},{"name":"balance","type":"uint256","internalType":"uint256"},{"name":"needed","type":"uint256","internalType":"uint256"}]},{"type":"error","name":"ERC20InvalidApprover","inputs":[{"name":"approver","type":"address","internalType":"address"}]},{"type":"error","name":"ERC20InvalidReceiver","inputs":[{"name":"receiver","type":"address","internalType":"address"}]},{"type":"error","name":"ERC20InvalidSender","inputs":[{"name":"sender","type":"address","internalType":"address"}]},{"type":"error","name":"ERC20InvalidSpender","inputs":[{"name":"spender","type":"address","internalType":"address"}]},{"type":"error","name":"OwnableInvalidOwner","inputs":[{"name":"owner","type":"address","internalType":"address"}]},{"type":"error","name":"OwnableUnauthorizedAccount","inputs":[{"name":"account","type":"address","internalType":"address"}]}],"bytecode":{"object":"0x608060405234801561000f575f5ffd5b50336040518060400160405280600a81526020017f5465737420536f6e6963000000000000000000000000000000000000000000008152506040518060400160405280600281526020017f7453000000000000000000000000000000000000000000000000000000000000815250816003908161008c9190610424565b50806004908161009c9190610424565b5050505f73ffffffffffffffffffffffffffffffffffffffff168173ffffffffffffffffffffffffffffffffffffffff160361010f575f6040517f1e4fbdf70000000000000000000000000000000000000000000000000000000081526004016101069190610532565b60405180910390fd5b61011e8161012460201b60201c565b5061054b565b5f60055f9054906101000a900473ffffffffffffffffffffffffffffffffffffffff1690508160055f6101000a81548173ffffffffffffffffffffffffffffffffffffffff021916908373ffffffffffffffffffffffffffffffffffffffff1602179055508173ffffffffffffffffffffffffffffffffffffffff168173ffffffffffffffffffffffffffffffffffffffff167f8be0079c531659141344cd1fd0a4f28419497f9722a3daafe3b4186f6b6457e060405160405180910390a35050565b5f81519050919050565b7f4e487b71000000000000000000000000000000000000000000000000000000005f52604160045260245ffd5b7f4e487b71000000000000000000000000000000000000000000000000000000005f52602260045260245ffd5b5f600282049050600182168061026257607f821691505b6020821081036102755761027461021e565b5b50919050565b5f819050815f5260205f209050919050565b5f6020601f8301049050919050565b5f82821b905092915050565b5f600883026102d77fffffffffffffffffffffffffffffffffffffffffffffffffffffffffffffffff8261029c565b6102e1868361029c565b95508019841693508086168417925050509392505050565b5f819050919050565b5f819050919050565b5f61032561032061031b846102f9565b610302565b6102f9565b9050919050565b5f819050919050565b61033e8361030b565b61035261034a8261032c565b8484546102a8565b825550505050565b5f5f905090565b61036961035a565b610374818484610335565b505050565b5b818110156103975761038c5f82610361565b60018101905061037a565b5050565b601f8211156103dc576103ad8161027b565b6103b68461028d565b810160208510156103c5578190505b6103d96103d18561028d565b830182610379565b50505b505050565b5f82821c905092915050565b5f6103fc5f19846008026103e1565b1980831691505092915050565b5f61041483836103ed565b9150826002028217905092915050565b61042d826101e7565b67ffffffffffffffff811115610446576104456101f1565b5b610450825461024b565b61045b82828561039b565b5f60209050601f83116001811461048c575f841561047a578287015190505b6104848582610409565b8655506104eb565b601f19841661049a8661027b565b5f5b828110156104c15784890151825560018201915060208501945060208101905061049c565b868310156104de57848901516104da601f8916826103ed565b8355505b6001600288020188555050505b505050505050565b5f73ffffffffffffffffffffffffffffffffffffffff82169050919050565b5f61051c826104f3565b9050919050565b61052c81610512565b82525050565b5f6020820190506105455f830184610523565b92915050565b61115b806105585f395ff3fe608060405234801561000f575f5ffd5b50600436106100e8575f3560e01c8063715018a61161008a578063a9059cbb11610064578063a9059cbb14610238578063dd62ed3e14610268578063de5f72fd14610298578063f2fde38b146102a2576100e8565b8063715018a6146101f25780638da5cb5b146101fc57806395d89b411461021a576100e8565b806323b872dd116100c657806323b872dd14610158578063313ce5671461018857806340c10f19146101a657806370a08231146101c2576100e8565b806306fdde03146100ec578063095ea7b31461010a57806318160ddd1461013a575b5f5ffd5b6100f46102be565b6040516101019190610dd4565b60405180910390f35b610124600480360381019061011f9190610e85565b61034e565b6040516101319190610edd565b60405180910390f35b610142610370565b60405161014f9190610f05565b60405180910390f35b610172600480360381019061016d9190610f1e565b610379565b60405161017f9190610edd565b60405180910390f35b6101906103a7565b60405161019d9190610f89565b60405180910390f35b6101c060048036038101906101bb9190610e85565b6103af565b005b6101dc60048036038101906101d79190610fa2565b6103c5565b6040516101e99190610f05565b60405180910390f35b6101fa61040a565b005b61020461041d565b6040516102119190610fdc565b60405180910390f35b610222610445565b60405161022f9190610dd4565b60405180910390f35b610252600480360381019061024d9190610e85565b6104d5565b60405161025f9190610edd565b60405180910390f35b610282600480360381019061027d9190610ff5565b6104f7565b60405161028f9190610f05565b60405180910390f35b6102a0610579565b005b6102bc60048036038101906102b79190610fa2565b610593565b005b6060600380546102cd90611060565b80601f01602080910402602001604051908101604052809291908181526020018280546102f990611060565b80156103445780601f1061031b57610100808354040283529160200191610344565b820191905f5260205f20905b81548152906001019060200180831161032757829003601f168201915b5050505050905090565b5f5f610358610617565b905061036581858561061e565b600191505092915050565b5f600254905090565b5f5f610383610617565b9050610390858285610630565b61039b8585856106c3565b60019150509392505050565b5f6012905090565b6103b76107b3565b6103c1828261083a565b5050565b5f5f5f8373ffffffffffffffffffffffffffffffffffffffff1673ffffffffffffffffffffffffffffffffffffffff1681526020019081526020015f20549050919050565b6104126107b3565b61041b5f6108b9565b565b5f60055f9054906101000a900473ffffffffffffffffffffffffffffffffffffffff16905090565b60606004805461045490611060565b80601f016020809104026020016040519081016040528092919081815260200182805461048090611060565b80156104cb5780601f106104a2576101008083540402835291602001916104cb565b820191905f5260205f20905b8154815290600101906020018083116104ae57829003601f168201915b5050505050905090565b5f5f6104df610617565b90506104ec8185856106c3565b600191505092915050565b5f60015f8473ffffffffffffffffffffffffffffffffffffffff1673ffffffffffffffffffffffffffffffffffffffff1681526020019081526020015f205f8373ffffffffffffffffffffffffffffffffffffffff1673ffffffffffffffffffffffffffffffffffffffff1681526020019081526020015f2054905092915050565b5f683635c9adc5dea000009050610590338261083a565b50565b61059b6107b3565b5f73ffffffffffffffffffffffffffffffffffffffff168173ffffffffffffffffffffffffffffffffffffffff160361060b575f6040517f1e4fbdf70000000000000000000000000000000000000000000000000000000081526004016106029190610fdc565b60405180910390fd5b610614816108b9565b50565b5f33905090565b61062b838383600161097c565b505050565b5f61063b84846104f7565b90507fffffffffffffffffffffffffffffffffffffffffffffffffffffffffffffffff8110156106bd57818110156106ae578281836040517ffb8f41b20000000000000000000000000000000000000000000000000000000081526004016106a593929190611090565b60405180910390fd5b6106bc84848484035f61097c565b5b50505050565b5f73ffffffffffffffffffffffffffffffffffffffff168373ffffffffffffffffffffffffffffffffffffffff1603610733575f6040517f96c6fd1e00000000000000000000000000000000000000000000000000000000815260040161072a9190610fdc565b60405180910390fd5b5f73ffffffffffffffffffffffffffffffffffffffff168273ffffffffffffffffffffffffffffffffffffffff16036107a3575f6040517fec442f0500000000000000000000000000000000000000000000000000000000815260040161079a9190610fdc565b60405180910390fd5b6107ae838383610b4b565b505050565b6107bb610617565b73ffffffffffffffffffffffffffffffffffffffff166107d961041d565b73ffffffffffffffffffffffffffffffffffffffff1614610838576107fc610617565b6040517f118cdaa700000000000000000000000000000000000000000000000000000000815260040161082f9190610fdc565b60405180910390fd5b565b5f73ffffffffffffffffffffffffffffffffffffffff168273ffffffffffffffffffffffffffffffffffffffff16036108aa575f6040517fec442f050000000000000000000000000000000000000000000000000000000081526004016108a19190610fdc565b60405180910390fd5b6108b55f8383610b4b565b5050565b5f60055f9054906101000a900473ffffffffffffffffffffffffffffffffffffffff1690508160055f6101000a81548173ffffffffffffffffffffffffffffffffffffffff021916908373ffffffffffffffffffffffffffffffffffffffff1602179055508173ffffffffffffffffffffffffffffffffffffffff168173ffffffffffffffffffffffffffffffffffffffff167f8be0079c531659141344cd1fd0a4f28419497f9722a3daafe3b4186f6b6457e060405160405180910390a35050565b5f73ffffffffffffffffffffffffffffffffffffffff168473ffffffffffffffffffffffffffffffffffffffff16036109ec575f6040517fe602df050000000000000000000000000000000000000000000000000000000081526004016109e39190610fdc565b60405180910390fd5b5f73ffffffffffffffffffffffffffffffffffffffff168373ffffffffffffffffffffffffffffffffffffffff1603610a5c575f6040517f94280d62000000000000000000000000000000000000000000000000000000008152600401610a539190610fdc565b60405180910390fd5b8160015f8673ffffffffffffffffffffffffffffffffffffffff1673ffffffffffffffffffffffffffffffffffffffff1681526020019081526020015f205f8573ffffffffffffffffffffffffffffffffffffffff1673ffffffffffffffffffffffffffffffffffffffff1681526020019081526020015f20819055508015610b45578273ffffffffffffffffffffffffffffffffffffffff168473ffffffffffffffffffffffffffffffffffffffff167f8c5be1e5ebec7d5bd14f71427d1e84f3dd0314c0f7b2291e5b200ac8c7c3b92584604051610b3c9190610f05565b60405180910390a35b50505050565b5f73ffffffffffffffffffffffffffffffffffffffff168373ffffffffffffffffffffffffffffffffffffffff1603610b9b578060025f828254610b8f91906110f2565b92505081905550610c69565b5f5f5f8573ffffffffffffffffffffffffffffffffffffffff1673ffffffffffffffffffffffffffffffffffffffff1681526020019081526020015f2054905081811015610c24578381836040517fe450d38c000000000000000000000000000000000000000000000000000000008152600401610c1b93929190611090565b60405180910390fd5b8181035f5f8673ffffffffffffffffffffffffffffffffffffffff1673ffffffffffffffffffffffffffffffffffffffff1681526020019081526020015f2081905550505b5f73ffffffffffffffffffffffffffffffffffffffff168273ffffffffffffffffffffffffffffffffffffffff1603610cb0578060025f8282540392505081905550610cfa565b805f5f8473ffffffffffffffffffffffffffffffffffffffff1673ffffffffffffffffffffffffffffffffffffffff1681526020019081526020015f205f82825401925050819055505b8173ffffffffffffffffffffffffffffffffffffffff168373ffffffffffffffffffffffffffffffffffffffff167fddf252ad1be2c89b69c2b068fc378daa952ba7f163c4a11628f55a4df523b3ef83604051610d579190610f05565b60405180910390a3505050565b5f81519050919050565b5f82825260208201905092915050565b8281835e5f83830152505050565b5f601f19601f8301169050919050565b5f610da682610d64565b610db08185610d6e565b9350610dc0818560208601610d7e565b610dc981610d8c565b840191505092915050565b5f6020820190508181035f830152610dec8184610d9c565b905092915050565b5f5ffd5b5f73ffffffffffffffffffffffffffffffffffffffff82169050919050565b5f610e2182610df8565b9050919050565b610e3181610e17565b8114610e3b575f5ffd5b50565b5f81359050610e4c81610e28565b92915050565b5f819050919050565b610e6481610e52565b8114610e6e575f5ffd5b50565b5f81359050610e7f81610e5b565b92915050565b5f5f60408385031215610e9b57610e9a610df4565b5b5f610ea885828601610e3e565b9250506020610eb985828601610e71565b9150509250929050565b5f8115159050919050565b610ed781610ec3565b82525050565b5f602082019050610ef05f830184610ece565b92915050565b610eff81610e52565b82525050565b5f602082019050610f185f830184610ef6565b92915050565b5f5f5f60608486031215610f3557610f34610df4565b5b5f610f4286828701610e3e565b9350506020610f5386828701610e3e565b9250506040610f6486828701610e71565b9150509250925092565b5f60ff82169050919050565b610f8381610f6e565b82525050565b5f602082019050610f9c5f830184610f7a565b92915050565b5f60208284031215610fb757610fb6610df4565b5b5f610fc484828501610e3e565b91505092915050565b610fd681610e17565b82525050565b5f602082019050610fef5f830184610fcd565b92915050565b5f5f6040838503121561100b5761100a610df4565b5b5f61101885828601610e3e565b925050602061102985828601610e3e565b9150509250929050565b7f4e487b71000000000000000000000000000000000000000000000000000000005f52602260045260245ffd5b5f600282049050600182168061107757607f821691505b60208210810361108a57611089611033565b5b50919050565b5f6060820190506110a35f830186610fcd565b6110b06020830185610ef6565b6110bd6040830184610ef6565b949350505050565b7f4e487b71000000000000000000000000000000000000000000000000000000005f52601160045260245ffd5b5f6110fc82610e52565b915061110783610e52565b925082820190508082111561111f5761111e6110c5565b5b9291505056fea264697066735822122001b178b60cac02f4a9d9122ce5f99424ea4c3ca3b7944e272a48974e0095649564736f6c634300081c0033","linkReferences":{}},"methodIdentifiers":{"allowance(address,address)":"dd62ed3e","approve(address,uint256)":"095ea7b3","balanceOf(address)":"70a08231","decimals()":"313ce567","faucet()":"de5f72fd","mint(address,uint256)":"40c10f19","name()":"06fdde03","owner()":"8da5cb5b","renounceOwnership()":"715018a6","symbol()":"95d89b41","totalSupply()":"18160ddd","transfer(address,uint256)":"a9059cbb","transferFrom(address,address,uint256)":"23b872dd","transferOwnership(address)":"f2fde38b"},"id":37}