{"abi":[{"type":"constructor","inputs":[{"name":"_vsToken","type":"address","internalType":"address"},{"name":"_underlyingToken","type":"address","internalType":"address"}],"stateMutability":"nonpayable"},{"type":"function","name":"KEEPER_INCENTIVE_BPS","inputs":[],"outputs":[{"name":"","type":"uint256","internalType":"uint256"}],"stateMutability":"view"},{"type":"function","name":"claimVested","inputs":[{"name":"startIndex","type":"uint256","internalType":"uint256"},{"name":"count","type":"uint256","internalType":"uint256"}],"outputs":[],"stateMutability":"nonpayable"},{"type":"function","name":"deposit","inputs":[{"name":"nftId","type":"uint256","internalType":"uint256"}],"outputs":[],"stateMutability":"nonpayable"},{"type":"function","name":"depositedNFTs","inputs":[{"name":"","type":"uint256","internalType":"uint256"}],"outputs":[{"name":"","type":"address","internalType":"address"}],"stateMutability":"view"},{"type":"function","name":"heldNFTs","inputs":[{"name":"","type":"uint256","internalType":"uint256"}],"outputs":[{"name":"","type":"uint256","internalType":"uint256"}],"stateMutability":"view"},{"type":"function","name":"onERC721Received","inputs":[{"name":"","type":"address","internalType":"address"},{"name":"","type":"address","internalType":"address"},{"name":"","type":"uint256","internalType":"uint256"},{"name":"","type":"bytes","internalType":"bytes"}],"outputs":[{"name":"","type":"bytes4","internalType":"bytes4"}],"stateMutability":"nonpayable"},{"type":"function","name":"owner","inputs":[],"outputs":[{"name":"","type":"address","internalType":"address"}],"stateMutability":"view"},{"type":"function","name":"pause","inputs":[],"outputs":[],"stateMutability":"nonpayable"},{"type":"function","name":"paused","inputs":[],"outputs":[{"name":"","type":"bool","internalType":"bool"}],"stateMutability":"view"},{"type":"function","name":"redeem","inputs":[{"name":"amount","type":"uint256","internalType":"uint256"}],"outputs":[],"stateMutability":"nonpayable"},{"type":"function","name":"renounceOwnership","inputs":[],"outputs":[],"stateMutability":"nonpayable"},{"type":"function","name":"setNFTContract","inputs":[{"name":"_sonicNFT","type":"address","internalType":"address"}],"outputs":[],"stateMutability":"nonpayable"},{"type":"function","name":"sonicNFT","inputs":[],"outputs":[{"name":"","type":"address","internalType":"address"}],"stateMutability":"view"},{"type":"function","name":"totalAssets","inputs":[],"outputs":[{"name":"","type":"uint256","internalType":"uint256"}],"stateMutability":"view"},{"type":"function","name":"transferOwnership","inputs":[{"name":"newOwner","type":"address","internalType":"address"}],"outputs":[],"stateMutability":"nonpayable"},{"type":"function","name":"underlyingToken","inputs":[],"outputs":[{"name":"","type":"address","internalType":"address"}],"stateMutability":"view"},{"type":"function","name":"unpause","inputs":[],"outputs":[],"stateMutability":"nonpayable"},{"type":"function","name":"vS","inputs":[],"outputs":[{"name":"","type":"address","internalType":"contract VSToken"}],"stateMutability":"view"},{"type":"event","name":"NFTContractSet","inputs":[{"name":"nftContract","type":"address","indexed":true,"internalType":"address"}],"anonymous":false},{"type":"event","name":"NFTDeposited","inputs":[{"name":"user","type":"address","indexed":true,"internalType":"address"},{"name":"nftId","type":"uint256","indexed":true,"internalType":"uint256"},{"name":"amountMinted","type":"uint256","indexed":false,"internalType":"uint256"}],"anonymous":false},{"type":"event","name":"OwnershipTransferred","inputs":[{"name":"previousOwner","type":"address","indexed":true,"internalType":"address"},{"name":"newOwner","type":"address","indexed":true,"internalType":"address"}],"anonymous":false},{"type":"event","name":"Paused","inputs":[{"name":"account","type":"address","indexed":false,"internalType":"address"}],"anonymous":false},{"type":"event","name":"Redeemed","inputs":[{"name":"user","type":"address","indexed":true,"internalType":"address"},{"name":"vsAmount","type":"uint256","indexed":false,"internalType":"uint256"},{"name":"underlyingAmount","type":"uint256","indexed":false,"internalType":"uint256"}],"anonymous":false},{"type":"event","name":"Unpaused","inputs":[{"name":"account","type":"address","indexed":false,"internalType":"address"}],"anonymous":false},{"type":"event","name":"VestedTokensClaimed","inputs":[{"name":"caller","type":"address","indexed":true,"internalType":"address"},{"name":"totalAmount","type":"uint256","indexed":false,"internalType":"uint256"},{"name":"incentivePaid","type":"uint256","indexed":false,"internalType":"uint256"}],"anonymous":false},{"type":"error","name":"EnforcedPause","inputs":[]},{"type":"error","name":"ExpectedPause","inputs":[]},{"type":"error","name":"OwnableInvalidOwner","inputs":[{"name":"owner","type":"address","internalType":"address"}]},{"type":"error","name":"OwnableUnauthorizedAccount","inputs":[{"name":"account","type":"address","internalType":"address"}]},{"type":"error","name":"ReentrancyGuardReentrantCall","inputs":[]}],"bytecode":{"object":"0x60a060405234801561000f575f5ffd5b5060405161280b38038061280b83398181016040528101906100319190610254565b335f73ffffffffffffffffffffffffffffffffffffffff168173ffffffffffffffffffffffffffffffffffffffff16036100a2575f6040517f1e4fbdf700000000000000000000000000000000000000000000000000000000815260040161009991906102a1565b60405180910390fd5b6100b18161013560201b60201c565b506001808190555081600260016101000a81548173ffffffffffffffffffffffffffffffffffffffff021916908373ffffffffffffffffffffffffffffffffffffffff1602179055508073ffffffffffffffffffffffffffffffffffffffff1660808173ffffffffffffffffffffffffffffffffffffffff168152505050506102ba565b5f5f5f9054906101000a900473ffffffffffffffffffffffffffffffffffffffff169050815f5f6101000a81548173ffffffffffffffffffffffffffffffffffffffff021916908373ffffffffffffffffffffffffffffffffffffffff1602179055508173ffffffffffffffffffffffffffffffffffffffff168173ffffffffffffffffffffffffffffffffffffffff167f8be0079c531659141344cd1fd0a4f28419497f9722a3daafe3b4186f6b6457e060405160405180910390a35050565b5f5ffd5b5f73ffffffffffffffffffffffffffffffffffffffff82169050919050565b5f610223826101fa565b9050919050565b61023381610219565b811461023d575f5ffd5b50565b5f8151905061024e8161022a565b92915050565b5f5f6040838503121561026a576102696101f6565b5b5f61027785828601610240565b925050602061028885828601610240565b9150509250929050565b61029b81610219565b82525050565b5f6020820190506102b45f830184610292565b92915050565b6080516125166102f55f395f81816103270152818161041c01528181610d0f01528181610f630152818161142601526114c601526125165ff3fe608060405234801561000f575f5ffd5b5060043610610114575f3560e01c80638456cb59116100a0578063b6b55f251161006f578063b6b55f2514610296578063bea43a22146102b2578063db006a75146102d0578063dfff7967146102ec578063f2fde38b1461030857610114565b80638456cb59146102345780638da5cb5b1461023e578063a7ccabdf1461025c578063aa30c4b71461027857610114565b80632495a599116100e75780632495a599146101b45780633f4ba83a146101d25780635204472d146101dc5780635c975abb1461020c578063715018a61461022a57610114565b806301e1d11414610118578063150b7a021461013657806315cfc88e1461016657806316d812f614610184575b5f5ffd5b610120610324565b60405161012d9190611937565b60405180910390f35b610150600480360381019061014b9190611b21565b6103c2565b60405161015d9190611bdb565b60405180910390f35b61016e6103d5565b60405161017b9190611c03565b60405180910390f35b61019e60048036038101906101999190611c1c565b6103fa565b6040516101ab9190611937565b60405180910390f35b6101bc61041a565b6040516101c99190611c03565b60405180910390f35b6101da61043e565b005b6101f660048036038101906101f19190611c1c565b610450565b6040516102039190611c03565b60405180910390f35b610214610480565b6040516102219190611c61565b60405180910390f35b610232610495565b005b61023c6104a8565b005b6102466104ba565b6040516102539190611c03565b60405180910390f35b61027660048036038101906102719190611c7a565b6104e1565b005b61028061066c565b60405161028d9190611d00565b60405180910390f35b6102b060048036038101906102ab9190611c1c565b610692565b005b6102ba610cb5565b6040516102c79190611937565b60405180910390f35b6102ea60048036038101906102e59190611c1c565b610cba565b005b61030660048036038101906103019190611d19565b61105b565b005b610322600480360381019061031d9190611c7a565b6115b9565b005b5f7f000000000000000000000000000000000000000000000000000000000000000073ffffffffffffffffffffffffffffffffffffffff166370a08231306040518263ffffffff1660e01b815260040161037e9190611c03565b602060405180830381865afa158015610399573d5f5f3e3d5ffd5b505050506040513d601f19601f820116820180604052508101906103bd9190611d6b565b905090565b5f63150b7a0260e01b9050949350505050565b60035f9054906101000a900473ffffffffffffffffffffffffffffffffffffffff1681565b60048181548110610409575f80fd5b905f5260205f20015f915090505481565b7f000000000000000000000000000000000000000000000000000000000000000081565b61044661163d565b61044e6116c4565b565b6005602052805f5260405f205f915054906101000a900473ffffffffffffffffffffffffffffffffffffffff1681565b5f60025f9054906101000a900460ff16905090565b61049d61163d565b6104a65f611725565b565b6104b061163d565b6104b86117e6565b565b5f5f5f9054906101000a900473ffffffffffffffffffffffffffffffffffffffff16905090565b6104e961163d565b5f73ffffffffffffffffffffffffffffffffffffffff1660035f9054906101000a900473ffffffffffffffffffffffffffffffffffffffff1673ffffffffffffffffffffffffffffffffffffffff1614610578576040517f08c379a000000000000000000000000000000000000000000000000000000000815260040161056f90611df0565b60405180910390fd5b5f73ffffffffffffffffffffffffffffffffffffffff168173ffffffffffffffffffffffffffffffffffffffff16036105e6576040517f08c379a00000000000000000000000000000000000000000000000000000000081526004016105dd90611e7e565b60405180910390fd5b8060035f6101000a81548173ffffffffffffffffffffffffffffffffffffffff021916908373ffffffffffffffffffffffffffffffffffffffff1602179055508073ffffffffffffffffffffffffffffffffffffffff167f5a6a54be6929433a25d1b5103e7dea8d9440b7903216e380344a320ca1cdd85f60405160405180910390a250565b600260019054906101000a900473ffffffffffffffffffffffffffffffffffffffff1681565b61069a611848565b6106a261188e565b5f73ffffffffffffffffffffffffffffffffffffffff1660035f9054906101000a900473ffffffffffffffffffffffffffffffffffffffff1673ffffffffffffffffffffffffffffffffffffffff1603610731576040517f08c379a000000000000000000000000000000000000000000000000000000000815260040161072890611ee6565b60405180910390fd5b5f73ffffffffffffffffffffffffffffffffffffffff1660055f8381526020019081526020015f205f9054906101000a900473ffffffffffffffffffffffffffffffffffffffff1673ffffffffffffffffffffffffffffffffffffffff16146107cf576040517f08c379a00000000000000000000000000000000000000000000000000000000081526004016107c690611f4e565b60405180910390fd5b3373ffffffffffffffffffffffffffffffffffffffff1660035f9054906101000a900473ffffffffffffffffffffffffffffffffffffffff1673ffffffffffffffffffffffffffffffffffffffff16636352211e836040518263ffffffff1660e01b81526004016108409190611937565b602060405180830381865afa15801561085b573d5f5f3e3d5ffd5b505050506040513d601f19601f8201168201806040525081019061087f9190611f80565b73ffffffffffffffffffffffffffffffffffffffff16146108d5576040517f08c379a00000000000000000000000000000000000000000000000000000000081526004016108cc90611ff5565b60405180910390fd5b3073ffffffffffffffffffffffffffffffffffffffff1660035f9054906101000a900473ffffffffffffffffffffffffffffffffffffffff1673ffffffffffffffffffffffffffffffffffffffff1663081812fc836040518263ffffffff1660e01b81526004016109469190611937565b602060405180830381865afa158015610961573d5f5f3e3d5ffd5b505050506040513d601f19601f820116820180604052508101906109859190611f80565b73ffffffffffffffffffffffffffffffffffffffff161480610a3e575060035f9054906101000a900473ffffffffffffffffffffffffffffffffffffffff1673ffffffffffffffffffffffffffffffffffffffff1663e985e9c533306040518363ffffffff1660e01b81526004016109fe929190612013565b602060405180830381865afa158015610a19573d5f5f3e3d5ffd5b505050506040513d601f19601f82011682018060405250810190610a3d9190612064565b5b610a7d576040517f08c379a0000000000000000000000000000000000000000000000000000000008152600401610a74906120d9565b60405180910390fd5b3360055f8381526020019081526020015f205f6101000a81548173ffffffffffffffffffffffffffffffffffffffff021916908373ffffffffffffffffffffffffffffffffffffffff160217905550600481908060018154018082558091505060019003905f5260205f20015f90919091909150555f60035f9054906101000a900473ffffffffffffffffffffffffffffffffffffffff1673ffffffffffffffffffffffffffffffffffffffff1663f0e40662836040518263ffffffff1660e01b8152600401610b4d9190611937565b602060405180830381865afa158015610b68573d5f5f3e3d5ffd5b505050506040513d601f19601f82011682018060405250810190610b8c9190611d6b565b90505f8111610bd0576040517f08c379a0000000000000000000000000000000000000000000000000000000008152600401610bc790612141565b60405180910390fd5b600260019054906101000a900473ffffffffffffffffffffffffffffffffffffffff1673ffffffffffffffffffffffffffffffffffffffff166340c10f1933836040518363ffffffff1660e01b8152600401610c2d92919061215f565b5f604051808303815f87803b158015610c44575f5ffd5b505af1158015610c56573d5f5f3e3d5ffd5b50505050813373ffffffffffffffffffffffffffffffffffffffff167fdeba2d4291edd2e29ef127ea6e31f12ebb9adc96b42605081927d379bdcb8bed83604051610ca19190611937565b60405180910390a350610cb26118cf565b50565b600581565b610cc2611848565b610cca61188e565b5f8111610d0c576040517f08c379a0000000000000000000000000000000000000000000000000000000008152600401610d03906121d0565b60405180910390fd5b5f7f000000000000000000000000000000000000000000000000000000000000000073ffffffffffffffffffffffffffffffffffffffff166370a08231306040518263ffffffff1660e01b8152600401610d669190611c03565b602060405180830381865afa158015610d81573d5f5f3e3d5ffd5b505050506040513d601f19601f82011682018060405250810190610da59190611d6b565b90505f600260019054906101000a900473ffffffffffffffffffffffffffffffffffffffff1673ffffffffffffffffffffffffffffffffffffffff166318160ddd6040518163ffffffff1660e01b8152600401602060405180830381865afa158015610e13573d5f5f3e3d5ffd5b505050506040513d601f19601f82011682018060405250810190610e379190611d6b565b90505f8111610e7b576040517f08c379a0000000000000000000000000000000000000000000000000000000008152600401610e7290612238565b60405180910390fd5b5f818385610e899190612283565b610e9391906122f1565b90505f8111610ed7576040517f08c379a0000000000000000000000000000000000000000000000000000000008152600401610ece9061236b565b60405180910390fd5b600260019054906101000a900473ffffffffffffffffffffffffffffffffffffffff1673ffffffffffffffffffffffffffffffffffffffff16639dc29fac33866040518363ffffffff1660e01b8152600401610f3492919061215f565b5f604051808303815f87803b158015610f4b575f5ffd5b505af1158015610f5d573d5f5f3e3d5ffd5b505050507f000000000000000000000000000000000000000000000000000000000000000073ffffffffffffffffffffffffffffffffffffffff1663a9059cbb33836040518363ffffffff1660e01b8152600401610fbc92919061215f565b6020604051808303815f875af1158015610fd8573d5f5f3e3d5ffd5b505050506040513d601f19601f82011682018060405250810190610ffc9190612064565b503373ffffffffffffffffffffffffffffffffffffffff167ff3a670cd3af7d64b488926880889d08a8585a138ff455227af6737339a1ec2628583604051611045929190612389565b60405180910390a25050506110586118cf565b50565b5f5f90505f828461106c91906123b0565b90506004805490508111156110b6576040517f08c379a00000000000000000000000000000000000000000000000000000000081526004016110ad9061242d565b60405180910390fd5b5f8490505b818110156113ed575f600482815481106110d8576110d761244b565b5b905f5260205f20015490505f73ffffffffffffffffffffffffffffffffffffffff1660055f8381526020019081526020015f205f9054906101000a900473ffffffffffffffffffffffffffffffffffffffff1673ffffffffffffffffffffffffffffffffffffffff1603611181576040517f08c379a0000000000000000000000000000000000000000000000000000000008152600401611178906124c2565b60405180910390fd5b5f60055f8381526020019081526020015f205f9054906101000a900473ffffffffffffffffffffffffffffffffffffffff1690508073ffffffffffffffffffffffffffffffffffffffff1660035f9054906101000a900473ffffffffffffffffffffffffffffffffffffffff1673ffffffffffffffffffffffffffffffffffffffff16636352211e846040518263ffffffff1660e01b81526004016112269190611937565b602060405180830381865afa158015611241573d5f5f3e3d5ffd5b505050506040513d601f19601f820116820180604052508101906112659190611f80565b73ffffffffffffffffffffffffffffffffffffffff16146112875750506113e0565b5f60035f9054906101000a900473ffffffffffffffffffffffffffffffffffffffff1673ffffffffffffffffffffffffffffffffffffffff1663d1d58b25846040518263ffffffff1660e01b81526004016112e29190611937565b602060405180830381865afa1580156112fd573d5f5f3e3d5ffd5b505050506040513d601f19601f820116820180604052508101906113219190611d6b565b90505f8111156113dc5760035f9054906101000a900473ffffffffffffffffffffffffffffffffffffffff1673ffffffffffffffffffffffffffffffffffffffff16637935510b846040518263ffffffff1660e01b81526004016113859190611937565b6020604051808303815f875af19250505080156113c057506040513d601f19601f820116820180604052508101906113bd9190611d6b565b60015b6113cc575050506113e0565b80876113d891906123b0565b9650505b5050505b80806001019150506110bb565b505f82036113fc5750506115b5565b5f61271060058461140d9190612283565b61141791906122f1565b90505f811180156114bf5750807f000000000000000000000000000000000000000000000000000000000000000073ffffffffffffffffffffffffffffffffffffffff166370a08231306040518263ffffffff1660e01b815260040161147d9190611c03565b602060405180830381865afa158015611498573d5f5f3e3d5ffd5b505050506040513d601f19601f820116820180604052508101906114bc9190611d6b565b10155b15611561577f000000000000000000000000000000000000000000000000000000000000000073ffffffffffffffffffffffffffffffffffffffff1663a9059cbb33836040518363ffffffff1660e01b815260040161151f92919061215f565b6020604051808303815f875af115801561153b573d5f5f3e3d5ffd5b505050506040513d601f19601f8201168201806040525081019061155f9190612064565b505b3373ffffffffffffffffffffffffffffffffffffffff167f6c4474f5353aa538dd7698fa19be2149fc1d9fee5ab8a6af3de07ca84b7f28c784836040516115a9929190612389565b60405180910390a25050505b5050565b6115c161163d565b5f73ffffffffffffffffffffffffffffffffffffffff168173ffffffffffffffffffffffffffffffffffffffff1603611631575f6040517f1e4fbdf70000000000000000000000000000000000000000000000000000000081526004016116289190611c03565b60405180910390fd5b61163a81611725565b50565b6116456118d8565b73ffffffffffffffffffffffffffffffffffffffff166116636104ba565b73ffffffffffffffffffffffffffffffffffffffff16146116c2576116866118d8565b6040517f118cdaa70000000000000000000000000000000000000000000000000000000081526004016116b99190611c03565b60405180910390fd5b565b6116cc6118df565b5f60025f6101000a81548160ff0219169083151502179055507f5db9ee0a495bf2e6ff9c91a7834c1ba4fdd244a5e8aa4e537bd38aeae4b073aa61170e6118d8565b60405161171b9190611c03565b60405180910390a1565b5f5f5f9054906101000a900473ffffffffffffffffffffffffffffffffffffffff169050815f5f6101000a81548173ffffffffffffffffffffffffffffffffffffffff021916908373ffffffffffffffffffffffffffffffffffffffff1602179055508173ffffffffffffffffffffffffffffffffffffffff168173ffffffffffffffffffffffffffffffffffffffff167f8be0079c531659141344cd1fd0a4f28419497f9722a3daafe3b4186f6b6457e060405160405180910390a35050565b6117ee61188e565b600160025f6101000a81548160ff0219169083151502179055507f62e78cea01bee320cd4e420270b5ea74000d11b0c9f74754ebdbfc544b05a2586118316118d8565b60405161183e9190611c03565b60405180910390a1565b600260015403611884576040517f3ee5aeb500000000000000000000000000000000000000000000000000000000815260040160405180910390fd5b6002600181905550565b611896610480565b156118cd576040517fd93c066500000000000000000000000000000000000000000000000000000000815260040160405180910390fd5b565b60018081905550565b5f33905090565b6118e7610480565b61191d576040517f8dfc202b00000000000000000000000000000000000000000000000000000000815260040160405180910390fd5b565b5f819050919050565b6119318161191f565b82525050565b5f60208201905061194a5f830184611928565b92915050565b5f604051905090565b5f5ffd5b5f5ffd5b5f73ffffffffffffffffffffffffffffffffffffffff82169050919050565b5f61198a82611961565b9050919050565b61199a81611980565b81146119a4575f5ffd5b50565b5f813590506119b581611991565b92915050565b6119c48161191f565b81146119ce575f5ffd5b50565b5f813590506119df816119bb565b92915050565b5f5ffd5b5f5ffd5b5f601f19601f8301169050919050565b7f4e487b71000000000000000000000000000000000000000000000000000000005f52604160045260245ffd5b611a33826119ed565b810181811067ffffffffffffffff82111715611a5257611a516119fd565b5b80604052505050565b5f611a64611950565b9050611a708282611a2a565b919050565b5f67ffffffffffffffff821115611a8f57611a8e6119fd565b5b611a98826119ed565b9050602081019050919050565b828183375f83830152505050565b5f611ac5611ac084611a75565b611a5b565b905082815260208101848484011115611ae157611ae06119e9565b5b611aec848285611aa5565b509392505050565b5f82601f830112611b0857611b076119e5565b5b8135611b18848260208601611ab3565b91505092915050565b5f5f5f5f60808587031215611b3957611b38611959565b5b5f611b46878288016119a7565b9450506020611b57878288016119a7565b9350506040611b68878288016119d1565b925050606085013567ffffffffffffffff811115611b8957611b8861195d565b5b611b9587828801611af4565b91505092959194509250565b5f7fffffffff0000000000000000000000000000000000000000000000000000000082169050919050565b611bd581611ba1565b82525050565b5f602082019050611bee5f830184611bcc565b92915050565b611bfd81611980565b82525050565b5f602082019050611c165f830184611bf4565b92915050565b5f60208284031215611c3157611c30611959565b5b5f611c3e848285016119d1565b91505092915050565b5f8115159050919050565b611c5b81611c47565b82525050565b5f602082019050611c745f830184611c52565b92915050565b5f60208284031215611c8f57611c8e611959565b5b5f611c9c848285016119a7565b91505092915050565b5f819050919050565b5f611cc8611cc3611cbe84611961565b611ca5565b611961565b9050919050565b5f611cd982611cae565b9050919050565b5f611cea82611ccf565b9050919050565b611cfa81611ce0565b82525050565b5f602082019050611d135f830184611cf1565b92915050565b5f5f60408385031215611d2f57611d2e611959565b5b5f611d3c858286016119d1565b9250506020611d4d858286016119d1565b9150509250929050565b5f81519050611d65816119bb565b92915050565b5f60208284031215611d8057611d7f611959565b5b5f611d8d84828501611d57565b91505092915050565b5f82825260208201905092915050565b7f4e465420636f6e747261637420616c72656164792073657400000000000000005f82015250565b5f611dda601883611d96565b9150611de582611da6565b602082019050919050565b5f6020820190508181035f830152611e0781611dce565b9050919050565b7f4e465420636f6e74726163742063616e6e6f74206265207a65726f20616464725f8201527f6573730000000000000000000000000000000000000000000000000000000000602082015250565b5f611e68602383611d96565b9150611e7382611e0e565b604082019050919050565b5f6020820190508181035f830152611e9581611e5c565b9050919050565b7f4e465420636f6e7472616374206e6f74207365740000000000000000000000005f82015250565b5f611ed0601483611d96565b9150611edb82611e9c565b602082019050919050565b5f6020820190508181035f830152611efd81611ec4565b9050919050565b7f4e465420616c7265616479206465706f736974656400000000000000000000005f82015250565b5f611f38601583611d96565b9150611f4382611f04565b602082019050919050565b5f6020820190508181035f830152611f6581611f2c565b9050919050565b5f81519050611f7a81611991565b92915050565b5f60208284031215611f9557611f94611959565b5b5f611fa284828501611f6c565b91505092915050565b7f4e6f74204e4654206f776e6572000000000000000000000000000000000000005f82015250565b5f611fdf600d83611d96565b9150611fea82611fab565b602082019050919050565b5f6020820190508181035f83015261200c81611fd3565b9050919050565b5f6040820190506120265f830185611bf4565b6120336020830184611bf4565b9392505050565b61204381611c47565b811461204d575f5ffd5b50565b5f8151905061205e8161203a565b92915050565b5f6020828403121561207957612078611959565b5b5f61208684828501612050565b91505092915050565b7f5661756c74206e6f7420617070726f76656420666f72204e46540000000000005f82015250565b5f6120c3601a83611d96565b91506120ce8261208f565b602082019050919050565b5f6020820190508181035f8301526120f0816120b7565b9050919050565b7f4e465420686173206e6f2076616c7565000000000000000000000000000000005f82015250565b5f61212b601083611d96565b9150612136826120f7565b602082019050919050565b5f6020820190508181035f8301526121588161211f565b9050919050565b5f6040820190506121725f830185611bf4565b61217f6020830184611928565b9392505050565b7f43616e6e6f742072656465656d203000000000000000000000000000000000005f82015250565b5f6121ba600f83611d96565b91506121c582612186565b602082019050919050565b5f6020820190508181035f8301526121e7816121ae565b9050919050565b7f4e6f20765320746f6b656e7320696e2063697263756c6174696f6e00000000005f82015250565b5f612222601b83611d96565b915061222d826121ee565b602082019050919050565b5f6020820190508181035f83015261224f81612216565b9050919050565b7f4e487b71000000000000000000000000000000000000000000000000000000005f52601160045260245ffd5b5f61228d8261191f565b91506122988361191f565b92508282026122a68161191f565b915082820484148315176122bd576122bc612256565b5b5092915050565b7f4e487b71000000000000000000000000000000000000000000000000000000005f52601260045260245ffd5b5f6122fb8261191f565b91506123068361191f565b925082612316576123156122c4565b5b828204905092915050565b7f4e6f20756e6465726c79696e672061737365747320746f2072656465656d00005f82015250565b5f612355601e83611d96565b915061236082612321565b602082019050919050565b5f6020820190508181035f83015261238281612349565b9050919050565b5f60408201905061239c5f830185611928565b6123a96020830184611928565b9392505050565b5f6123ba8261191f565b91506123c58361191f565b92508282019050808211156123dd576123dc612256565b5b92915050565b7f496e646578206f7574206f6620626f756e6473000000000000000000000000005f82015250565b5f612417601383611d96565b9150612422826123e3565b602082019050919050565b5f6020820190508181035f8301526124448161240b565b9050919050565b7f4e487b71000000000000000000000000000000000000000000000000000000005f52603260045260245ffd5b7f4e4654206e6f74206465706f73697465640000000000000000000000000000005f82015250565b5f6124ac601183611d96565b91506124b782612478565b602082019050919050565b5f6020820190508181035f8301526124d9816124a0565b905091905056fea2646970667358221220278403298a2acfa799949170c6e7a49eefec0e6054aee36d9cc554befd94e6e864736f6c634300081c0033","linkReferences":{}},"methodIdentifiers":{"KEEPER_INCENTIVE_BPS()":"bea43a22","claimVested(uint256,uint256)":"dfff7967","deposit(uint256)":"b6b55f25","depositedNFTs(uint256)":"5204472d","heldNFTs(uint256)":"16d812f6","onERC721Received(address,address,uint256,bytes)":"150b7a02","owner()":"8da5cb5b","pause()":"8456cb59","paused()":"5c975abb","redeem(uint256)":"db006a75","renounceOwnership()":"715018a6","setNFTContract(address)":"a7ccabdf","sonicNFT()":"15cfc88e","totalAssets()":"01e1d114","transferOwnership(address)":"f2fde38b","underlyingToken()":"2495a599","unpause()":"3f4ba83a","vS()":"aa30c4b7"},"id":44}