{"abi":[{"type":"constructor","inputs":[{"name":"_minter","type":"address","internalType":"address"},{"name":"_name","type":"string","internalType":"string"},{"name":"_symbol","type":"string","internalType":"string"}],"stateMutability":"nonpayable"},{"type":"function","name":"allowance","inputs":[{"name":"owner","type":"address","internalType":"address"},{"name":"spender","type":"address","internalType":"address"}],"outputs":[{"name":"","type":"uint256","internalType":"uint256"}],"stateMutability":"view"},{"type":"function","name":"approve","inputs":[{"name":"spender","type":"address","internalType":"address"},{"name":"value","type":"uint256","internalType":"uint256"}],"outputs":[{"name":"","type":"bool","internalType":"bool"}],"stateMutability":"nonpayable"},{"type":"function","name":"balanceOf","inputs":[{"name":"account","type":"address","internalType":"address"}],"outputs":[{"name":"","type":"uint256","internalType":"uint256"}],"stateMutability":"view"},{"type":"function","name":"burn","inputs":[{"name":"from","type":"address","internalType":"address"},{"name":"amount","type":"uint256","internalType":"uint256"}],"outputs":[],"stateMutability":"nonpayable"},{"type":"function","name":"decimals","inputs":[],"outputs":[{"name":"","type":"uint8","internalType":"uint8"}],"stateMutability":"view"},{"type":"function","name":"mint","inputs":[{"name":"to","type":"address","internalType":"address"},{"name":"amount","type":"uint256","internalType":"uint256"}],"outputs":[],"stateMutability":"nonpayable"},{"type":"function","name":"minter","inputs":[],"outputs":[{"name":"","type":"address","internalType":"address"}],"stateMutability":"view"},{"type":"function","name":"name","inputs":[],"outputs":[{"name":"","type":"string","internalType":"string"}],"stateMutability":"view"},{"type":"function","name":"symbol","inputs":[],"outputs":[{"name":"","type":"string","internalType":"string"}],"stateMutability":"view"},{"type":"function","name":"totalSupply","inputs":[],"outputs":[{"name":"","type":"uint256","internalType":"uint256"}],"stateMutability":"view"},{"type":"function","name":"transfer","inputs":[{"name":"to","type":"address","internalType":"address"},{"name":"value","type":"uint256","internalType":"uint256"}],"outputs":[{"name":"","type":"bool","internalType":"bool"}],"stateMutability":"nonpayable"},{"type":"function","name":"transferFrom","inputs":[{"name":"from","type":"address","internalType":"address"},{"name":"to","type":"address","internalType":"address"},{"name":"value","type":"uint256","internalType":"uint256"}],"outputs":[{"name":"","type":"bool","internalType":"bool"}],"stateMutability":"nonpayable"},{"type":"event","name":"Approval","inputs":[{"name":"owner","type":"address","indexed":true,"internalType":"address"},{"name":"spender","type":"address","indexed":true,"internalType":"address"},{"name":"value","type":"uint256","indexed":false,"internalType":"uint256"}],"anonymous":false},{"type":"event","name":"Transfer","inputs":[{"name":"from","type":"address","indexed":true,"internalType":"address"},{"name":"to","type":"address","indexed":true,"internalType":"address"},{"name":"value","type":"uint256","indexed":false,"internalType":"uint256"}],"anonymous":false},{"type":"error","name":"ERC20InsufficientAllowance","inputs":[{"name":"spender","type":"address","internalType":"address"},{"name":"allowance","type":"uint256","internalType":"uint256"},{"name":"needed","type":"uint256","internalType":"uint256"}]},{"type":"error","name":"ERC20InsufficientBalance","inputs":[{"name":"sender","type":"address","internalType":"address"},{"name":"balance","type":"uint256","internalType":"uint256"},{"name":"needed","type":"uint256","internalType":"uint256"}]},{"type":"error","name":"ERC20InvalidApprover","inputs":[{"name":"approver","type":"address","internalType":"address"}]},{"type":"error","name":"ERC20InvalidReceiver","inputs":[{"name":"receiver","type":"address","internalType":"address"}]},{"type":"error","name":"ERC20InvalidSender","inputs":[{"name":"sender","type":"address","internalType":"address"}]},{"type":"error","name":"ERC20InvalidSpender","inputs":[{"name":"spender","type":"address","internalType":"address"}]}],"bytecode":{"object":"0x60a060405234801561000f575f5ffd5b5060405161182e38038061182e833981810160405281019061003191906102a6565b81818160039081610042919061053e565b508060049081610052919061053e565b5050505f73ffffffffffffffffffffffffffffffffffffffff168373ffffffffffffffffffffffffffffffffffffffff16036100c3576040517f08c379a00000000000000000000000000000000000000000000000000000000081526004016100ba90610667565b60405180910390fd5b8273ffffffffffffffffffffffffffffffffffffffff1660808173ffffffffffffffffffffffffffffffffffffffff1681525050505050610685565b5f604051905090565b5f5ffd5b5f5ffd5b5f73ffffffffffffffffffffffffffffffffffffffff82169050919050565b5f61013982610110565b9050919050565b6101498161012f565b8114610153575f5ffd5b50565b5f8151905061016481610140565b92915050565b5f5ffd5b5f5ffd5b5f601f19601f8301169050919050565b7f4e487b71000000000000000000000000000000000000000000000000000000005f52604160045260245ffd5b6101b882610172565b810181811067ffffffffffffffff821117156101d7576101d6610182565b5b80604052505050565b5f6101e96100ff565b90506101f582826101af565b919050565b5f67ffffffffffffffff82111561021457610213610182565b5b61021d82610172565b9050602081019050919050565b8281835e5f83830152505050565b5f61024a610245846101fa565b6101e0565b9050828152602081018484840111156102665761026561016e565b5b61027184828561022a565b509392505050565b5f82601f83011261028d5761028c61016a565b5b815161029d848260208601610238565b91505092915050565b5f5f5f606084860312156102bd576102bc610108565b5b5f6102ca86828701610156565b935050602084015167ffffffffffffffff8111156102eb576102ea61010c565b5b6102f786828701610279565b925050604084015167ffffffffffffffff8111156103185761031761010c565b5b61032486828701610279565b9150509250925092565b5f81519050919050565b7f4e487b71000000000000000000000000000000000000000000000000000000005f52602260045260245ffd5b5f600282049050600182168061037c57607f821691505b60208210810361038f5761038e610338565b5b50919050565b5f819050815f5260205f209050919050565b5f6020601f8301049050919050565b5f82821b905092915050565b5f600883026103f17fffffffffffffffffffffffffffffffffffffffffffffffffffffffffffffffff826103b6565b6103fb86836103b6565b95508019841693508086168417925050509392505050565b5f819050919050565b5f819050919050565b5f61043f61043a61043584610413565b61041c565b610413565b9050919050565b5f819050919050565b61045883610425565b61046c61046482610446565b8484546103c2565b825550505050565b5f5f905090565b610483610474565b61048e81848461044f565b505050565b5b818110156104b1576104a65f8261047b565b600181019050610494565b5050565b601f8211156104f6576104c781610395565b6104d0846103a7565b810160208510156104df578190505b6104f36104eb856103a7565b830182610493565b50505b505050565b5f82821c905092915050565b5f6105165f19846008026104fb565b1980831691505092915050565b5f61052e8383610507565b9150826002028217905092915050565b6105478261032e565b67ffffffffffffffff8111156105605761055f610182565b5b61056a8254610365565b6105758282856104b5565b5f60209050601f8311600181146105a6575f8415610594578287015190505b61059e8582610523565b865550610605565b601f1984166105b486610395565b5f5b828110156105db578489015182556001820191506020850194506020810190506105b6565b868310156105f857848901516105f4601f891682610507565b8355505b6001600288020188555050505b505050505050565b5f82825260208201905092915050565b7f4d696e7465722063616e6e6f74206265207a65726f20616464726573730000005f82015250565b5f610651601d8361060d565b915061065c8261061d565b602082019050919050565b5f6020820190508181035f83015261067e81610645565b9050919050565b6080516111836106ab5f395f81816103060152818161038b01526104fc01526111835ff3fe608060405234801561000f575f5ffd5b50600436106100b2575f3560e01c806340c10f191161006f57806340c10f191461018e57806370a08231146101aa57806395d89b41146101da5780639dc29fac146101f8578063a9059cbb14610214578063dd62ed3e14610244576100b2565b806306fdde03146100b657806307546172146100d4578063095ea7b3146100f257806318160ddd1461012257806323b872dd14610140578063313ce56714610170575b5f5ffd5b6100be610274565b6040516100cb9190610d2c565b60405180910390f35b6100dc610304565b6040516100e99190610d8b565b60405180910390f35b61010c60048036038101906101079190610e05565b610328565b6040516101199190610e5d565b60405180910390f35b61012a61034a565b6040516101379190610e85565b60405180910390f35b61015a60048036038101906101559190610e9e565b610353565b6040516101679190610e5d565b60405180910390f35b610178610381565b6040516101859190610f09565b60405180910390f35b6101a860048036038101906101a39190610e05565b610389565b005b6101c460048036038101906101bf9190610f22565b610425565b6040516101d19190610e85565b60405180910390f35b6101e261046a565b6040516101ef9190610d2c565b60405180910390f35b610212600480360381019061020d9190610e05565b6104fa565b005b61022e60048036038101906102299190610e05565b610596565b60405161023b9190610e5d565b60405180910390f35b61025e60048036038101906102599190610f4d565b6105b8565b60405161026b9190610e85565b60405180910390f35b60606003805461028390610fb8565b80601f01602080910402602001604051908101604052809291908181526020018280546102af90610fb8565b80156102fa5780601f106102d1576101008083540402835291602001916102fa565b820191905f5260205f20905b8154815290600101906020018083116102dd57829003601f168201915b5050505050905090565b7f000000000000000000000000000000000000000000000000000000000000000081565b5f5f61033261063a565b905061033f818585610641565b600191505092915050565b5f600254905090565b5f5f61035d61063a565b905061036a858285610653565b6103758585856106e6565b60019150509392505050565b5f6012905090565b7f000000000000000000000000000000000000000000000000000000000000000073ffffffffffffffffffffffffffffffffffffffff163373ffffffffffffffffffffffffffffffffffffffff1614610417576040517f08c379a000000000000000000000000000000000000000000000000000000000815260040161040e90611032565b60405180910390fd5b61042182826107d6565b5050565b5f5f5f8373ffffffffffffffffffffffffffffffffffffffff1673ffffffffffffffffffffffffffffffffffffffff1681526020019081526020015f20549050919050565b60606004805461047990610fb8565b80601f01602080910402602001604051908101604052809291908181526020018280546104a590610fb8565b80156104f05780601f106104c7576101008083540402835291602001916104f0565b820191905f5260205f20905b8154815290600101906020018083116104d357829003601f168201915b5050505050905090565b7f000000000000000000000000000000000000000000000000000000000000000073ffffffffffffffffffffffffffffffffffffffff163373ffffffffffffffffffffffffffffffffffffffff1614610588576040517f08c379a000000000000000000000000000000000000000000000000000000000815260040161057f9061109a565b60405180910390fd5b6105928282610855565b5050565b5f5f6105a061063a565b90506105ad8185856106e6565b600191505092915050565b5f60015f8473ffffffffffffffffffffffffffffffffffffffff1673ffffffffffffffffffffffffffffffffffffffff1681526020019081526020015f205f8373ffffffffffffffffffffffffffffffffffffffff1673ffffffffffffffffffffffffffffffffffffffff1681526020019081526020015f2054905092915050565b5f33905090565b61064e83838360016108d4565b505050565b5f61065e84846105b8565b90507fffffffffffffffffffffffffffffffffffffffffffffffffffffffffffffffff8110156106e057818110156106d1578281836040517ffb8f41b20000000000000000000000000000000000000000000000000000000081526004016106c8939291906110b8565b60405180910390fd5b6106df84848484035f6108d4565b5b50505050565b5f73ffffffffffffffffffffffffffffffffffffffff168373ffffffffffffffffffffffffffffffffffffffff1603610756575f6040517f96c6fd1e00000000000000000000000000000000000000000000000000000000815260040161074d9190610d8b565b60405180910390fd5b5f73ffffffffffffffffffffffffffffffffffffffff168273ffffffffffffffffffffffffffffffffffffffff16036107c6575f6040517fec442f050000000000000000000000000000000000000000000000000000000081526004016107bd9190610d8b565b60405180910390fd5b6107d1838383610aa3565b505050565b5f73ffffffffffffffffffffffffffffffffffffffff168273ffffffffffffffffffffffffffffffffffffffff1603610846575f6040517fec442f0500000000000000000000000000000000000000000000000000000000815260040161083d9190610d8b565b60405180910390fd5b6108515f8383610aa3565b5050565b5f73ffffffffffffffffffffffffffffffffffffffff168273ffffffffffffffffffffffffffffffffffffffff16036108c5575f6040517f96c6fd1e0000000000000000000000000000000000000000000000000000000081526004016108bc9190610d8b565b60405180910390fd5b6108d0825f83610aa3565b5050565b5f73ffffffffffffffffffffffffffffffffffffffff168473ffffffffffffffffffffffffffffffffffffffff1603610944575f6040517fe602df0500000000000000000000000000000000000000000000000000000000815260040161093b9190610d8b565b60405180910390fd5b5f73ffffffffffffffffffffffffffffffffffffffff168373ffffffffffffffffffffffffffffffffffffffff16036109b4575f6040517f94280d620000000000000000000000000000000000000000000000000000000081526004016109ab9190610d8b565b60405180910390fd5b8160015f8673ffffffffffffffffffffffffffffffffffffffff1673ffffffffffffffffffffffffffffffffffffffff1681526020019081526020015f205f8573ffffffffffffffffffffffffffffffffffffffff1673ffffffffffffffffffffffffffffffffffffffff1681526020019081526020015f20819055508015610a9d578273ffffffffffffffffffffffffffffffffffffffff168473ffffffffffffffffffffffffffffffffffffffff167f8c5be1e5ebec7d5bd14f71427d1e84f3dd0314c0f7b2291e5b200ac8c7c3b92584604051610a949190610e85565b60405180910390a35b50505050565b5f73ffffffffffffffffffffffffffffffffffffffff168373ffffffffffffffffffffffffffffffffffffffff1603610af3578060025f828254610ae7919061111a565b92505081905550610bc1565b5f5f5f8573ffffffffffffffffffffffffffffffffffffffff1673ffffffffffffffffffffffffffffffffffffffff1681526020019081526020015f2054905081811015610b7c578381836040517fe450d38c000000000000000000000000000000000000000000000000000000008152600401610b73939291906110b8565b60405180910390fd5b8181035f5f8673ffffffffffffffffffffffffffffffffffffffff1673ffffffffffffffffffffffffffffffffffffffff1681526020019081526020015f2081905550505b5f73ffffffffffffffffffffffffffffffffffffffff168273ffffffffffffffffffffffffffffffffffffffff1603610c08578060025f8282540392505081905550610c52565b805f5f8473ffffffffffffffffffffffffffffffffffffffff1673ffffffffffffffffffffffffffffffffffffffff1681526020019081526020015f205f82825401925050819055505b8173ffffffffffffffffffffffffffffffffffffffff168373ffffffffffffffffffffffffffffffffffffffff167fddf252ad1be2c89b69c2b068fc378daa952ba7f163c4a11628f55a4df523b3ef83604051610caf9190610e85565b60405180910390a3505050565b5f81519050919050565b5f82825260208201905092915050565b8281835e5f83830152505050565b5f601f19601f8301169050919050565b5f610cfe82610cbc565b610d088185610cc6565b9350610d18818560208601610cd6565b610d2181610ce4565b840191505092915050565b5f6020820190508181035f830152610d448184610cf4565b905092915050565b5f73ffffffffffffffffffffffffffffffffffffffff82169050919050565b5f610d7582610d4c565b9050919050565b610d8581610d6b565b82525050565b5f602082019050610d9e5f830184610d7c565b92915050565b5f5ffd5b610db181610d6b565b8114610dbb575f5ffd5b50565b5f81359050610dcc81610da8565b92915050565b5f819050919050565b610de481610dd2565b8114610dee575f5ffd5b50565b5f81359050610dff81610ddb565b92915050565b5f5f60408385031215610e1b57610e1a610da4565b5b5f610e2885828601610dbe565b9250506020610e3985828601610df1565b9150509250929050565b5f8115159050919050565b610e5781610e43565b82525050565b5f602082019050610e705f830184610e4e565b92915050565b610e7f81610dd2565b82525050565b5f602082019050610e985f830184610e76565b92915050565b5f5f5f60608486031215610eb557610eb4610da4565b5b5f610ec286828701610dbe565b9350506020610ed386828701610dbe565b9250506040610ee486828701610df1565b9150509250925092565b5f60ff82169050919050565b610f0381610eee565b82525050565b5f602082019050610f1c5f830184610efa565b92915050565b5f60208284031215610f3757610f36610da4565b5b5f610f4484828501610dbe565b91505092915050565b5f5f60408385031215610f6357610f62610da4565b5b5f610f7085828601610dbe565b9250506020610f8185828601610dbe565b9150509250929050565b7f4e487b71000000000000000000000000000000000000000000000000000000005f52602260045260245ffd5b5f6002820490506001821680610fcf57607f821691505b602082108103610fe257610fe1610f8b565b5b50919050565b7f4f6e6c79206d696e7465722063616e206d696e740000000000000000000000005f82015250565b5f61101c601483610cc6565b915061102782610fe8565b602082019050919050565b5f6020820190508181035f83015261104981611010565b9050919050565b7f4f6e6c79206d696e7465722063616e206275726e0000000000000000000000005f82015250565b5f611084601483610cc6565b915061108f82611050565b602082019050919050565b5f6020820190508181035f8301526110b181611078565b9050919050565b5f6060820190506110cb5f830186610d7c565b6110d86020830185610e76565b6110e56040830184610e76565b949350505050565b7f4e487b71000000000000000000000000000000000000000000000000000000005f52601160045260245ffd5b5f61112482610dd2565b915061112f83610dd2565b9250828201905080821115611147576111466110ed565b5b9291505056fea26469706673582212203b8a9baabc06796d378741fe83e411c792c273c77c5c418203fa9e018984540d64736f6c634300081c0033","linkReferences":{}},"methodIdentifiers":{"allowance(address,address)":"dd62ed3e","approve(address,uint256)":"095ea7b3","balanceOf(address)":"70a08231","burn(address,uint256)":"9dc29fac","decimals()":"313ce567","mint(address,uint256)":"40c10f19","minter()":"07546172","name()":"06fdde03","symbol()":"95d89b41","totalSupply()":"18160ddd","transfer(address,uint256)":"a9059cbb","transferFrom(address,address,uint256)":"23b872dd"},"id":28}