{"abi":[{"type":"constructor","inputs":[{"name":"_vsToken","type":"address","internalType":"address"},{"name":"_sonicNFT","type":"address","internalType":"address"},{"name":"_underlyingToken","type":"address","internalType":"address"},{"name":"_protocolTreasury","type":"address","internalType":"address"},{"name":"_maturityTimestamp","type":"uint256","internalType":"uint256"},{"name":"_vaultFreezeTimestamp","type":"uint256","internalType":"uint256"}],"stateMutability":"nonpayable"},{"type":"function","name":"GRACE_PERIOD","inputs":[],"outputs":[{"name":"","type":"uint256","internalType":"uint256"}],"stateMutability":"view"},{"type":"function","name":"KEEPER_INCENTIVE_BPS","inputs":[],"outputs":[{"name":"","type":"uint256","internalType":"uint256"}],"stateMutability":"view"},{"type":"function","name":"PROTOCOL_FEE_BPS","inputs":[],"outputs":[{"name":"","type":"uint256","internalType":"uint256"}],"stateMutability":"view"},{"type":"function","name":"claimBatch","inputs":[{"name":"k","type":"uint256","internalType":"uint256"}],"outputs":[],"stateMutability":"nonpayable"},{"type":"function","name":"deposit","inputs":[{"name":"nftId","type":"uint256","internalType":"uint256"}],"outputs":[],"stateMutability":"nonpayable"},{"type":"function","name":"depositedNFTs","inputs":[{"name":"","type":"uint256","internalType":"uint256"}],"outputs":[{"name":"","type":"address","internalType":"address"}],"stateMutability":"view"},{"type":"function","name":"getClaimProgress","inputs":[],"outputs":[{"name":"processed","type":"uint256","internalType":"uint256"},{"name":"total","type":"uint256","internalType":"uint256"}],"stateMutability":"view"},{"type":"function","name":"getHeldNFT","inputs":[{"name":"index","type":"uint256","internalType":"uint256"}],"outputs":[{"name":"","type":"uint256","internalType":"uint256"}],"stateMutability":"view"},{"type":"function","name":"getHeldNFTCount","inputs":[],"outputs":[{"name":"","type":"uint256","internalType":"uint256"}],"stateMutability":"view"},{"type":"function","name":"hasMatured","inputs":[],"outputs":[{"name":"","type":"bool","internalType":"bool"}],"stateMutability":"view"},{"type":"function","name":"heldNFTs","inputs":[{"name":"","type":"uint256","internalType":"uint256"}],"outputs":[{"name":"","type":"uint256","internalType":"uint256"}],"stateMutability":"view"},{"type":"function","name":"isVaultFrozen","inputs":[],"outputs":[{"name":"","type":"bool","internalType":"bool"}],"stateMutability":"view"},{"type":"function","name":"matured","inputs":[],"outputs":[{"name":"","type":"bool","internalType":"bool"}],"stateMutability":"view"},{"type":"function","name":"maturityTimestamp","inputs":[],"outputs":[{"name":"","type":"uint256","internalType":"uint256"}],"stateMutability":"view"},{"type":"function","name":"nextClaimIndex","inputs":[],"outputs":[{"name":"","type":"uint256","internalType":"uint256"}],"stateMutability":"view"},{"type":"function","name":"onERC721Received","inputs":[{"name":"","type":"address","internalType":"address"},{"name":"","type":"address","internalType":"address"},{"name":"","type":"uint256","internalType":"uint256"},{"name":"","type":"bytes","internalType":"bytes"}],"outputs":[{"name":"","type":"bytes4","internalType":"bytes4"}],"stateMutability":"nonpayable"},{"type":"function","name":"protocolTreasury","inputs":[],"outputs":[{"name":"","type":"address","internalType":"address"}],"stateMutability":"view"},{"type":"function","name":"redeem","inputs":[{"name":"amount","type":"uint256","internalType":"uint256"}],"outputs":[],"stateMutability":"nonpayable"},{"type":"function","name":"sonicNFT","inputs":[],"outputs":[{"name":"","type":"address","internalType":"address"}],"stateMutability":"view"},{"type":"function","name":"sweepSurplus","inputs":[],"outputs":[],"stateMutability":"nonpayable"},{"type":"function","name":"totalAssets","inputs":[],"outputs":[{"name":"","type":"uint256","internalType":"uint256"}],"stateMutability":"view"},{"type":"function","name":"underlyingToken","inputs":[],"outputs":[{"name":"","type":"address","internalType":"address"}],"stateMutability":"view"},{"type":"function","name":"vS","inputs":[],"outputs":[{"name":"","type":"address","internalType":"contract ImmutableVSToken"}],"stateMutability":"view"},{"type":"function","name":"vaultFreezeTimestamp","inputs":[],"outputs":[{"name":"","type":"uint256","internalType":"uint256"}],"stateMutability":"view"},{"type":"event","name":"MaturityTriggered","inputs":[{"name":"triggeredBy","type":"address","indexed":true,"internalType":"address"},{"name":"totalClaimed","type":"uint256","indexed":false,"internalType":"uint256"}],"anonymous":false},{"type":"event","name":"NFTDeposited","inputs":[{"name":"user","type":"address","indexed":true,"internalType":"address"},{"name":"nftId","type":"uint256","indexed":true,"internalType":"uint256"},{"name":"amountMinted","type":"uint256","indexed":false,"internalType":"uint256"}],"anonymous":false},{"type":"event","name":"Redeemed","inputs":[{"name":"user","type":"address","indexed":true,"internalType":"address"},{"name":"vsAmount","type":"uint256","indexed":false,"internalType":"uint256"},{"name":"underlyingAmount","type":"uint256","indexed":false,"internalType":"uint256"}],"anonymous":false},{"type":"event","name":"RedemptionBounty","inputs":[{"name":"redeemer","type":"address","indexed":true,"internalType":"address"},{"name":"gasUsed","type":"uint256","indexed":false,"internalType":"uint256"}],"anonymous":false},{"type":"event","name":"SurplusSwept","inputs":[{"name":"sweeper","type":"address","indexed":true,"internalType":"address"},{"name":"amount","type":"uint256","indexed":false,"internalType":"uint256"}],"anonymous":false},{"type":"event","name":"VestedTokensClaimed","inputs":[{"name":"caller","type":"address","indexed":true,"internalType":"address"},{"name":"totalAmount","type":"uint256","indexed":false,"internalType":"uint256"},{"name":"incentivePaid","type":"uint256","indexed":false,"internalType":"uint256"}],"anonymous":false},{"type":"error","name":"ReentrancyGuardReentrantCall","inputs":[]}],"bytecode":{"object":"0x6101406040525f6003555f60045f6101000a81548160ff02191690831515021790555034801561002d575f5ffd5b506040516130b13803806130b1833981810160405281019061004f9190610452565b60015f819055505f73ffffffffffffffffffffffffffffffffffffffff168673ffffffffffffffffffffffffffffffffffffffff16036100c4576040517f08c379a00000000000000000000000000000000000000000000000000000000081526004016100bb90610535565b60405180910390fd5b5f73ffffffffffffffffffffffffffffffffffffffff168573ffffffffffffffffffffffffffffffffffffffff1603610132576040517f08c379a00000000000000000000000000000000000000000000000000000000081526004016101299061059d565b60405180910390fd5b5f73ffffffffffffffffffffffffffffffffffffffff168473ffffffffffffffffffffffffffffffffffffffff16036101a0576040517f08c379a000000000000000000000000000000000000000000000000000000000815260040161019790610605565b60405180910390fd5b5f73ffffffffffffffffffffffffffffffffffffffff168373ffffffffffffffffffffffffffffffffffffffff160361020e576040517f08c379a00000000000000000000000000000000000000000000000000000000081526004016102059061066d565b60405180910390fd5b428211610250576040517f08c379a0000000000000000000000000000000000000000000000000000000008152600401610247906106d5565b60405180910390fd5b428111610292576040517f08c379a00000000000000000000000000000000000000000000000000000000081526004016102899061073d565b60405180910390fd5b8181106102d4576040517f08c379a00000000000000000000000000000000000000000000000000000000081526004016102cb906107a5565b60405180910390fd5b8573ffffffffffffffffffffffffffffffffffffffff1660808173ffffffffffffffffffffffffffffffffffffffff16815250508473ffffffffffffffffffffffffffffffffffffffff1660a08173ffffffffffffffffffffffffffffffffffffffff16815250508373ffffffffffffffffffffffffffffffffffffffff1660c08173ffffffffffffffffffffffffffffffffffffffff16815250508273ffffffffffffffffffffffffffffffffffffffff1660e08173ffffffffffffffffffffffffffffffffffffffff16815250508161010081815250508061012081815250505050505050506107c3565b5f5ffd5b5f73ffffffffffffffffffffffffffffffffffffffff82169050919050565b5f6103ee826103c5565b9050919050565b6103fe816103e4565b8114610408575f5ffd5b50565b5f81519050610419816103f5565b92915050565b5f819050919050565b6104318161041f565b811461043b575f5ffd5b50565b5f8151905061044c81610428565b92915050565b5f5f5f5f5f5f60c0878903121561046c5761046b6103c1565b5b5f61047989828a0161040b565b965050602061048a89828a0161040b565b955050604061049b89828a0161040b565b94505060606104ac89828a0161040b565b93505060806104bd89828a0161043e565b92505060a06104ce89828a0161043e565b9150509295509295509295565b5f82825260208201905092915050565b7f496e76616c696420765320746f6b656e000000000000000000000000000000005f82015250565b5f61051f6010836104db565b915061052a826104eb565b602082019050919050565b5f6020820190508181035f83015261054c81610513565b9050919050565b7f496e76616c6964204e465420636f6e74726163740000000000000000000000005f82015250565b5f6105876014836104db565b915061059282610553565b602082019050919050565b5f6020820190508181035f8301526105b48161057b565b9050919050565b7f496e76616c696420756e6465726c79696e6720746f6b656e00000000000000005f82015250565b5f6105ef6018836104db565b91506105fa826105bb565b602082019050919050565b5f6020820190508181035f83015261061c816105e3565b9050919050565b7f496e76616c6964207472656173757279000000000000000000000000000000005f82015250565b5f6106576010836104db565b915061066282610623565b602082019050919050565b5f6020820190508181035f8301526106848161064b565b9050919050565b7f4d61747572697479206d757374206265206675747572650000000000000000005f82015250565b5f6106bf6017836104db565b91506106ca8261068b565b602082019050919050565b5f6020820190508181035f8301526106ec816106b3565b9050919050565b7f467265657a65206d7573742062652066757475726500000000000000000000005f82015250565b5f6107276015836104db565b9150610732826106f3565b602082019050919050565b5f6020820190508181035f8301526107548161071b565b9050919050565b7f467265657a65206265666f7265206d61747572697479000000000000000000005f82015250565b5f61078f6016836104db565b915061079a8261075b565b602082019050919050565b5f6020820190508181035f8301526107bc81610783565b9050919050565b60805160a05160c05160e05161010051610120516127f86108b95f395f8181610a3101528181610dc0015261192001525f81816109c401528181610a8901528181610d6a015261145001525f8181610a5901528181610c0f01526117a201525f818161045c0152818161056f01528181610825015281816108c601528181610af701528181610bd3015281816115b401528181611766015261182301525f818161050c015281816106790152818161071b01528181610ed801528181610fdd015281816110cc01526119c901525f8181610d940152818161121d0152818161135c015281816114e201526116d601526127f85ff3fe608060405234801561000f575f5ffd5b5060043610610156575f3560e01c80637bd9e197116100c1578063b6b55f251161007a578063b6b55f25146103a9578063be378228146103c5578063bea43a22146103e3578063c1a287e214610401578063db006a751461041f578063de30472a1461043b57610156565b80637bd9e197146102f7578063803db96d14610315578063855bd22d14610333578063891d76171461033d578063a10932951461036d578063aa30c4b71461038b57610156565b80632495a599116101135780632495a599146102335780632d97712f146102515780633d0f31f71461026d578063454c87b31461028b5780635204472d146102a9578063783b9c61146102d957610156565b806301e1d1141461015a578063150b7a021461017857806315cfc88e146101a857806316d812f6146101c65780631aabebea146101f65780632282450514610214575b5f5ffd5b610162610459565b60405161016f9190611b13565b60405180910390f35b610192600480360381019061018d9190611cfd565b6104f7565b60405161019f9190611db7565b60405180910390f35b6101b061050a565b6040516101bd9190611ddf565b60405180910390f35b6101e060048036038101906101db9190611df8565b61052e565b6040516101ed9190611b13565b60405180910390f35b6101fe61054e565b60405161020b9190611b13565b60405180910390f35b61021c61055a565b60405161022a929190611e23565b60405180910390f35b61023b61056d565b6040516102489190611ddf565b60405180910390f35b61026b60048036038101906102669190611df8565b610591565b005b6102756109c2565b6040516102829190611b13565b60405180910390f35b6102936109e6565b6040516102a09190611e64565b60405180910390f35b6102c360048036038101906102be9190611df8565b6109f8565b6040516102d09190611ddf565b60405180910390f35b6102e1610a28565b6040516102ee9190611b13565b60405180910390f35b6102ff610a2e565b60405161030c9190611e64565b60405180910390f35b61031d610a57565b60405161032a9190611ddf565b60405180910390f35b61033b610a7b565b005b61035760048036038101906103529190611df8565b610ce6565b6040516103649190611b13565b60405180910390f35b610375610d52565b6040516103829190611e64565b60405180910390f35b610393610d92565b6040516103a09190611ed8565b60405180910390f35b6103c360048036038101906103be9190611df8565b610db6565b005b6103cd6112fe565b6040516103da9190611b13565b60405180910390f35b6103eb611303565b6040516103f89190611b13565b60405180910390f35b610409611308565b6040516104169190611b13565b60405180910390f35b61043960048036038101906104349190611df8565b61130f565b005b61044361191e565b6040516104509190611b13565b60405180910390f35b5f7f000000000000000000000000000000000000000000000000000000000000000073ffffffffffffffffffffffffffffffffffffffff166370a08231306040518263ffffffff1660e01b81526004016104b39190611ddf565b602060405180830381865afa1580156104ce573d5f5f3e3d5ffd5b505050506040513d601f19601f820116820180604052508101906104f29190611f05565b905090565b5f63150b7a0260e01b9050949350505050565b7f000000000000000000000000000000000000000000000000000000000000000081565b6001818154811061053d575f80fd5b905f5260205f20015f915090505481565b5f600180549050905090565b5f5f600354600180549050915091509091565b7f000000000000000000000000000000000000000000000000000000000000000081565b610599611942565b5f811180156105a9575060328111155b6105e8576040517f08c379a00000000000000000000000000000000000000000000000000000000081526004016105df90611f8a565b60405180910390fd5b60018054905060035410610631576040517f08c379a000000000000000000000000000000000000000000000000000000000815260040161062890611ff2565b60405180910390fd5b5f5f90505f5f90505b828110801561064f5750600180549050600354105b156107ef575f60016003548154811061066b5761066a612010565b5b905f5260205f20015490505f7f000000000000000000000000000000000000000000000000000000000000000073ffffffffffffffffffffffffffffffffffffffff1663d1d58b25836040518263ffffffff1660e01b81526004016106d09190611b13565b602060405180830381865afa1580156106eb573d5f5f3e3d5ffd5b505050506040513d601f19601f8201168201806040525081019061070f9190611f05565b90505f8111156107c3577f000000000000000000000000000000000000000000000000000000000000000073ffffffffffffffffffffffffffffffffffffffff16637935510b836040518263ffffffff1660e01b81526004016107729190611b13565b6020604051808303815f875af19250505080156107ad57506040513d601f19601f820116820180604052508101906107aa9190611f05565b60015b156107c25780856107be919061206a565b9450505b5b60035f8154809291906107d59061209d565b919050555082806107e59061209d565b935050505061063a565b5f82036107fd5750506109b7565b5f61271060058461080e91906120e4565b6108189190612152565b90505f811115610963575f7f000000000000000000000000000000000000000000000000000000000000000073ffffffffffffffffffffffffffffffffffffffff166370a08231306040518263ffffffff1660e01b815260040161087c9190611ddf565b602060405180830381865afa158015610897573d5f5f3e3d5ffd5b505050506040513d601f19601f820116820180604052508101906108bb9190611f05565b9050818110610961577f000000000000000000000000000000000000000000000000000000000000000073ffffffffffffffffffffffffffffffffffffffff1663a9059cbb33846040518363ffffffff1660e01b815260040161091f929190612182565b6020604051808303815f875af115801561093b573d5f5f3e3d5ffd5b505050506040513d601f19601f8201168201806040525081019061095f91906121d3565b505b505b3373ffffffffffffffffffffffffffffffffffffffff167f6c4474f5353aa538dd7698fa19be2149fc1d9fee5ab8a6af3de07ca84b7f28c784836040516109ab929190611e23565b60405180910390a25050505b6109bf611986565b50565b7f000000000000000000000000000000000000000000000000000000000000000081565b60045f9054906101000a900460ff1681565b6002602052805f5260405f205f915054906101000a900473ffffffffffffffffffffffffffffffffffffffff1681565b60035481565b5f7f00000000000000000000000000000000000000000000000000000000000000004211905090565b7f000000000000000000000000000000000000000000000000000000000000000081565b610a83611942565b62ed4e007f0000000000000000000000000000000000000000000000000000000000000000610ab2919061206a565b421015610af4576040517f08c379a0000000000000000000000000000000000000000000000000000000008152600401610aeb90612248565b60405180910390fd5b5f7f000000000000000000000000000000000000000000000000000000000000000073ffffffffffffffffffffffffffffffffffffffff166370a08231306040518263ffffffff1660e01b8152600401610b4e9190611ddf565b602060405180830381865afa158015610b69573d5f5f3e3d5ffd5b505050506040513d601f19601f82011682018060405250810190610b8d9190611f05565b90505f8111610bd1576040517f08c379a0000000000000000000000000000000000000000000000000000000008152600401610bc8906122b0565b60405180910390fd5b7f000000000000000000000000000000000000000000000000000000000000000073ffffffffffffffffffffffffffffffffffffffff1663a9059cbb7f0000000000000000000000000000000000000000000000000000000000000000836040518363ffffffff1660e01b8152600401610c4c929190612182565b6020604051808303815f875af1158015610c68573d5f5f3e3d5ffd5b505050506040513d601f19601f82011682018060405250810190610c8c91906121d3565b503373ffffffffffffffffffffffffffffffffffffffff167f167beb24b4e0b809e5ad14deac40057e2206ebff29b4f1240a7d26bf69aaebe382604051610cd39190611b13565b60405180910390a250610ce4611986565b565b5f6001805490508210610d2e576040517f08c379a0000000000000000000000000000000000000000000000000000000008152600401610d2590612318565b60405180910390fd5b60018281548110610d4257610d41612010565b5b905f5260205f2001549050919050565b5f60045f9054906101000a900460ff1680610d8d57507f00000000000000000000000000000000000000000000000000000000000000004210155b905090565b7f000000000000000000000000000000000000000000000000000000000000000081565b610dbe611942565b7f0000000000000000000000000000000000000000000000000000000000000000421115610e21576040517f08c379a0000000000000000000000000000000000000000000000000000000008152600401610e18906123a6565b60405180910390fd5b5f73ffffffffffffffffffffffffffffffffffffffff1660025f8381526020019081526020015f205f9054906101000a900473ffffffffffffffffffffffffffffffffffffffff1673ffffffffffffffffffffffffffffffffffffffff1614610ebf576040517f08c379a0000000000000000000000000000000000000000000000000000000008152600401610eb69061240e565b60405180910390fd5b3373ffffffffffffffffffffffffffffffffffffffff167f000000000000000000000000000000000000000000000000000000000000000073ffffffffffffffffffffffffffffffffffffffff16636352211e836040518263ffffffff1660e01b8152600401610f2f9190611b13565b602060405180830381865afa158015610f4a573d5f5f3e3d5ffd5b505050506040513d601f19601f82011682018060405250810190610f6e9190612440565b73ffffffffffffffffffffffffffffffffffffffff1614610fc4576040517f08c379a0000000000000000000000000000000000000000000000000000000008152600401610fbb906124b5565b60405180910390fd5b3073ffffffffffffffffffffffffffffffffffffffff167f000000000000000000000000000000000000000000000000000000000000000073ffffffffffffffffffffffffffffffffffffffff1663c6b84b09836040518263ffffffff1660e01b81526004016110349190611b13565b602060405180830381865afa15801561104f573d5f5f3e3d5ffd5b505050506040513d601f19601f820116820180604052508101906110739190612440565b73ffffffffffffffffffffffffffffffffffffffff16146110c9576040517f08c379a00000000000000000000000000000000000000000000000000000000081526004016110c090612543565b60405180910390fd5b5f7f000000000000000000000000000000000000000000000000000000000000000073ffffffffffffffffffffffffffffffffffffffff1663f0e40662836040518263ffffffff1660e01b81526004016111239190611b13565b602060405180830381865afa15801561113e573d5f5f3e3d5ffd5b505050506040513d601f19601f820116820180604052508101906111629190611f05565b90505f81116111a6576040517f08c379a000000000000000000000000000000000000000000000000000000000815260040161119d906125ab565b60405180910390fd5b3360025f8481526020019081526020015f205f6101000a81548173ffffffffffffffffffffffffffffffffffffffff021916908373ffffffffffffffffffffffffffffffffffffffff160217905550600182908060018154018082558091505060019003905f5260205f20015f90919091909150557f000000000000000000000000000000000000000000000000000000000000000073ffffffffffffffffffffffffffffffffffffffff166340c10f1933836040518363ffffffff1660e01b8152600401611276929190612182565b5f604051808303815f87803b15801561128d575f5ffd5b505af115801561129f573d5f5f3e3d5ffd5b50505050813373ffffffffffffffffffffffffffffffffffffffff167fdeba2d4291edd2e29ef127ea6e31f12ebb9adc96b42605081927d379bdcb8bed836040516112ea9190611b13565b60405180910390a3506112fb611986565b50565b606481565b600581565b62ed4e0081565b611317611942565b5f8111611359576040517f08c379a000000000000000000000000000000000000000000000000000000000815260040161135090612613565b60405180910390fd5b807f000000000000000000000000000000000000000000000000000000000000000073ffffffffffffffffffffffffffffffffffffffff166370a08231336040518263ffffffff1660e01b81526004016113b39190611ddf565b602060405180830381865afa1580156113ce573d5f5f3e3d5ffd5b505050506040513d601f19601f820116820180604052508101906113f29190611f05565b1015611433576040517f08c379a000000000000000000000000000000000000000000000000000000000815260040161142a9061267b565b60405180910390fd5b5f5a905060045f9054906101000a900460ff1615801561147357507f00000000000000000000000000000000000000000000000000000000000000004210155b156114df5761148061198f565b5f5a8261148d9190612699565b90503373ffffffffffffffffffffffffffffffffffffffff167ff97a5736c16f97b6c3e382e7897058922f2979812da11161e6b146ce1398fa88826040516114d59190611b13565b60405180910390a2505b5f7f000000000000000000000000000000000000000000000000000000000000000073ffffffffffffffffffffffffffffffffffffffff166318160ddd6040518163ffffffff1660e01b8152600401602060405180830381865afa158015611549573d5f5f3e3d5ffd5b505050506040513d601f19601f8201168201806040525081019061156d9190611f05565b90505f81116115b1576040517f08c379a00000000000000000000000000000000000000000000000000000000081526004016115a890612716565b60405180910390fd5b5f7f000000000000000000000000000000000000000000000000000000000000000073ffffffffffffffffffffffffffffffffffffffff166370a08231306040518263ffffffff1660e01b815260040161160b9190611ddf565b602060405180830381865afa158015611626573d5f5f3e3d5ffd5b505050506040513d601f19601f8201168201806040525081019061164a9190611f05565b90505f811161168e576040517f08c379a0000000000000000000000000000000000000000000000000000000008152600401611685906127a4565b60405180910390fd5b5f82828661169c91906120e4565b6116a69190612152565b90505f6127106064836116b991906120e4565b6116c39190612152565b90505f81836116d29190612699565b90507f000000000000000000000000000000000000000000000000000000000000000073ffffffffffffffffffffffffffffffffffffffff16639dc29fac33896040518363ffffffff1660e01b815260040161172f929190612182565b5f604051808303815f87803b158015611746575f5ffd5b505af1158015611758573d5f5f3e3d5ffd5b505050505f821115611821577f000000000000000000000000000000000000000000000000000000000000000073ffffffffffffffffffffffffffffffffffffffff1663a9059cbb7f0000000000000000000000000000000000000000000000000000000000000000846040518363ffffffff1660e01b81526004016117df929190612182565b6020604051808303815f875af11580156117fb573d5f5f3e3d5ffd5b505050506040513d601f19601f8201168201806040525081019061181f91906121d3565b505b7f000000000000000000000000000000000000000000000000000000000000000073ffffffffffffffffffffffffffffffffffffffff1663a9059cbb33836040518363ffffffff1660e01b815260040161187c929190612182565b6020604051808303815f875af1158015611898573d5f5f3e3d5ffd5b505050506040513d601f19601f820116820180604052508101906118bc91906121d3565b503373ffffffffffffffffffffffffffffffffffffffff167ff3a670cd3af7d64b488926880889d08a8585a138ff455227af6737339a1ec2628883604051611905929190611e23565b60405180910390a250505050505061191b611986565b50565b7f000000000000000000000000000000000000000000000000000000000000000081565b60025f540361197d576040517f3ee5aeb500000000000000000000000000000000000000000000000000000000815260040160405180910390fd5b60025f81905550565b60015f81905550565b5f5f90505f60035490505b600180549050811015611a83575f600182815481106119bc576119bb612010565b5b905f5260205f20015490507f000000000000000000000000000000000000000000000000000000000000000073ffffffffffffffffffffffffffffffffffffffff16637935510b826040518263ffffffff1660e01b8152600401611a209190611b13565b6020604051808303815f875af1925050508015611a5b57506040513d601f19601f82011682018060405250810190611a589190611f05565b60015b611a655750611a76565b8084611a71919061206a565b935050505b808060010191505061199a565b50600180549050600381905550600160045f6101000a81548160ff0219169083151502179055503373ffffffffffffffffffffffffffffffffffffffff167f70eb77da9359fa50b98f4ac8235aebfd09c4840ae1ecae6c17838168abbb81b382604051611af09190611b13565b60405180910390a250565b5f819050919050565b611b0d81611afb565b82525050565b5f602082019050611b265f830184611b04565b92915050565b5f604051905090565b5f5ffd5b5f5ffd5b5f73ffffffffffffffffffffffffffffffffffffffff82169050919050565b5f611b6682611b3d565b9050919050565b611b7681611b5c565b8114611b80575f5ffd5b50565b5f81359050611b9181611b6d565b92915050565b611ba081611afb565b8114611baa575f5ffd5b50565b5f81359050611bbb81611b97565b92915050565b5f5ffd5b5f5ffd5b5f601f19601f8301169050919050565b7f4e487b71000000000000000000000000000000000000000000000000000000005f52604160045260245ffd5b611c0f82611bc9565b810181811067ffffffffffffffff82111715611c2e57611c2d611bd9565b5b80604052505050565b5f611c40611b2c565b9050611c4c8282611c06565b919050565b5f67ffffffffffffffff821115611c6b57611c6a611bd9565b5b611c7482611bc9565b9050602081019050919050565b828183375f83830152505050565b5f611ca1611c9c84611c51565b611c37565b905082815260208101848484011115611cbd57611cbc611bc5565b5b611cc8848285611c81565b509392505050565b5f82601f830112611ce457611ce3611bc1565b5b8135611cf4848260208601611c8f565b91505092915050565b5f5f5f5f60808587031215611d1557611d14611b35565b5b5f611d2287828801611b83565b9450506020611d3387828801611b83565b9350506040611d4487828801611bad565b925050606085013567ffffffffffffffff811115611d6557611d64611b39565b5b611d7187828801611cd0565b91505092959194509250565b5f7fffffffff0000000000000000000000000000000000000000000000000000000082169050919050565b611db181611d7d565b82525050565b5f602082019050611dca5f830184611da8565b92915050565b611dd981611b5c565b82525050565b5f602082019050611df25f830184611dd0565b92915050565b5f60208284031215611e0d57611e0c611b35565b5b5f611e1a84828501611bad565b91505092915050565b5f604082019050611e365f830185611b04565b611e436020830184611b04565b9392505050565b5f8115159050919050565b611e5e81611e4a565b82525050565b5f602082019050611e775f830184611e55565b92915050565b5f819050919050565b5f611ea0611e9b611e9684611b3d565b611e7d565b611b3d565b9050919050565b5f611eb182611e86565b9050919050565b5f611ec282611ea7565b9050919050565b611ed281611eb8565b82525050565b5f602082019050611eeb5f830184611ec9565b92915050565b5f81519050611eff81611b97565b92915050565b5f60208284031215611f1a57611f19611b35565b5b5f611f2784828501611ef1565b91505092915050565b5f82825260208201905092915050565b7f496e76616c69642062617463682073697a6500000000000000000000000000005f82015250565b5f611f74601283611f30565b9150611f7f82611f40565b602082019050919050565b5f6020820190508181035f830152611fa181611f68565b9050919050565b7f416c6c204e4654732070726f63657373656400000000000000000000000000005f82015250565b5f611fdc601283611f30565b9150611fe782611fa8565b602082019050919050565b5f6020820190508181035f83015261200981611fd0565b9050919050565b7f4e487b71000000000000000000000000000000000000000000000000000000005f52603260045260245ffd5b7f4e487b71000000000000000000000000000000000000000000000000000000005f52601160045260245ffd5b5f61207482611afb565b915061207f83611afb565b92508282019050808211156120975761209661203d565b5b92915050565b5f6120a782611afb565b91507fffffffffffffffffffffffffffffffffffffffffffffffffffffffffffffffff82036120d9576120d861203d565b5b600182019050919050565b5f6120ee82611afb565b91506120f983611afb565b925082820261210781611afb565b9150828204841483151761211e5761211d61203d565b5b5092915050565b7f4e487b71000000000000000000000000000000000000000000000000000000005f52601260045260245ffd5b5f61215c82611afb565b915061216783611afb565b92508261217757612176612125565b5b828204905092915050565b5f6040820190506121955f830185611dd0565b6121a26020830184611b04565b9392505050565b6121b281611e4a565b81146121bc575f5ffd5b50565b5f815190506121cd816121a9565b92915050565b5f602082840312156121e8576121e7611b35565b5b5f6121f5848285016121bf565b91505092915050565b7f477261636520706572696f64206e6f74206f76657200000000000000000000005f82015250565b5f612232601583611f30565b915061223d826121fe565b602082019050919050565b5f6020820190508181035f83015261225f81612226565b9050919050565b7f4e6f20737572706c757320746f207377656570000000000000000000000000005f82015250565b5f61229a601383611f30565b91506122a582612266565b602082019050919050565b5f6020820190508181035f8301526122c78161228e565b9050919050565b7f496e646578206f7574206f6620626f756e6473000000000000000000000000005f82015250565b5f612302601383611f30565b915061230d826122ce565b602082019050919050565b5f6020820190508181035f83015261232f816122f6565b9050919050565b7f5661756c742066726f7a656e202d20757365206e657720736561736f6e2076615f8201527f756c740000000000000000000000000000000000000000000000000000000000602082015250565b5f612390602383611f30565b915061239b82612336565b604082019050919050565b5f6020820190508181035f8301526123bd81612384565b9050919050565b7f4e465420616c7265616479206465706f736974656400000000000000000000005f82015250565b5f6123f8601583611f30565b9150612403826123c4565b602082019050919050565b5f6020820190508181035f830152612425816123ec565b9050919050565b5f8151905061243a81611b6d565b92915050565b5f6020828403121561245557612454611b35565b5b5f6124628482850161242c565b91505092915050565b7f4e6f74204e4654206f776e6572000000000000000000000000000000000000005f82015250565b5f61249f600d83611f30565b91506124aa8261246b565b602082019050919050565b5f6020820190508181035f8301526124cc81612493565b9050919050565b7f4d7573742064656c656761746520636c61696d696e67207269676874732066695f8201527f7273740000000000000000000000000000000000000000000000000000000000602082015250565b5f61252d602383611f30565b9150612538826124d3565b604082019050919050565b5f6020820190508181035f83015261255a81612521565b9050919050565b7f4e465420686173206e6f2076616c7565000000000000000000000000000000005f82015250565b5f612595601083611f30565b91506125a082612561565b602082019050919050565b5f6020820190508181035f8301526125c281612589565b9050919050565b7f43616e6e6f742072656465656d203000000000000000000000000000000000005f82015250565b5f6125fd600f83611f30565b9150612608826125c9565b602082019050919050565b5f6020820190508181035f83015261262a816125f1565b9050919050565b7f496e73756666696369656e742076532062616c616e63650000000000000000005f82015250565b5f612665601783611f30565b915061267082612631565b602082019050919050565b5f6020820190508181035f83015261269281612659565b9050919050565b5f6126a382611afb565b91506126ae83611afb565b92508282039050818111156126c6576126c561203d565b5b92915050565b7f4e6f20765320746f6b656e7320696e2063697263756c6174696f6e00000000005f82015250565b5f612700601b83611f30565b915061270b826126cc565b602082019050919050565b5f6020820190508181035f83015261272d816126f4565b9050919050565b7f4e6f20746f6b656e7320617661696c61626c6520666f7220726564656d7074695f8201527f6f6e000000000000000000000000000000000000000000000000000000000000602082015250565b5f61278e602283611f30565b915061279982612734565b604082019050919050565b5f6020820190508181035f8301526127bb81612782565b905091905056fea2646970667358221220c164268cbf20c5f4a5d8fdf40ef1b0dd609eaf63060c59c9f7853ee6a1f98fe964736f6c634300081c0033","linkReferences":{}},"methodIdentifiers":{"GRACE_PERIOD()":"c1a287e2","KEEPER_INCENTIVE_BPS()":"bea43a22","PROTOCOL_FEE_BPS()":"be378228","claimBatch(uint256)":"2d97712f","deposit(uint256)":"b6b55f25","depositedNFTs(uint256)":"5204472d","getClaimProgress()":"22824505","getHeldNFT(uint256)":"891d7617","getHeldNFTCount()":"1aabebea","hasMatured()":"a1093295","heldNFTs(uint256)":"16d812f6","isVaultFrozen()":"7bd9e197","matured()":"454c87b3","maturityTimestamp()":"3d0f31f7","nextClaimIndex()":"783b9c61","onERC721Received(address,address,uint256,bytes)":"150b7a02","protocolTreasury()":"803db96d","redeem(uint256)":"db006a75","sonicNFT()":"15cfc88e","sweepSurplus()":"855bd22d","totalAssets()":"01e1d114","underlyingToken()":"2495a599","vS()":"aa30c4b7","vaultFreezeTimestamp()":"de30472a"},"id":41}