{"abi":[{"type":"constructor","inputs":[{"name":"_vsToken","type":"address","internalType":"address"},{"name":"_sonicNFT","type":"address","internalType":"address"},{"name":"_underlyingToken","type":"address","internalType":"address"},{"name":"_protocolTreasury","type":"address","internalType":"address"},{"name":"_maturityTimestamp","type":"uint256","internalType":"uint256"},{"name":"_vaultFreezeTimestamp","type":"uint256","internalType":"uint256"}],"stateMutability":"nonpayable"},{"type":"function","name":"GRACE_PERIOD","inputs":[],"outputs":[{"name":"","type":"uint256","internalType":"uint256"}],"stateMutability":"view"},{"type":"function","name":"KEEPER_INCENTIVE_BPS","inputs":[],"outputs":[{"name":"","type":"uint256","internalType":"uint256"}],"stateMutability":"view"},{"type":"function","name":"MAX_BATCH_SIZE","inputs":[],"outputs":[{"name":"","type":"uint256","internalType":"uint256"}],"stateMutability":"view"},{"type":"function","name":"MIN_NFT_FACE","inputs":[],"outputs":[{"name":"","type":"uint256","internalType":"uint256"}],"stateMutability":"view"},{"type":"function","name":"PROTOCOL_FEE_BPS","inputs":[],"outputs":[{"name":"","type":"uint256","internalType":"uint256"}],"stateMutability":"view"},{"type":"function","name":"claimBatch","inputs":[{"name":"k","type":"uint256","internalType":"uint256"}],"outputs":[],"stateMutability":"nonpayable"},{"type":"function","name":"deposit","inputs":[{"name":"nftId","type":"uint256","internalType":"uint256"}],"outputs":[],"stateMutability":"nonpayable"},{"type":"function","name":"depositedNFTs","inputs":[{"name":"","type":"uint256","internalType":"uint256"}],"outputs":[{"name":"","type":"address","internalType":"address"}],"stateMutability":"view"},{"type":"function","name":"forceDelegate","inputs":[{"name":"nftIds","type":"uint256[]","internalType":"uint256[]"}],"outputs":[],"stateMutability":"nonpayable"},{"type":"function","name":"getBackingRatio","inputs":[],"outputs":[{"name":"","type":"uint256","internalType":"uint256"}],"stateMutability":"view"},{"type":"function","name":"getClaimProgress","inputs":[],"outputs":[{"name":"processed","type":"uint256","internalType":"uint256"},{"name":"total","type":"uint256","internalType":"uint256"}],"stateMutability":"view"},{"type":"function","name":"getHeldNFT","inputs":[{"name":"index","type":"uint256","internalType":"uint256"}],"outputs":[{"name":"","type":"uint256","internalType":"uint256"}],"stateMutability":"view"},{"type":"function","name":"getHeldNFTCount","inputs":[],"outputs":[{"name":"","type":"uint256","internalType":"uint256"}],"stateMutability":"view"},{"type":"function","name":"hasMatured","inputs":[],"outputs":[{"name":"","type":"bool","internalType":"bool"}],"stateMutability":"view"},{"type":"function","name":"heldNFTs","inputs":[{"name":"","type":"uint256","internalType":"uint256"}],"outputs":[{"name":"","type":"uint256","internalType":"uint256"}],"stateMutability":"view"},{"type":"function","name":"isVaultFrozen","inputs":[],"outputs":[{"name":"","type":"bool","internalType":"bool"}],"stateMutability":"view"},{"type":"function","name":"keeperBountyPerBatch","inputs":[{"name":"batchSize","type":"uint256","internalType":"uint256"}],"outputs":[{"name":"bountyAmount","type":"uint256","internalType":"uint256"}],"stateMutability":"view"},{"type":"function","name":"matured","inputs":[],"outputs":[{"name":"","type":"bool","internalType":"bool"}],"stateMutability":"view"},{"type":"function","name":"maturityTimestamp","inputs":[],"outputs":[{"name":"","type":"uint256","internalType":"uint256"}],"stateMutability":"view"},{"type":"function","name":"nextClaimIndex","inputs":[],"outputs":[{"name":"","type":"uint256","internalType":"uint256"}],"stateMutability":"view"},{"type":"function","name":"onERC721Received","inputs":[{"name":"","type":"address","internalType":"address"},{"name":"","type":"address","internalType":"address"},{"name":"","type":"uint256","internalType":"uint256"},{"name":"","type":"bytes","internalType":"bytes"}],"outputs":[{"name":"","type":"bytes4","internalType":"bytes4"}],"stateMutability":"nonpayable"},{"type":"function","name":"protocolTreasury","inputs":[],"outputs":[{"name":"","type":"address","internalType":"address"}],"stateMutability":"view"},{"type":"function","name":"redeem","inputs":[{"name":"amount","type":"uint256","internalType":"uint256"}],"outputs":[],"stateMutability":"nonpayable"},{"type":"function","name":"sonicNFT","inputs":[],"outputs":[{"name":"","type":"address","internalType":"address"}],"stateMutability":"view"},{"type":"function","name":"sweepSurplus","inputs":[],"outputs":[],"stateMutability":"nonpayable"},{"type":"function","name":"totalAssets","inputs":[],"outputs":[{"name":"","type":"uint256","internalType":"uint256"}],"stateMutability":"view"},{"type":"function","name":"underlyingToken","inputs":[],"outputs":[{"name":"","type":"address","internalType":"address"}],"stateMutability":"view"},{"type":"function","name":"vS","inputs":[],"outputs":[{"name":"","type":"address","internalType":"contract ImmutableVSToken"}],"stateMutability":"view"},{"type":"function","name":"vaultFreezeTimestamp","inputs":[],"outputs":[{"name":"","type":"uint256","internalType":"uint256"}],"stateMutability":"view"},{"type":"event","name":"DelegationForced","inputs":[{"name":"nftId","type":"uint256","indexed":true,"internalType":"uint256"}],"anonymous":false},{"type":"event","name":"MaturityTriggered","inputs":[{"name":"triggeredBy","type":"address","indexed":true,"internalType":"address"},{"name":"totalClaimed","type":"uint256","indexed":false,"internalType":"uint256"}],"anonymous":false},{"type":"event","name":"NFTDeposited","inputs":[{"name":"user","type":"address","indexed":true,"internalType":"address"},{"name":"nftId","type":"uint256","indexed":true,"internalType":"uint256"},{"name":"amountMinted","type":"uint256","indexed":false,"internalType":"uint256"}],"anonymous":false},{"type":"event","name":"Redeemed","inputs":[{"name":"user","type":"address","indexed":true,"internalType":"address"},{"name":"vsAmount","type":"uint256","indexed":false,"internalType":"uint256"},{"name":"underlyingAmount","type":"uint256","indexed":false,"internalType":"uint256"}],"anonymous":false},{"type":"event","name":"RedemptionBounty","inputs":[{"name":"redeemer","type":"address","indexed":true,"internalType":"address"},{"name":"gasUsed","type":"uint256","indexed":false,"internalType":"uint256"}],"anonymous":false},{"type":"event","name":"SurplusSwept","inputs":[{"name":"sweeper","type":"address","indexed":true,"internalType":"address"},{"name":"amount","type":"uint256","indexed":false,"internalType":"uint256"}],"anonymous":false},{"type":"event","name":"VestedTokensClaimed","inputs":[{"name":"caller","type":"address","indexed":true,"internalType":"address"},{"name":"totalAmount","type":"uint256","indexed":false,"internalType":"uint256"},{"name":"incentivePaid","type":"uint256","indexed":false,"internalType":"uint256"}],"anonymous":false},{"type":"error","name":"ReentrancyGuardReentrantCall","inputs":[]}],"bytecode":{"object":"0x6101406040525f6003555f60045f6101000a81548160ff02191690831515021790555034801561002d575f5ffd5b50604051613984380380613984833981810160405281019061004f9190610501565b60015f819055505f73ffffffffffffffffffffffffffffffffffffffff168673ffffffffffffffffffffffffffffffffffffffff16036100c4576040517f08c379a00000000000000000000000000000000000000000000000000000000081526004016100bb906105e4565b60405180910390fd5b5f73ffffffffffffffffffffffffffffffffffffffff168573ffffffffffffffffffffffffffffffffffffffff1603610132576040517f08c379a00000000000000000000000000000000000000000000000000000000081526004016101299061064c565b60405180910390fd5b5f73ffffffffffffffffffffffffffffffffffffffff168473ffffffffffffffffffffffffffffffffffffffff16036101a0576040517f08c379a0000000000000000000000000000000000000000000000000000000008152600401610197906106b4565b60405180910390fd5b5f73ffffffffffffffffffffffffffffffffffffffff168373ffffffffffffffffffffffffffffffffffffffff160361020e576040517f08c379a00000000000000000000000000000000000000000000000000000000081526004016102059061071c565b60405180910390fd5b428211610250576040517f08c379a000000000000000000000000000000000000000000000000000000000815260040161024790610784565b60405180910390fd5b428111610292576040517f08c379a0000000000000000000000000000000000000000000000000000000008152600401610289906107ec565b60405180910390fd5b8181106102d4576040517f08c379a00000000000000000000000000000000000000000000000000000000081526004016102cb90610854565b60405180910390fd5b620f4240421115610383576303c26700426102ef919061089f565b821115610331576040517f08c379a00000000000000000000000000000000000000000000000000000000081526004016103289061091c565b60405180910390fd5b6201518042610340919061089f565b811015610382576040517f08c379a000000000000000000000000000000000000000000000000000000000815260040161037990610984565b60405180910390fd5b5b8573ffffffffffffffffffffffffffffffffffffffff1660808173ffffffffffffffffffffffffffffffffffffffff16815250508473ffffffffffffffffffffffffffffffffffffffff1660a08173ffffffffffffffffffffffffffffffffffffffff16815250508373ffffffffffffffffffffffffffffffffffffffff1660c08173ffffffffffffffffffffffffffffffffffffffff16815250508273ffffffffffffffffffffffffffffffffffffffff1660e08173ffffffffffffffffffffffffffffffffffffffff16815250508161010081815250508061012081815250505050505050506109a2565b5f5ffd5b5f73ffffffffffffffffffffffffffffffffffffffff82169050919050565b5f61049d82610474565b9050919050565b6104ad81610493565b81146104b7575f5ffd5b50565b5f815190506104c8816104a4565b92915050565b5f819050919050565b6104e0816104ce565b81146104ea575f5ffd5b50565b5f815190506104fb816104d7565b92915050565b5f5f5f5f5f5f60c0878903121561051b5761051a610470565b5b5f61052889828a016104ba565b965050602061053989828a016104ba565b955050604061054a89828a016104ba565b945050606061055b89828a016104ba565b935050608061056c89828a016104ed565b92505060a061057d89828a016104ed565b9150509295509295509295565b5f82825260208201905092915050565b7f496e76616c696420765320746f6b656e000000000000000000000000000000005f82015250565b5f6105ce60108361058a565b91506105d98261059a565b602082019050919050565b5f6020820190508181035f8301526105fb816105c2565b9050919050565b7f496e76616c6964204e465420636f6e74726163740000000000000000000000005f82015250565b5f61063660148361058a565b915061064182610602565b602082019050919050565b5f6020820190508181035f8301526106638161062a565b9050919050565b7f496e76616c696420756e6465726c79696e6720746f6b656e00000000000000005f82015250565b5f61069e60188361058a565b91506106a98261066a565b602082019050919050565b5f6020820190508181035f8301526106cb81610692565b9050919050565b7f496e76616c6964207472656173757279000000000000000000000000000000005f82015250565b5f61070660108361058a565b9150610711826106d2565b602082019050919050565b5f6020820190508181035f830152610733816106fa565b9050919050565b7f4d61747572697479206d757374206265206675747572650000000000000000005f82015250565b5f61076e60178361058a565b91506107798261073a565b602082019050919050565b5f6020820190508181035f83015261079b81610762565b9050919050565b7f467265657a65206d7573742062652066757475726500000000000000000000005f82015250565b5f6107d660158361058a565b91506107e1826107a2565b602082019050919050565b5f6020820190508181035f830152610803816107ca565b9050919050565b7f467265657a65206265666f7265206d61747572697479000000000000000000005f82015250565b5f61083e60168361058a565b91506108498261080a565b602082019050919050565b5f6020820190508181035f83015261086b81610832565b9050919050565b7f4e487b71000000000000000000000000000000000000000000000000000000005f52601160045260245ffd5b5f6108a9826104ce565b91506108b4836104ce565b92508282019050808211156108cc576108cb610872565b5b92915050565b7f4d6174757269747920746f6f2066617220696e206675747572650000000000005f82015250565b5f610906601a8361058a565b9150610911826108d2565b602082019050919050565b5f6020820190508181035f830152610933816108fa565b9050919050565b7f467265657a6520746f6f20736f6f6e00000000000000000000000000000000005f82015250565b5f61096e600f8361058a565b91506109798261093a565b602082019050919050565b5f6020820190508181035f83015261099b81610962565b9050919050565b60805160a05160c05160e0516101005161012051612ec2610ac25f395f8181610d6e015281816111880152611c9d01525f8181610d0101528181610e510152818161113201526117b501525f8181610d9601528181610fd70152611b1f01525f81816106fa015281816108ac01528181610b6201528181610c0301528181610ebf01528181610f9b0152818161191901528181611ae301528181611ba00152611d7901525f818161060e015281816107a001528181610849015281816109b601528181610a58015281816112a00152818161138e0152818161142201528181611e9001528181611f43015261203501525f818161115c0152818161157d015281816116c10152818161184701528181611a530152611cd00152612ec25ff3fe608060405234801561000f575f5ffd5b50600436106101cc575f3560e01c8063803db96d11610102578063be378228116100a0578063db006a751161006f578063db006a75146104ff578063de30472a1461051b578063fac3edd114610539578063ffa3209914610557576101cc565b8063be37822814610487578063bea43a22146104a5578063c1a287e2146104c3578063cfdbf254146104e1576101cc565b8063891d7617116100dc578063891d7617146103ff578063a10932951461042f578063aa30c4b71461044d578063b6b55f251461046b576101cc565b8063803db96d146103bb5780638361d88a146103d9578063855bd22d146103f5576101cc565b80632495a5991161016f578063454c87b311610149578063454c87b3146103315780635204472d1461034f578063783b9c611461037f5780637bd9e1971461039d576101cc565b80632495a599146102d95780632d97712f146102f75780633d0f31f714610313576101cc565b806315cfc88e116101ab57806315cfc88e1461024e57806316d812f61461026c5780631aabebea1461029c57806322824505146102ba576101cc565b8062c4fcbd146101d057806301e1d11414610200578063150b7a021461021e575b5f5ffd5b6101ea60048036038101906101e591906121a2565b610575565b6040516101f791906121dc565b60405180910390f35b6102086106f7565b60405161021591906121dc565b60405180910390f35b610238600480360381019061023391906122b0565b610795565b604051610245919061236e565b60405180910390f35b610256610847565b6040516102639190612396565b60405180910390f35b610286600480360381019061028191906121a2565b61086b565b60405161029391906121dc565b60405180910390f35b6102a461088b565b6040516102b191906121dc565b60405180910390f35b6102c2610897565b6040516102d09291906123af565b60405180910390f35b6102e16108aa565b6040516102ee9190612396565b60405180910390f35b610311600480360381019061030c91906121a2565b6108ce565b005b61031b610cff565b60405161032891906121dc565b60405180910390f35b610339610d23565b60405161034691906123f0565b60405180910390f35b610369600480360381019061036491906121a2565b610d35565b6040516103769190612396565b60405180910390f35b610387610d65565b60405161039491906121dc565b60405180910390f35b6103a5610d6b565b6040516103b291906123f0565b60405180910390f35b6103c3610d94565b6040516103d09190612396565b60405180910390f35b6103f360048036038101906103ee919061245e565b610db8565b005b6103fd610e43565b005b610419600480360381019061041491906121a2565b6110ae565b60405161042691906121dc565b60405180910390f35b61043761111a565b60405161044491906123f0565b60405180910390f35b61045561115a565b6040516104629190612504565b60405180910390f35b610485600480360381019061048091906121a2565b61117e565b005b61048f61165e565b60405161049c91906121dc565b60405180910390f35b6104ad611663565b6040516104ba91906121dc565b60405180910390f35b6104cb611668565b6040516104d891906121dc565b60405180910390f35b6104e961166f565b6040516104f691906121dc565b60405180910390f35b610519600480360381019061051491906121a2565b611674565b005b610523611c9b565b60405161053091906121dc565b60405180910390f35b610541611cbf565b60405161054e91906121dc565b60405180910390f35b61055f611ccc565b60405161056c91906121dc565b60405180910390f35b5f5f82118015610586575060148211155b6105c5576040517f08c379a00000000000000000000000000000000000000000000000000000000081526004016105bc90612577565b60405180910390fd5b5f5f90505f5f90505f60035490505b600180549050811080156105e757508482105b156106d3575f6001828154811061060157610600612595565b5b905f5260205f20015490507f000000000000000000000000000000000000000000000000000000000000000073ffffffffffffffffffffffffffffffffffffffff1663d1d58b25826040518263ffffffff1660e01b815260040161066591906121dc565b602060405180830381865afa158015610680573d5f5f3e3d5ffd5b505050506040513d601f19601f820116820180604052508101906106a491906125d6565b846106af919061262e565b935082806106bc90612661565b9350505080806106cb90612661565b9150506105d4565b506127106005836106e491906126a8565b6106ee9190612716565b92505050919050565b5f7f000000000000000000000000000000000000000000000000000000000000000073ffffffffffffffffffffffffffffffffffffffff166370a08231306040518263ffffffff1660e01b81526004016107519190612396565b602060405180830381865afa15801561076c573d5f5f3e3d5ffd5b505050506040513d601f19601f8201168201806040525081019061079091906125d6565b905090565b5f61079e611e2a565b7f000000000000000000000000000000000000000000000000000000000000000073ffffffffffffffffffffffffffffffffffffffff163373ffffffffffffffffffffffffffffffffffffffff161461082c576040517f08c379a000000000000000000000000000000000000000000000000000000000815260040161082390612790565b60405180910390fd5b63150b7a0260e01b905061083e611e6e565b95945050505050565b7f000000000000000000000000000000000000000000000000000000000000000081565b6001818154811061087a575f80fd5b905f5260205f20015f915090505481565b5f600180549050905090565b5f5f600354600180549050915091509091565b7f000000000000000000000000000000000000000000000000000000000000000081565b6108d6611e2a565b5f811180156108e6575060148111155b610925576040517f08c379a000000000000000000000000000000000000000000000000000000000815260040161091c90612577565b60405180910390fd5b6001805490506003541061096e576040517f08c379a0000000000000000000000000000000000000000000000000000000008152600401610965906127f8565b60405180910390fd5b5f5f90505f5f90505b828110801561098c5750600180549050600354105b15610b2c575f6001600354815481106109a8576109a7612595565b5b905f5260205f20015490505f7f000000000000000000000000000000000000000000000000000000000000000073ffffffffffffffffffffffffffffffffffffffff1663d1d58b25836040518263ffffffff1660e01b8152600401610a0d91906121dc565b602060405180830381865afa158015610a28573d5f5f3e3d5ffd5b505050506040513d601f19601f82011682018060405250810190610a4c91906125d6565b90505f811115610b00577f000000000000000000000000000000000000000000000000000000000000000073ffffffffffffffffffffffffffffffffffffffff16637935510b836040518263ffffffff1660e01b8152600401610aaf91906121dc565b6020604051808303815f875af1925050508015610aea57506040513d601f19601f82011682018060405250810190610ae791906125d6565b60015b15610aff578085610afb919061262e565b9450505b5b60035f815480929190610b1290612661565b91905055508280610b2290612661565b9350505050610977565b5f8203610b3a575050610cf4565b5f612710600584610b4b91906126a8565b610b559190612716565b90505f811115610ca0575f7f000000000000000000000000000000000000000000000000000000000000000073ffffffffffffffffffffffffffffffffffffffff166370a08231306040518263ffffffff1660e01b8152600401610bb99190612396565b602060405180830381865afa158015610bd4573d5f5f3e3d5ffd5b505050506040513d601f19601f82011682018060405250810190610bf891906125d6565b9050818110610c9e577f000000000000000000000000000000000000000000000000000000000000000073ffffffffffffffffffffffffffffffffffffffff1663a9059cbb33846040518363ffffffff1660e01b8152600401610c5c929190612816565b6020604051808303815f875af1158015610c78573d5f5f3e3d5ffd5b505050506040513d601f19601f82011682018060405250810190610c9c9190612867565b505b505b3373ffffffffffffffffffffffffffffffffffffffff167f6c4474f5353aa538dd7698fa19be2149fc1d9fee5ab8a6af3de07ca84b7f28c78483604051610ce89291906123af565b60405180910390a25050505b610cfc611e6e565b50565b7f000000000000000000000000000000000000000000000000000000000000000081565b60045f9054906101000a900460ff1681565b6002602052805f5260405f205f915054906101000a900473ffffffffffffffffffffffffffffffffffffffff1681565b60035481565b5f7f00000000000000000000000000000000000000000000000000000000000000004211905090565b7f000000000000000000000000000000000000000000000000000000000000000081565b6032828290501115610dff576040517f08c379a0000000000000000000000000000000000000000000000000000000008152600401610df6906128dc565b60405180910390fd5b5f5f90505b82829050811015610e3e57610e31838383818110610e2557610e24612595565b5b90506020020135611e77565b8080600101915050610e04565b505050565b610e4b611e2a565b62ed4e007f0000000000000000000000000000000000000000000000000000000000000000610e7a919061262e565b421015610ebc576040517f08c379a0000000000000000000000000000000000000000000000000000000008152600401610eb390612944565b60405180910390fd5b5f7f000000000000000000000000000000000000000000000000000000000000000073ffffffffffffffffffffffffffffffffffffffff166370a08231306040518263ffffffff1660e01b8152600401610f169190612396565b602060405180830381865afa158015610f31573d5f5f3e3d5ffd5b505050506040513d601f19601f82011682018060405250810190610f5591906125d6565b90505f8111610f99576040517f08c379a0000000000000000000000000000000000000000000000000000000008152600401610f90906129ac565b60405180910390fd5b7f000000000000000000000000000000000000000000000000000000000000000073ffffffffffffffffffffffffffffffffffffffff1663a9059cbb7f0000000000000000000000000000000000000000000000000000000000000000836040518363ffffffff1660e01b8152600401611014929190612816565b6020604051808303815f875af1158015611030573d5f5f3e3d5ffd5b505050506040513d601f19601f820116820180604052508101906110549190612867565b503373ffffffffffffffffffffffffffffffffffffffff167f167beb24b4e0b809e5ad14deac40057e2206ebff29b4f1240a7d26bf69aaebe38260405161109b91906121dc565b60405180910390a2506110ac611e6e565b565b5f60018054905082106110f6576040517f08c379a00000000000000000000000000000000000000000000000000000000081526004016110ed90612a14565b60405180910390fd5b6001828154811061110a57611109612595565b5b905f5260205f2001549050919050565b5f60045f9054906101000a900460ff168061115557507f00000000000000000000000000000000000000000000000000000000000000004210155b905090565b7f000000000000000000000000000000000000000000000000000000000000000081565b611186611e2a565b7f00000000000000000000000000000000000000000000000000000000000000004211156111e9576040517f08c379a00000000000000000000000000000000000000000000000000000000081526004016111e090612aa2565b60405180910390fd5b5f73ffffffffffffffffffffffffffffffffffffffff1660025f8381526020019081526020015f205f9054906101000a900473ffffffffffffffffffffffffffffffffffffffff1673ffffffffffffffffffffffffffffffffffffffff1614611287576040517f08c379a000000000000000000000000000000000000000000000000000000000815260040161127e90612b0a565b60405180910390fd5b3373ffffffffffffffffffffffffffffffffffffffff167f000000000000000000000000000000000000000000000000000000000000000073ffffffffffffffffffffffffffffffffffffffff16636352211e836040518263ffffffff1660e01b81526004016112f791906121dc565b602060405180830381865afa158015611312573d5f5f3e3d5ffd5b505050506040513d601f19601f820116820180604052508101906113369190612b3c565b73ffffffffffffffffffffffffffffffffffffffff161461138c576040517f08c379a000000000000000000000000000000000000000000000000000000000815260040161138390612bb1565b60405180910390fd5b7f000000000000000000000000000000000000000000000000000000000000000073ffffffffffffffffffffffffffffffffffffffff166342842e0e3330846040518463ffffffff1660e01b81526004016113e993929190612bcf565b5f604051808303815f87803b158015611400575f5ffd5b505af1158015611412573d5f5f3e3d5ffd5b5050505061141f81611e77565b5f7f000000000000000000000000000000000000000000000000000000000000000073ffffffffffffffffffffffffffffffffffffffff1663f0e40662836040518263ffffffff1660e01b815260040161147991906121dc565b602060405180830381865afa158015611494573d5f5f3e3d5ffd5b505050506040513d601f19601f820116820180604052508101906114b891906125d6565b905068056bc75e2d63100000811015611506576040517f08c379a00000000000000000000000000000000000000000000000000000000081526004016114fd90612c4e565b60405180910390fd5b3360025f8481526020019081526020015f205f6101000a81548173ffffffffffffffffffffffffffffffffffffffff021916908373ffffffffffffffffffffffffffffffffffffffff160217905550600182908060018154018082558091505060019003905f5260205f20015f90919091909150557f000000000000000000000000000000000000000000000000000000000000000073ffffffffffffffffffffffffffffffffffffffff166340c10f1933836040518363ffffffff1660e01b81526004016115d6929190612816565b5f604051808303815f87803b1580156115ed575f5ffd5b505af11580156115ff573d5f5f3e3d5ffd5b50505050813373ffffffffffffffffffffffffffffffffffffffff167fdeba2d4291edd2e29ef127ea6e31f12ebb9adc96b42605081927d379bdcb8bed8360405161164a91906121dc565b60405180910390a35061165b611e6e565b50565b606481565b600581565b62ed4e0081565b601481565b61167c611e2a565b5f81116116be576040517f08c379a00000000000000000000000000000000000000000000000000000000081526004016116b590612cb6565b60405180910390fd5b807f000000000000000000000000000000000000000000000000000000000000000073ffffffffffffffffffffffffffffffffffffffff166370a08231336040518263ffffffff1660e01b81526004016117189190612396565b602060405180830381865afa158015611733573d5f5f3e3d5ffd5b505050506040513d601f19601f8201168201806040525081019061175791906125d6565b1015611798576040517f08c379a000000000000000000000000000000000000000000000000000000000815260040161178f90612d1e565b60405180910390fd5b5f5a905060045f9054906101000a900460ff161580156117d857507f00000000000000000000000000000000000000000000000000000000000000004210155b15611844576117e5611ffb565b5f5a826117f29190612d3c565b90503373ffffffffffffffffffffffffffffffffffffffff167ff97a5736c16f97b6c3e382e7897058922f2979812da11161e6b146ce1398fa888260405161183a91906121dc565b60405180910390a2505b5f7f000000000000000000000000000000000000000000000000000000000000000073ffffffffffffffffffffffffffffffffffffffff166318160ddd6040518163ffffffff1660e01b8152600401602060405180830381865afa1580156118ae573d5f5f3e3d5ffd5b505050506040513d601f19601f820116820180604052508101906118d291906125d6565b90505f8111611916576040517f08c379a000000000000000000000000000000000000000000000000000000000815260040161190d90612db9565b60405180910390fd5b5f7f000000000000000000000000000000000000000000000000000000000000000073ffffffffffffffffffffffffffffffffffffffff166370a08231306040518263ffffffff1660e01b81526004016119709190612396565b602060405180830381865afa15801561198b573d5f5f3e3d5ffd5b505050506040513d601f19601f820116820180604052508101906119af91906125d6565b90505f81116119f3576040517f08c379a00000000000000000000000000000000000000000000000000000000081526004016119ea90612e47565b60405180910390fd5b5f828286611a0191906126a8565b611a0b9190612716565b90505f612710606483611a1e91906126a8565b611a289190612716565b90505f81148015611a3857505f82115b15611a4257600190505b5f8183611a4f9190612d3c565b90507f000000000000000000000000000000000000000000000000000000000000000073ffffffffffffffffffffffffffffffffffffffff16639dc29fac33896040518363ffffffff1660e01b8152600401611aac929190612816565b5f604051808303815f87803b158015611ac3575f5ffd5b505af1158015611ad5573d5f5f3e3d5ffd5b505050505f821115611b9e577f000000000000000000000000000000000000000000000000000000000000000073ffffffffffffffffffffffffffffffffffffffff1663a9059cbb7f0000000000000000000000000000000000000000000000000000000000000000846040518363ffffffff1660e01b8152600401611b5c929190612816565b6020604051808303815f875af1158015611b78573d5f5f3e3d5ffd5b505050506040513d601f19601f82011682018060405250810190611b9c9190612867565b505b7f000000000000000000000000000000000000000000000000000000000000000073ffffffffffffffffffffffffffffffffffffffff1663a9059cbb33836040518363ffffffff1660e01b8152600401611bf9929190612816565b6020604051808303815f875af1158015611c15573d5f5f3e3d5ffd5b505050506040513d601f19601f82011682018060405250810190611c399190612867565b503373ffffffffffffffffffffffffffffffffffffffff167ff3a670cd3af7d64b488926880889d08a8585a138ff455227af6737339a1ec2628883604051611c829291906123af565b60405180910390a2505050505050611c98611e6e565b50565b7f000000000000000000000000000000000000000000000000000000000000000081565b68056bc75e2d6310000081565b5f5f7f000000000000000000000000000000000000000000000000000000000000000073ffffffffffffffffffffffffffffffffffffffff166318160ddd6040518163ffffffff1660e01b8152600401602060405180830381865afa158015611d37573d5f5f3e3d5ffd5b505050506040513d601f19601f82011682018060405250810190611d5b91906125d6565b90505f8103611d6d575f915050611e27565b80670de0b6b3a76400007f000000000000000000000000000000000000000000000000000000000000000073ffffffffffffffffffffffffffffffffffffffff166370a08231306040518263ffffffff1660e01b8152600401611dd09190612396565b602060405180830381865afa158015611deb573d5f5f3e3d5ffd5b505050506040513d601f19601f82011682018060405250810190611e0f91906125d6565b611e1991906126a8565b611e239190612716565b9150505b90565b60025f5403611e65576040517f3ee5aeb500000000000000000000000000000000000000000000000000000000815260040160405180910390fd5b60025f81905550565b60015f81905550565b3073ffffffffffffffffffffffffffffffffffffffff167f000000000000000000000000000000000000000000000000000000000000000073ffffffffffffffffffffffffffffffffffffffff1663c6b84b09836040518263ffffffff1660e01b8152600401611ee791906121dc565b602060405180830381865afa158015611f02573d5f5f3e3d5ffd5b505050506040513d601f19601f82011682018060405250810190611f269190612b3c565b73ffffffffffffffffffffffffffffffffffffffff1614611ff8577f000000000000000000000000000000000000000000000000000000000000000073ffffffffffffffffffffffffffffffffffffffff166394dcf2e682306040518363ffffffff1660e01b8152600401611f9c929190612e65565b5f604051808303815f87803b158015611fb3575f5ffd5b505af1925050508015611fc4575060015b15611ff757807f12e0eb36fb0427730f48d69c1378eb47923d17b49ccdf381eb8ac5da524d8bc260405160405180910390a25b5b50565b5f5f90505f60035490505b6001805490508110156120ef575f6001828154811061202857612027612595565b5b905f5260205f20015490507f000000000000000000000000000000000000000000000000000000000000000073ffffffffffffffffffffffffffffffffffffffff16637935510b826040518263ffffffff1660e01b815260040161208c91906121dc565b6020604051808303815f875af19250505080156120c757506040513d601f19601f820116820180604052508101906120c491906125d6565b60015b6120d157506120e2565b80846120dd919061262e565b935050505b8080600101915050612006565b50600180549050600381905550600160045f6101000a81548160ff0219169083151502179055503373ffffffffffffffffffffffffffffffffffffffff167f70eb77da9359fa50b98f4ac8235aebfd09c4840ae1ecae6c17838168abbb81b38260405161215c91906121dc565b60405180910390a250565b5f5ffd5b5f5ffd5b5f819050919050565b6121818161216f565b811461218b575f5ffd5b50565b5f8135905061219c81612178565b92915050565b5f602082840312156121b7576121b6612167565b5b5f6121c48482850161218e565b91505092915050565b6121d68161216f565b82525050565b5f6020820190506121ef5f8301846121cd565b92915050565b5f73ffffffffffffffffffffffffffffffffffffffff82169050919050565b5f61221e826121f5565b9050919050565b61222e81612214565b8114612238575f5ffd5b50565b5f8135905061224981612225565b92915050565b5f5ffd5b5f5ffd5b5f5ffd5b5f5f83601f8401126122705761226f61224f565b5b8235905067ffffffffffffffff81111561228d5761228c612253565b5b6020830191508360018202830111156122a9576122a8612257565b5b9250929050565b5f5f5f5f5f608086880312156122c9576122c8612167565b5b5f6122d68882890161223b565b95505060206122e78882890161223b565b94505060406122f88882890161218e565b935050606086013567ffffffffffffffff8111156123195761231861216b565b5b6123258882890161225b565b92509250509295509295909350565b5f7fffffffff0000000000000000000000000000000000000000000000000000000082169050919050565b61236881612334565b82525050565b5f6020820190506123815f83018461235f565b92915050565b61239081612214565b82525050565b5f6020820190506123a95f830184612387565b92915050565b5f6040820190506123c25f8301856121cd565b6123cf60208301846121cd565b9392505050565b5f8115159050919050565b6123ea816123d6565b82525050565b5f6020820190506124035f8301846123e1565b92915050565b5f5f83601f84011261241e5761241d61224f565b5b8235905067ffffffffffffffff81111561243b5761243a612253565b5b60208301915083602082028301111561245757612456612257565b5b9250929050565b5f5f6020838503121561247457612473612167565b5b5f83013567ffffffffffffffff8111156124915761249061216b565b5b61249d85828601612409565b92509250509250929050565b5f819050919050565b5f6124cc6124c76124c2846121f5565b6124a9565b6121f5565b9050919050565b5f6124dd826124b2565b9050919050565b5f6124ee826124d3565b9050919050565b6124fe816124e4565b82525050565b5f6020820190506125175f8301846124f5565b92915050565b5f82825260208201905092915050565b7f496e76616c69642062617463682073697a6500000000000000000000000000005f82015250565b5f61256160128361251d565b915061256c8261252d565b602082019050919050565b5f6020820190508181035f83015261258e81612555565b9050919050565b7f4e487b71000000000000000000000000000000000000000000000000000000005f52603260045260245ffd5b5f815190506125d081612178565b92915050565b5f602082840312156125eb576125ea612167565b5b5f6125f8848285016125c2565b91505092915050565b7f4e487b71000000000000000000000000000000000000000000000000000000005f52601160045260245ffd5b5f6126388261216f565b91506126438361216f565b925082820190508082111561265b5761265a612601565b5b92915050565b5f61266b8261216f565b91507fffffffffffffffffffffffffffffffffffffffffffffffffffffffffffffffff820361269d5761269c612601565b5b600182019050919050565b5f6126b28261216f565b91506126bd8361216f565b92508282026126cb8161216f565b915082820484148315176126e2576126e1612601565b5b5092915050565b7f4e487b71000000000000000000000000000000000000000000000000000000005f52601260045260245ffd5b5f6127208261216f565b915061272b8361216f565b92508261273b5761273a6126e9565b5b828204905092915050565b7f4f6e6c79206163636570747320746172676574204e46547300000000000000005f82015250565b5f61277a60188361251d565b915061278582612746565b602082019050919050565b5f6020820190508181035f8301526127a78161276e565b9050919050565b7f416c6c204e4654732070726f63657373656400000000000000000000000000005f82015250565b5f6127e260128361251d565b91506127ed826127ae565b602082019050919050565b5f6020820190508181035f83015261280f816127d6565b9050919050565b5f6040820190506128295f830185612387565b61283660208301846121cd565b9392505050565b612846816123d6565b8114612850575f5ffd5b50565b5f815190506128618161283d565b92915050565b5f6020828403121561287c5761287b612167565b5b5f61288984828501612853565b91505092915050565b7f426174636820746f6f206c6172676500000000000000000000000000000000005f82015250565b5f6128c6600f8361251d565b91506128d182612892565b602082019050919050565b5f6020820190508181035f8301526128f3816128ba565b9050919050565b7f477261636520706572696f64206e6f74206f76657200000000000000000000005f82015250565b5f61292e60158361251d565b9150612939826128fa565b602082019050919050565b5f6020820190508181035f83015261295b81612922565b9050919050565b7f4e6f20737572706c757320746f207377656570000000000000000000000000005f82015250565b5f61299660138361251d565b91506129a182612962565b602082019050919050565b5f6020820190508181035f8301526129c38161298a565b9050919050565b7f496e646578206f7574206f6620626f756e6473000000000000000000000000005f82015250565b5f6129fe60138361251d565b9150612a09826129ca565b602082019050919050565b5f6020820190508181035f830152612a2b816129f2565b9050919050565b7f5661756c742066726f7a656e202d20757365206e657720736561736f6e2076615f8201527f756c740000000000000000000000000000000000000000000000000000000000602082015250565b5f612a8c60238361251d565b9150612a9782612a32565b604082019050919050565b5f6020820190508181035f830152612ab981612a80565b9050919050565b7f4e465420616c7265616479206465706f736974656400000000000000000000005f82015250565b5f612af460158361251d565b9150612aff82612ac0565b602082019050919050565b5f6020820190508181035f830152612b2181612ae8565b9050919050565b5f81519050612b3681612225565b92915050565b5f60208284031215612b5157612b50612167565b5b5f612b5e84828501612b28565b91505092915050565b7f4e6f74204e4654206f776e6572000000000000000000000000000000000000005f82015250565b5f612b9b600d8361251d565b9150612ba682612b67565b602082019050919050565b5f6020820190508181035f830152612bc881612b8f565b9050919050565b5f606082019050612be25f830186612387565b612bef6020830185612387565b612bfc60408301846121cd565b949350505050565b7f4e465420746f6f20736d616c6c000000000000000000000000000000000000005f82015250565b5f612c38600d8361251d565b9150612c4382612c04565b602082019050919050565b5f6020820190508181035f830152612c6581612c2c565b9050919050565b7f43616e6e6f742072656465656d203000000000000000000000000000000000005f82015250565b5f612ca0600f8361251d565b9150612cab82612c6c565b602082019050919050565b5f6020820190508181035f830152612ccd81612c94565b9050919050565b7f496e73756666696369656e742076532062616c616e63650000000000000000005f82015250565b5f612d0860178361251d565b9150612d1382612cd4565b602082019050919050565b5f6020820190508181035f830152612d3581612cfc565b9050919050565b5f612d468261216f565b9150612d518361216f565b9250828203905081811115612d6957612d68612601565b5b92915050565b7f4e6f20765320746f6b656e7320696e2063697263756c6174696f6e00000000005f82015250565b5f612da3601b8361251d565b9150612dae82612d6f565b602082019050919050565b5f6020820190508181035f830152612dd081612d97565b9050919050565b7f4e6f20746f6b656e7320617661696c61626c6520666f7220726564656d7074695f8201527f6f6e000000000000000000000000000000000000000000000000000000000000602082015250565b5f612e3160228361251d565b9150612e3c82612dd7565b604082019050919050565b5f6020820190508181035f830152612e5e81612e25565b9050919050565b5f604082019050612e785f8301856121cd565b612e856020830184612387565b939250505056fea2646970667358221220fb902481e0ed5c9a2590cf5e45f9a924c2eea22869a1e110166e6512c468bad664736f6c634300081c0033","linkReferences":{}},"methodIdentifiers":{"GRACE_PERIOD()":"c1a287e2","KEEPER_INCENTIVE_BPS()":"bea43a22","MAX_BATCH_SIZE()":"cfdbf254","MIN_NFT_FACE()":"fac3edd1","PROTOCOL_FEE_BPS()":"be378228","claimBatch(uint256)":"2d97712f","deposit(uint256)":"b6b55f25","depositedNFTs(uint256)":"5204472d","forceDelegate(uint256[])":"8361d88a","getBackingRatio()":"ffa32099","getClaimProgress()":"22824505","getHeldNFT(uint256)":"891d7617","getHeldNFTCount()":"1aabebea","hasMatured()":"a1093295","heldNFTs(uint256)":"16d812f6","isVaultFrozen()":"7bd9e197","keeperBountyPerBatch(uint256)":"00c4fcbd","matured()":"454c87b3","maturityTimestamp()":"3d0f31f7","nextClaimIndex()":"783b9c61","onERC721Received(address,address,uint256,bytes)":"150b7a02","protocolTreasury()":"803db96d","redeem(uint256)":"db006a75","sonicNFT()":"15cfc88e","sweepSurplus()":"855bd22d","totalAssets()":"01e1d114","underlyingToken()":"2495a599","vS()":"aa30c4b7","vaultFreezeTimestamp()":"de30472a"},"id":29}