{"abi":[{"type":"constructor","inputs":[{"name":"_vsToken","type":"address","internalType":"address"},{"name":"_underlyingToken","type":"address","internalType":"address"},{"name":"_protocolTreasury","type":"address","internalType":"address"}],"stateMutability":"nonpayable"},{"type":"function","name":"KEEPER_INCENTIVE_BPS","inputs":[],"outputs":[{"name":"","type":"uint256","internalType":"uint256"}],"stateMutability":"view"},{"type":"function","name":"PROTOCOL_FEE_BPS","inputs":[],"outputs":[{"name":"","type":"uint256","internalType":"uint256"}],"stateMutability":"view"},{"type":"function","name":"claimVested","inputs":[{"name":"startIndex","type":"uint256","internalType":"uint256"},{"name":"count","type":"uint256","internalType":"uint256"}],"outputs":[],"stateMutability":"nonpayable"},{"type":"function","name":"deposit","inputs":[{"name":"nftId","type":"uint256","internalType":"uint256"}],"outputs":[],"stateMutability":"nonpayable"},{"type":"function","name":"depositedNFTs","inputs":[{"name":"","type":"uint256","internalType":"uint256"}],"outputs":[{"name":"","type":"address","internalType":"address"}],"stateMutability":"view"},{"type":"function","name":"emergencyMint","inputs":[{"name":"to","type":"address","internalType":"address"},{"name":"amount","type":"uint256","internalType":"uint256"}],"outputs":[],"stateMutability":"nonpayable"},{"type":"function","name":"heldNFTs","inputs":[{"name":"","type":"uint256","internalType":"uint256"}],"outputs":[{"name":"","type":"uint256","internalType":"uint256"}],"stateMutability":"view"},{"type":"function","name":"onERC721Received","inputs":[{"name":"","type":"address","internalType":"address"},{"name":"","type":"address","internalType":"address"},{"name":"","type":"uint256","internalType":"uint256"},{"name":"","type":"bytes","internalType":"bytes"}],"outputs":[{"name":"","type":"bytes4","internalType":"bytes4"}],"stateMutability":"nonpayable"},{"type":"function","name":"owner","inputs":[],"outputs":[{"name":"","type":"address","internalType":"address"}],"stateMutability":"view"},{"type":"function","name":"pause","inputs":[],"outputs":[],"stateMutability":"nonpayable"},{"type":"function","name":"paused","inputs":[],"outputs":[{"name":"","type":"bool","internalType":"bool"}],"stateMutability":"view"},{"type":"function","name":"protocolTreasury","inputs":[],"outputs":[{"name":"","type":"address","internalType":"address"}],"stateMutability":"view"},{"type":"function","name":"redeem","inputs":[{"name":"amount","type":"uint256","internalType":"uint256"}],"outputs":[],"stateMutability":"nonpayable"},{"type":"function","name":"renounceOwnership","inputs":[],"outputs":[],"stateMutability":"nonpayable"},{"type":"function","name":"setNFTContract","inputs":[{"name":"_sonicNFT","type":"address","internalType":"address"}],"outputs":[],"stateMutability":"nonpayable"},{"type":"function","name":"simpleRedeem","inputs":[{"name":"amount","type":"uint256","internalType":"uint256"}],"outputs":[],"stateMutability":"nonpayable"},{"type":"function","name":"sonicNFT","inputs":[],"outputs":[{"name":"","type":"address","internalType":"address"}],"stateMutability":"view"},{"type":"function","name":"totalAssets","inputs":[],"outputs":[{"name":"","type":"uint256","internalType":"uint256"}],"stateMutability":"view"},{"type":"function","name":"transferOwnership","inputs":[{"name":"newOwner","type":"address","internalType":"address"}],"outputs":[],"stateMutability":"nonpayable"},{"type":"function","name":"underlyingToken","inputs":[],"outputs":[{"name":"","type":"address","internalType":"address"}],"stateMutability":"view"},{"type":"function","name":"unpause","inputs":[],"outputs":[],"stateMutability":"nonpayable"},{"type":"function","name":"vS","inputs":[],"outputs":[{"name":"","type":"address","internalType":"contract VSToken"}],"stateMutability":"view"},{"type":"event","name":"NFTContractSet","inputs":[{"name":"nftContract","type":"address","indexed":true,"internalType":"address"}],"anonymous":false},{"type":"event","name":"NFTDeposited","inputs":[{"name":"user","type":"address","indexed":true,"internalType":"address"},{"name":"nftId","type":"uint256","indexed":true,"internalType":"uint256"},{"name":"amountMinted","type":"uint256","indexed":false,"internalType":"uint256"}],"anonymous":false},{"type":"event","name":"OwnershipTransferred","inputs":[{"name":"previousOwner","type":"address","indexed":true,"internalType":"address"},{"name":"newOwner","type":"address","indexed":true,"internalType":"address"}],"anonymous":false},{"type":"event","name":"Paused","inputs":[{"name":"account","type":"address","indexed":false,"internalType":"address"}],"anonymous":false},{"type":"event","name":"Redeemed","inputs":[{"name":"user","type":"address","indexed":true,"internalType":"address"},{"name":"vsAmount","type":"uint256","indexed":false,"internalType":"uint256"},{"name":"underlyingAmount","type":"uint256","indexed":false,"internalType":"uint256"}],"anonymous":false},{"type":"event","name":"Unpaused","inputs":[{"name":"account","type":"address","indexed":false,"internalType":"address"}],"anonymous":false},{"type":"event","name":"VestedTokensClaimed","inputs":[{"name":"caller","type":"address","indexed":true,"internalType":"address"},{"name":"totalAmount","type":"uint256","indexed":false,"internalType":"uint256"},{"name":"incentivePaid","type":"uint256","indexed":false,"internalType":"uint256"}],"anonymous":false},{"type":"error","name":"EnforcedPause","inputs":[]},{"type":"error","name":"ExpectedPause","inputs":[]},{"type":"error","name":"OwnableInvalidOwner","inputs":[{"name":"owner","type":"address","internalType":"address"}]},{"type":"error","name":"OwnableUnauthorizedAccount","inputs":[{"name":"account","type":"address","internalType":"address"}]},{"type":"error","name":"ReentrancyGuardReentrantCall","inputs":[]}],"bytecode":{"object":"0x60a060405234801561000f575f5ffd5b5060405161371238038061371283398181016040528101906100319190610295565b335f73ffffffffffffffffffffffffffffffffffffffff168173ffffffffffffffffffffffffffffffffffffffff16036100a2575f6040517f1e4fbdf700000000000000000000000000000000000000000000000000000000815260040161009991906102f4565b60405180910390fd5b6100b18161017660201b60201c565b506001808190555082600260016101000a81548173ffffffffffffffffffffffffffffffffffffffff021916908373ffffffffffffffffffffffffffffffffffffffff1602179055508173ffffffffffffffffffffffffffffffffffffffff1660808173ffffffffffffffffffffffffffffffffffffffff16815250508060055f6101000a81548173ffffffffffffffffffffffffffffffffffffffff021916908373ffffffffffffffffffffffffffffffffffffffff16021790555050505061030d565b5f5f5f9054906101000a900473ffffffffffffffffffffffffffffffffffffffff169050815f5f6101000a81548173ffffffffffffffffffffffffffffffffffffffff021916908373ffffffffffffffffffffffffffffffffffffffff1602179055508173ffffffffffffffffffffffffffffffffffffffff168173ffffffffffffffffffffffffffffffffffffffff167f8be0079c531659141344cd1fd0a4f28419497f9722a3daafe3b4186f6b6457e060405160405180910390a35050565b5f5ffd5b5f73ffffffffffffffffffffffffffffffffffffffff82169050919050565b5f6102648261023b565b9050919050565b6102748161025a565b811461027e575f5ffd5b50565b5f8151905061028f8161026b565b92915050565b5f5f5f606084860312156102ac576102ab610237565b5b5f6102b986828701610281565b93505060206102ca86828701610281565b92505060406102db86828701610281565b9150509250925092565b6102ee8161025a565b82525050565b5f6020820190506103075f8301846102e5565b92915050565b6080516133a761036b5f395f81816103c7015281816104bc015281816107d8015281816109e501528181610aa3015281816115940152818161177601528181611b7101528181611c2f01528181611fee015261208e01526133a75ff3fe608060405234801561000f575f5ffd5b5060043610610140575f3560e01c8063803db96d116100b6578063b6b55f251161007a578063b6b55f2514610318578063be37822814610334578063bea43a2214610352578063db006a7514610370578063dfff79671461038c578063f2fde38b146103a857610140565b8063803db96d146102985780638456cb59146102b65780638da5cb5b146102c0578063a7ccabdf146102de578063aa30c4b7146102fa57610140565b80633f4ba83a116101085780633f4ba83a146101fe57806343785dc9146102085780634f08da50146102245780635204472d146102405780635c975abb14610270578063715018a61461028e57610140565b806301e1d11414610144578063150b7a021461016257806315cfc88e1461019257806316d812f6146101b05780632495a599146101e0575b5f5ffd5b61014c6103c4565b60405161015991906124ff565b60405180910390f35b61017c600480360381019061017791906126e9565b610462565b60405161018991906127a3565b60405180910390f35b61019a610475565b6040516101a791906127cb565b60405180910390f35b6101ca60048036038101906101c591906127e4565b61049a565b6040516101d791906124ff565b60405180910390f35b6101e86104ba565b6040516101f591906127cb565b60405180910390f35b6102066104de565b005b610222600480360381019061021d919061280f565b6104f0565b005b61023e600480360381019061023991906127e4565b6105d3565b005b61025a600480360381019061025591906127e4565b610b9d565b60405161026791906127cb565b60405180910390f35b610278610bcd565b6040516102859190612867565b60405180910390f35b610296610be2565b005b6102a0610bf5565b6040516102ad91906127cb565b60405180910390f35b6102be610c1a565b005b6102c8610c2c565b6040516102d591906127cb565b60405180910390f35b6102f860048036038101906102f39190612880565b610c53565b005b610302610dde565b60405161030f9190612906565b60405180910390f35b610332600480360381019061032d91906127e4565b610e04565b005b61033c611385565b60405161034991906124ff565b60405180910390f35b61035a61138a565b60405161036791906124ff565b60405180910390f35b61038a600480360381019061038591906127e4565b61138f565b005b6103a660048036038101906103a1919061291f565b611d2b565b005b6103c260048036038101906103bd9190612880565b612181565b005b5f7f000000000000000000000000000000000000000000000000000000000000000073ffffffffffffffffffffffffffffffffffffffff166370a08231306040518263ffffffff1660e01b815260040161041e91906127cb565b602060405180830381865afa158015610439573d5f5f3e3d5ffd5b505050506040513d601f19601f8201168201806040525081019061045d9190612971565b905090565b5f63150b7a0260e01b9050949350505050565b60035f9054906101000a900473ffffffffffffffffffffffffffffffffffffffff1681565b600481815481106104a9575f80fd5b905f5260205f20015f915090505481565b7f000000000000000000000000000000000000000000000000000000000000000081565b6104e6612205565b6104ee61228c565b565b6104f8612205565b690a968163f0a57b400000811115610545576040517f08c379a000000000000000000000000000000000000000000000000000000000815260040161053c906129f6565b60405180910390fd5b600260019054906101000a900473ffffffffffffffffffffffffffffffffffffffff1673ffffffffffffffffffffffffffffffffffffffff166340c10f1983836040518363ffffffff1660e01b81526004016105a2929190612a14565b5f604051808303815f87803b1580156105b9575f5ffd5b505af11580156105cb573d5f5f3e3d5ffd5b505050505050565b6105db6122ed565b6105e3612333565b5f8111610625576040517f08c379a000000000000000000000000000000000000000000000000000000000815260040161061c90612a85565b60405180910390fd5b80600260019054906101000a900473ffffffffffffffffffffffffffffffffffffffff1673ffffffffffffffffffffffffffffffffffffffff166370a08231336040518263ffffffff1660e01b815260040161068191906127cb565b602060405180830381865afa15801561069c573d5f5f3e3d5ffd5b505050506040513d601f19601f820116820180604052508101906106c09190612971565b1015610701576040517f08c379a00000000000000000000000000000000000000000000000000000000081526004016106f890612aed565b60405180910390fd5b5f600260019054906101000a900473ffffffffffffffffffffffffffffffffffffffff1673ffffffffffffffffffffffffffffffffffffffff166318160ddd6040518163ffffffff1660e01b8152600401602060405180830381865afa15801561076d573d5f5f3e3d5ffd5b505050506040513d601f19601f820116820180604052508101906107919190612971565b90505f81116107d5576040517f08c379a00000000000000000000000000000000000000000000000000000000081526004016107cc90612b55565b60405180910390fd5b5f7f000000000000000000000000000000000000000000000000000000000000000073ffffffffffffffffffffffffffffffffffffffff166370a08231306040518263ffffffff1660e01b815260040161082f91906127cb565b602060405180830381865afa15801561084a573d5f5f3e3d5ffd5b505050506040513d601f19601f8201168201806040525081019061086e9190612971565b90505f81116108b2576040517f08c379a00000000000000000000000000000000000000000000000000000000081526004016108a990612be3565b60405180910390fd5b5f8282856108c09190612c2e565b6108ca9190612c9c565b90505f6127106064836108dd9190612c2e565b6108e79190612c9c565b90505f81836108f69190612ccc565b9050600260019054906101000a900473ffffffffffffffffffffffffffffffffffffffff1673ffffffffffffffffffffffffffffffffffffffff16639dc29fac33886040518363ffffffff1660e01b8152600401610955929190612a14565b5f604051808303815f87803b15801561096c575f5ffd5b505af115801561097e573d5f5f3e3d5ffd5b505050505f821180156109de57505f73ffffffffffffffffffffffffffffffffffffffff1660055f9054906101000a900473ffffffffffffffffffffffffffffffffffffffff1673ffffffffffffffffffffffffffffffffffffffff1614155b15610aa1577f000000000000000000000000000000000000000000000000000000000000000073ffffffffffffffffffffffffffffffffffffffff1663a9059cbb60055f9054906101000a900473ffffffffffffffffffffffffffffffffffffffff16846040518363ffffffff1660e01b8152600401610a5f929190612a14565b6020604051808303815f875af1158015610a7b573d5f5f3e3d5ffd5b505050506040513d601f19601f82011682018060405250810190610a9f9190612d29565b505b7f000000000000000000000000000000000000000000000000000000000000000073ffffffffffffffffffffffffffffffffffffffff1663a9059cbb33836040518363ffffffff1660e01b8152600401610afc929190612a14565b6020604051808303815f875af1158015610b18573d5f5f3e3d5ffd5b505050506040513d601f19601f82011682018060405250810190610b3c9190612d29565b503373ffffffffffffffffffffffffffffffffffffffff167ff3a670cd3af7d64b488926880889d08a8585a138ff455227af6737339a1ec2628783604051610b85929190612d54565b60405180910390a25050505050610b9a612374565b50565b6006602052805f5260405f205f915054906101000a900473ffffffffffffffffffffffffffffffffffffffff1681565b5f60025f9054906101000a900460ff16905090565b610bea612205565b610bf35f61237d565b565b60055f9054906101000a900473ffffffffffffffffffffffffffffffffffffffff1681565b610c22612205565b610c2a61243e565b565b5f5f5f9054906101000a900473ffffffffffffffffffffffffffffffffffffffff16905090565b610c5b612205565b5f73ffffffffffffffffffffffffffffffffffffffff1660035f9054906101000a900473ffffffffffffffffffffffffffffffffffffffff1673ffffffffffffffffffffffffffffffffffffffff1614610cea576040517f08c379a0000000000000000000000000000000000000000000000000000000008152600401610ce190612dc5565b60405180910390fd5b5f73ffffffffffffffffffffffffffffffffffffffff168173ffffffffffffffffffffffffffffffffffffffff1603610d58576040517f08c379a0000000000000000000000000000000000000000000000000000000008152600401610d4f90612e53565b60405180910390fd5b8060035f6101000a81548173ffffffffffffffffffffffffffffffffffffffff021916908373ffffffffffffffffffffffffffffffffffffffff1602179055508073ffffffffffffffffffffffffffffffffffffffff167f5a6a54be6929433a25d1b5103e7dea8d9440b7903216e380344a320ca1cdd85f60405160405180910390a250565b600260019054906101000a900473ffffffffffffffffffffffffffffffffffffffff1681565b610e0c6122ed565b610e14612333565b5f73ffffffffffffffffffffffffffffffffffffffff1660035f9054906101000a900473ffffffffffffffffffffffffffffffffffffffff1673ffffffffffffffffffffffffffffffffffffffff1603610ea3576040517f08c379a0000000000000000000000000000000000000000000000000000000008152600401610e9a90612ebb565b60405180910390fd5b5f73ffffffffffffffffffffffffffffffffffffffff1660065f8381526020019081526020015f205f9054906101000a900473ffffffffffffffffffffffffffffffffffffffff1673ffffffffffffffffffffffffffffffffffffffff1614610f41576040517f08c379a0000000000000000000000000000000000000000000000000000000008152600401610f3890612f23565b60405180910390fd5b3373ffffffffffffffffffffffffffffffffffffffff1660035f9054906101000a900473ffffffffffffffffffffffffffffffffffffffff1673ffffffffffffffffffffffffffffffffffffffff16636352211e836040518263ffffffff1660e01b8152600401610fb291906124ff565b602060405180830381865afa158015610fcd573d5f5f3e3d5ffd5b505050506040513d601f19601f82011682018060405250810190610ff19190612f55565b73ffffffffffffffffffffffffffffffffffffffff1614611047576040517f08c379a000000000000000000000000000000000000000000000000000000000815260040161103e90612fca565b60405180910390fd5b3073ffffffffffffffffffffffffffffffffffffffff1660035f9054906101000a900473ffffffffffffffffffffffffffffffffffffffff1673ffffffffffffffffffffffffffffffffffffffff1663c6b84b09836040518263ffffffff1660e01b81526004016110b891906124ff565b602060405180830381865afa1580156110d3573d5f5f3e3d5ffd5b505050506040513d601f19601f820116820180604052508101906110f79190612f55565b73ffffffffffffffffffffffffffffffffffffffff161461114d576040517f08c379a000000000000000000000000000000000000000000000000000000000815260040161114490613058565b60405180910390fd5b3360065f8381526020019081526020015f205f6101000a81548173ffffffffffffffffffffffffffffffffffffffff021916908373ffffffffffffffffffffffffffffffffffffffff160217905550600481908060018154018082558091505060019003905f5260205f20015f90919091909150555f60035f9054906101000a900473ffffffffffffffffffffffffffffffffffffffff1673ffffffffffffffffffffffffffffffffffffffff1663f0e40662836040518263ffffffff1660e01b815260040161121d91906124ff565b602060405180830381865afa158015611238573d5f5f3e3d5ffd5b505050506040513d601f19601f8201168201806040525081019061125c9190612971565b90505f81116112a0576040517f08c379a0000000000000000000000000000000000000000000000000000000008152600401611297906130c0565b60405180910390fd5b600260019054906101000a900473ffffffffffffffffffffffffffffffffffffffff1673ffffffffffffffffffffffffffffffffffffffff166340c10f1933836040518363ffffffff1660e01b81526004016112fd929190612a14565b5f604051808303815f87803b158015611314575f5ffd5b505af1158015611326573d5f5f3e3d5ffd5b50505050813373ffffffffffffffffffffffffffffffffffffffff167fdeba2d4291edd2e29ef127ea6e31f12ebb9adc96b42605081927d379bdcb8bed8360405161137191906124ff565b60405180910390a350611382612374565b50565b606481565b600581565b6113976122ed565b61139f612333565b5f81116113e1576040517f08c379a00000000000000000000000000000000000000000000000000000000081526004016113d890612a85565b60405180910390fd5b80600260019054906101000a900473ffffffffffffffffffffffffffffffffffffffff1673ffffffffffffffffffffffffffffffffffffffff166370a08231336040518263ffffffff1660e01b815260040161143d91906127cb565b602060405180830381865afa158015611458573d5f5f3e3d5ffd5b505050506040513d601f19601f8201168201806040525081019061147c9190612971565b10156114bd576040517f08c379a00000000000000000000000000000000000000000000000000000000081526004016114b490612aed565b60405180910390fd5b5f600260019054906101000a900473ffffffffffffffffffffffffffffffffffffffff1673ffffffffffffffffffffffffffffffffffffffff166318160ddd6040518163ffffffff1660e01b8152600401602060405180830381865afa158015611529573d5f5f3e3d5ffd5b505050506040513d601f19601f8201168201806040525081019061154d9190612971565b90505f8111611591576040517f08c379a000000000000000000000000000000000000000000000000000000000815260040161158890612b55565b60405180910390fd5b5f7f000000000000000000000000000000000000000000000000000000000000000073ffffffffffffffffffffffffffffffffffffffff166370a08231306040518263ffffffff1660e01b81526004016115eb91906127cb565b602060405180830381865afa158015611606573d5f5f3e3d5ffd5b505050506040513d601f19601f8201168201806040525081019061162a9190612971565b90505f5f90505b600480549050811015611712575f60048281548110611653576116526130de565b5b905f5260205f200154905060035f9054906101000a900473ffffffffffffffffffffffffffffffffffffffff1673ffffffffffffffffffffffffffffffffffffffff1663d1d58b25826040518263ffffffff1660e01b81526004016116b891906124ff565b602060405180830381865afa1580156116d3573d5f5f3e3d5ffd5b505050506040513d601f19601f820116820180604052508101906116f79190612971565b83611702919061310b565b9250508080600101915050611631565b505f8111611755576040517f08c379a000000000000000000000000000000000000000000000000000000000815260040161174c906131ae565b60405180910390fd5b5f8282856117639190612c2e565b61176d9190612c9c565b90505f5f90505f7f000000000000000000000000000000000000000000000000000000000000000073ffffffffffffffffffffffffffffffffffffffff166370a08231306040518263ffffffff1660e01b81526004016117cd91906127cb565b602060405180830381865afa1580156117e8573d5f5f3e3d5ffd5b505050506040513d601f19601f8201168201806040525081019061180c9190612971565b90505f811115611838575f8382106118245783611826565b815b90508083611834919061310b565b9250505b82821015611a16575f828461184d9190612ccc565b90505f5f90505b6004805490508110801561186757505f82115b15611a13575f60048281548110611881576118806130de565b5b905f5260205f20015490505f60035f9054906101000a900473ffffffffffffffffffffffffffffffffffffffff1673ffffffffffffffffffffffffffffffffffffffff1663d1d58b25836040518263ffffffff1660e01b81526004016118e791906124ff565b602060405180830381865afa158015611902573d5f5f3e3d5ffd5b505050506040513d601f19601f820116820180604052508101906119269190612971565b90505f8111156119fd5760035f9054906101000a900473ffffffffffffffffffffffffffffffffffffffff1673ffffffffffffffffffffffffffffffffffffffff16637935510b836040518263ffffffff1660e01b815260040161198a91906124ff565b6020604051808303815f875af19250505080156119c557506040513d601f19601f820116820180604052508101906119c29190612971565b60015b6119d0575050611a00565b80876119dc919061310b565b96508481106119ed57505050611a13565b80856119f99190612ccc565b9450505b50505b8080611a0b906131cc565b915050611854565b50505b5f8211611a58576040517f08c379a0000000000000000000000000000000000000000000000000000000008152600401611a4f90613283565b60405180910390fd5b5f612710606484611a699190612c2e565b611a739190612c9c565b90505f8184611a829190612ccc565b9050600260019054906101000a900473ffffffffffffffffffffffffffffffffffffffff1673ffffffffffffffffffffffffffffffffffffffff16639dc29fac338a6040518363ffffffff1660e01b8152600401611ae1929190612a14565b5f604051808303815f87803b158015611af8575f5ffd5b505af1158015611b0a573d5f5f3e3d5ffd5b505050505f82118015611b6a57505f73ffffffffffffffffffffffffffffffffffffffff1660055f9054906101000a900473ffffffffffffffffffffffffffffffffffffffff1673ffffffffffffffffffffffffffffffffffffffff1614155b15611c2d577f000000000000000000000000000000000000000000000000000000000000000073ffffffffffffffffffffffffffffffffffffffff1663a9059cbb60055f9054906101000a900473ffffffffffffffffffffffffffffffffffffffff16846040518363ffffffff1660e01b8152600401611beb929190612a14565b6020604051808303815f875af1158015611c07573d5f5f3e3d5ffd5b505050506040513d601f19601f82011682018060405250810190611c2b9190612d29565b505b7f000000000000000000000000000000000000000000000000000000000000000073ffffffffffffffffffffffffffffffffffffffff1663a9059cbb33836040518363ffffffff1660e01b8152600401611c88929190612a14565b6020604051808303815f875af1158015611ca4573d5f5f3e3d5ffd5b505050506040513d601f19601f82011682018060405250810190611cc89190612d29565b503373ffffffffffffffffffffffffffffffffffffffff167ff3a670cd3af7d64b488926880889d08a8585a138ff455227af6737339a1ec2628983604051611d11929190612d54565b60405180910390a250505050505050611d28612374565b50565b5f5f90505f8284611d3c919061310b565b9050600480549050811115611d86576040517f08c379a0000000000000000000000000000000000000000000000000000000008152600401611d7d906132eb565b60405180910390fd5b5f8490505b81811015611fb5575f60048281548110611da857611da76130de565b5b905f5260205f20015490505f73ffffffffffffffffffffffffffffffffffffffff1660065f8381526020019081526020015f205f9054906101000a900473ffffffffffffffffffffffffffffffffffffffff1673ffffffffffffffffffffffffffffffffffffffff1603611e51576040517f08c379a0000000000000000000000000000000000000000000000000000000008152600401611e4890613353565b60405180910390fd5b5f60035f9054906101000a900473ffffffffffffffffffffffffffffffffffffffff1673ffffffffffffffffffffffffffffffffffffffff1663d1d58b25836040518263ffffffff1660e01b8152600401611eac91906124ff565b602060405180830381865afa158015611ec7573d5f5f3e3d5ffd5b505050506040513d601f19601f82011682018060405250810190611eeb9190612971565b90505f811115611fa55760035f9054906101000a900473ffffffffffffffffffffffffffffffffffffffff1673ffffffffffffffffffffffffffffffffffffffff16637935510b836040518263ffffffff1660e01b8152600401611f4f91906124ff565b6020604051808303815f875af1925050508015611f8a57506040513d601f19601f82011682018060405250810190611f879190612971565b60015b611f95575050611fa8565b8086611fa1919061310b565b9550505b50505b8080600101915050611d8b565b505f8203611fc457505061217d565b5f612710600584611fd59190612c2e565b611fdf9190612c9c565b90505f811180156120875750807f000000000000000000000000000000000000000000000000000000000000000073ffffffffffffffffffffffffffffffffffffffff166370a08231306040518263ffffffff1660e01b815260040161204591906127cb565b602060405180830381865afa158015612060573d5f5f3e3d5ffd5b505050506040513d601f19601f820116820180604052508101906120849190612971565b10155b15612129577f000000000000000000000000000000000000000000000000000000000000000073ffffffffffffffffffffffffffffffffffffffff1663a9059cbb33836040518363ffffffff1660e01b81526004016120e7929190612a14565b6020604051808303815f875af1158015612103573d5f5f3e3d5ffd5b505050506040513d601f19601f820116820180604052508101906121279190612d29565b505b3373ffffffffffffffffffffffffffffffffffffffff167f6c4474f5353aa538dd7698fa19be2149fc1d9fee5ab8a6af3de07ca84b7f28c78483604051612171929190612d54565b60405180910390a25050505b5050565b612189612205565b5f73ffffffffffffffffffffffffffffffffffffffff168173ffffffffffffffffffffffffffffffffffffffff16036121f9575f6040517f1e4fbdf70000000000000000000000000000000000000000000000000000000081526004016121f091906127cb565b60405180910390fd5b6122028161237d565b50565b61220d6124a0565b73ffffffffffffffffffffffffffffffffffffffff1661222b610c2c565b73ffffffffffffffffffffffffffffffffffffffff161461228a5761224e6124a0565b6040517f118cdaa700000000000000000000000000000000000000000000000000000000815260040161228191906127cb565b60405180910390fd5b565b6122946124a7565b5f60025f6101000a81548160ff0219169083151502179055507f5db9ee0a495bf2e6ff9c91a7834c1ba4fdd244a5e8aa4e537bd38aeae4b073aa6122d66124a0565b6040516122e391906127cb565b60405180910390a1565b600260015403612329576040517f3ee5aeb500000000000000000000000000000000000000000000000000000000815260040160405180910390fd5b6002600181905550565b61233b610bcd565b15612372576040517fd93c066500000000000000000000000000000000000000000000000000000000815260040160405180910390fd5b565b60018081905550565b5f5f5f9054906101000a900473ffffffffffffffffffffffffffffffffffffffff169050815f5f6101000a81548173ffffffffffffffffffffffffffffffffffffffff021916908373ffffffffffffffffffffffffffffffffffffffff1602179055508173ffffffffffffffffffffffffffffffffffffffff168173ffffffffffffffffffffffffffffffffffffffff167f8be0079c531659141344cd1fd0a4f28419497f9722a3daafe3b4186f6b6457e060405160405180910390a35050565b612446612333565b600160025f6101000a81548160ff0219169083151502179055507f62e78cea01bee320cd4e420270b5ea74000d11b0c9f74754ebdbfc544b05a2586124896124a0565b60405161249691906127cb565b60405180910390a1565b5f33905090565b6124af610bcd565b6124e5576040517f8dfc202b00000000000000000000000000000000000000000000000000000000815260040160405180910390fd5b565b5f819050919050565b6124f9816124e7565b82525050565b5f6020820190506125125f8301846124f0565b92915050565b5f604051905090565b5f5ffd5b5f5ffd5b5f73ffffffffffffffffffffffffffffffffffffffff82169050919050565b5f61255282612529565b9050919050565b61256281612548565b811461256c575f5ffd5b50565b5f8135905061257d81612559565b92915050565b61258c816124e7565b8114612596575f5ffd5b50565b5f813590506125a781612583565b92915050565b5f5ffd5b5f5ffd5b5f601f19601f8301169050919050565b7f4e487b71000000000000000000000000000000000000000000000000000000005f52604160045260245ffd5b6125fb826125b5565b810181811067ffffffffffffffff8211171561261a576126196125c5565b5b80604052505050565b5f61262c612518565b905061263882826125f2565b919050565b5f67ffffffffffffffff821115612657576126566125c5565b5b612660826125b5565b9050602081019050919050565b828183375f83830152505050565b5f61268d6126888461263d565b612623565b9050828152602081018484840111156126a9576126a86125b1565b5b6126b484828561266d565b509392505050565b5f82601f8301126126d0576126cf6125ad565b5b81356126e084826020860161267b565b91505092915050565b5f5f5f5f6080858703121561270157612700612521565b5b5f61270e8782880161256f565b945050602061271f8782880161256f565b935050604061273087828801612599565b925050606085013567ffffffffffffffff81111561275157612750612525565b5b61275d878288016126bc565b91505092959194509250565b5f7fffffffff0000000000000000000000000000000000000000000000000000000082169050919050565b61279d81612769565b82525050565b5f6020820190506127b65f830184612794565b92915050565b6127c581612548565b82525050565b5f6020820190506127de5f8301846127bc565b92915050565b5f602082840312156127f9576127f8612521565b5b5f61280684828501612599565b91505092915050565b5f5f6040838503121561282557612824612521565b5b5f6128328582860161256f565b925050602061284385828601612599565b9150509250929050565b5f8115159050919050565b6128618161284d565b82525050565b5f60208201905061287a5f830184612858565b92915050565b5f6020828403121561289557612894612521565b5b5f6128a28482850161256f565b91505092915050565b5f819050919050565b5f6128ce6128c96128c484612529565b6128ab565b612529565b9050919050565b5f6128df826128b4565b9050919050565b5f6128f0826128d5565b9050919050565b612900816128e6565b82525050565b5f6020820190506129195f8301846128f7565b92915050565b5f5f6040838503121561293557612934612521565b5b5f61294285828601612599565b925050602061295385828601612599565b9150509250929050565b5f8151905061296b81612583565b92915050565b5f6020828403121561298657612985612521565b5b5f6129938482850161295d565b91505092915050565b5f82825260208201905092915050565b7f4578636565647320656d657267656e6379206c696d69740000000000000000005f82015250565b5f6129e060178361299c565b91506129eb826129ac565b602082019050919050565b5f6020820190508181035f830152612a0d816129d4565b9050919050565b5f604082019050612a275f8301856127bc565b612a3460208301846124f0565b9392505050565b7f43616e6e6f742072656465656d203000000000000000000000000000000000005f82015250565b5f612a6f600f8361299c565b9150612a7a82612a3b565b602082019050919050565b5f6020820190508181035f830152612a9c81612a63565b9050919050565b7f496e73756666696369656e742076532062616c616e63650000000000000000005f82015250565b5f612ad760178361299c565b9150612ae282612aa3565b602082019050919050565b5f6020820190508181035f830152612b0481612acb565b9050919050565b7f4e6f20765320746f6b656e7320696e2063697263756c6174696f6e00000000005f82015250565b5f612b3f601b8361299c565b9150612b4a82612b0b565b602082019050919050565b5f6020820190508181035f830152612b6c81612b33565b9050919050565b7f4e6f20746f6b656e7320617661696c61626c65202d2074727920636c61696d695f8201527f6e67206669727374000000000000000000000000000000000000000000000000602082015250565b5f612bcd60288361299c565b9150612bd882612b73565b604082019050919050565b5f6020820190508181035f830152612bfa81612bc1565b9050919050565b7f4e487b71000000000000000000000000000000000000000000000000000000005f52601160045260245ffd5b5f612c38826124e7565b9150612c43836124e7565b9250828202612c51816124e7565b91508282048414831517612c6857612c67612c01565b5b5092915050565b7f4e487b71000000000000000000000000000000000000000000000000000000005f52601260045260245ffd5b5f612ca6826124e7565b9150612cb1836124e7565b925082612cc157612cc0612c6f565b5b828204905092915050565b5f612cd6826124e7565b9150612ce1836124e7565b9250828203905081811115612cf957612cf8612c01565b5b92915050565b612d088161284d565b8114612d12575f5ffd5b50565b5f81519050612d2381612cff565b92915050565b5f60208284031215612d3e57612d3d612521565b5b5f612d4b84828501612d15565b91505092915050565b5f604082019050612d675f8301856124f0565b612d7460208301846124f0565b9392505050565b7f4e465420636f6e747261637420616c72656164792073657400000000000000005f82015250565b5f612daf60188361299c565b9150612dba82612d7b565b602082019050919050565b5f6020820190508181035f830152612ddc81612da3565b9050919050565b7f4e465420636f6e74726163742063616e6e6f74206265207a65726f20616464725f8201527f6573730000000000000000000000000000000000000000000000000000000000602082015250565b5f612e3d60238361299c565b9150612e4882612de3565b604082019050919050565b5f6020820190508181035f830152612e6a81612e31565b9050919050565b7f4e465420636f6e7472616374206e6f74207365740000000000000000000000005f82015250565b5f612ea560148361299c565b9150612eb082612e71565b602082019050919050565b5f6020820190508181035f830152612ed281612e99565b9050919050565b7f4e465420616c7265616479206465706f736974656400000000000000000000005f82015250565b5f612f0d60158361299c565b9150612f1882612ed9565b602082019050919050565b5f6020820190508181035f830152612f3a81612f01565b9050919050565b5f81519050612f4f81612559565b92915050565b5f60208284031215612f6a57612f69612521565b5b5f612f7784828501612f41565b91505092915050565b7f4e6f74204e4654206f776e6572000000000000000000000000000000000000005f82015250565b5f612fb4600d8361299c565b9150612fbf82612f80565b602082019050919050565b5f6020820190508181035f830152612fe181612fa8565b9050919050565b7f4d7573742064656c656761746520636c61696d696e672072696768747320746f5f8201527f207661756c742066697273740000000000000000000000000000000000000000602082015250565b5f613042602c8361299c565b915061304d82612fe8565b604082019050919050565b5f6020820190508181035f83015261306f81613036565b9050919050565b7f4e465420686173206e6f2076616c7565000000000000000000000000000000005f82015250565b5f6130aa60108361299c565b91506130b582613076565b602082019050919050565b5f6020820190508181035f8301526130d78161309e565b9050919050565b7f4e487b71000000000000000000000000000000000000000000000000000000005f52603260045260245ffd5b5f613115826124e7565b9150613120836124e7565b925082820190508082111561313857613137612c01565b5b92915050565b7f4e6f2076616c756520617661696c61626c6520666f7220726564656d7074696f5f8201527f6e00000000000000000000000000000000000000000000000000000000000000602082015250565b5f61319860218361299c565b91506131a38261313e565b604082019050919050565b5f6020820190508181035f8301526131c58161318c565b9050919050565b5f6131d6826124e7565b91507fffffffffffffffffffffffffffffffffffffffffffffffffffffffffffffffff820361320857613207612c01565b5b600182019050919050565b7f4e6f20746f6b656e7320617661696c61626c6520666f7220726564656d7074695f8201527f6f6e000000000000000000000000000000000000000000000000000000000000602082015250565b5f61326d60228361299c565b915061327882613213565b604082019050919050565b5f6020820190508181035f83015261329a81613261565b9050919050565b7f496e646578206f7574206f6620626f756e6473000000000000000000000000005f82015250565b5f6132d560138361299c565b91506132e0826132a1565b602082019050919050565b5f6020820190508181035f830152613302816132c9565b9050919050565b7f4e4654206e6f74206465706f73697465640000000000000000000000000000005f82015250565b5f61333d60118361299c565b915061334882613309565b602082019050919050565b5f6020820190508181035f83015261336a81613331565b905091905056fea2646970667358221220b0f610aafb6a23cd9b49d130b4b740553b2266dd5e8d902371b11980b4c09a9d64736f6c634300081c0033","linkReferences":{}},"methodIdentifiers":{"KEEPER_INCENTIVE_BPS()":"bea43a22","PROTOCOL_FEE_BPS()":"be378228","claimVested(uint256,uint256)":"dfff7967","deposit(uint256)":"b6b55f25","depositedNFTs(uint256)":"5204472d","emergencyMint(address,uint256)":"43785dc9","heldNFTs(uint256)":"16d812f6","onERC721Received(address,address,uint256,bytes)":"150b7a02","owner()":"8da5cb5b","pause()":"8456cb59","paused()":"5c975abb","protocolTreasury()":"803db96d","redeem(uint256)":"db006a75","renounceOwnership()":"715018a6","setNFTContract(address)":"a7ccabdf","simpleRedeem(uint256)":"4f08da50","sonicNFT()":"15cfc88e","totalAssets()":"01e1d114","transferOwnership(address)":"f2fde38b","underlyingToken()":"2495a599","unpause()":"3f4ba83a","vS()":"aa30c4b7"},"id":40}