{"abi":[{"type":"constructor","inputs":[{"name":"_vsToken","type":"address","internalType":"address"},{"name":"_underlyingToken","type":"address","internalType":"address"},{"name":"_protocolTreasury","type":"address","internalType":"address"}],"stateMutability":"nonpayable"},{"type":"function","name":"KEEPER_INCENTIVE_BPS","inputs":[],"outputs":[{"name":"","type":"uint256","internalType":"uint256"}],"stateMutability":"view"},{"type":"function","name":"PROTOCOL_FEE_BPS","inputs":[],"outputs":[{"name":"","type":"uint256","internalType":"uint256"}],"stateMutability":"view"},{"type":"function","name":"batchDeposit","inputs":[{"name":"nftIds","type":"uint256[]","internalType":"uint256[]"}],"outputs":[],"stateMutability":"nonpayable"},{"type":"function","name":"claimVested","inputs":[{"name":"startIndex","type":"uint256","internalType":"uint256"},{"name":"count","type":"uint256","internalType":"uint256"}],"outputs":[],"stateMutability":"nonpayable"},{"type":"function","name":"demoDeposit","inputs":[{"name":"nftId","type":"uint256","internalType":"uint256"}],"outputs":[],"stateMutability":"nonpayable"},{"type":"function","name":"deposit","inputs":[{"name":"nftId","type":"uint256","internalType":"uint256"}],"outputs":[],"stateMutability":"nonpayable"},{"type":"function","name":"depositFraction","inputs":[{"name":"nftId","type":"uint256","internalType":"uint256"},{"name":"fraction","type":"uint8","internalType":"uint8"}],"outputs":[],"stateMutability":"nonpayable"},{"type":"function","name":"depositOptimized","inputs":[{"name":"nftId","type":"uint256","internalType":"uint256"}],"outputs":[],"stateMutability":"nonpayable"},{"type":"function","name":"depositedNFTs","inputs":[{"name":"","type":"uint256","internalType":"uint256"}],"outputs":[{"name":"","type":"address","internalType":"address"}],"stateMutability":"view"},{"type":"function","name":"emergencyMint","inputs":[{"name":"to","type":"address","internalType":"address"},{"name":"amount","type":"uint256","internalType":"uint256"}],"outputs":[],"stateMutability":"nonpayable"},{"type":"function","name":"heldNFTs","inputs":[{"name":"","type":"uint256","internalType":"uint256"}],"outputs":[{"name":"","type":"uint256","internalType":"uint256"}],"stateMutability":"view"},{"type":"function","name":"onERC721Received","inputs":[{"name":"","type":"address","internalType":"address"},{"name":"","type":"address","internalType":"address"},{"name":"","type":"uint256","internalType":"uint256"},{"name":"","type":"bytes","internalType":"bytes"}],"outputs":[{"name":"","type":"bytes4","internalType":"bytes4"}],"stateMutability":"nonpayable"},{"type":"function","name":"owner","inputs":[],"outputs":[{"name":"","type":"address","internalType":"address"}],"stateMutability":"view"},{"type":"function","name":"pause","inputs":[],"outputs":[],"stateMutability":"nonpayable"},{"type":"function","name":"paused","inputs":[],"outputs":[{"name":"","type":"bool","internalType":"bool"}],"stateMutability":"view"},{"type":"function","name":"protocolTreasury","inputs":[],"outputs":[{"name":"","type":"address","internalType":"address"}],"stateMutability":"view"},{"type":"function","name":"redeem","inputs":[{"name":"amount","type":"uint256","internalType":"uint256"}],"outputs":[],"stateMutability":"nonpayable"},{"type":"function","name":"renounceOwnership","inputs":[],"outputs":[],"stateMutability":"nonpayable"},{"type":"function","name":"setNFTContract","inputs":[{"name":"_sonicNFT","type":"address","internalType":"address"}],"outputs":[],"stateMutability":"nonpayable"},{"type":"function","name":"simpleRedeem","inputs":[{"name":"amount","type":"uint256","internalType":"uint256"}],"outputs":[],"stateMutability":"nonpayable"},{"type":"function","name":"sonicNFT","inputs":[],"outputs":[{"name":"","type":"address","internalType":"address"}],"stateMutability":"view"},{"type":"function","name":"totalAssets","inputs":[],"outputs":[{"name":"","type":"uint256","internalType":"uint256"}],"stateMutability":"view"},{"type":"function","name":"transferOwnership","inputs":[{"name":"newOwner","type":"address","internalType":"address"}],"outputs":[],"stateMutability":"nonpayable"},{"type":"function","name":"underlyingToken","inputs":[],"outputs":[{"name":"","type":"address","internalType":"address"}],"stateMutability":"view"},{"type":"function","name":"unpause","inputs":[],"outputs":[],"stateMutability":"nonpayable"},{"type":"function","name":"vS","inputs":[],"outputs":[{"name":"","type":"address","internalType":"contract VSToken"}],"stateMutability":"view"},{"type":"event","name":"NFTContractSet","inputs":[{"name":"nftContract","type":"address","indexed":true,"internalType":"address"}],"anonymous":false},{"type":"event","name":"NFTDeposited","inputs":[{"name":"user","type":"address","indexed":true,"internalType":"address"},{"name":"nftId","type":"uint256","indexed":true,"internalType":"uint256"},{"name":"amountMinted","type":"uint256","indexed":false,"internalType":"uint256"}],"anonymous":false},{"type":"event","name":"OwnershipTransferred","inputs":[{"name":"previousOwner","type":"address","indexed":true,"internalType":"address"},{"name":"newOwner","type":"address","indexed":true,"internalType":"address"}],"anonymous":false},{"type":"event","name":"Paused","inputs":[{"name":"account","type":"address","indexed":false,"internalType":"address"}],"anonymous":false},{"type":"event","name":"Redeemed","inputs":[{"name":"user","type":"address","indexed":true,"internalType":"address"},{"name":"vsAmount","type":"uint256","indexed":false,"internalType":"uint256"},{"name":"underlyingAmount","type":"uint256","indexed":false,"internalType":"uint256"}],"anonymous":false},{"type":"event","name":"Unpaused","inputs":[{"name":"account","type":"address","indexed":false,"internalType":"address"}],"anonymous":false},{"type":"event","name":"VestedTokensClaimed","inputs":[{"name":"caller","type":"address","indexed":true,"internalType":"address"},{"name":"totalAmount","type":"uint256","indexed":false,"internalType":"uint256"},{"name":"incentivePaid","type":"uint256","indexed":false,"internalType":"uint256"}],"anonymous":false},{"type":"error","name":"EnforcedPause","inputs":[]},{"type":"error","name":"ExpectedPause","inputs":[]},{"type":"error","name":"OwnableInvalidOwner","inputs":[{"name":"owner","type":"address","internalType":"address"}]},{"type":"error","name":"OwnableUnauthorizedAccount","inputs":[{"name":"account","type":"address","internalType":"address"}]},{"type":"error","name":"ReentrancyGuardReentrantCall","inputs":[]}],"bytecode":{"object":"0x60a060405234801561000f575f5ffd5b506040516150ac3803806150ac83398181016040528101906100319190610295565b335f73ffffffffffffffffffffffffffffffffffffffff168173ffffffffffffffffffffffffffffffffffffffff16036100a2575f6040517f1e4fbdf700000000000000000000000000000000000000000000000000000000815260040161009991906102f4565b60405180910390fd5b6100b18161017660201b60201c565b506001808190555082600260016101000a81548173ffffffffffffffffffffffffffffffffffffffff021916908373ffffffffffffffffffffffffffffffffffffffff1602179055508173ffffffffffffffffffffffffffffffffffffffff1660808173ffffffffffffffffffffffffffffffffffffffff16815250508060055f6101000a81548173ffffffffffffffffffffffffffffffffffffffff021916908373ffffffffffffffffffffffffffffffffffffffff16021790555050505061030d565b5f5f5f9054906101000a900473ffffffffffffffffffffffffffffffffffffffff169050815f5f6101000a81548173ffffffffffffffffffffffffffffffffffffffff021916908373ffffffffffffffffffffffffffffffffffffffff1602179055508173ffffffffffffffffffffffffffffffffffffffff168173ffffffffffffffffffffffffffffffffffffffff167f8be0079c531659141344cd1fd0a4f28419497f9722a3daafe3b4186f6b6457e060405160405180910390a35050565b5f5ffd5b5f73ffffffffffffffffffffffffffffffffffffffff82169050919050565b5f6102648261023b565b9050919050565b6102748161025a565b811461027e575f5ffd5b50565b5f8151905061028f8161026b565b92915050565b5f5f5f606084860312156102ac576102ab610237565b5b5f6102b986828701610281565b93505060206102ca86828701610281565b92505060406102db86828701610281565b9150509250925092565b6102ee8161025a565b82525050565b5f6020820190506103075f8301846102e5565b92915050565b608051614d4161036b5f395f818161048301528181610c7701528181610f93015281816111a00152818161125e01528181612c0a01528181612dec015281816131e7015281816132a50152818161366401526137040152614d415ff3fe608060405234801561000f575f5ffd5b506004361061018c575f3560e01c80637b886cbf116100dc578063b6b55f2511610095578063d072c42d1161006f578063d072c42d14610410578063db006a751461042c578063dfff796714610448578063f2fde38b146104645761018c565b8063b6b55f25146103b8578063be378228146103d4578063bea43a22146103f25761018c565b80637b886cbf1461031c578063803db96d146103385780638456cb59146103565780638da5cb5b14610360578063a7ccabdf1461037e578063aa30c4b71461039a5761018c565b80633f4ba83a116101495780635204472d116101235780635204472d146102a85780635750932d146102d85780635c975abb146102f4578063715018a6146103125761018c565b80633f4ba83a1461026657806343785dc9146102705780634f08da501461028c5761018c565b806301e1d11414610190578063150b7a02146101ae57806315cfc88e146101de57806316d812f6146101fc5780631e51d5691461022c5780632495a59914610248575b5f5ffd5b610198610480565b6040516101a59190613b75565b60405180910390f35b6101c860048036038101906101c39190613d5f565b61051e565b6040516101d59190613e19565b60405180910390f35b6101e6610531565b6040516101f39190613e41565b60405180910390f35b61021660048036038101906102119190613e5a565b610556565b6040516102239190613b75565b60405180910390f35b61024660048036038101906102419190613ee2565b610576565b005b610250610c75565b60405161025d9190613e41565b60405180910390f35b61026e610c99565b005b61028a60048036038101906102859190613f2d565b610cab565b005b6102a660048036038101906102a19190613e5a565b610d8e565b005b6102c260048036038101906102bd9190613e5a565b611358565b6040516102cf9190613e41565b60405180910390f35b6102f260048036038101906102ed9190613e5a565b611388565b005b6102fc6118c4565b6040516103099190613f85565b60405180910390f35b61031a6118d9565b005b61033660048036038101906103319190613e5a565b6118ec565b005b610340611ca8565b60405161034d9190613e41565b60405180910390f35b61035e611ccd565b005b610368611cdf565b6040516103759190613e41565b60405180910390f35b61039860048036038101906103939190613f9e565b611d06565b005b6103a2611e91565b6040516103af9190614024565b60405180910390f35b6103d260048036038101906103cd9190613e5a565b611eb7565b005b6103dc61243d565b6040516103e99190613b75565b60405180910390f35b6103fa612442565b6040516104079190613b75565b60405180910390f35b61042a60048036038101906104259190614073565b612447565b005b61044660048036038101906104419190613e5a565b612a05565b005b610462600480360381019061045d91906140b1565b6133a1565b005b61047e60048036038101906104799190613f9e565b6137f7565b005b5f7f000000000000000000000000000000000000000000000000000000000000000073ffffffffffffffffffffffffffffffffffffffff166370a08231306040518263ffffffff1660e01b81526004016104da9190613e41565b602060405180830381865afa1580156104f5573d5f5f3e3d5ffd5b505050506040513d601f19601f820116820180604052508101906105199190614103565b905090565b5f63150b7a0260e01b9050949350505050565b60035f9054906101000a900473ffffffffffffffffffffffffffffffffffffffff1681565b60048181548110610565575f80fd5b905f5260205f20015f915090505481565b61057e61387b565b6105866138c1565b5f73ffffffffffffffffffffffffffffffffffffffff1660035f9054906101000a900473ffffffffffffffffffffffffffffffffffffffff1673ffffffffffffffffffffffffffffffffffffffff1603610615576040517f08c379a000000000000000000000000000000000000000000000000000000000815260040161060c90614188565b60405180910390fd5b5f8282905011801561062b5750600a8282905011155b61066a576040517f08c379a0000000000000000000000000000000000000000000000000000000008152600401610661906141f0565b60405180910390fd5b5f5f90505f5f90505b83839050811015610a40575f8484838181106106925761069161420e565b5b9050602002013590505f73ffffffffffffffffffffffffffffffffffffffff1660065f8381526020019081526020015f205f9054906101000a900473ffffffffffffffffffffffffffffffffffffffff1673ffffffffffffffffffffffffffffffffffffffff1614610739576040517f08c379a000000000000000000000000000000000000000000000000000000000815260040161073090614285565b60405180910390fd5b3373ffffffffffffffffffffffffffffffffffffffff1660035f9054906101000a900473ffffffffffffffffffffffffffffffffffffffff1673ffffffffffffffffffffffffffffffffffffffff16636352211e836040518263ffffffff1660e01b81526004016107aa9190613b75565b602060405180830381865afa1580156107c5573d5f5f3e3d5ffd5b505050506040513d601f19601f820116820180604052508101906107e991906142b7565b73ffffffffffffffffffffffffffffffffffffffff161461083f576040517f08c379a00000000000000000000000000000000000000000000000000000000081526004016108369061432c565b60405180910390fd5b3073ffffffffffffffffffffffffffffffffffffffff1660035f9054906101000a900473ffffffffffffffffffffffffffffffffffffffff1673ffffffffffffffffffffffffffffffffffffffff1663c6b84b09836040518263ffffffff1660e01b81526004016108b09190613b75565b602060405180830381865afa1580156108cb573d5f5f3e3d5ffd5b505050506040513d601f19601f820116820180604052508101906108ef91906142b7565b73ffffffffffffffffffffffffffffffffffffffff1614610945576040517f08c379a000000000000000000000000000000000000000000000000000000000815260040161093c906143ba565b60405180910390fd5b5f60035f9054906101000a900473ffffffffffffffffffffffffffffffffffffffff1673ffffffffffffffffffffffffffffffffffffffff1663f0e40662836040518263ffffffff1660e01b81526004016109a09190613b75565b602060405180830381865afa1580156109bb573d5f5f3e3d5ffd5b505050506040513d601f19601f820116820180604052508101906109df9190614103565b90505f8111610a23576040517f08c379a0000000000000000000000000000000000000000000000000000000008152600401610a1a90614422565b60405180910390fd5b8084610a2f919061446d565b935050508080600101915050610673565b505f5f90505b83839050811015610bdd575f848483818110610a6557610a6461420e565b5b9050602002013590503360065f8381526020019081526020015f205f6101000a81548173ffffffffffffffffffffffffffffffffffffffff021916908373ffffffffffffffffffffffffffffffffffffffff160217905550600481908060018154018082558091505060019003905f5260205f20015f90919091909150555f60035f9054906101000a900473ffffffffffffffffffffffffffffffffffffffff1673ffffffffffffffffffffffffffffffffffffffff1663f0e40662836040518263ffffffff1660e01b8152600401610b3e9190613b75565b602060405180830381865afa158015610b59573d5f5f3e3d5ffd5b505050506040513d601f19601f82011682018060405250810190610b7d9190614103565b9050813373ffffffffffffffffffffffffffffffffffffffff167fdeba2d4291edd2e29ef127ea6e31f12ebb9adc96b42605081927d379bdcb8bed83604051610bc69190613b75565b60405180910390a350508080600101915050610a46565b50600260019054906101000a900473ffffffffffffffffffffffffffffffffffffffff1673ffffffffffffffffffffffffffffffffffffffff166340c10f1933836040518363ffffffff1660e01b8152600401610c3b9291906144a0565b5f604051808303815f87803b158015610c52575f5ffd5b505af1158015610c64573d5f5f3e3d5ffd5b5050505050610c71613902565b5050565b7f000000000000000000000000000000000000000000000000000000000000000081565b610ca161390b565b610ca9613992565b565b610cb361390b565b690a968163f0a57b400000811115610d00576040517f08c379a0000000000000000000000000000000000000000000000000000000008152600401610cf790614511565b60405180910390fd5b600260019054906101000a900473ffffffffffffffffffffffffffffffffffffffff1673ffffffffffffffffffffffffffffffffffffffff166340c10f1983836040518363ffffffff1660e01b8152600401610d5d9291906144a0565b5f604051808303815f87803b158015610d74575f5ffd5b505af1158015610d86573d5f5f3e3d5ffd5b505050505050565b610d9661387b565b610d9e6138c1565b5f8111610de0576040517f08c379a0000000000000000000000000000000000000000000000000000000008152600401610dd790614579565b60405180910390fd5b80600260019054906101000a900473ffffffffffffffffffffffffffffffffffffffff1673ffffffffffffffffffffffffffffffffffffffff166370a08231336040518263ffffffff1660e01b8152600401610e3c9190613e41565b602060405180830381865afa158015610e57573d5f5f3e3d5ffd5b505050506040513d601f19601f82011682018060405250810190610e7b9190614103565b1015610ebc576040517f08c379a0000000000000000000000000000000000000000000000000000000008152600401610eb3906145e1565b60405180910390fd5b5f600260019054906101000a900473ffffffffffffffffffffffffffffffffffffffff1673ffffffffffffffffffffffffffffffffffffffff166318160ddd6040518163ffffffff1660e01b8152600401602060405180830381865afa158015610f28573d5f5f3e3d5ffd5b505050506040513d601f19601f82011682018060405250810190610f4c9190614103565b90505f8111610f90576040517f08c379a0000000000000000000000000000000000000000000000000000000008152600401610f8790614649565b60405180910390fd5b5f7f000000000000000000000000000000000000000000000000000000000000000073ffffffffffffffffffffffffffffffffffffffff166370a08231306040518263ffffffff1660e01b8152600401610fea9190613e41565b602060405180830381865afa158015611005573d5f5f3e3d5ffd5b505050506040513d601f19601f820116820180604052508101906110299190614103565b90505f811161106d576040517f08c379a0000000000000000000000000000000000000000000000000000000008152600401611064906146d7565b60405180910390fd5b5f82828561107b91906146f5565b6110859190614763565b90505f61271060648361109891906146f5565b6110a29190614763565b90505f81836110b19190614793565b9050600260019054906101000a900473ffffffffffffffffffffffffffffffffffffffff1673ffffffffffffffffffffffffffffffffffffffff16639dc29fac33886040518363ffffffff1660e01b81526004016111109291906144a0565b5f604051808303815f87803b158015611127575f5ffd5b505af1158015611139573d5f5f3e3d5ffd5b505050505f8211801561119957505f73ffffffffffffffffffffffffffffffffffffffff1660055f9054906101000a900473ffffffffffffffffffffffffffffffffffffffff1673ffffffffffffffffffffffffffffffffffffffff1614155b1561125c577f000000000000000000000000000000000000000000000000000000000000000073ffffffffffffffffffffffffffffffffffffffff1663a9059cbb60055f9054906101000a900473ffffffffffffffffffffffffffffffffffffffff16846040518363ffffffff1660e01b815260040161121a9291906144a0565b6020604051808303815f875af1158015611236573d5f5f3e3d5ffd5b505050506040513d601f19601f8201168201806040525081019061125a91906147f0565b505b7f000000000000000000000000000000000000000000000000000000000000000073ffffffffffffffffffffffffffffffffffffffff1663a9059cbb33836040518363ffffffff1660e01b81526004016112b79291906144a0565b6020604051808303815f875af11580156112d3573d5f5f3e3d5ffd5b505050506040513d601f19601f820116820180604052508101906112f791906147f0565b503373ffffffffffffffffffffffffffffffffffffffff167ff3a670cd3af7d64b488926880889d08a8585a138ff455227af6737339a1ec262878360405161134092919061481b565b60405180910390a25050505050611355613902565b50565b6006602052805f5260405f205f915054906101000a900473ffffffffffffffffffffffffffffffffffffffff1681565b61139061387b565b6113986138c1565b5f73ffffffffffffffffffffffffffffffffffffffff1660035f9054906101000a900473ffffffffffffffffffffffffffffffffffffffff1673ffffffffffffffffffffffffffffffffffffffff1603611427576040517f08c379a000000000000000000000000000000000000000000000000000000000815260040161141e90614188565b60405180910390fd5b5f73ffffffffffffffffffffffffffffffffffffffff1660065f8381526020019081526020015f205f9054906101000a900473ffffffffffffffffffffffffffffffffffffffff1673ffffffffffffffffffffffffffffffffffffffff16146114c5576040517f08c379a00000000000000000000000000000000000000000000000000000000081526004016114bc90614285565b60405180910390fd5b3373ffffffffffffffffffffffffffffffffffffffff1660035f9054906101000a900473ffffffffffffffffffffffffffffffffffffffff1673ffffffffffffffffffffffffffffffffffffffff16636352211e836040518263ffffffff1660e01b81526004016115369190613b75565b602060405180830381865afa158015611551573d5f5f3e3d5ffd5b505050506040513d601f19601f8201168201806040525081019061157591906142b7565b73ffffffffffffffffffffffffffffffffffffffff16146115cb576040517f08c379a00000000000000000000000000000000000000000000000000000000081526004016115c29061432c565b60405180910390fd5b3073ffffffffffffffffffffffffffffffffffffffff1660035f9054906101000a900473ffffffffffffffffffffffffffffffffffffffff1673ffffffffffffffffffffffffffffffffffffffff1663c6b84b09836040518263ffffffff1660e01b815260040161163c9190613b75565b602060405180830381865afa158015611657573d5f5f3e3d5ffd5b505050506040513d601f19601f8201168201806040525081019061167b91906142b7565b73ffffffffffffffffffffffffffffffffffffffff16146116d1576040517f08c379a00000000000000000000000000000000000000000000000000000000081526004016116c8906143ba565b60405180910390fd5b5f60035f9054906101000a900473ffffffffffffffffffffffffffffffffffffffff1673ffffffffffffffffffffffffffffffffffffffff1663f0e40662836040518263ffffffff1660e01b815260040161172c9190613b75565b602060405180830381865afa158015611747573d5f5f3e3d5ffd5b505050506040513d601f19601f8201168201806040525081019061176b9190614103565b90505f81116117af576040517f08c379a00000000000000000000000000000000000000000000000000000000081526004016117a690614422565b60405180910390fd5b60405f83012033815550600482908060018154018082558091505060019003905f5260205f20015f9091909190915055600260019054906101000a900473ffffffffffffffffffffffffffffffffffffffff1673ffffffffffffffffffffffffffffffffffffffff166340c10f1933836040518363ffffffff1660e01b815260040161183c9291906144a0565b5f604051808303815f87803b158015611853575f5ffd5b505af1158015611865573d5f5f3e3d5ffd5b50505050813373ffffffffffffffffffffffffffffffffffffffff167fdeba2d4291edd2e29ef127ea6e31f12ebb9adc96b42605081927d379bdcb8bed836040516118b09190613b75565b60405180910390a3506118c1613902565b50565b5f60025f9054906101000a900460ff16905090565b6118e161390b565b6118ea5f6139f3565b565b5f339050815f52600660205260405f20805415611907575f5ffd5b818155505f60035f9054906101000a900473ffffffffffffffffffffffffffffffffffffffff1673ffffffffffffffffffffffffffffffffffffffff1663f0e40662846040518263ffffffff1660e01b81526004016119669190613b75565b602060405180830381865afa158015611981573d5f5f3e3d5ffd5b505050506040513d601f19601f820116820180604052508101906119a59190614103565b90505f811180156119bf5750683635c9adc5dea000008111155b6119fe576040517f08c379a00000000000000000000000000000000000000000000000000000000081526004016119f59061488c565b60405180910390fd5b8173ffffffffffffffffffffffffffffffffffffffff1660035f9054906101000a900473ffffffffffffffffffffffffffffffffffffffff1673ffffffffffffffffffffffffffffffffffffffff16636352211e856040518263ffffffff1660e01b8152600401611a6f9190613b75565b602060405180830381865afa158015611a8a573d5f5f3e3d5ffd5b505050506040513d601f19601f82011682018060405250810190611aae91906142b7565b73ffffffffffffffffffffffffffffffffffffffff1614611b04576040517f08c379a0000000000000000000000000000000000000000000000000000000008152600401611afb906148f4565b60405180910390fd5b600483908060018154018082558091505060019003905f5260205f20015f9091909190915055683635c9adc5dea000008111611bc957600260019054906101000a900473ffffffffffffffffffffffffffffffffffffffff1673ffffffffffffffffffffffffffffffffffffffff16638b12a26283836040518363ffffffff1660e01b8152600401611b979291906144a0565b5f604051808303815f87803b158015611bae575f5ffd5b505af1158015611bc0573d5f5f3e3d5ffd5b50505050611c54565b600260019054906101000a900473ffffffffffffffffffffffffffffffffffffffff1673ffffffffffffffffffffffffffffffffffffffff166340c10f1983836040518363ffffffff1660e01b8152600401611c269291906144a0565b5f604051808303815f87803b158015611c3d575f5ffd5b505af1158015611c4f573d5f5f3e3d5ffd5b505050505b828273ffffffffffffffffffffffffffffffffffffffff167fdeba2d4291edd2e29ef127ea6e31f12ebb9adc96b42605081927d379bdcb8bed83604051611c9b9190613b75565b60405180910390a3505050565b60055f9054906101000a900473ffffffffffffffffffffffffffffffffffffffff1681565b611cd561390b565b611cdd613ab4565b565b5f5f5f9054906101000a900473ffffffffffffffffffffffffffffffffffffffff16905090565b611d0e61390b565b5f73ffffffffffffffffffffffffffffffffffffffff1660035f9054906101000a900473ffffffffffffffffffffffffffffffffffffffff1673ffffffffffffffffffffffffffffffffffffffff1614611d9d576040517f08c379a0000000000000000000000000000000000000000000000000000000008152600401611d949061495c565b60405180910390fd5b5f73ffffffffffffffffffffffffffffffffffffffff168173ffffffffffffffffffffffffffffffffffffffff1603611e0b576040517f08c379a0000000000000000000000000000000000000000000000000000000008152600401611e02906149ea565b60405180910390fd5b8060035f6101000a81548173ffffffffffffffffffffffffffffffffffffffff021916908373ffffffffffffffffffffffffffffffffffffffff1602179055508073ffffffffffffffffffffffffffffffffffffffff167f5a6a54be6929433a25d1b5103e7dea8d9440b7903216e380344a320ca1cdd85f60405160405180910390a250565b600260019054906101000a900473ffffffffffffffffffffffffffffffffffffffff1681565b611ebf61387b565b611ec76138c1565b5f73ffffffffffffffffffffffffffffffffffffffff1660035f9054906101000a900473ffffffffffffffffffffffffffffffffffffffff1673ffffffffffffffffffffffffffffffffffffffff1603611f56576040517f08c379a0000000000000000000000000000000000000000000000000000000008152600401611f4d90614188565b60405180910390fd5b5f73ffffffffffffffffffffffffffffffffffffffff1660065f8381526020019081526020015f205f9054906101000a900473ffffffffffffffffffffffffffffffffffffffff1673ffffffffffffffffffffffffffffffffffffffff1614611ff4576040517f08c379a0000000000000000000000000000000000000000000000000000000008152600401611feb90614285565b60405180910390fd5b5f3390508073ffffffffffffffffffffffffffffffffffffffff1660035f9054906101000a900473ffffffffffffffffffffffffffffffffffffffff1673ffffffffffffffffffffffffffffffffffffffff16636352211e846040518263ffffffff1660e01b81526004016120699190613b75565b602060405180830381865afa158015612084573d5f5f3e3d5ffd5b505050506040513d601f19601f820116820180604052508101906120a891906142b7565b73ffffffffffffffffffffffffffffffffffffffff16146120fe576040517f08c379a00000000000000000000000000000000000000000000000000000000081526004016120f59061432c565b60405180910390fd5b3073ffffffffffffffffffffffffffffffffffffffff1660035f9054906101000a900473ffffffffffffffffffffffffffffffffffffffff1673ffffffffffffffffffffffffffffffffffffffff1663c6b84b09846040518263ffffffff1660e01b815260040161216f9190613b75565b602060405180830381865afa15801561218a573d5f5f3e3d5ffd5b505050506040513d601f19601f820116820180604052508101906121ae91906142b7565b73ffffffffffffffffffffffffffffffffffffffff1614612204576040517f08c379a00000000000000000000000000000000000000000000000000000000081526004016121fb906143ba565b60405180910390fd5b5f60035f9054906101000a900473ffffffffffffffffffffffffffffffffffffffff1673ffffffffffffffffffffffffffffffffffffffff1663f0e40662846040518263ffffffff1660e01b815260040161225f9190613b75565b602060405180830381865afa15801561227a573d5f5f3e3d5ffd5b505050506040513d601f19601f8201168201806040525081019061229e9190614103565b90505f81116122e2576040517f08c379a00000000000000000000000000000000000000000000000000000000081526004016122d990614422565b60405180910390fd5b8160065f8581526020019081526020015f205f6101000a81548173ffffffffffffffffffffffffffffffffffffffff021916908373ffffffffffffffffffffffffffffffffffffffff160217905550600483908060018154018082558091505060019003905f5260205f20015f9091909190915055600260019054906101000a900473ffffffffffffffffffffffffffffffffffffffff1673ffffffffffffffffffffffffffffffffffffffff166340c10f1983836040518363ffffffff1660e01b81526004016123b49291906144a0565b5f604051808303815f87803b1580156123cb575f5ffd5b505af11580156123dd573d5f5f3e3d5ffd5b50505050828273ffffffffffffffffffffffffffffffffffffffff167fdeba2d4291edd2e29ef127ea6e31f12ebb9adc96b42605081927d379bdcb8bed836040516124289190613b75565b60405180910390a3505061243a613902565b50565b606481565b600581565b61244f61387b565b6124576138c1565b5f73ffffffffffffffffffffffffffffffffffffffff1660035f9054906101000a900473ffffffffffffffffffffffffffffffffffffffff1673ffffffffffffffffffffffffffffffffffffffff16036124e6576040517f08c379a00000000000000000000000000000000000000000000000000000000081526004016124dd90614188565b60405180910390fd5b60018160ff16101580156124fe575060648160ff1611155b61253d576040517f08c379a000000000000000000000000000000000000000000000000000000000815260040161253490614a52565b60405180910390fd5b3373ffffffffffffffffffffffffffffffffffffffff1660035f9054906101000a900473ffffffffffffffffffffffffffffffffffffffff1673ffffffffffffffffffffffffffffffffffffffff16636352211e846040518263ffffffff1660e01b81526004016125ae9190613b75565b602060405180830381865afa1580156125c9573d5f5f3e3d5ffd5b505050506040513d601f19601f820116820180604052508101906125ed91906142b7565b73ffffffffffffffffffffffffffffffffffffffff1614612643576040517f08c379a000000000000000000000000000000000000000000000000000000000815260040161263a9061432c565b60405180910390fd5b3073ffffffffffffffffffffffffffffffffffffffff1660035f9054906101000a900473ffffffffffffffffffffffffffffffffffffffff1673ffffffffffffffffffffffffffffffffffffffff1663c6b84b09846040518263ffffffff1660e01b81526004016126b49190613b75565b602060405180830381865afa1580156126cf573d5f5f3e3d5ffd5b505050506040513d601f19601f820116820180604052508101906126f391906142b7565b73ffffffffffffffffffffffffffffffffffffffff1614612749576040517f08c379a0000000000000000000000000000000000000000000000000000000008152600401612740906143ba565b60405180910390fd5b5f60035f9054906101000a900473ffffffffffffffffffffffffffffffffffffffff1673ffffffffffffffffffffffffffffffffffffffff1663f0e40662846040518263ffffffff1660e01b81526004016127a49190613b75565b602060405180830381865afa1580156127bf573d5f5f3e3d5ffd5b505050506040513d601f19601f820116820180604052508101906127e39190614103565b90505f60648360ff16836127f791906146f5565b6128019190614763565b90505f8111612845576040517f08c379a000000000000000000000000000000000000000000000000000000000815260040161283c90614aba565b60405180910390fd5b5f73ffffffffffffffffffffffffffffffffffffffff1660065f8681526020019081526020015f205f9054906101000a900473ffffffffffffffffffffffffffffffffffffffff1673ffffffffffffffffffffffffffffffffffffffff160361291e573360065f8681526020019081526020015f205f6101000a81548173ffffffffffffffffffffffffffffffffffffffff021916908373ffffffffffffffffffffffffffffffffffffffff160217905550600484908060018154018082558091505060019003905f5260205f20015f90919091909150555b600260019054906101000a900473ffffffffffffffffffffffffffffffffffffffff1673ffffffffffffffffffffffffffffffffffffffff166340c10f1933836040518363ffffffff1660e01b815260040161297b9291906144a0565b5f604051808303815f87803b158015612992575f5ffd5b505af11580156129a4573d5f5f3e3d5ffd5b50505050833373ffffffffffffffffffffffffffffffffffffffff167fdeba2d4291edd2e29ef127ea6e31f12ebb9adc96b42605081927d379bdcb8bed836040516129ef9190613b75565b60405180910390a35050612a01613902565b5050565b612a0d61387b565b612a156138c1565b5f8111612a57576040517f08c379a0000000000000000000000000000000000000000000000000000000008152600401612a4e90614579565b60405180910390fd5b80600260019054906101000a900473ffffffffffffffffffffffffffffffffffffffff1673ffffffffffffffffffffffffffffffffffffffff166370a08231336040518263ffffffff1660e01b8152600401612ab39190613e41565b602060405180830381865afa158015612ace573d5f5f3e3d5ffd5b505050506040513d601f19601f82011682018060405250810190612af29190614103565b1015612b33576040517f08c379a0000000000000000000000000000000000000000000000000000000008152600401612b2a906145e1565b60405180910390fd5b5f600260019054906101000a900473ffffffffffffffffffffffffffffffffffffffff1673ffffffffffffffffffffffffffffffffffffffff166318160ddd6040518163ffffffff1660e01b8152600401602060405180830381865afa158015612b9f573d5f5f3e3d5ffd5b505050506040513d601f19601f82011682018060405250810190612bc39190614103565b90505f8111612c07576040517f08c379a0000000000000000000000000000000000000000000000000000000008152600401612bfe90614649565b60405180910390fd5b5f7f000000000000000000000000000000000000000000000000000000000000000073ffffffffffffffffffffffffffffffffffffffff166370a08231306040518263ffffffff1660e01b8152600401612c619190613e41565b602060405180830381865afa158015612c7c573d5f5f3e3d5ffd5b505050506040513d601f19601f82011682018060405250810190612ca09190614103565b90505f5f90505b600480549050811015612d88575f60048281548110612cc957612cc861420e565b5b905f5260205f200154905060035f9054906101000a900473ffffffffffffffffffffffffffffffffffffffff1673ffffffffffffffffffffffffffffffffffffffff1663d1d58b25826040518263ffffffff1660e01b8152600401612d2e9190613b75565b602060405180830381865afa158015612d49573d5f5f3e3d5ffd5b505050506040513d601f19601f82011682018060405250810190612d6d9190614103565b83612d78919061446d565b9250508080600101915050612ca7565b505f8111612dcb576040517f08c379a0000000000000000000000000000000000000000000000000000000008152600401612dc290614b48565b60405180910390fd5b5f828285612dd991906146f5565b612de39190614763565b90505f5f90505f7f000000000000000000000000000000000000000000000000000000000000000073ffffffffffffffffffffffffffffffffffffffff166370a08231306040518263ffffffff1660e01b8152600401612e439190613e41565b602060405180830381865afa158015612e5e573d5f5f3e3d5ffd5b505050506040513d601f19601f82011682018060405250810190612e829190614103565b90505f811115612eae575f838210612e9a5783612e9c565b815b90508083612eaa919061446d565b9250505b8282101561308c575f8284612ec39190614793565b90505f5f90505b60048054905081108015612edd57505f82115b15613089575f60048281548110612ef757612ef661420e565b5b905f5260205f20015490505f60035f9054906101000a900473ffffffffffffffffffffffffffffffffffffffff1673ffffffffffffffffffffffffffffffffffffffff1663d1d58b25836040518263ffffffff1660e01b8152600401612f5d9190613b75565b602060405180830381865afa158015612f78573d5f5f3e3d5ffd5b505050506040513d601f19601f82011682018060405250810190612f9c9190614103565b90505f8111156130735760035f9054906101000a900473ffffffffffffffffffffffffffffffffffffffff1673ffffffffffffffffffffffffffffffffffffffff16637935510b836040518263ffffffff1660e01b81526004016130009190613b75565b6020604051808303815f875af192505050801561303b57506040513d601f19601f820116820180604052508101906130389190614103565b60015b613046575050613076565b8087613052919061446d565b965084811061306357505050613089565b808561306f9190614793565b9450505b50505b808061308190614b66565b915050612eca565b50505b5f82116130ce576040517f08c379a00000000000000000000000000000000000000000000000000000000081526004016130c590614c1d565b60405180910390fd5b5f6127106064846130df91906146f5565b6130e99190614763565b90505f81846130f89190614793565b9050600260019054906101000a900473ffffffffffffffffffffffffffffffffffffffff1673ffffffffffffffffffffffffffffffffffffffff16639dc29fac338a6040518363ffffffff1660e01b81526004016131579291906144a0565b5f604051808303815f87803b15801561316e575f5ffd5b505af1158015613180573d5f5f3e3d5ffd5b505050505f821180156131e057505f73ffffffffffffffffffffffffffffffffffffffff1660055f9054906101000a900473ffffffffffffffffffffffffffffffffffffffff1673ffffffffffffffffffffffffffffffffffffffff1614155b156132a3577f000000000000000000000000000000000000000000000000000000000000000073ffffffffffffffffffffffffffffffffffffffff1663a9059cbb60055f9054906101000a900473ffffffffffffffffffffffffffffffffffffffff16846040518363ffffffff1660e01b81526004016132619291906144a0565b6020604051808303815f875af115801561327d573d5f5f3e3d5ffd5b505050506040513d601f19601f820116820180604052508101906132a191906147f0565b505b7f000000000000000000000000000000000000000000000000000000000000000073ffffffffffffffffffffffffffffffffffffffff1663a9059cbb33836040518363ffffffff1660e01b81526004016132fe9291906144a0565b6020604051808303815f875af115801561331a573d5f5f3e3d5ffd5b505050506040513d601f19601f8201168201806040525081019061333e91906147f0565b503373ffffffffffffffffffffffffffffffffffffffff167ff3a670cd3af7d64b488926880889d08a8585a138ff455227af6737339a1ec262898360405161338792919061481b565b60405180910390a25050505050505061339e613902565b50565b5f5f90505f82846133b2919061446d565b90506004805490508111156133fc576040517f08c379a00000000000000000000000000000000000000000000000000000000081526004016133f390614c85565b60405180910390fd5b5f8490505b8181101561362b575f6004828154811061341e5761341d61420e565b5b905f5260205f20015490505f73ffffffffffffffffffffffffffffffffffffffff1660065f8381526020019081526020015f205f9054906101000a900473ffffffffffffffffffffffffffffffffffffffff1673ffffffffffffffffffffffffffffffffffffffff16036134c7576040517f08c379a00000000000000000000000000000000000000000000000000000000081526004016134be90614ced565b60405180910390fd5b5f60035f9054906101000a900473ffffffffffffffffffffffffffffffffffffffff1673ffffffffffffffffffffffffffffffffffffffff1663d1d58b25836040518263ffffffff1660e01b81526004016135229190613b75565b602060405180830381865afa15801561353d573d5f5f3e3d5ffd5b505050506040513d601f19601f820116820180604052508101906135619190614103565b90505f81111561361b5760035f9054906101000a900473ffffffffffffffffffffffffffffffffffffffff1673ffffffffffffffffffffffffffffffffffffffff16637935510b836040518263ffffffff1660e01b81526004016135c59190613b75565b6020604051808303815f875af192505050801561360057506040513d601f19601f820116820180604052508101906135fd9190614103565b60015b61360b57505061361e565b8086613617919061446d565b9550505b50505b8080600101915050613401565b505f820361363a5750506137f3565b5f61271060058461364b91906146f5565b6136559190614763565b90505f811180156136fd5750807f000000000000000000000000000000000000000000000000000000000000000073ffffffffffffffffffffffffffffffffffffffff166370a08231306040518263ffffffff1660e01b81526004016136bb9190613e41565b602060405180830381865afa1580156136d6573d5f5f3e3d5ffd5b505050506040513d601f19601f820116820180604052508101906136fa9190614103565b10155b1561379f577f000000000000000000000000000000000000000000000000000000000000000073ffffffffffffffffffffffffffffffffffffffff1663a9059cbb33836040518363ffffffff1660e01b815260040161375d9291906144a0565b6020604051808303815f875af1158015613779573d5f5f3e3d5ffd5b505050506040513d601f19601f8201168201806040525081019061379d91906147f0565b505b3373ffffffffffffffffffffffffffffffffffffffff167f6c4474f5353aa538dd7698fa19be2149fc1d9fee5ab8a6af3de07ca84b7f28c784836040516137e792919061481b565b60405180910390a25050505b5050565b6137ff61390b565b5f73ffffffffffffffffffffffffffffffffffffffff168173ffffffffffffffffffffffffffffffffffffffff160361386f575f6040517f1e4fbdf70000000000000000000000000000000000000000000000000000000081526004016138669190613e41565b60405180910390fd5b613878816139f3565b50565b6002600154036138b7576040517f3ee5aeb500000000000000000000000000000000000000000000000000000000815260040160405180910390fd5b6002600181905550565b6138c96118c4565b15613900576040517fd93c066500000000000000000000000000000000000000000000000000000000815260040160405180910390fd5b565b60018081905550565b613913613b16565b73ffffffffffffffffffffffffffffffffffffffff16613931611cdf565b73ffffffffffffffffffffffffffffffffffffffff161461399057613954613b16565b6040517f118cdaa70000000000000000000000000000000000000000000000000000000081526004016139879190613e41565b60405180910390fd5b565b61399a613b1d565b5f60025f6101000a81548160ff0219169083151502179055507f5db9ee0a495bf2e6ff9c91a7834c1ba4fdd244a5e8aa4e537bd38aeae4b073aa6139dc613b16565b6040516139e99190613e41565b60405180910390a1565b5f5f5f9054906101000a900473ffffffffffffffffffffffffffffffffffffffff169050815f5f6101000a81548173ffffffffffffffffffffffffffffffffffffffff021916908373ffffffffffffffffffffffffffffffffffffffff1602179055508173ffffffffffffffffffffffffffffffffffffffff168173ffffffffffffffffffffffffffffffffffffffff167f8be0079c531659141344cd1fd0a4f28419497f9722a3daafe3b4186f6b6457e060405160405180910390a35050565b613abc6138c1565b600160025f6101000a81548160ff0219169083151502179055507f62e78cea01bee320cd4e420270b5ea74000d11b0c9f74754ebdbfc544b05a258613aff613b16565b604051613b0c9190613e41565b60405180910390a1565b5f33905090565b613b256118c4565b613b5b576040517f8dfc202b00000000000000000000000000000000000000000000000000000000815260040160405180910390fd5b565b5f819050919050565b613b6f81613b5d565b82525050565b5f602082019050613b885f830184613b66565b92915050565b5f604051905090565b5f5ffd5b5f5ffd5b5f73ffffffffffffffffffffffffffffffffffffffff82169050919050565b5f613bc882613b9f565b9050919050565b613bd881613bbe565b8114613be2575f5ffd5b50565b5f81359050613bf381613bcf565b92915050565b613c0281613b5d565b8114613c0c575f5ffd5b50565b5f81359050613c1d81613bf9565b92915050565b5f5ffd5b5f5ffd5b5f601f19601f8301169050919050565b7f4e487b71000000000000000000000000000000000000000000000000000000005f52604160045260245ffd5b613c7182613c2b565b810181811067ffffffffffffffff82111715613c9057613c8f613c3b565b5b80604052505050565b5f613ca2613b8e565b9050613cae8282613c68565b919050565b5f67ffffffffffffffff821115613ccd57613ccc613c3b565b5b613cd682613c2b565b9050602081019050919050565b828183375f83830152505050565b5f613d03613cfe84613cb3565b613c99565b905082815260208101848484011115613d1f57613d1e613c27565b5b613d2a848285613ce3565b509392505050565b5f82601f830112613d4657613d45613c23565b5b8135613d56848260208601613cf1565b91505092915050565b5f5f5f5f60808587031215613d7757613d76613b97565b5b5f613d8487828801613be5565b9450506020613d9587828801613be5565b9350506040613da687828801613c0f565b925050606085013567ffffffffffffffff811115613dc757613dc6613b9b565b5b613dd387828801613d32565b91505092959194509250565b5f7fffffffff0000000000000000000000000000000000000000000000000000000082169050919050565b613e1381613ddf565b82525050565b5f602082019050613e2c5f830184613e0a565b92915050565b613e3b81613bbe565b82525050565b5f602082019050613e545f830184613e32565b92915050565b5f60208284031215613e6f57613e6e613b97565b5b5f613e7c84828501613c0f565b91505092915050565b5f5ffd5b5f5ffd5b5f5f83601f840112613ea257613ea1613c23565b5b8235905067ffffffffffffffff811115613ebf57613ebe613e85565b5b602083019150836020820283011115613edb57613eda613e89565b5b9250929050565b5f5f60208385031215613ef857613ef7613b97565b5b5f83013567ffffffffffffffff811115613f1557613f14613b9b565b5b613f2185828601613e8d565b92509250509250929050565b5f5f60408385031215613f4357613f42613b97565b5b5f613f5085828601613be5565b9250506020613f6185828601613c0f565b9150509250929050565b5f8115159050919050565b613f7f81613f6b565b82525050565b5f602082019050613f985f830184613f76565b92915050565b5f60208284031215613fb357613fb2613b97565b5b5f613fc084828501613be5565b91505092915050565b5f819050919050565b5f613fec613fe7613fe284613b9f565b613fc9565b613b9f565b9050919050565b5f613ffd82613fd2565b9050919050565b5f61400e82613ff3565b9050919050565b61401e81614004565b82525050565b5f6020820190506140375f830184614015565b92915050565b5f60ff82169050919050565b6140528161403d565b811461405c575f5ffd5b50565b5f8135905061406d81614049565b92915050565b5f5f6040838503121561408957614088613b97565b5b5f61409685828601613c0f565b92505060206140a78582860161405f565b9150509250929050565b5f5f604083850312156140c7576140c6613b97565b5b5f6140d485828601613c0f565b92505060206140e585828601613c0f565b9150509250929050565b5f815190506140fd81613bf9565b92915050565b5f6020828403121561411857614117613b97565b5b5f614125848285016140ef565b91505092915050565b5f82825260208201905092915050565b7f4e465420636f6e7472616374206e6f74207365740000000000000000000000005f82015250565b5f61417260148361412e565b915061417d8261413e565b602082019050919050565b5f6020820190508181035f83015261419f81614166565b9050919050565b7f496e76616c69642062617463682073697a6500000000000000000000000000005f82015250565b5f6141da60128361412e565b91506141e5826141a6565b602082019050919050565b5f6020820190508181035f830152614207816141ce565b9050919050565b7f4e487b71000000000000000000000000000000000000000000000000000000005f52603260045260245ffd5b7f4e465420616c7265616479206465706f736974656400000000000000000000005f82015250565b5f61426f60158361412e565b915061427a8261423b565b602082019050919050565b5f6020820190508181035f83015261429c81614263565b9050919050565b5f815190506142b181613bcf565b92915050565b5f602082840312156142cc576142cb613b97565b5b5f6142d9848285016142a3565b91505092915050565b7f4e6f74204e4654206f776e6572000000000000000000000000000000000000005f82015250565b5f614316600d8361412e565b9150614321826142e2565b602082019050919050565b5f6020820190508181035f8301526143438161430a565b9050919050565b7f4d7573742064656c656761746520636c61696d696e672072696768747320746f5f8201527f207661756c742066697273740000000000000000000000000000000000000000602082015250565b5f6143a4602c8361412e565b91506143af8261434a565b604082019050919050565b5f6020820190508181035f8301526143d181614398565b9050919050565b7f4e465420686173206e6f2076616c7565000000000000000000000000000000005f82015250565b5f61440c60108361412e565b9150614417826143d8565b602082019050919050565b5f6020820190508181035f83015261443981614400565b9050919050565b7f4e487b71000000000000000000000000000000000000000000000000000000005f52601160045260245ffd5b5f61447782613b5d565b915061448283613b5d565b925082820190508082111561449a57614499614440565b5b92915050565b5f6040820190506144b35f830185613e32565b6144c06020830184613b66565b9392505050565b7f4578636565647320656d657267656e6379206c696d69740000000000000000005f82015250565b5f6144fb60178361412e565b9150614506826144c7565b602082019050919050565b5f6020820190508181035f830152614528816144ef565b9050919050565b7f43616e6e6f742072656465656d203000000000000000000000000000000000005f82015250565b5f614563600f8361412e565b915061456e8261452f565b602082019050919050565b5f6020820190508181035f83015261459081614557565b9050919050565b7f496e73756666696369656e742076532062616c616e63650000000000000000005f82015250565b5f6145cb60178361412e565b91506145d682614597565b602082019050919050565b5f6020820190508181035f8301526145f8816145bf565b9050919050565b7f4e6f20765320746f6b656e7320696e2063697263756c6174696f6e00000000005f82015250565b5f614633601b8361412e565b915061463e826145ff565b602082019050919050565b5f6020820190508181035f83015261466081614627565b9050919050565b7f4e6f20746f6b656e7320617661696c61626c65202d2074727920636c61696d695f8201527f6e67206669727374000000000000000000000000000000000000000000000000602082015250565b5f6146c160288361412e565b91506146cc82614667565b604082019050919050565b5f6020820190508181035f8301526146ee816146b5565b9050919050565b5f6146ff82613b5d565b915061470a83613b5d565b925082820261471881613b5d565b9150828204841483151761472f5761472e614440565b5b5092915050565b7f4e487b71000000000000000000000000000000000000000000000000000000005f52601260045260245ffd5b5f61476d82613b5d565b915061477883613b5d565b92508261478857614787614736565b5b828204905092915050565b5f61479d82613b5d565b91506147a883613b5d565b92508282039050818111156147c0576147bf614440565b5b92915050565b6147cf81613f6b565b81146147d9575f5ffd5b50565b5f815190506147ea816147c6565b92915050565b5f6020828403121561480557614804613b97565b5b5f614812848285016147dc565b91505092915050565b5f60408201905061482e5f830185613b66565b61483b6020830184613b66565b9392505050565b7f496e76616c69642064656d6f2076616c756500000000000000000000000000005f82015250565b5f61487660128361412e565b915061488182614842565b602082019050919050565b5f6020820190508181035f8301526148a38161486a565b9050919050565b7f4e6f74206f776e657200000000000000000000000000000000000000000000005f82015250565b5f6148de60098361412e565b91506148e9826148aa565b602082019050919050565b5f6020820190508181035f83015261490b816148d2565b9050919050565b7f4e465420636f6e747261637420616c72656164792073657400000000000000005f82015250565b5f61494660188361412e565b915061495182614912565b602082019050919050565b5f6020820190508181035f8301526149738161493a565b9050919050565b7f4e465420636f6e74726163742063616e6e6f74206265207a65726f20616464725f8201527f6573730000000000000000000000000000000000000000000000000000000000602082015250565b5f6149d460238361412e565b91506149df8261497a565b604082019050919050565b5f6020820190508181035f830152614a01816149c8565b9050919050565b7f496e76616c6964206672616374696f6e000000000000000000000000000000005f82015250565b5f614a3c60108361412e565b9150614a4782614a08565b602082019050919050565b5f6020820190508181035f830152614a6981614a30565b9050919050565b7f4672616374696f6e616c2076616c756520746f6f20736d616c6c0000000000005f82015250565b5f614aa4601a8361412e565b9150614aaf82614a70565b602082019050919050565b5f6020820190508181035f830152614ad181614a98565b9050919050565b7f4e6f2076616c756520617661696c61626c6520666f7220726564656d7074696f5f8201527f6e00000000000000000000000000000000000000000000000000000000000000602082015250565b5f614b3260218361412e565b9150614b3d82614ad8565b604082019050919050565b5f6020820190508181035f830152614b5f81614b26565b9050919050565b5f614b7082613b5d565b91507fffffffffffffffffffffffffffffffffffffffffffffffffffffffffffffffff8203614ba257614ba1614440565b5b600182019050919050565b7f4e6f20746f6b656e7320617661696c61626c6520666f7220726564656d7074695f8201527f6f6e000000000000000000000000000000000000000000000000000000000000602082015250565b5f614c0760228361412e565b9150614c1282614bad565b604082019050919050565b5f6020820190508181035f830152614c3481614bfb565b9050919050565b7f496e646578206f7574206f6620626f756e6473000000000000000000000000005f82015250565b5f614c6f60138361412e565b9150614c7a82614c3b565b602082019050919050565b5f6020820190508181035f830152614c9c81614c63565b9050919050565b7f4e4654206e6f74206465706f73697465640000000000000000000000000000005f82015250565b5f614cd760118361412e565b9150614ce282614ca3565b602082019050919050565b5f6020820190508181035f830152614d0481614ccb565b905091905056fea264697066735822122094b701744a85d51e356cc0c7ffe5ed90c446ff4700772db66e902cb3f571c37c64736f6c634300081c0033","linkReferences":{}},"methodIdentifiers":{"KEEPER_INCENTIVE_BPS()":"bea43a22","PROTOCOL_FEE_BPS()":"be378228","batchDeposit(uint256[])":"1e51d569","claimVested(uint256,uint256)":"dfff7967","demoDeposit(uint256)":"7b886cbf","deposit(uint256)":"b6b55f25","depositFraction(uint256,uint8)":"d072c42d","depositOptimized(uint256)":"5750932d","depositedNFTs(uint256)":"5204472d","emergencyMint(address,uint256)":"43785dc9","heldNFTs(uint256)":"16d812f6","onERC721Received(address,address,uint256,bytes)":"150b7a02","owner()":"8da5cb5b","pause()":"8456cb59","paused()":"5c975abb","protocolTreasury()":"803db96d","redeem(uint256)":"db006a75","renounceOwnership()":"715018a6","setNFTContract(address)":"a7ccabdf","simpleRedeem(uint256)":"4f08da50","sonicNFT()":"15cfc88e","totalAssets()":"01e1d114","transferOwnership(address)":"f2fde38b","underlyingToken()":"2495a599","unpause()":"3f4ba83a","vS()":"aa30c4b7"},"id":41}