{"abi":[{"type":"constructor","inputs":[{"name":"_vsToken","type":"address","internalType":"address"},{"name":"_underlyingToken","type":"address","internalType":"address"},{"name":"_protocolTreasury","type":"address","internalType":"address"}],"stateMutability":"nonpayable"},{"type":"function","name":"KEEPER_INCENTIVE_BPS","inputs":[],"outputs":[{"name":"","type":"uint256","internalType":"uint256"}],"stateMutability":"view"},{"type":"function","name":"PROTOCOL_FEE_BPS","inputs":[],"outputs":[{"name":"","type":"uint256","internalType":"uint256"}],"stateMutability":"view"},{"type":"function","name":"batchDeposit","inputs":[{"name":"nftIds","type":"uint256[]","internalType":"uint256[]"}],"outputs":[],"stateMutability":"nonpayable"},{"type":"function","name":"claimVested","inputs":[{"name":"startIndex","type":"uint256","internalType":"uint256"},{"name":"count","type":"uint256","internalType":"uint256"}],"outputs":[],"stateMutability":"nonpayable"},{"type":"function","name":"demoDeposit","inputs":[{"name":"nftId","type":"uint256","internalType":"uint256"}],"outputs":[],"stateMutability":"nonpayable"},{"type":"function","name":"deposit","inputs":[{"name":"nftId","type":"uint256","internalType":"uint256"}],"outputs":[],"stateMutability":"nonpayable"},{"type":"function","name":"depositOptimized","inputs":[{"name":"nftId","type":"uint256","internalType":"uint256"}],"outputs":[],"stateMutability":"nonpayable"},{"type":"function","name":"depositedNFTs","inputs":[{"name":"","type":"uint256","internalType":"uint256"}],"outputs":[{"name":"","type":"address","internalType":"address"}],"stateMutability":"view"},{"type":"function","name":"emergencyMint","inputs":[{"name":"to","type":"address","internalType":"address"},{"name":"amount","type":"uint256","internalType":"uint256"}],"outputs":[],"stateMutability":"nonpayable"},{"type":"function","name":"heldNFTs","inputs":[{"name":"","type":"uint256","internalType":"uint256"}],"outputs":[{"name":"","type":"uint256","internalType":"uint256"}],"stateMutability":"view"},{"type":"function","name":"onERC721Received","inputs":[{"name":"","type":"address","internalType":"address"},{"name":"","type":"address","internalType":"address"},{"name":"","type":"uint256","internalType":"uint256"},{"name":"","type":"bytes","internalType":"bytes"}],"outputs":[{"name":"","type":"bytes4","internalType":"bytes4"}],"stateMutability":"nonpayable"},{"type":"function","name":"owner","inputs":[],"outputs":[{"name":"","type":"address","internalType":"address"}],"stateMutability":"view"},{"type":"function","name":"pause","inputs":[],"outputs":[],"stateMutability":"nonpayable"},{"type":"function","name":"paused","inputs":[],"outputs":[{"name":"","type":"bool","internalType":"bool"}],"stateMutability":"view"},{"type":"function","name":"protocolTreasury","inputs":[],"outputs":[{"name":"","type":"address","internalType":"address"}],"stateMutability":"view"},{"type":"function","name":"redeem","inputs":[{"name":"amount","type":"uint256","internalType":"uint256"}],"outputs":[],"stateMutability":"nonpayable"},{"type":"function","name":"renounceOwnership","inputs":[],"outputs":[],"stateMutability":"nonpayable"},{"type":"function","name":"setNFTContract","inputs":[{"name":"_sonicNFT","type":"address","internalType":"address"}],"outputs":[],"stateMutability":"nonpayable"},{"type":"function","name":"simpleRedeem","inputs":[{"name":"amount","type":"uint256","internalType":"uint256"}],"outputs":[],"stateMutability":"nonpayable"},{"type":"function","name":"sonicNFT","inputs":[],"outputs":[{"name":"","type":"address","internalType":"address"}],"stateMutability":"view"},{"type":"function","name":"totalAssets","inputs":[],"outputs":[{"name":"","type":"uint256","internalType":"uint256"}],"stateMutability":"view"},{"type":"function","name":"transferOwnership","inputs":[{"name":"newOwner","type":"address","internalType":"address"}],"outputs":[],"stateMutability":"nonpayable"},{"type":"function","name":"underlyingToken","inputs":[],"outputs":[{"name":"","type":"address","internalType":"address"}],"stateMutability":"view"},{"type":"function","name":"unpause","inputs":[],"outputs":[],"stateMutability":"nonpayable"},{"type":"function","name":"vS","inputs":[],"outputs":[{"name":"","type":"address","internalType":"contract VSToken"}],"stateMutability":"view"},{"type":"event","name":"NFTContractSet","inputs":[{"name":"nftContract","type":"address","indexed":true,"internalType":"address"}],"anonymous":false},{"type":"event","name":"NFTDeposited","inputs":[{"name":"user","type":"address","indexed":true,"internalType":"address"},{"name":"nftId","type":"uint256","indexed":true,"internalType":"uint256"},{"name":"amountMinted","type":"uint256","indexed":false,"internalType":"uint256"}],"anonymous":false},{"type":"event","name":"OwnershipTransferred","inputs":[{"name":"previousOwner","type":"address","indexed":true,"internalType":"address"},{"name":"newOwner","type":"address","indexed":true,"internalType":"address"}],"anonymous":false},{"type":"event","name":"Paused","inputs":[{"name":"account","type":"address","indexed":false,"internalType":"address"}],"anonymous":false},{"type":"event","name":"Redeemed","inputs":[{"name":"user","type":"address","indexed":true,"internalType":"address"},{"name":"vsAmount","type":"uint256","indexed":false,"internalType":"uint256"},{"name":"underlyingAmount","type":"uint256","indexed":false,"internalType":"uint256"}],"anonymous":false},{"type":"event","name":"Unpaused","inputs":[{"name":"account","type":"address","indexed":false,"internalType":"address"}],"anonymous":false},{"type":"event","name":"VestedTokensClaimed","inputs":[{"name":"caller","type":"address","indexed":true,"internalType":"address"},{"name":"totalAmount","type":"uint256","indexed":false,"internalType":"uint256"},{"name":"incentivePaid","type":"uint256","indexed":false,"internalType":"uint256"}],"anonymous":false},{"type":"error","name":"EnforcedPause","inputs":[]},{"type":"error","name":"ExpectedPause","inputs":[]},{"type":"error","name":"OwnableInvalidOwner","inputs":[{"name":"owner","type":"address","internalType":"address"}]},{"type":"error","name":"OwnableUnauthorizedAccount","inputs":[{"name":"account","type":"address","internalType":"address"}]},{"type":"error","name":"ReentrancyGuardReentrantCall","inputs":[]}],"bytecode":{"object":"0x60a060405234801561000f575f5ffd5b5060405161497338038061497383398181016040528101906100319190610295565b335f73ffffffffffffffffffffffffffffffffffffffff168173ffffffffffffffffffffffffffffffffffffffff16036100a2575f6040517f1e4fbdf700000000000000000000000000000000000000000000000000000000815260040161009991906102f4565b60405180910390fd5b6100b18161017660201b60201c565b506001808190555082600260016101000a81548173ffffffffffffffffffffffffffffffffffffffff021916908373ffffffffffffffffffffffffffffffffffffffff1602179055508173ffffffffffffffffffffffffffffffffffffffff1660808173ffffffffffffffffffffffffffffffffffffffff16815250508060055f6101000a81548173ffffffffffffffffffffffffffffffffffffffff021916908373ffffffffffffffffffffffffffffffffffffffff16021790555050505061030d565b5f5f5f9054906101000a900473ffffffffffffffffffffffffffffffffffffffff169050815f5f6101000a81548173ffffffffffffffffffffffffffffffffffffffff021916908373ffffffffffffffffffffffffffffffffffffffff1602179055508173ffffffffffffffffffffffffffffffffffffffff168173ffffffffffffffffffffffffffffffffffffffff167f8be0079c531659141344cd1fd0a4f28419497f9722a3daafe3b4186f6b6457e060405160405180910390a35050565b5f5ffd5b5f73ffffffffffffffffffffffffffffffffffffffff82169050919050565b5f6102648261023b565b9050919050565b6102748161025a565b811461027e575f5ffd5b50565b5f8151905061028f8161026b565b92915050565b5f5f5f606084860312156102ac576102ab610237565b5b5f6102b986828701610281565b93505060206102ca86828701610281565b92505060406102db86828701610281565b9150509250925092565b6102ee8161025a565b82525050565b5f6020820190506103075f8301846102e5565b92915050565b60805161460861036b5f395f818161044c01528181610c4001528181610f5c015281816111690152818161122701528181612615015281816127f701528181612bf201528181612cb00152818161306f015261310f01526146085ff3fe608060405234801561000f575f5ffd5b5060043610610171575f3560e01c8063715018a6116100dc578063aa30c4b711610095578063bea43a221161006f578063bea43a22146103d7578063db006a75146103f5578063dfff796714610411578063f2fde38b1461042d57610171565b8063aa30c4b71461037f578063b6b55f251461039d578063be378228146103b957610171565b8063715018a6146102f75780637b886cbf14610301578063803db96d1461031d5780638456cb591461033b5780638da5cb5b14610345578063a7ccabdf1461036357610171565b80633f4ba83a1161012e5780633f4ba83a1461024b57806343785dc9146102555780634f08da50146102715780635204472d1461028d5780635750932d146102bd5780635c975abb146102d957610171565b806301e1d11414610175578063150b7a021461019357806315cfc88e146101c357806316d812f6146101e15780631e51d569146102115780632495a5991461022d575b5f5ffd5b61017d610449565b60405161018a9190613580565b60405180910390f35b6101ad60048036038101906101a8919061376a565b6104e7565b6040516101ba9190613824565b60405180910390f35b6101cb6104fa565b6040516101d8919061384c565b60405180910390f35b6101fb60048036038101906101f69190613865565b61051f565b6040516102089190613580565b60405180910390f35b61022b600480360381019061022691906138ed565b61053f565b005b610235610c3e565b604051610242919061384c565b60405180910390f35b610253610c62565b005b61026f600480360381019061026a9190613938565b610c74565b005b61028b60048036038101906102869190613865565b610d57565b005b6102a760048036038101906102a29190613865565b611321565b6040516102b4919061384c565b60405180910390f35b6102d760048036038101906102d29190613865565b611351565b005b6102e161188d565b6040516102ee9190613990565b60405180910390f35b6102ff6118a2565b005b61031b60048036038101906103169190613865565b6118b5565b005b610325611c71565b604051610332919061384c565b60405180910390f35b610343611c96565b005b61034d611ca8565b60405161035a919061384c565b60405180910390f35b61037d600480360381019061037891906139a9565b611ccf565b005b610387611e5a565b6040516103949190613a2f565b60405180910390f35b6103b760048036038101906103b29190613865565b611e80565b005b6103c1612406565b6040516103ce9190613580565b60405180910390f35b6103df61240b565b6040516103ec9190613580565b60405180910390f35b61040f600480360381019061040a9190613865565b612410565b005b61042b60048036038101906104269190613a48565b612dac565b005b610447600480360381019061044291906139a9565b613202565b005b5f7f000000000000000000000000000000000000000000000000000000000000000073ffffffffffffffffffffffffffffffffffffffff166370a08231306040518263ffffffff1660e01b81526004016104a3919061384c565b602060405180830381865afa1580156104be573d5f5f3e3d5ffd5b505050506040513d601f19601f820116820180604052508101906104e29190613a9a565b905090565b5f63150b7a0260e01b9050949350505050565b60035f9054906101000a900473ffffffffffffffffffffffffffffffffffffffff1681565b6004818154811061052e575f80fd5b905f5260205f20015f915090505481565b610547613286565b61054f6132cc565b5f73ffffffffffffffffffffffffffffffffffffffff1660035f9054906101000a900473ffffffffffffffffffffffffffffffffffffffff1673ffffffffffffffffffffffffffffffffffffffff16036105de576040517f08c379a00000000000000000000000000000000000000000000000000000000081526004016105d590613b1f565b60405180910390fd5b5f828290501180156105f45750600a8282905011155b610633576040517f08c379a000000000000000000000000000000000000000000000000000000000815260040161062a90613b87565b60405180910390fd5b5f5f90505f5f90505b83839050811015610a09575f84848381811061065b5761065a613ba5565b5b9050602002013590505f73ffffffffffffffffffffffffffffffffffffffff1660065f8381526020019081526020015f205f9054906101000a900473ffffffffffffffffffffffffffffffffffffffff1673ffffffffffffffffffffffffffffffffffffffff1614610702576040517f08c379a00000000000000000000000000000000000000000000000000000000081526004016106f990613c1c565b60405180910390fd5b3373ffffffffffffffffffffffffffffffffffffffff1660035f9054906101000a900473ffffffffffffffffffffffffffffffffffffffff1673ffffffffffffffffffffffffffffffffffffffff16636352211e836040518263ffffffff1660e01b81526004016107739190613580565b602060405180830381865afa15801561078e573d5f5f3e3d5ffd5b505050506040513d601f19601f820116820180604052508101906107b29190613c4e565b73ffffffffffffffffffffffffffffffffffffffff1614610808576040517f08c379a00000000000000000000000000000000000000000000000000000000081526004016107ff90613cc3565b60405180910390fd5b3073ffffffffffffffffffffffffffffffffffffffff1660035f9054906101000a900473ffffffffffffffffffffffffffffffffffffffff1673ffffffffffffffffffffffffffffffffffffffff1663c6b84b09836040518263ffffffff1660e01b81526004016108799190613580565b602060405180830381865afa158015610894573d5f5f3e3d5ffd5b505050506040513d601f19601f820116820180604052508101906108b89190613c4e565b73ffffffffffffffffffffffffffffffffffffffff161461090e576040517f08c379a000000000000000000000000000000000000000000000000000000000815260040161090590613d51565b60405180910390fd5b5f60035f9054906101000a900473ffffffffffffffffffffffffffffffffffffffff1673ffffffffffffffffffffffffffffffffffffffff1663f0e40662836040518263ffffffff1660e01b81526004016109699190613580565b602060405180830381865afa158015610984573d5f5f3e3d5ffd5b505050506040513d601f19601f820116820180604052508101906109a89190613a9a565b90505f81116109ec576040517f08c379a00000000000000000000000000000000000000000000000000000000081526004016109e390613db9565b60405180910390fd5b80846109f89190613e04565b93505050808060010191505061063c565b505f5f90505b83839050811015610ba6575f848483818110610a2e57610a2d613ba5565b5b9050602002013590503360065f8381526020019081526020015f205f6101000a81548173ffffffffffffffffffffffffffffffffffffffff021916908373ffffffffffffffffffffffffffffffffffffffff160217905550600481908060018154018082558091505060019003905f5260205f20015f90919091909150555f60035f9054906101000a900473ffffffffffffffffffffffffffffffffffffffff1673ffffffffffffffffffffffffffffffffffffffff1663f0e40662836040518263ffffffff1660e01b8152600401610b079190613580565b602060405180830381865afa158015610b22573d5f5f3e3d5ffd5b505050506040513d601f19601f82011682018060405250810190610b469190613a9a565b9050813373ffffffffffffffffffffffffffffffffffffffff167fdeba2d4291edd2e29ef127ea6e31f12ebb9adc96b42605081927d379bdcb8bed83604051610b8f9190613580565b60405180910390a350508080600101915050610a0f565b50600260019054906101000a900473ffffffffffffffffffffffffffffffffffffffff1673ffffffffffffffffffffffffffffffffffffffff166340c10f1933836040518363ffffffff1660e01b8152600401610c04929190613e37565b5f604051808303815f87803b158015610c1b575f5ffd5b505af1158015610c2d573d5f5f3e3d5ffd5b5050505050610c3a61330d565b5050565b7f000000000000000000000000000000000000000000000000000000000000000081565b610c6a613316565b610c7261339d565b565b610c7c613316565b690a968163f0a57b400000811115610cc9576040517f08c379a0000000000000000000000000000000000000000000000000000000008152600401610cc090613ea8565b60405180910390fd5b600260019054906101000a900473ffffffffffffffffffffffffffffffffffffffff1673ffffffffffffffffffffffffffffffffffffffff166340c10f1983836040518363ffffffff1660e01b8152600401610d26929190613e37565b5f604051808303815f87803b158015610d3d575f5ffd5b505af1158015610d4f573d5f5f3e3d5ffd5b505050505050565b610d5f613286565b610d676132cc565b5f8111610da9576040517f08c379a0000000000000000000000000000000000000000000000000000000008152600401610da090613f10565b60405180910390fd5b80600260019054906101000a900473ffffffffffffffffffffffffffffffffffffffff1673ffffffffffffffffffffffffffffffffffffffff166370a08231336040518263ffffffff1660e01b8152600401610e05919061384c565b602060405180830381865afa158015610e20573d5f5f3e3d5ffd5b505050506040513d601f19601f82011682018060405250810190610e449190613a9a565b1015610e85576040517f08c379a0000000000000000000000000000000000000000000000000000000008152600401610e7c90613f78565b60405180910390fd5b5f600260019054906101000a900473ffffffffffffffffffffffffffffffffffffffff1673ffffffffffffffffffffffffffffffffffffffff166318160ddd6040518163ffffffff1660e01b8152600401602060405180830381865afa158015610ef1573d5f5f3e3d5ffd5b505050506040513d601f19601f82011682018060405250810190610f159190613a9a565b90505f8111610f59576040517f08c379a0000000000000000000000000000000000000000000000000000000008152600401610f5090613fe0565b60405180910390fd5b5f7f000000000000000000000000000000000000000000000000000000000000000073ffffffffffffffffffffffffffffffffffffffff166370a08231306040518263ffffffff1660e01b8152600401610fb3919061384c565b602060405180830381865afa158015610fce573d5f5f3e3d5ffd5b505050506040513d601f19601f82011682018060405250810190610ff29190613a9a565b90505f8111611036576040517f08c379a000000000000000000000000000000000000000000000000000000000815260040161102d9061406e565b60405180910390fd5b5f828285611044919061408c565b61104e91906140fa565b90505f612710606483611061919061408c565b61106b91906140fa565b90505f818361107a919061412a565b9050600260019054906101000a900473ffffffffffffffffffffffffffffffffffffffff1673ffffffffffffffffffffffffffffffffffffffff16639dc29fac33886040518363ffffffff1660e01b81526004016110d9929190613e37565b5f604051808303815f87803b1580156110f0575f5ffd5b505af1158015611102573d5f5f3e3d5ffd5b505050505f8211801561116257505f73ffffffffffffffffffffffffffffffffffffffff1660055f9054906101000a900473ffffffffffffffffffffffffffffffffffffffff1673ffffffffffffffffffffffffffffffffffffffff1614155b15611225577f000000000000000000000000000000000000000000000000000000000000000073ffffffffffffffffffffffffffffffffffffffff1663a9059cbb60055f9054906101000a900473ffffffffffffffffffffffffffffffffffffffff16846040518363ffffffff1660e01b81526004016111e3929190613e37565b6020604051808303815f875af11580156111ff573d5f5f3e3d5ffd5b505050506040513d601f19601f820116820180604052508101906112239190614187565b505b7f000000000000000000000000000000000000000000000000000000000000000073ffffffffffffffffffffffffffffffffffffffff1663a9059cbb33836040518363ffffffff1660e01b8152600401611280929190613e37565b6020604051808303815f875af115801561129c573d5f5f3e3d5ffd5b505050506040513d601f19601f820116820180604052508101906112c09190614187565b503373ffffffffffffffffffffffffffffffffffffffff167ff3a670cd3af7d64b488926880889d08a8585a138ff455227af6737339a1ec26287836040516113099291906141b2565b60405180910390a2505050505061131e61330d565b50565b6006602052805f5260405f205f915054906101000a900473ffffffffffffffffffffffffffffffffffffffff1681565b611359613286565b6113616132cc565b5f73ffffffffffffffffffffffffffffffffffffffff1660035f9054906101000a900473ffffffffffffffffffffffffffffffffffffffff1673ffffffffffffffffffffffffffffffffffffffff16036113f0576040517f08c379a00000000000000000000000000000000000000000000000000000000081526004016113e790613b1f565b60405180910390fd5b5f73ffffffffffffffffffffffffffffffffffffffff1660065f8381526020019081526020015f205f9054906101000a900473ffffffffffffffffffffffffffffffffffffffff1673ffffffffffffffffffffffffffffffffffffffff161461148e576040517f08c379a000000000000000000000000000000000000000000000000000000000815260040161148590613c1c565b60405180910390fd5b3373ffffffffffffffffffffffffffffffffffffffff1660035f9054906101000a900473ffffffffffffffffffffffffffffffffffffffff1673ffffffffffffffffffffffffffffffffffffffff16636352211e836040518263ffffffff1660e01b81526004016114ff9190613580565b602060405180830381865afa15801561151a573d5f5f3e3d5ffd5b505050506040513d601f19601f8201168201806040525081019061153e9190613c4e565b73ffffffffffffffffffffffffffffffffffffffff1614611594576040517f08c379a000000000000000000000000000000000000000000000000000000000815260040161158b90613cc3565b60405180910390fd5b3073ffffffffffffffffffffffffffffffffffffffff1660035f9054906101000a900473ffffffffffffffffffffffffffffffffffffffff1673ffffffffffffffffffffffffffffffffffffffff1663c6b84b09836040518263ffffffff1660e01b81526004016116059190613580565b602060405180830381865afa158015611620573d5f5f3e3d5ffd5b505050506040513d601f19601f820116820180604052508101906116449190613c4e565b73ffffffffffffffffffffffffffffffffffffffff161461169a576040517f08c379a000000000000000000000000000000000000000000000000000000000815260040161169190613d51565b60405180910390fd5b5f60035f9054906101000a900473ffffffffffffffffffffffffffffffffffffffff1673ffffffffffffffffffffffffffffffffffffffff1663f0e40662836040518263ffffffff1660e01b81526004016116f59190613580565b602060405180830381865afa158015611710573d5f5f3e3d5ffd5b505050506040513d601f19601f820116820180604052508101906117349190613a9a565b90505f8111611778576040517f08c379a000000000000000000000000000000000000000000000000000000000815260040161176f90613db9565b60405180910390fd5b60405f83012033815550600482908060018154018082558091505060019003905f5260205f20015f9091909190915055600260019054906101000a900473ffffffffffffffffffffffffffffffffffffffff1673ffffffffffffffffffffffffffffffffffffffff166340c10f1933836040518363ffffffff1660e01b8152600401611805929190613e37565b5f604051808303815f87803b15801561181c575f5ffd5b505af115801561182e573d5f5f3e3d5ffd5b50505050813373ffffffffffffffffffffffffffffffffffffffff167fdeba2d4291edd2e29ef127ea6e31f12ebb9adc96b42605081927d379bdcb8bed836040516118799190613580565b60405180910390a35061188a61330d565b50565b5f60025f9054906101000a900460ff16905090565b6118aa613316565b6118b35f6133fe565b565b5f339050815f52600660205260405f208054156118d0575f5ffd5b818155505f60035f9054906101000a900473ffffffffffffffffffffffffffffffffffffffff1673ffffffffffffffffffffffffffffffffffffffff1663f0e40662846040518263ffffffff1660e01b815260040161192f9190613580565b602060405180830381865afa15801561194a573d5f5f3e3d5ffd5b505050506040513d601f19601f8201168201806040525081019061196e9190613a9a565b90505f811180156119885750683635c9adc5dea000008111155b6119c7576040517f08c379a00000000000000000000000000000000000000000000000000000000081526004016119be90614223565b60405180910390fd5b8173ffffffffffffffffffffffffffffffffffffffff1660035f9054906101000a900473ffffffffffffffffffffffffffffffffffffffff1673ffffffffffffffffffffffffffffffffffffffff16636352211e856040518263ffffffff1660e01b8152600401611a389190613580565b602060405180830381865afa158015611a53573d5f5f3e3d5ffd5b505050506040513d601f19601f82011682018060405250810190611a779190613c4e565b73ffffffffffffffffffffffffffffffffffffffff1614611acd576040517f08c379a0000000000000000000000000000000000000000000000000000000008152600401611ac49061428b565b60405180910390fd5b600483908060018154018082558091505060019003905f5260205f20015f9091909190915055683635c9adc5dea000008111611b9257600260019054906101000a900473ffffffffffffffffffffffffffffffffffffffff1673ffffffffffffffffffffffffffffffffffffffff16638b12a26283836040518363ffffffff1660e01b8152600401611b60929190613e37565b5f604051808303815f87803b158015611b77575f5ffd5b505af1158015611b89573d5f5f3e3d5ffd5b50505050611c1d565b600260019054906101000a900473ffffffffffffffffffffffffffffffffffffffff1673ffffffffffffffffffffffffffffffffffffffff166340c10f1983836040518363ffffffff1660e01b8152600401611bef929190613e37565b5f604051808303815f87803b158015611c06575f5ffd5b505af1158015611c18573d5f5f3e3d5ffd5b505050505b828273ffffffffffffffffffffffffffffffffffffffff167fdeba2d4291edd2e29ef127ea6e31f12ebb9adc96b42605081927d379bdcb8bed83604051611c649190613580565b60405180910390a3505050565b60055f9054906101000a900473ffffffffffffffffffffffffffffffffffffffff1681565b611c9e613316565b611ca66134bf565b565b5f5f5f9054906101000a900473ffffffffffffffffffffffffffffffffffffffff16905090565b611cd7613316565b5f73ffffffffffffffffffffffffffffffffffffffff1660035f9054906101000a900473ffffffffffffffffffffffffffffffffffffffff1673ffffffffffffffffffffffffffffffffffffffff1614611d66576040517f08c379a0000000000000000000000000000000000000000000000000000000008152600401611d5d906142f3565b60405180910390fd5b5f73ffffffffffffffffffffffffffffffffffffffff168173ffffffffffffffffffffffffffffffffffffffff1603611dd4576040517f08c379a0000000000000000000000000000000000000000000000000000000008152600401611dcb90614381565b60405180910390fd5b8060035f6101000a81548173ffffffffffffffffffffffffffffffffffffffff021916908373ffffffffffffffffffffffffffffffffffffffff1602179055508073ffffffffffffffffffffffffffffffffffffffff167f5a6a54be6929433a25d1b5103e7dea8d9440b7903216e380344a320ca1cdd85f60405160405180910390a250565b600260019054906101000a900473ffffffffffffffffffffffffffffffffffffffff1681565b611e88613286565b611e906132cc565b5f73ffffffffffffffffffffffffffffffffffffffff1660035f9054906101000a900473ffffffffffffffffffffffffffffffffffffffff1673ffffffffffffffffffffffffffffffffffffffff1603611f1f576040517f08c379a0000000000000000000000000000000000000000000000000000000008152600401611f1690613b1f565b60405180910390fd5b5f73ffffffffffffffffffffffffffffffffffffffff1660065f8381526020019081526020015f205f9054906101000a900473ffffffffffffffffffffffffffffffffffffffff1673ffffffffffffffffffffffffffffffffffffffff1614611fbd576040517f08c379a0000000000000000000000000000000000000000000000000000000008152600401611fb490613c1c565b60405180910390fd5b5f3390508073ffffffffffffffffffffffffffffffffffffffff1660035f9054906101000a900473ffffffffffffffffffffffffffffffffffffffff1673ffffffffffffffffffffffffffffffffffffffff16636352211e846040518263ffffffff1660e01b81526004016120329190613580565b602060405180830381865afa15801561204d573d5f5f3e3d5ffd5b505050506040513d601f19601f820116820180604052508101906120719190613c4e565b73ffffffffffffffffffffffffffffffffffffffff16146120c7576040517f08c379a00000000000000000000000000000000000000000000000000000000081526004016120be90613cc3565b60405180910390fd5b3073ffffffffffffffffffffffffffffffffffffffff1660035f9054906101000a900473ffffffffffffffffffffffffffffffffffffffff1673ffffffffffffffffffffffffffffffffffffffff1663c6b84b09846040518263ffffffff1660e01b81526004016121389190613580565b602060405180830381865afa158015612153573d5f5f3e3d5ffd5b505050506040513d601f19601f820116820180604052508101906121779190613c4e565b73ffffffffffffffffffffffffffffffffffffffff16146121cd576040517f08c379a00000000000000000000000000000000000000000000000000000000081526004016121c490613d51565b60405180910390fd5b5f60035f9054906101000a900473ffffffffffffffffffffffffffffffffffffffff1673ffffffffffffffffffffffffffffffffffffffff1663f0e40662846040518263ffffffff1660e01b81526004016122289190613580565b602060405180830381865afa158015612243573d5f5f3e3d5ffd5b505050506040513d601f19601f820116820180604052508101906122679190613a9a565b90505f81116122ab576040517f08c379a00000000000000000000000000000000000000000000000000000000081526004016122a290613db9565b60405180910390fd5b8160065f8581526020019081526020015f205f6101000a81548173ffffffffffffffffffffffffffffffffffffffff021916908373ffffffffffffffffffffffffffffffffffffffff160217905550600483908060018154018082558091505060019003905f5260205f20015f9091909190915055600260019054906101000a900473ffffffffffffffffffffffffffffffffffffffff1673ffffffffffffffffffffffffffffffffffffffff166340c10f1983836040518363ffffffff1660e01b815260040161237d929190613e37565b5f604051808303815f87803b158015612394575f5ffd5b505af11580156123a6573d5f5f3e3d5ffd5b50505050828273ffffffffffffffffffffffffffffffffffffffff167fdeba2d4291edd2e29ef127ea6e31f12ebb9adc96b42605081927d379bdcb8bed836040516123f19190613580565b60405180910390a3505061240361330d565b50565b606481565b600581565b612418613286565b6124206132cc565b5f8111612462576040517f08c379a000000000000000000000000000000000000000000000000000000000815260040161245990613f10565b60405180910390fd5b80600260019054906101000a900473ffffffffffffffffffffffffffffffffffffffff1673ffffffffffffffffffffffffffffffffffffffff166370a08231336040518263ffffffff1660e01b81526004016124be919061384c565b602060405180830381865afa1580156124d9573d5f5f3e3d5ffd5b505050506040513d601f19601f820116820180604052508101906124fd9190613a9a565b101561253e576040517f08c379a000000000000000000000000000000000000000000000000000000000815260040161253590613f78565b60405180910390fd5b5f600260019054906101000a900473ffffffffffffffffffffffffffffffffffffffff1673ffffffffffffffffffffffffffffffffffffffff166318160ddd6040518163ffffffff1660e01b8152600401602060405180830381865afa1580156125aa573d5f5f3e3d5ffd5b505050506040513d601f19601f820116820180604052508101906125ce9190613a9a565b90505f8111612612576040517f08c379a000000000000000000000000000000000000000000000000000000000815260040161260990613fe0565b60405180910390fd5b5f7f000000000000000000000000000000000000000000000000000000000000000073ffffffffffffffffffffffffffffffffffffffff166370a08231306040518263ffffffff1660e01b815260040161266c919061384c565b602060405180830381865afa158015612687573d5f5f3e3d5ffd5b505050506040513d601f19601f820116820180604052508101906126ab9190613a9a565b90505f5f90505b600480549050811015612793575f600482815481106126d4576126d3613ba5565b5b905f5260205f200154905060035f9054906101000a900473ffffffffffffffffffffffffffffffffffffffff1673ffffffffffffffffffffffffffffffffffffffff1663d1d58b25826040518263ffffffff1660e01b81526004016127399190613580565b602060405180830381865afa158015612754573d5f5f3e3d5ffd5b505050506040513d601f19601f820116820180604052508101906127789190613a9a565b836127839190613e04565b92505080806001019150506126b2565b505f81116127d6576040517f08c379a00000000000000000000000000000000000000000000000000000000081526004016127cd9061440f565b60405180910390fd5b5f8282856127e4919061408c565b6127ee91906140fa565b90505f5f90505f7f000000000000000000000000000000000000000000000000000000000000000073ffffffffffffffffffffffffffffffffffffffff166370a08231306040518263ffffffff1660e01b815260040161284e919061384c565b602060405180830381865afa158015612869573d5f5f3e3d5ffd5b505050506040513d601f19601f8201168201806040525081019061288d9190613a9a565b90505f8111156128b9575f8382106128a557836128a7565b815b905080836128b59190613e04565b9250505b82821015612a97575f82846128ce919061412a565b90505f5f90505b600480549050811080156128e857505f82115b15612a94575f6004828154811061290257612901613ba5565b5b905f5260205f20015490505f60035f9054906101000a900473ffffffffffffffffffffffffffffffffffffffff1673ffffffffffffffffffffffffffffffffffffffff1663d1d58b25836040518263ffffffff1660e01b81526004016129689190613580565b602060405180830381865afa158015612983573d5f5f3e3d5ffd5b505050506040513d601f19601f820116820180604052508101906129a79190613a9a565b90505f811115612a7e5760035f9054906101000a900473ffffffffffffffffffffffffffffffffffffffff1673ffffffffffffffffffffffffffffffffffffffff16637935510b836040518263ffffffff1660e01b8152600401612a0b9190613580565b6020604051808303815f875af1925050508015612a4657506040513d601f19601f82011682018060405250810190612a439190613a9a565b60015b612a51575050612a81565b8087612a5d9190613e04565b9650848110612a6e57505050612a94565b8085612a7a919061412a565b9450505b50505b8080612a8c9061442d565b9150506128d5565b50505b5f8211612ad9576040517f08c379a0000000000000000000000000000000000000000000000000000000008152600401612ad0906144e4565b60405180910390fd5b5f612710606484612aea919061408c565b612af491906140fa565b90505f8184612b03919061412a565b9050600260019054906101000a900473ffffffffffffffffffffffffffffffffffffffff1673ffffffffffffffffffffffffffffffffffffffff16639dc29fac338a6040518363ffffffff1660e01b8152600401612b62929190613e37565b5f604051808303815f87803b158015612b79575f5ffd5b505af1158015612b8b573d5f5f3e3d5ffd5b505050505f82118015612beb57505f73ffffffffffffffffffffffffffffffffffffffff1660055f9054906101000a900473ffffffffffffffffffffffffffffffffffffffff1673ffffffffffffffffffffffffffffffffffffffff1614155b15612cae577f000000000000000000000000000000000000000000000000000000000000000073ffffffffffffffffffffffffffffffffffffffff1663a9059cbb60055f9054906101000a900473ffffffffffffffffffffffffffffffffffffffff16846040518363ffffffff1660e01b8152600401612c6c929190613e37565b6020604051808303815f875af1158015612c88573d5f5f3e3d5ffd5b505050506040513d601f19601f82011682018060405250810190612cac9190614187565b505b7f000000000000000000000000000000000000000000000000000000000000000073ffffffffffffffffffffffffffffffffffffffff1663a9059cbb33836040518363ffffffff1660e01b8152600401612d09929190613e37565b6020604051808303815f875af1158015612d25573d5f5f3e3d5ffd5b505050506040513d601f19601f82011682018060405250810190612d499190614187565b503373ffffffffffffffffffffffffffffffffffffffff167ff3a670cd3af7d64b488926880889d08a8585a138ff455227af6737339a1ec2628983604051612d929291906141b2565b60405180910390a250505050505050612da961330d565b50565b5f5f90505f8284612dbd9190613e04565b9050600480549050811115612e07576040517f08c379a0000000000000000000000000000000000000000000000000000000008152600401612dfe9061454c565b60405180910390fd5b5f8490505b81811015613036575f60048281548110612e2957612e28613ba5565b5b905f5260205f20015490505f73ffffffffffffffffffffffffffffffffffffffff1660065f8381526020019081526020015f205f9054906101000a900473ffffffffffffffffffffffffffffffffffffffff1673ffffffffffffffffffffffffffffffffffffffff1603612ed2576040517f08c379a0000000000000000000000000000000000000000000000000000000008152600401612ec9906145b4565b60405180910390fd5b5f60035f9054906101000a900473ffffffffffffffffffffffffffffffffffffffff1673ffffffffffffffffffffffffffffffffffffffff1663d1d58b25836040518263ffffffff1660e01b8152600401612f2d9190613580565b602060405180830381865afa158015612f48573d5f5f3e3d5ffd5b505050506040513d601f19601f82011682018060405250810190612f6c9190613a9a565b90505f8111156130265760035f9054906101000a900473ffffffffffffffffffffffffffffffffffffffff1673ffffffffffffffffffffffffffffffffffffffff16637935510b836040518263ffffffff1660e01b8152600401612fd09190613580565b6020604051808303815f875af192505050801561300b57506040513d601f19601f820116820180604052508101906130089190613a9a565b60015b613016575050613029565b80866130229190613e04565b9550505b50505b8080600101915050612e0c565b505f82036130455750506131fe565b5f612710600584613056919061408c565b61306091906140fa565b90505f811180156131085750807f000000000000000000000000000000000000000000000000000000000000000073ffffffffffffffffffffffffffffffffffffffff166370a08231306040518263ffffffff1660e01b81526004016130c6919061384c565b602060405180830381865afa1580156130e1573d5f5f3e3d5ffd5b505050506040513d601f19601f820116820180604052508101906131059190613a9a565b10155b156131aa577f000000000000000000000000000000000000000000000000000000000000000073ffffffffffffffffffffffffffffffffffffffff1663a9059cbb33836040518363ffffffff1660e01b8152600401613168929190613e37565b6020604051808303815f875af1158015613184573d5f5f3e3d5ffd5b505050506040513d601f19601f820116820180604052508101906131a89190614187565b505b3373ffffffffffffffffffffffffffffffffffffffff167f6c4474f5353aa538dd7698fa19be2149fc1d9fee5ab8a6af3de07ca84b7f28c784836040516131f29291906141b2565b60405180910390a25050505b5050565b61320a613316565b5f73ffffffffffffffffffffffffffffffffffffffff168173ffffffffffffffffffffffffffffffffffffffff160361327a575f6040517f1e4fbdf7000000000000000000000000000000000000000000000000000000008152600401613271919061384c565b60405180910390fd5b613283816133fe565b50565b6002600154036132c2576040517f3ee5aeb500000000000000000000000000000000000000000000000000000000815260040160405180910390fd5b6002600181905550565b6132d461188d565b1561330b576040517fd93c066500000000000000000000000000000000000000000000000000000000815260040160405180910390fd5b565b60018081905550565b61331e613521565b73ffffffffffffffffffffffffffffffffffffffff1661333c611ca8565b73ffffffffffffffffffffffffffffffffffffffff161461339b5761335f613521565b6040517f118cdaa7000000000000000000000000000000000000000000000000000000008152600401613392919061384c565b60405180910390fd5b565b6133a5613528565b5f60025f6101000a81548160ff0219169083151502179055507f5db9ee0a495bf2e6ff9c91a7834c1ba4fdd244a5e8aa4e537bd38aeae4b073aa6133e7613521565b6040516133f4919061384c565b60405180910390a1565b5f5f5f9054906101000a900473ffffffffffffffffffffffffffffffffffffffff169050815f5f6101000a81548173ffffffffffffffffffffffffffffffffffffffff021916908373ffffffffffffffffffffffffffffffffffffffff1602179055508173ffffffffffffffffffffffffffffffffffffffff168173ffffffffffffffffffffffffffffffffffffffff167f8be0079c531659141344cd1fd0a4f28419497f9722a3daafe3b4186f6b6457e060405160405180910390a35050565b6134c76132cc565b600160025f6101000a81548160ff0219169083151502179055507f62e78cea01bee320cd4e420270b5ea74000d11b0c9f74754ebdbfc544b05a25861350a613521565b604051613517919061384c565b60405180910390a1565b5f33905090565b61353061188d565b613566576040517f8dfc202b00000000000000000000000000000000000000000000000000000000815260040160405180910390fd5b565b5f819050919050565b61357a81613568565b82525050565b5f6020820190506135935f830184613571565b92915050565b5f604051905090565b5f5ffd5b5f5ffd5b5f73ffffffffffffffffffffffffffffffffffffffff82169050919050565b5f6135d3826135aa565b9050919050565b6135e3816135c9565b81146135ed575f5ffd5b50565b5f813590506135fe816135da565b92915050565b61360d81613568565b8114613617575f5ffd5b50565b5f8135905061362881613604565b92915050565b5f5ffd5b5f5ffd5b5f601f19601f8301169050919050565b7f4e487b71000000000000000000000000000000000000000000000000000000005f52604160045260245ffd5b61367c82613636565b810181811067ffffffffffffffff8211171561369b5761369a613646565b5b80604052505050565b5f6136ad613599565b90506136b98282613673565b919050565b5f67ffffffffffffffff8211156136d8576136d7613646565b5b6136e182613636565b9050602081019050919050565b828183375f83830152505050565b5f61370e613709846136be565b6136a4565b90508281526020810184848401111561372a57613729613632565b5b6137358482856136ee565b509392505050565b5f82601f8301126137515761375061362e565b5b81356137618482602086016136fc565b91505092915050565b5f5f5f5f60808587031215613782576137816135a2565b5b5f61378f878288016135f0565b94505060206137a0878288016135f0565b93505060406137b18782880161361a565b925050606085013567ffffffffffffffff8111156137d2576137d16135a6565b5b6137de8782880161373d565b91505092959194509250565b5f7fffffffff0000000000000000000000000000000000000000000000000000000082169050919050565b61381e816137ea565b82525050565b5f6020820190506138375f830184613815565b92915050565b613846816135c9565b82525050565b5f60208201905061385f5f83018461383d565b92915050565b5f6020828403121561387a576138796135a2565b5b5f6138878482850161361a565b91505092915050565b5f5ffd5b5f5ffd5b5f5f83601f8401126138ad576138ac61362e565b5b8235905067ffffffffffffffff8111156138ca576138c9613890565b5b6020830191508360208202830111156138e6576138e5613894565b5b9250929050565b5f5f60208385031215613903576139026135a2565b5b5f83013567ffffffffffffffff8111156139205761391f6135a6565b5b61392c85828601613898565b92509250509250929050565b5f5f6040838503121561394e5761394d6135a2565b5b5f61395b858286016135f0565b925050602061396c8582860161361a565b9150509250929050565b5f8115159050919050565b61398a81613976565b82525050565b5f6020820190506139a35f830184613981565b92915050565b5f602082840312156139be576139bd6135a2565b5b5f6139cb848285016135f0565b91505092915050565b5f819050919050565b5f6139f76139f26139ed846135aa565b6139d4565b6135aa565b9050919050565b5f613a08826139dd565b9050919050565b5f613a19826139fe565b9050919050565b613a2981613a0f565b82525050565b5f602082019050613a425f830184613a20565b92915050565b5f5f60408385031215613a5e57613a5d6135a2565b5b5f613a6b8582860161361a565b9250506020613a7c8582860161361a565b9150509250929050565b5f81519050613a9481613604565b92915050565b5f60208284031215613aaf57613aae6135a2565b5b5f613abc84828501613a86565b91505092915050565b5f82825260208201905092915050565b7f4e465420636f6e7472616374206e6f74207365740000000000000000000000005f82015250565b5f613b09601483613ac5565b9150613b1482613ad5565b602082019050919050565b5f6020820190508181035f830152613b3681613afd565b9050919050565b7f496e76616c69642062617463682073697a6500000000000000000000000000005f82015250565b5f613b71601283613ac5565b9150613b7c82613b3d565b602082019050919050565b5f6020820190508181035f830152613b9e81613b65565b9050919050565b7f4e487b71000000000000000000000000000000000000000000000000000000005f52603260045260245ffd5b7f4e465420616c7265616479206465706f736974656400000000000000000000005f82015250565b5f613c06601583613ac5565b9150613c1182613bd2565b602082019050919050565b5f6020820190508181035f830152613c3381613bfa565b9050919050565b5f81519050613c48816135da565b92915050565b5f60208284031215613c6357613c626135a2565b5b5f613c7084828501613c3a565b91505092915050565b7f4e6f74204e4654206f776e6572000000000000000000000000000000000000005f82015250565b5f613cad600d83613ac5565b9150613cb882613c79565b602082019050919050565b5f6020820190508181035f830152613cda81613ca1565b9050919050565b7f4d7573742064656c656761746520636c61696d696e672072696768747320746f5f8201527f207661756c742066697273740000000000000000000000000000000000000000602082015250565b5f613d3b602c83613ac5565b9150613d4682613ce1565b604082019050919050565b5f6020820190508181035f830152613d6881613d2f565b9050919050565b7f4e465420686173206e6f2076616c7565000000000000000000000000000000005f82015250565b5f613da3601083613ac5565b9150613dae82613d6f565b602082019050919050565b5f6020820190508181035f830152613dd081613d97565b9050919050565b7f4e487b71000000000000000000000000000000000000000000000000000000005f52601160045260245ffd5b5f613e0e82613568565b9150613e1983613568565b9250828201905080821115613e3157613e30613dd7565b5b92915050565b5f604082019050613e4a5f83018561383d565b613e576020830184613571565b9392505050565b7f44454d4f3a204578636565647320656d657267656e6379206c696d69740000005f82015250565b5f613e92601d83613ac5565b9150613e9d82613e5e565b602082019050919050565b5f6020820190508181035f830152613ebf81613e86565b9050919050565b7f43616e6e6f742072656465656d203000000000000000000000000000000000005f82015250565b5f613efa600f83613ac5565b9150613f0582613ec6565b602082019050919050565b5f6020820190508181035f830152613f2781613eee565b9050919050565b7f496e73756666696369656e742076532062616c616e63650000000000000000005f82015250565b5f613f62601783613ac5565b9150613f6d82613f2e565b602082019050919050565b5f6020820190508181035f830152613f8f81613f56565b9050919050565b7f4e6f20765320746f6b656e7320696e2063697263756c6174696f6e00000000005f82015250565b5f613fca601b83613ac5565b9150613fd582613f96565b602082019050919050565b5f6020820190508181035f830152613ff781613fbe565b9050919050565b7f4e6f20746f6b656e7320617661696c61626c65202d2074727920636c61696d695f8201527f6e67206669727374000000000000000000000000000000000000000000000000602082015250565b5f614058602883613ac5565b915061406382613ffe565b604082019050919050565b5f6020820190508181035f8301526140858161404c565b9050919050565b5f61409682613568565b91506140a183613568565b92508282026140af81613568565b915082820484148315176140c6576140c5613dd7565b5b5092915050565b7f4e487b71000000000000000000000000000000000000000000000000000000005f52601260045260245ffd5b5f61410482613568565b915061410f83613568565b92508261411f5761411e6140cd565b5b828204905092915050565b5f61413482613568565b915061413f83613568565b925082820390508181111561415757614156613dd7565b5b92915050565b61416681613976565b8114614170575f5ffd5b50565b5f815190506141818161415d565b92915050565b5f6020828403121561419c5761419b6135a2565b5b5f6141a984828501614173565b91505092915050565b5f6040820190506141c55f830185613571565b6141d26020830184613571565b9392505050565b7f496e76616c69642064656d6f2076616c756500000000000000000000000000005f82015250565b5f61420d601283613ac5565b9150614218826141d9565b602082019050919050565b5f6020820190508181035f83015261423a81614201565b9050919050565b7f4e6f74206f776e657200000000000000000000000000000000000000000000005f82015250565b5f614275600983613ac5565b915061428082614241565b602082019050919050565b5f6020820190508181035f8301526142a281614269565b9050919050565b7f4e465420636f6e747261637420616c72656164792073657400000000000000005f82015250565b5f6142dd601883613ac5565b91506142e8826142a9565b602082019050919050565b5f6020820190508181035f83015261430a816142d1565b9050919050565b7f4e465420636f6e74726163742063616e6e6f74206265207a65726f20616464725f8201527f6573730000000000000000000000000000000000000000000000000000000000602082015250565b5f61436b602383613ac5565b915061437682614311565b604082019050919050565b5f6020820190508181035f8301526143988161435f565b9050919050565b7f4e6f2076616c756520617661696c61626c6520666f7220726564656d7074696f5f8201527f6e00000000000000000000000000000000000000000000000000000000000000602082015250565b5f6143f9602183613ac5565b91506144048261439f565b604082019050919050565b5f6020820190508181035f830152614426816143ed565b9050919050565b5f61443782613568565b91507fffffffffffffffffffffffffffffffffffffffffffffffffffffffffffffffff820361446957614468613dd7565b5b600182019050919050565b7f4e6f20746f6b656e7320617661696c61626c6520666f7220726564656d7074695f8201527f6f6e000000000000000000000000000000000000000000000000000000000000602082015250565b5f6144ce602283613ac5565b91506144d982614474565b604082019050919050565b5f6020820190508181035f8301526144fb816144c2565b9050919050565b7f496e646578206f7574206f6620626f756e6473000000000000000000000000005f82015250565b5f614536601383613ac5565b915061454182614502565b602082019050919050565b5f6020820190508181035f8301526145638161452a565b9050919050565b7f4e4654206e6f74206465706f73697465640000000000000000000000000000005f82015250565b5f61459e601183613ac5565b91506145a98261456a565b602082019050919050565b5f6020820190508181035f8301526145cb81614592565b905091905056fea2646970667358221220879d44db8c83c150a2f2f7f0298a854224466f626550f697b2fe326e4b8f822664736f6c634300081c0033","linkReferences":{}},"methodIdentifiers":{"KEEPER_INCENTIVE_BPS()":"bea43a22","PROTOCOL_FEE_BPS()":"be378228","batchDeposit(uint256[])":"1e51d569","claimVested(uint256,uint256)":"dfff7967","demoDeposit(uint256)":"7b886cbf","deposit(uint256)":"b6b55f25","depositOptimized(uint256)":"5750932d","depositedNFTs(uint256)":"5204472d","emergencyMint(address,uint256)":"43785dc9","heldNFTs(uint256)":"16d812f6","onERC721Received(address,address,uint256,bytes)":"150b7a02","owner()":"8da5cb5b","pause()":"8456cb59","paused()":"5c975abb","protocolTreasury()":"803db96d","redeem(uint256)":"db006a75","renounceOwnership()":"715018a6","setNFTContract(address)":"a7ccabdf","simpleRedeem(uint256)":"4f08da50","sonicNFT()":"15cfc88e","totalAssets()":"01e1d114","transferOwnership(address)":"f2fde38b","underlyingToken()":"2495a599","unpause()":"3f4ba83a","vS()":"aa30c4b7"},"id":46}