{"abi":[{"type":"constructor","inputs":[{"name":"_vsToken","type":"address","internalType":"address"},{"name":"_underlyingToken","type":"address","internalType":"address"}],"stateMutability":"nonpayable"},{"type":"function","name":"KEEPER_INCENTIVE_BPS","inputs":[],"outputs":[{"name":"","type":"uint256","internalType":"uint256"}],"stateMutability":"view"},{"type":"function","name":"claimVested","inputs":[{"name":"startIndex","type":"uint256","internalType":"uint256"},{"name":"count","type":"uint256","internalType":"uint256"}],"outputs":[],"stateMutability":"nonpayable"},{"type":"function","name":"deposit","inputs":[{"name":"nftId","type":"uint256","internalType":"uint256"}],"outputs":[],"stateMutability":"nonpayable"},{"type":"function","name":"heldNFTs","inputs":[{"name":"","type":"uint256","internalType":"uint256"}],"outputs":[{"name":"","type":"uint256","internalType":"uint256"}],"stateMutability":"view"},{"type":"function","name":"onERC721Received","inputs":[{"name":"","type":"address","internalType":"address"},{"name":"","type":"address","internalType":"address"},{"name":"","type":"uint256","internalType":"uint256"},{"name":"","type":"bytes","internalType":"bytes"}],"outputs":[{"name":"","type":"bytes4","internalType":"bytes4"}],"stateMutability":"nonpayable"},{"type":"function","name":"owner","inputs":[],"outputs":[{"name":"","type":"address","internalType":"address"}],"stateMutability":"view"},{"type":"function","name":"redeem","inputs":[{"name":"amount","type":"uint256","internalType":"uint256"}],"outputs":[],"stateMutability":"nonpayable"},{"type":"function","name":"renounceOwnership","inputs":[],"outputs":[],"stateMutability":"nonpayable"},{"type":"function","name":"setNFTContract","inputs":[{"name":"_sonicNFT","type":"address","internalType":"address"}],"outputs":[],"stateMutability":"nonpayable"},{"type":"function","name":"sonicNFT","inputs":[],"outputs":[{"name":"","type":"address","internalType":"address"}],"stateMutability":"view"},{"type":"function","name":"totalAssets","inputs":[],"outputs":[{"name":"","type":"uint256","internalType":"uint256"}],"stateMutability":"view"},{"type":"function","name":"transferOwnership","inputs":[{"name":"newOwner","type":"address","internalType":"address"}],"outputs":[],"stateMutability":"nonpayable"},{"type":"function","name":"underlyingToken","inputs":[],"outputs":[{"name":"","type":"address","internalType":"address"}],"stateMutability":"view"},{"type":"function","name":"vsToken","inputs":[],"outputs":[{"name":"","type":"address","internalType":"contract vSToken"}],"stateMutability":"view"},{"type":"event","name":"NFTContractSet","inputs":[{"name":"nftContract","type":"address","indexed":true,"internalType":"address"}],"anonymous":false},{"type":"event","name":"NFTDeposited","inputs":[{"name":"user","type":"address","indexed":true,"internalType":"address"},{"name":"nftId","type":"uint256","indexed":true,"internalType":"uint256"},{"name":"amountMinted","type":"uint256","indexed":false,"internalType":"uint256"}],"anonymous":false},{"type":"event","name":"OwnershipTransferred","inputs":[{"name":"previousOwner","type":"address","indexed":true,"internalType":"address"},{"name":"newOwner","type":"address","indexed":true,"internalType":"address"}],"anonymous":false},{"type":"event","name":"Redeemed","inputs":[{"name":"user","type":"address","indexed":true,"internalType":"address"},{"name":"vsAmount","type":"uint256","indexed":false,"internalType":"uint256"},{"name":"underlyingAmount","type":"uint256","indexed":false,"internalType":"uint256"}],"anonymous":false},{"type":"event","name":"VestedTokensClaimed","inputs":[{"name":"caller","type":"address","indexed":true,"internalType":"address"},{"name":"totalAmount","type":"uint256","indexed":false,"internalType":"uint256"},{"name":"incentivePaid","type":"uint256","indexed":false,"internalType":"uint256"}],"anonymous":false},{"type":"error","name":"OwnableInvalidOwner","inputs":[{"name":"owner","type":"address","internalType":"address"}]},{"type":"error","name":"OwnableUnauthorizedAccount","inputs":[{"name":"account","type":"address","internalType":"address"}]}],"bytecode":{"object":"0x60c060405234801561000f575f5ffd5b50604051611d59380380611d5983398181016040528101906100319190610240565b335f73ffffffffffffffffffffffffffffffffffffffff168173ffffffffffffffffffffffffffffffffffffffff16036100a2575f6040517f1e4fbdf7000000000000000000000000000000000000000000000000000000008152600401610099919061028d565b60405180910390fd5b6100b18161012160201b60201c565b508173ffffffffffffffffffffffffffffffffffffffff1660808173ffffffffffffffffffffffffffffffffffffffff16815250508073ffffffffffffffffffffffffffffffffffffffff1660a08173ffffffffffffffffffffffffffffffffffffffff168152505050506102a6565b5f5f5f9054906101000a900473ffffffffffffffffffffffffffffffffffffffff169050815f5f6101000a81548173ffffffffffffffffffffffffffffffffffffffff021916908373ffffffffffffffffffffffffffffffffffffffff1602179055508173ffffffffffffffffffffffffffffffffffffffff168173ffffffffffffffffffffffffffffffffffffffff167f8be0079c531659141344cd1fd0a4f28419497f9722a3daafe3b4186f6b6457e060405160405180910390a35050565b5f5ffd5b5f73ffffffffffffffffffffffffffffffffffffffff82169050919050565b5f61020f826101e6565b9050919050565b61021f81610205565b8114610229575f5ffd5b50565b5f8151905061023a81610216565b92915050565b5f5f60408385031215610256576102556101e2565b5b5f6102638582860161022c565b92505060206102748582860161022c565b9150509250929050565b61028781610205565b82525050565b5f6020820190506102a05f83018461027e565b92915050565b60805160a051611a616102f85f395f81816102990152818161038e015281816108b801528181610b080152610d7901525f81816107950152818161095301528181610a800152610e6e0152611a615ff3fe608060405234801561000f575f5ffd5b50600436106100e8575f3560e01c8063a7ccabdf1161008a578063db006a7511610064578063db006a7514610224578063dfff796714610240578063e18265c81461025c578063f2fde38b1461027a576100e8565b8063a7ccabdf146101ce578063b6b55f25146101ea578063bea43a2214610206576100e8565b806316d812f6116100c657806316d812f6146101585780632495a59914610188578063715018a6146101a65780638da5cb5b146101b0576100e8565b806301e1d114146100ec578063150b7a021461010a57806315cfc88e1461013a575b5f5ffd5b6100f4610296565b604051610101919061107b565b60405180910390f35b610124600480360381019061011f9190611265565b610334565b604051610131919061131f565b60405180910390f35b610142610347565b60405161014f9190611347565b60405180910390f35b610172600480360381019061016d9190611360565b61036c565b60405161017f919061107b565b60405180910390f35b61019061038c565b60405161019d9190611347565b60405180910390f35b6101ae6103b0565b005b6101b86103c3565b6040516101c59190611347565b60405180910390f35b6101e860048036038101906101e3919061138b565b6103ea565b005b61020460048036038101906101ff9190611360565b610575565b005b61020e61086e565b60405161021b919061107b565b60405180910390f35b61023e60048036038101906102399190611360565b610873565b005b61025a600480360381019061025591906113b6565b610bf8565b005b610264610e6c565b604051610271919061144f565b60405180910390f35b610294600480360381019061028f919061138b565b610e90565b005b5f7f000000000000000000000000000000000000000000000000000000000000000073ffffffffffffffffffffffffffffffffffffffff166370a08231306040518263ffffffff1660e01b81526004016102f09190611347565b602060405180830381865afa15801561030b573d5f5f3e3d5ffd5b505050506040513d601f19601f8201168201806040525081019061032f919061147c565b905090565b5f63150b7a0260e01b9050949350505050565b60015f9054906101000a900473ffffffffffffffffffffffffffffffffffffffff1681565b6002818154811061037b575f80fd5b905f5260205f20015f915090505481565b7f000000000000000000000000000000000000000000000000000000000000000081565b6103b8610f14565b6103c15f610f9b565b565b5f5f5f9054906101000a900473ffffffffffffffffffffffffffffffffffffffff16905090565b6103f2610f14565b5f73ffffffffffffffffffffffffffffffffffffffff1660015f9054906101000a900473ffffffffffffffffffffffffffffffffffffffff1673ffffffffffffffffffffffffffffffffffffffff1614610481576040517f08c379a000000000000000000000000000000000000000000000000000000000815260040161047890611501565b60405180910390fd5b5f73ffffffffffffffffffffffffffffffffffffffff168173ffffffffffffffffffffffffffffffffffffffff16036104ef576040517f08c379a00000000000000000000000000000000000000000000000000000000081526004016104e69061158f565b60405180910390fd5b8060015f6101000a81548173ffffffffffffffffffffffffffffffffffffffff021916908373ffffffffffffffffffffffffffffffffffffffff1602179055508073ffffffffffffffffffffffffffffffffffffffff167f5a6a54be6929433a25d1b5103e7dea8d9440b7903216e380344a320ca1cdd85f60405160405180910390a250565b5f73ffffffffffffffffffffffffffffffffffffffff1660015f9054906101000a900473ffffffffffffffffffffffffffffffffffffffff1673ffffffffffffffffffffffffffffffffffffffff1603610604576040517f08c379a00000000000000000000000000000000000000000000000000000000081526004016105fb906115f7565b60405180910390fd5b60015f9054906101000a900473ffffffffffffffffffffffffffffffffffffffff1673ffffffffffffffffffffffffffffffffffffffff166342842e0e3330846040518463ffffffff1660e01b815260040161066293929190611615565b5f604051808303815f87803b158015610679575f5ffd5b505af115801561068b573d5f5f3e3d5ffd5b50505050600281908060018154018082558091505060019003905f5260205f20015f90919091909150555f60015f9054906101000a900473ffffffffffffffffffffffffffffffffffffffff1673ffffffffffffffffffffffffffffffffffffffff1663f0e40662836040518263ffffffff1660e01b8152600401610710919061107b565b602060405180830381865afa15801561072b573d5f5f3e3d5ffd5b505050506040513d601f19601f8201168201806040525081019061074f919061147c565b90505f8111610793576040517f08c379a000000000000000000000000000000000000000000000000000000000815260040161078a90611694565b60405180910390fd5b7f000000000000000000000000000000000000000000000000000000000000000073ffffffffffffffffffffffffffffffffffffffff166340c10f1933836040518363ffffffff1660e01b81526004016107ee9291906116b2565b5f604051808303815f87803b158015610805575f5ffd5b505af1158015610817573d5f5f3e3d5ffd5b50505050813373ffffffffffffffffffffffffffffffffffffffff167fdeba2d4291edd2e29ef127ea6e31f12ebb9adc96b42605081927d379bdcb8bed83604051610862919061107b565b60405180910390a35050565b600581565b5f81116108b5576040517f08c379a00000000000000000000000000000000000000000000000000000000081526004016108ac90611723565b60405180910390fd5b5f7f000000000000000000000000000000000000000000000000000000000000000073ffffffffffffffffffffffffffffffffffffffff166370a08231306040518263ffffffff1660e01b815260040161090f9190611347565b602060405180830381865afa15801561092a573d5f5f3e3d5ffd5b505050506040513d601f19601f8201168201806040525081019061094e919061147c565b90505f7f000000000000000000000000000000000000000000000000000000000000000073ffffffffffffffffffffffffffffffffffffffff166318160ddd6040518163ffffffff1660e01b8152600401602060405180830381865afa1580156109ba573d5f5f3e3d5ffd5b505050506040513d601f19601f820116820180604052508101906109de919061147c565b90505f8111610a22576040517f08c379a0000000000000000000000000000000000000000000000000000000008152600401610a199061178b565b60405180910390fd5b5f818385610a3091906117d6565b610a3a9190611844565b90505f8111610a7e576040517f08c379a0000000000000000000000000000000000000000000000000000000008152600401610a75906118be565b60405180910390fd5b7f000000000000000000000000000000000000000000000000000000000000000073ffffffffffffffffffffffffffffffffffffffff16639dc29fac33866040518363ffffffff1660e01b8152600401610ad99291906116b2565b5f604051808303815f87803b158015610af0575f5ffd5b505af1158015610b02573d5f5f3e3d5ffd5b505050507f000000000000000000000000000000000000000000000000000000000000000073ffffffffffffffffffffffffffffffffffffffff1663a9059cbb33836040518363ffffffff1660e01b8152600401610b619291906116b2565b6020604051808303815f875af1158015610b7d573d5f5f3e3d5ffd5b505050506040513d601f19601f82011682018060405250810190610ba19190611911565b503373ffffffffffffffffffffffffffffffffffffffff167ff3a670cd3af7d64b488926880889d08a8585a138ff455227af6737339a1ec2628583604051610bea92919061193c565b60405180910390a250505050565b5f5f90505f8284610c099190611963565b9050600280549050811115610c53576040517f08c379a0000000000000000000000000000000000000000000000000000000008152600401610c4a906119e0565b60405180910390fd5b5f8490505b81811015610d43575f60028281548110610c7557610c746119fe565b5b905f5260205f20015490505f60015f9054906101000a900473ffffffffffffffffffffffffffffffffffffffff1673ffffffffffffffffffffffffffffffffffffffff16637935510b836040518263ffffffff1660e01b8152600401610cdb919061107b565b6020604051808303815f875af1158015610cf7573d5f5f3e3d5ffd5b505050506040513d601f19601f82011682018060405250810190610d1b919061147c565b90505f811115610d34578085610d319190611963565b94505b50508080600101915050610c58565b505f8203610d52575050610e68565b5f612710600584610d6391906117d6565b610d6d9190611844565b90505f811115610e14577f000000000000000000000000000000000000000000000000000000000000000073ffffffffffffffffffffffffffffffffffffffff1663a9059cbb33836040518363ffffffff1660e01b8152600401610dd29291906116b2565b6020604051808303815f875af1158015610dee573d5f5f3e3d5ffd5b505050506040513d601f19601f82011682018060405250810190610e129190611911565b505b3373ffffffffffffffffffffffffffffffffffffffff167f6c4474f5353aa538dd7698fa19be2149fc1d9fee5ab8a6af3de07ca84b7f28c78483604051610e5c92919061193c565b60405180910390a25050505b5050565b7f000000000000000000000000000000000000000000000000000000000000000081565b610e98610f14565b5f73ffffffffffffffffffffffffffffffffffffffff168173ffffffffffffffffffffffffffffffffffffffff1603610f08575f6040517f1e4fbdf7000000000000000000000000000000000000000000000000000000008152600401610eff9190611347565b60405180910390fd5b610f1181610f9b565b50565b610f1c61105c565b73ffffffffffffffffffffffffffffffffffffffff16610f3a6103c3565b73ffffffffffffffffffffffffffffffffffffffff1614610f9957610f5d61105c565b6040517f118cdaa7000000000000000000000000000000000000000000000000000000008152600401610f909190611347565b60405180910390fd5b565b5f5f5f9054906101000a900473ffffffffffffffffffffffffffffffffffffffff169050815f5f6101000a81548173ffffffffffffffffffffffffffffffffffffffff021916908373ffffffffffffffffffffffffffffffffffffffff1602179055508173ffffffffffffffffffffffffffffffffffffffff168173ffffffffffffffffffffffffffffffffffffffff167f8be0079c531659141344cd1fd0a4f28419497f9722a3daafe3b4186f6b6457e060405160405180910390a35050565b5f33905090565b5f819050919050565b61107581611063565b82525050565b5f60208201905061108e5f83018461106c565b92915050565b5f604051905090565b5f5ffd5b5f5ffd5b5f73ffffffffffffffffffffffffffffffffffffffff82169050919050565b5f6110ce826110a5565b9050919050565b6110de816110c4565b81146110e8575f5ffd5b50565b5f813590506110f9816110d5565b92915050565b61110881611063565b8114611112575f5ffd5b50565b5f81359050611123816110ff565b92915050565b5f5ffd5b5f5ffd5b5f601f19601f8301169050919050565b7f4e487b71000000000000000000000000000000000000000000000000000000005f52604160045260245ffd5b61117782611131565b810181811067ffffffffffffffff8211171561119657611195611141565b5b80604052505050565b5f6111a8611094565b90506111b4828261116e565b919050565b5f67ffffffffffffffff8211156111d3576111d2611141565b5b6111dc82611131565b9050602081019050919050565b828183375f83830152505050565b5f611209611204846111b9565b61119f565b9050828152602081018484840111156112255761122461112d565b5b6112308482856111e9565b509392505050565b5f82601f83011261124c5761124b611129565b5b813561125c8482602086016111f7565b91505092915050565b5f5f5f5f6080858703121561127d5761127c61109d565b5b5f61128a878288016110eb565b945050602061129b878288016110eb565b93505060406112ac87828801611115565b925050606085013567ffffffffffffffff8111156112cd576112cc6110a1565b5b6112d987828801611238565b91505092959194509250565b5f7fffffffff0000000000000000000000000000000000000000000000000000000082169050919050565b611319816112e5565b82525050565b5f6020820190506113325f830184611310565b92915050565b611341816110c4565b82525050565b5f60208201905061135a5f830184611338565b92915050565b5f602082840312156113755761137461109d565b5b5f61138284828501611115565b91505092915050565b5f602082840312156113a05761139f61109d565b5b5f6113ad848285016110eb565b91505092915050565b5f5f604083850312156113cc576113cb61109d565b5b5f6113d985828601611115565b92505060206113ea85828601611115565b9150509250929050565b5f819050919050565b5f61141761141261140d846110a5565b6113f4565b6110a5565b9050919050565b5f611428826113fd565b9050919050565b5f6114398261141e565b9050919050565b6114498161142f565b82525050565b5f6020820190506114625f830184611440565b92915050565b5f81519050611476816110ff565b92915050565b5f602082840312156114915761149061109d565b5b5f61149e84828501611468565b91505092915050565b5f82825260208201905092915050565b7f4e465420636f6e747261637420616c72656164792073657400000000000000005f82015250565b5f6114eb6018836114a7565b91506114f6826114b7565b602082019050919050565b5f6020820190508181035f830152611518816114df565b9050919050565b7f4e465420636f6e74726163742063616e6e6f74206265207a65726f20616464725f8201527f6573730000000000000000000000000000000000000000000000000000000000602082015250565b5f6115796023836114a7565b91506115848261151f565b604082019050919050565b5f6020820190508181035f8301526115a68161156d565b9050919050565b7f4e465420636f6e7472616374206e6f74207365740000000000000000000000005f82015250565b5f6115e16014836114a7565b91506115ec826115ad565b602082019050919050565b5f6020820190508181035f83015261160e816115d5565b9050919050565b5f6060820190506116285f830186611338565b6116356020830185611338565b611642604083018461106c565b949350505050565b7f4e465420686173206e6f2076616c7565000000000000000000000000000000005f82015250565b5f61167e6010836114a7565b91506116898261164a565b602082019050919050565b5f6020820190508181035f8301526116ab81611672565b9050919050565b5f6040820190506116c55f830185611338565b6116d2602083018461106c565b9392505050565b7f43616e6e6f742072656465656d203000000000000000000000000000000000005f82015250565b5f61170d600f836114a7565b9150611718826116d9565b602082019050919050565b5f6020820190508181035f83015261173a81611701565b9050919050565b7f4e6f20765320746f6b656e7320696e2063697263756c6174696f6e00000000005f82015250565b5f611775601b836114a7565b915061178082611741565b602082019050919050565b5f6020820190508181035f8301526117a281611769565b9050919050565b7f4e487b71000000000000000000000000000000000000000000000000000000005f52601160045260245ffd5b5f6117e082611063565b91506117eb83611063565b92508282026117f981611063565b915082820484148315176118105761180f6117a9565b5b5092915050565b7f4e487b71000000000000000000000000000000000000000000000000000000005f52601260045260245ffd5b5f61184e82611063565b915061185983611063565b92508261186957611868611817565b5b828204905092915050565b7f4e6f20756e6465726c79696e672061737365747320746f2072656465656d00005f82015250565b5f6118a8601e836114a7565b91506118b382611874565b602082019050919050565b5f6020820190508181035f8301526118d58161189c565b9050919050565b5f8115159050919050565b6118f0816118dc565b81146118fa575f5ffd5b50565b5f8151905061190b816118e7565b92915050565b5f602082840312156119265761192561109d565b5b5f611933848285016118fd565b91505092915050565b5f60408201905061194f5f83018561106c565b61195c602083018461106c565b9392505050565b5f61196d82611063565b915061197883611063565b92508282019050808211156119905761198f6117a9565b5b92915050565b7f496e646578206f7574206f6620626f756e6473000000000000000000000000005f82015250565b5f6119ca6013836114a7565b91506119d582611996565b602082019050919050565b5f6020820190508181035f8301526119f7816119be565b9050919050565b7f4e487b71000000000000000000000000000000000000000000000000000000005f52603260045260245ffdfea26469706673582212208b08364789833e859a3c18587b0fa61a654142c739d2521cd8c71eb810894f2464736f6c634300081c0033","linkReferences":{}},"methodIdentifiers":{"KEEPER_INCENTIVE_BPS()":"bea43a22","claimVested(uint256,uint256)":"dfff7967","deposit(uint256)":"b6b55f25","heldNFTs(uint256)":"16d812f6","onERC721Received(address,address,uint256,bytes)":"150b7a02","owner()":"8da5cb5b","redeem(uint256)":"db006a75","renounceOwnership()":"715018a6","setNFTContract(address)":"a7ccabdf","sonicNFT()":"15cfc88e","totalAssets()":"01e1d114","transferOwnership(address)":"f2fde38b","underlyingToken()":"2495a599","vsToken()":"e18265c8"},"id":39}