{"abi":[{"type":"constructor","inputs":[{"name":"_vsToken","type":"address","internalType":"address"},{"name":"_underlyingToken","type":"address","internalType":"address"},{"name":"_protocolTreasury","type":"address","internalType":"address"}],"stateMutability":"nonpayable"},{"type":"function","name":"KEEPER_INCENTIVE_BPS","inputs":[],"outputs":[{"name":"","type":"uint256","internalType":"uint256"}],"stateMutability":"view"},{"type":"function","name":"PROTOCOL_FEE_BPS","inputs":[],"outputs":[{"name":"","type":"uint256","internalType":"uint256"}],"stateMutability":"view"},{"type":"function","name":"claimVested","inputs":[{"name":"startIndex","type":"uint256","internalType":"uint256"},{"name":"count","type":"uint256","internalType":"uint256"}],"outputs":[],"stateMutability":"nonpayable"},{"type":"function","name":"deposit","inputs":[{"name":"nftId","type":"uint256","internalType":"uint256"}],"outputs":[],"stateMutability":"nonpayable"},{"type":"function","name":"depositedNFTs","inputs":[{"name":"","type":"uint256","internalType":"uint256"}],"outputs":[{"name":"","type":"address","internalType":"address"}],"stateMutability":"view"},{"type":"function","name":"emergencyMint","inputs":[{"name":"to","type":"address","internalType":"address"},{"name":"amount","type":"uint256","internalType":"uint256"}],"outputs":[],"stateMutability":"nonpayable"},{"type":"function","name":"heldNFTs","inputs":[{"name":"","type":"uint256","internalType":"uint256"}],"outputs":[{"name":"","type":"uint256","internalType":"uint256"}],"stateMutability":"view"},{"type":"function","name":"onERC721Received","inputs":[{"name":"","type":"address","internalType":"address"},{"name":"","type":"address","internalType":"address"},{"name":"","type":"uint256","internalType":"uint256"},{"name":"","type":"bytes","internalType":"bytes"}],"outputs":[{"name":"","type":"bytes4","internalType":"bytes4"}],"stateMutability":"nonpayable"},{"type":"function","name":"owner","inputs":[],"outputs":[{"name":"","type":"address","internalType":"address"}],"stateMutability":"view"},{"type":"function","name":"pause","inputs":[],"outputs":[],"stateMutability":"nonpayable"},{"type":"function","name":"paused","inputs":[],"outputs":[{"name":"","type":"bool","internalType":"bool"}],"stateMutability":"view"},{"type":"function","name":"protocolTreasury","inputs":[],"outputs":[{"name":"","type":"address","internalType":"address"}],"stateMutability":"view"},{"type":"function","name":"redeem","inputs":[{"name":"amount","type":"uint256","internalType":"uint256"}],"outputs":[],"stateMutability":"nonpayable"},{"type":"function","name":"renounceOwnership","inputs":[],"outputs":[],"stateMutability":"nonpayable"},{"type":"function","name":"setNFTContract","inputs":[{"name":"_sonicNFT","type":"address","internalType":"address"}],"outputs":[],"stateMutability":"nonpayable"},{"type":"function","name":"sonicNFT","inputs":[],"outputs":[{"name":"","type":"address","internalType":"address"}],"stateMutability":"view"},{"type":"function","name":"totalAssets","inputs":[],"outputs":[{"name":"","type":"uint256","internalType":"uint256"}],"stateMutability":"view"},{"type":"function","name":"transferOwnership","inputs":[{"name":"newOwner","type":"address","internalType":"address"}],"outputs":[],"stateMutability":"nonpayable"},{"type":"function","name":"underlyingToken","inputs":[],"outputs":[{"name":"","type":"address","internalType":"address"}],"stateMutability":"view"},{"type":"function","name":"unpause","inputs":[],"outputs":[],"stateMutability":"nonpayable"},{"type":"function","name":"vS","inputs":[],"outputs":[{"name":"","type":"address","internalType":"contract VSToken"}],"stateMutability":"view"},{"type":"event","name":"NFTContractSet","inputs":[{"name":"nftContract","type":"address","indexed":true,"internalType":"address"}],"anonymous":false},{"type":"event","name":"NFTDeposited","inputs":[{"name":"user","type":"address","indexed":true,"internalType":"address"},{"name":"nftId","type":"uint256","indexed":true,"internalType":"uint256"},{"name":"amountMinted","type":"uint256","indexed":false,"internalType":"uint256"}],"anonymous":false},{"type":"event","name":"OwnershipTransferred","inputs":[{"name":"previousOwner","type":"address","indexed":true,"internalType":"address"},{"name":"newOwner","type":"address","indexed":true,"internalType":"address"}],"anonymous":false},{"type":"event","name":"Paused","inputs":[{"name":"account","type":"address","indexed":false,"internalType":"address"}],"anonymous":false},{"type":"event","name":"Redeemed","inputs":[{"name":"user","type":"address","indexed":true,"internalType":"address"},{"name":"vsAmount","type":"uint256","indexed":false,"internalType":"uint256"},{"name":"underlyingAmount","type":"uint256","indexed":false,"internalType":"uint256"}],"anonymous":false},{"type":"event","name":"Unpaused","inputs":[{"name":"account","type":"address","indexed":false,"internalType":"address"}],"anonymous":false},{"type":"event","name":"VestedTokensClaimed","inputs":[{"name":"caller","type":"address","indexed":true,"internalType":"address"},{"name":"totalAmount","type":"uint256","indexed":false,"internalType":"uint256"},{"name":"incentivePaid","type":"uint256","indexed":false,"internalType":"uint256"}],"anonymous":false},{"type":"error","name":"EnforcedPause","inputs":[]},{"type":"error","name":"ExpectedPause","inputs":[]},{"type":"error","name":"OwnableInvalidOwner","inputs":[{"name":"owner","type":"address","internalType":"address"}]},{"type":"error","name":"OwnableUnauthorizedAccount","inputs":[{"name":"account","type":"address","internalType":"address"}]},{"type":"error","name":"ReentrancyGuardReentrantCall","inputs":[]}],"bytecode":{"object":"0x60a060405234801561000f575f5ffd5b5060405161307e38038061307e83398181016040528101906100319190610295565b335f73ffffffffffffffffffffffffffffffffffffffff168173ffffffffffffffffffffffffffffffffffffffff16036100a2575f6040517f1e4fbdf700000000000000000000000000000000000000000000000000000000815260040161009991906102f4565b60405180910390fd5b6100b18161017660201b60201c565b506001808190555082600260016101000a81548173ffffffffffffffffffffffffffffffffffffffff021916908373ffffffffffffffffffffffffffffffffffffffff1602179055508173ffffffffffffffffffffffffffffffffffffffff1660808173ffffffffffffffffffffffffffffffffffffffff16815250508060055f6101000a81548173ffffffffffffffffffffffffffffffffffffffff021916908373ffffffffffffffffffffffffffffffffffffffff16021790555050505061030d565b5f5f5f9054906101000a900473ffffffffffffffffffffffffffffffffffffffff169050815f5f6101000a81548173ffffffffffffffffffffffffffffffffffffffff021916908373ffffffffffffffffffffffffffffffffffffffff1602179055508173ffffffffffffffffffffffffffffffffffffffff168173ffffffffffffffffffffffffffffffffffffffff167f8be0079c531659141344cd1fd0a4f28419497f9722a3daafe3b4186f6b6457e060405160405180910390a35050565b5f5ffd5b5f73ffffffffffffffffffffffffffffffffffffffff82169050919050565b5f6102648261023b565b9050919050565b6102748161025a565b811461027e575f5ffd5b50565b5f8151905061028f8161026b565b92915050565b5f5f5f606084860312156102ac576102ab610237565b5b5f6102b986828701610281565b93505060206102ca86828701610281565b92505060406102db86828701610281565b9150509250925092565b6102ee8161025a565b82525050565b5f6020820190506103075f8301846102e5565b92915050565b608051612d286103565f395f81816103a00152818161049501528181610fa301528181611185015281816115800152818161163e015281816119fd0152611a9d0152612d285ff3fe608060405234801561000f575f5ffd5b5060043610610135575f3560e01c8063803db96d116100b6578063b6b55f251161007a578063b6b55f25146102f1578063be3782281461030d578063bea43a221461032b578063db006a7514610349578063dfff796714610365578063f2fde38b1461038157610135565b8063803db96d146102715780638456cb591461028f5780638da5cb5b14610299578063a7ccabdf146102b7578063aa30c4b7146102d357610135565b80633f4ba83a116100fd5780633f4ba83a146101f357806343785dc9146101fd5780635204472d146102195780635c975abb14610249578063715018a61461026757610135565b806301e1d11414610139578063150b7a021461015757806315cfc88e1461018757806316d812f6146101a55780632495a599146101d5575b5f5ffd5b61014161039d565b60405161014e9190611f0e565b60405180910390f35b610171600480360381019061016c91906120f8565b61043b565b60405161017e91906121b2565b60405180910390f35b61018f61044e565b60405161019c91906121da565b60405180910390f35b6101bf60048036038101906101ba91906121f3565b610473565b6040516101cc9190611f0e565b60405180910390f35b6101dd610493565b6040516101ea91906121da565b60405180910390f35b6101fb6104b7565b005b6102176004803603810190610212919061221e565b6104c9565b005b610233600480360381019061022e91906121f3565b6105ac565b60405161024091906121da565b60405180910390f35b6102516105dc565b60405161025e9190612276565b60405180910390f35b61026f6105f1565b005b610279610604565b60405161028691906121da565b60405180910390f35b610297610629565b005b6102a161063b565b6040516102ae91906121da565b60405180910390f35b6102d160048036038101906102cc919061228f565b610662565b005b6102db6107ed565b6040516102e89190612315565b60405180910390f35b61030b600480360381019061030691906121f3565b610813565b005b610315610d94565b6040516103229190611f0e565b60405180910390f35b610333610d99565b6040516103409190611f0e565b60405180910390f35b610363600480360381019061035e91906121f3565b610d9e565b005b61037f600480360381019061037a919061232e565b61173a565b005b61039b6004803603810190610396919061228f565b611b90565b005b5f7f000000000000000000000000000000000000000000000000000000000000000073ffffffffffffffffffffffffffffffffffffffff166370a08231306040518263ffffffff1660e01b81526004016103f791906121da565b602060405180830381865afa158015610412573d5f5f3e3d5ffd5b505050506040513d601f19601f820116820180604052508101906104369190612380565b905090565b5f63150b7a0260e01b9050949350505050565b60035f9054906101000a900473ffffffffffffffffffffffffffffffffffffffff1681565b60048181548110610482575f80fd5b905f5260205f20015f915090505481565b7f000000000000000000000000000000000000000000000000000000000000000081565b6104bf611c14565b6104c7611c9b565b565b6104d1611c14565b690a968163f0a57b40000081111561051e576040517f08c379a000000000000000000000000000000000000000000000000000000000815260040161051590612405565b60405180910390fd5b600260019054906101000a900473ffffffffffffffffffffffffffffffffffffffff1673ffffffffffffffffffffffffffffffffffffffff166340c10f1983836040518363ffffffff1660e01b815260040161057b929190612423565b5f604051808303815f87803b158015610592575f5ffd5b505af11580156105a4573d5f5f3e3d5ffd5b505050505050565b6006602052805f5260405f205f915054906101000a900473ffffffffffffffffffffffffffffffffffffffff1681565b5f60025f9054906101000a900460ff16905090565b6105f9611c14565b6106025f611cfc565b565b60055f9054906101000a900473ffffffffffffffffffffffffffffffffffffffff1681565b610631611c14565b610639611dbd565b565b5f5f5f9054906101000a900473ffffffffffffffffffffffffffffffffffffffff16905090565b61066a611c14565b5f73ffffffffffffffffffffffffffffffffffffffff1660035f9054906101000a900473ffffffffffffffffffffffffffffffffffffffff1673ffffffffffffffffffffffffffffffffffffffff16146106f9576040517f08c379a00000000000000000000000000000000000000000000000000000000081526004016106f090612494565b60405180910390fd5b5f73ffffffffffffffffffffffffffffffffffffffff168173ffffffffffffffffffffffffffffffffffffffff1603610767576040517f08c379a000000000000000000000000000000000000000000000000000000000815260040161075e90612522565b60405180910390fd5b8060035f6101000a81548173ffffffffffffffffffffffffffffffffffffffff021916908373ffffffffffffffffffffffffffffffffffffffff1602179055508073ffffffffffffffffffffffffffffffffffffffff167f5a6a54be6929433a25d1b5103e7dea8d9440b7903216e380344a320ca1cdd85f60405160405180910390a250565b600260019054906101000a900473ffffffffffffffffffffffffffffffffffffffff1681565b61081b611e1f565b610823611e65565b5f73ffffffffffffffffffffffffffffffffffffffff1660035f9054906101000a900473ffffffffffffffffffffffffffffffffffffffff1673ffffffffffffffffffffffffffffffffffffffff16036108b2576040517f08c379a00000000000000000000000000000000000000000000000000000000081526004016108a99061258a565b60405180910390fd5b5f73ffffffffffffffffffffffffffffffffffffffff1660065f8381526020019081526020015f205f9054906101000a900473ffffffffffffffffffffffffffffffffffffffff1673ffffffffffffffffffffffffffffffffffffffff1614610950576040517f08c379a0000000000000000000000000000000000000000000000000000000008152600401610947906125f2565b60405180910390fd5b3373ffffffffffffffffffffffffffffffffffffffff1660035f9054906101000a900473ffffffffffffffffffffffffffffffffffffffff1673ffffffffffffffffffffffffffffffffffffffff16636352211e836040518263ffffffff1660e01b81526004016109c19190611f0e565b602060405180830381865afa1580156109dc573d5f5f3e3d5ffd5b505050506040513d601f19601f82011682018060405250810190610a009190612624565b73ffffffffffffffffffffffffffffffffffffffff1614610a56576040517f08c379a0000000000000000000000000000000000000000000000000000000008152600401610a4d90612699565b60405180910390fd5b3073ffffffffffffffffffffffffffffffffffffffff1660035f9054906101000a900473ffffffffffffffffffffffffffffffffffffffff1673ffffffffffffffffffffffffffffffffffffffff1663c6b84b09836040518263ffffffff1660e01b8152600401610ac79190611f0e565b602060405180830381865afa158015610ae2573d5f5f3e3d5ffd5b505050506040513d601f19601f82011682018060405250810190610b069190612624565b73ffffffffffffffffffffffffffffffffffffffff1614610b5c576040517f08c379a0000000000000000000000000000000000000000000000000000000008152600401610b5390612727565b60405180910390fd5b3360065f8381526020019081526020015f205f6101000a81548173ffffffffffffffffffffffffffffffffffffffff021916908373ffffffffffffffffffffffffffffffffffffffff160217905550600481908060018154018082558091505060019003905f5260205f20015f90919091909150555f60035f9054906101000a900473ffffffffffffffffffffffffffffffffffffffff1673ffffffffffffffffffffffffffffffffffffffff1663f0e40662836040518263ffffffff1660e01b8152600401610c2c9190611f0e565b602060405180830381865afa158015610c47573d5f5f3e3d5ffd5b505050506040513d601f19601f82011682018060405250810190610c6b9190612380565b90505f8111610caf576040517f08c379a0000000000000000000000000000000000000000000000000000000008152600401610ca69061278f565b60405180910390fd5b600260019054906101000a900473ffffffffffffffffffffffffffffffffffffffff1673ffffffffffffffffffffffffffffffffffffffff166340c10f1933836040518363ffffffff1660e01b8152600401610d0c929190612423565b5f604051808303815f87803b158015610d23575f5ffd5b505af1158015610d35573d5f5f3e3d5ffd5b50505050813373ffffffffffffffffffffffffffffffffffffffff167fdeba2d4291edd2e29ef127ea6e31f12ebb9adc96b42605081927d379bdcb8bed83604051610d809190611f0e565b60405180910390a350610d91611ea6565b50565b606481565b600581565b610da6611e1f565b610dae611e65565b5f8111610df0576040517f08c379a0000000000000000000000000000000000000000000000000000000008152600401610de7906127f7565b60405180910390fd5b80600260019054906101000a900473ffffffffffffffffffffffffffffffffffffffff1673ffffffffffffffffffffffffffffffffffffffff166370a08231336040518263ffffffff1660e01b8152600401610e4c91906121da565b602060405180830381865afa158015610e67573d5f5f3e3d5ffd5b505050506040513d601f19601f82011682018060405250810190610e8b9190612380565b1015610ecc576040517f08c379a0000000000000000000000000000000000000000000000000000000008152600401610ec39061285f565b60405180910390fd5b5f600260019054906101000a900473ffffffffffffffffffffffffffffffffffffffff1673ffffffffffffffffffffffffffffffffffffffff166318160ddd6040518163ffffffff1660e01b8152600401602060405180830381865afa158015610f38573d5f5f3e3d5ffd5b505050506040513d601f19601f82011682018060405250810190610f5c9190612380565b90505f8111610fa0576040517f08c379a0000000000000000000000000000000000000000000000000000000008152600401610f97906128c7565b60405180910390fd5b5f7f000000000000000000000000000000000000000000000000000000000000000073ffffffffffffffffffffffffffffffffffffffff166370a08231306040518263ffffffff1660e01b8152600401610ffa91906121da565b602060405180830381865afa158015611015573d5f5f3e3d5ffd5b505050506040513d601f19601f820116820180604052508101906110399190612380565b90505f5f90505b600480549050811015611121575f60048281548110611062576110616128e5565b5b905f5260205f200154905060035f9054906101000a900473ffffffffffffffffffffffffffffffffffffffff1673ffffffffffffffffffffffffffffffffffffffff1663d1d58b25826040518263ffffffff1660e01b81526004016110c79190611f0e565b602060405180830381865afa1580156110e2573d5f5f3e3d5ffd5b505050506040513d601f19601f820116820180604052508101906111069190612380565b83611111919061293f565b9250508080600101915050611040565b505f8111611164576040517f08c379a000000000000000000000000000000000000000000000000000000000815260040161115b906129e2565b60405180910390fd5b5f8282856111729190612a00565b61117c9190612a6e565b90505f5f90505f7f000000000000000000000000000000000000000000000000000000000000000073ffffffffffffffffffffffffffffffffffffffff166370a08231306040518263ffffffff1660e01b81526004016111dc91906121da565b602060405180830381865afa1580156111f7573d5f5f3e3d5ffd5b505050506040513d601f19601f8201168201806040525081019061121b9190612380565b90505f811115611247575f8382106112335783611235565b815b90508083611243919061293f565b9250505b82821015611425575f828461125c9190612a9e565b90505f5f90505b6004805490508110801561127657505f82115b15611422575f600482815481106112905761128f6128e5565b5b905f5260205f20015490505f60035f9054906101000a900473ffffffffffffffffffffffffffffffffffffffff1673ffffffffffffffffffffffffffffffffffffffff1663d1d58b25836040518263ffffffff1660e01b81526004016112f69190611f0e565b602060405180830381865afa158015611311573d5f5f3e3d5ffd5b505050506040513d601f19601f820116820180604052508101906113359190612380565b90505f81111561140c5760035f9054906101000a900473ffffffffffffffffffffffffffffffffffffffff1673ffffffffffffffffffffffffffffffffffffffff16637935510b836040518263ffffffff1660e01b81526004016113999190611f0e565b6020604051808303815f875af19250505080156113d457506040513d601f19601f820116820180604052508101906113d19190612380565b60015b6113df57505061140f565b80876113eb919061293f565b96508481106113fc57505050611422565b80856114089190612a9e565b9450505b50505b808061141a90612ad1565b915050611263565b50505b5f8211611467576040517f08c379a000000000000000000000000000000000000000000000000000000000815260040161145e90612b88565b60405180910390fd5b5f6127106064846114789190612a00565b6114829190612a6e565b90505f81846114919190612a9e565b9050600260019054906101000a900473ffffffffffffffffffffffffffffffffffffffff1673ffffffffffffffffffffffffffffffffffffffff16639dc29fac338a6040518363ffffffff1660e01b81526004016114f0929190612423565b5f604051808303815f87803b158015611507575f5ffd5b505af1158015611519573d5f5f3e3d5ffd5b505050505f8211801561157957505f73ffffffffffffffffffffffffffffffffffffffff1660055f9054906101000a900473ffffffffffffffffffffffffffffffffffffffff1673ffffffffffffffffffffffffffffffffffffffff1614155b1561163c577f000000000000000000000000000000000000000000000000000000000000000073ffffffffffffffffffffffffffffffffffffffff1663a9059cbb60055f9054906101000a900473ffffffffffffffffffffffffffffffffffffffff16846040518363ffffffff1660e01b81526004016115fa929190612423565b6020604051808303815f875af1158015611616573d5f5f3e3d5ffd5b505050506040513d601f19601f8201168201806040525081019061163a9190612bd0565b505b7f000000000000000000000000000000000000000000000000000000000000000073ffffffffffffffffffffffffffffffffffffffff1663a9059cbb33836040518363ffffffff1660e01b8152600401611697929190612423565b6020604051808303815f875af11580156116b3573d5f5f3e3d5ffd5b505050506040513d601f19601f820116820180604052508101906116d79190612bd0565b503373ffffffffffffffffffffffffffffffffffffffff167ff3a670cd3af7d64b488926880889d08a8585a138ff455227af6737339a1ec2628983604051611720929190612bfb565b60405180910390a250505050505050611737611ea6565b50565b5f5f90505f828461174b919061293f565b9050600480549050811115611795576040517f08c379a000000000000000000000000000000000000000000000000000000000815260040161178c90612c6c565b60405180910390fd5b5f8490505b818110156119c4575f600482815481106117b7576117b66128e5565b5b905f5260205f20015490505f73ffffffffffffffffffffffffffffffffffffffff1660065f8381526020019081526020015f205f9054906101000a900473ffffffffffffffffffffffffffffffffffffffff1673ffffffffffffffffffffffffffffffffffffffff1603611860576040517f08c379a000000000000000000000000000000000000000000000000000000000815260040161185790612cd4565b60405180910390fd5b5f60035f9054906101000a900473ffffffffffffffffffffffffffffffffffffffff1673ffffffffffffffffffffffffffffffffffffffff1663d1d58b25836040518263ffffffff1660e01b81526004016118bb9190611f0e565b602060405180830381865afa1580156118d6573d5f5f3e3d5ffd5b505050506040513d601f19601f820116820180604052508101906118fa9190612380565b90505f8111156119b45760035f9054906101000a900473ffffffffffffffffffffffffffffffffffffffff1673ffffffffffffffffffffffffffffffffffffffff16637935510b836040518263ffffffff1660e01b815260040161195e9190611f0e565b6020604051808303815f875af192505050801561199957506040513d601f19601f820116820180604052508101906119969190612380565b60015b6119a45750506119b7565b80866119b0919061293f565b9550505b50505b808060010191505061179a565b505f82036119d3575050611b8c565b5f6127106005846119e49190612a00565b6119ee9190612a6e565b90505f81118015611a965750807f000000000000000000000000000000000000000000000000000000000000000073ffffffffffffffffffffffffffffffffffffffff166370a08231306040518263ffffffff1660e01b8152600401611a5491906121da565b602060405180830381865afa158015611a6f573d5f5f3e3d5ffd5b505050506040513d601f19601f82011682018060405250810190611a939190612380565b10155b15611b38577f000000000000000000000000000000000000000000000000000000000000000073ffffffffffffffffffffffffffffffffffffffff1663a9059cbb33836040518363ffffffff1660e01b8152600401611af6929190612423565b6020604051808303815f875af1158015611b12573d5f5f3e3d5ffd5b505050506040513d601f19601f82011682018060405250810190611b369190612bd0565b505b3373ffffffffffffffffffffffffffffffffffffffff167f6c4474f5353aa538dd7698fa19be2149fc1d9fee5ab8a6af3de07ca84b7f28c78483604051611b80929190612bfb565b60405180910390a25050505b5050565b611b98611c14565b5f73ffffffffffffffffffffffffffffffffffffffff168173ffffffffffffffffffffffffffffffffffffffff1603611c08575f6040517f1e4fbdf7000000000000000000000000000000000000000000000000000000008152600401611bff91906121da565b60405180910390fd5b611c1181611cfc565b50565b611c1c611eaf565b73ffffffffffffffffffffffffffffffffffffffff16611c3a61063b565b73ffffffffffffffffffffffffffffffffffffffff1614611c9957611c5d611eaf565b6040517f118cdaa7000000000000000000000000000000000000000000000000000000008152600401611c9091906121da565b60405180910390fd5b565b611ca3611eb6565b5f60025f6101000a81548160ff0219169083151502179055507f5db9ee0a495bf2e6ff9c91a7834c1ba4fdd244a5e8aa4e537bd38aeae4b073aa611ce5611eaf565b604051611cf291906121da565b60405180910390a1565b5f5f5f9054906101000a900473ffffffffffffffffffffffffffffffffffffffff169050815f5f6101000a81548173ffffffffffffffffffffffffffffffffffffffff021916908373ffffffffffffffffffffffffffffffffffffffff1602179055508173ffffffffffffffffffffffffffffffffffffffff168173ffffffffffffffffffffffffffffffffffffffff167f8be0079c531659141344cd1fd0a4f28419497f9722a3daafe3b4186f6b6457e060405160405180910390a35050565b611dc5611e65565b600160025f6101000a81548160ff0219169083151502179055507f62e78cea01bee320cd4e420270b5ea74000d11b0c9f74754ebdbfc544b05a258611e08611eaf565b604051611e1591906121da565b60405180910390a1565b600260015403611e5b576040517f3ee5aeb500000000000000000000000000000000000000000000000000000000815260040160405180910390fd5b6002600181905550565b611e6d6105dc565b15611ea4576040517fd93c066500000000000000000000000000000000000000000000000000000000815260040160405180910390fd5b565b60018081905550565b5f33905090565b611ebe6105dc565b611ef4576040517f8dfc202b00000000000000000000000000000000000000000000000000000000815260040160405180910390fd5b565b5f819050919050565b611f0881611ef6565b82525050565b5f602082019050611f215f830184611eff565b92915050565b5f604051905090565b5f5ffd5b5f5ffd5b5f73ffffffffffffffffffffffffffffffffffffffff82169050919050565b5f611f6182611f38565b9050919050565b611f7181611f57565b8114611f7b575f5ffd5b50565b5f81359050611f8c81611f68565b92915050565b611f9b81611ef6565b8114611fa5575f5ffd5b50565b5f81359050611fb681611f92565b92915050565b5f5ffd5b5f5ffd5b5f601f19601f8301169050919050565b7f4e487b71000000000000000000000000000000000000000000000000000000005f52604160045260245ffd5b61200a82611fc4565b810181811067ffffffffffffffff8211171561202957612028611fd4565b5b80604052505050565b5f61203b611f27565b90506120478282612001565b919050565b5f67ffffffffffffffff82111561206657612065611fd4565b5b61206f82611fc4565b9050602081019050919050565b828183375f83830152505050565b5f61209c6120978461204c565b612032565b9050828152602081018484840111156120b8576120b7611fc0565b5b6120c384828561207c565b509392505050565b5f82601f8301126120df576120de611fbc565b5b81356120ef84826020860161208a565b91505092915050565b5f5f5f5f608085870312156121105761210f611f30565b5b5f61211d87828801611f7e565b945050602061212e87828801611f7e565b935050604061213f87828801611fa8565b925050606085013567ffffffffffffffff8111156121605761215f611f34565b5b61216c878288016120cb565b91505092959194509250565b5f7fffffffff0000000000000000000000000000000000000000000000000000000082169050919050565b6121ac81612178565b82525050565b5f6020820190506121c55f8301846121a3565b92915050565b6121d481611f57565b82525050565b5f6020820190506121ed5f8301846121cb565b92915050565b5f6020828403121561220857612207611f30565b5b5f61221584828501611fa8565b91505092915050565b5f5f6040838503121561223457612233611f30565b5b5f61224185828601611f7e565b925050602061225285828601611fa8565b9150509250929050565b5f8115159050919050565b6122708161225c565b82525050565b5f6020820190506122895f830184612267565b92915050565b5f602082840312156122a4576122a3611f30565b5b5f6122b184828501611f7e565b91505092915050565b5f819050919050565b5f6122dd6122d86122d384611f38565b6122ba565b611f38565b9050919050565b5f6122ee826122c3565b9050919050565b5f6122ff826122e4565b9050919050565b61230f816122f5565b82525050565b5f6020820190506123285f830184612306565b92915050565b5f5f6040838503121561234457612343611f30565b5b5f61235185828601611fa8565b925050602061236285828601611fa8565b9150509250929050565b5f8151905061237a81611f92565b92915050565b5f6020828403121561239557612394611f30565b5b5f6123a28482850161236c565b91505092915050565b5f82825260208201905092915050565b7f4578636565647320656d657267656e6379206c696d69740000000000000000005f82015250565b5f6123ef6017836123ab565b91506123fa826123bb565b602082019050919050565b5f6020820190508181035f83015261241c816123e3565b9050919050565b5f6040820190506124365f8301856121cb565b6124436020830184611eff565b9392505050565b7f4e465420636f6e747261637420616c72656164792073657400000000000000005f82015250565b5f61247e6018836123ab565b91506124898261244a565b602082019050919050565b5f6020820190508181035f8301526124ab81612472565b9050919050565b7f4e465420636f6e74726163742063616e6e6f74206265207a65726f20616464725f8201527f6573730000000000000000000000000000000000000000000000000000000000602082015250565b5f61250c6023836123ab565b9150612517826124b2565b604082019050919050565b5f6020820190508181035f83015261253981612500565b9050919050565b7f4e465420636f6e7472616374206e6f74207365740000000000000000000000005f82015250565b5f6125746014836123ab565b915061257f82612540565b602082019050919050565b5f6020820190508181035f8301526125a181612568565b9050919050565b7f4e465420616c7265616479206465706f736974656400000000000000000000005f82015250565b5f6125dc6015836123ab565b91506125e7826125a8565b602082019050919050565b5f6020820190508181035f830152612609816125d0565b9050919050565b5f8151905061261e81611f68565b92915050565b5f6020828403121561263957612638611f30565b5b5f61264684828501612610565b91505092915050565b7f4e6f74204e4654206f776e6572000000000000000000000000000000000000005f82015250565b5f612683600d836123ab565b915061268e8261264f565b602082019050919050565b5f6020820190508181035f8301526126b081612677565b9050919050565b7f4d7573742064656c656761746520636c61696d696e672072696768747320746f5f8201527f207661756c742066697273740000000000000000000000000000000000000000602082015250565b5f612711602c836123ab565b915061271c826126b7565b604082019050919050565b5f6020820190508181035f83015261273e81612705565b9050919050565b7f4e465420686173206e6f2076616c7565000000000000000000000000000000005f82015250565b5f6127796010836123ab565b915061278482612745565b602082019050919050565b5f6020820190508181035f8301526127a68161276d565b9050919050565b7f43616e6e6f742072656465656d203000000000000000000000000000000000005f82015250565b5f6127e1600f836123ab565b91506127ec826127ad565b602082019050919050565b5f6020820190508181035f83015261280e816127d5565b9050919050565b7f496e73756666696369656e742076532062616c616e63650000000000000000005f82015250565b5f6128496017836123ab565b915061285482612815565b602082019050919050565b5f6020820190508181035f8301526128768161283d565b9050919050565b7f4e6f20765320746f6b656e7320696e2063697263756c6174696f6e00000000005f82015250565b5f6128b1601b836123ab565b91506128bc8261287d565b602082019050919050565b5f6020820190508181035f8301526128de816128a5565b9050919050565b7f4e487b71000000000000000000000000000000000000000000000000000000005f52603260045260245ffd5b7f4e487b71000000000000000000000000000000000000000000000000000000005f52601160045260245ffd5b5f61294982611ef6565b915061295483611ef6565b925082820190508082111561296c5761296b612912565b5b92915050565b7f4e6f2076616c756520617661696c61626c6520666f7220726564656d7074696f5f8201527f6e00000000000000000000000000000000000000000000000000000000000000602082015250565b5f6129cc6021836123ab565b91506129d782612972565b604082019050919050565b5f6020820190508181035f8301526129f9816129c0565b9050919050565b5f612a0a82611ef6565b9150612a1583611ef6565b9250828202612a2381611ef6565b91508282048414831517612a3a57612a39612912565b5b5092915050565b7f4e487b71000000000000000000000000000000000000000000000000000000005f52601260045260245ffd5b5f612a7882611ef6565b9150612a8383611ef6565b925082612a9357612a92612a41565b5b828204905092915050565b5f612aa882611ef6565b9150612ab383611ef6565b9250828203905081811115612acb57612aca612912565b5b92915050565b5f612adb82611ef6565b91507fffffffffffffffffffffffffffffffffffffffffffffffffffffffffffffffff8203612b0d57612b0c612912565b5b600182019050919050565b7f4e6f20746f6b656e7320617661696c61626c6520666f7220726564656d7074695f8201527f6f6e000000000000000000000000000000000000000000000000000000000000602082015250565b5f612b726022836123ab565b9150612b7d82612b18565b604082019050919050565b5f6020820190508181035f830152612b9f81612b66565b9050919050565b612baf8161225c565b8114612bb9575f5ffd5b50565b5f81519050612bca81612ba6565b92915050565b5f60208284031215612be557612be4611f30565b5b5f612bf284828501612bbc565b91505092915050565b5f604082019050612c0e5f830185611eff565b612c1b6020830184611eff565b9392505050565b7f496e646578206f7574206f6620626f756e6473000000000000000000000000005f82015250565b5f612c566013836123ab565b9150612c6182612c22565b602082019050919050565b5f6020820190508181035f830152612c8381612c4a565b9050919050565b7f4e4654206e6f74206465706f73697465640000000000000000000000000000005f82015250565b5f612cbe6011836123ab565b9150612cc982612c8a565b602082019050919050565b5f6020820190508181035f830152612ceb81612cb2565b905091905056fea2646970667358221220543a19477eeaeba3ad89d9b4b2a3e01ccde8623ac11746d9a66f131db26c3a9d64736f6c634300081c0033","linkReferences":{}},"methodIdentifiers":{"KEEPER_INCENTIVE_BPS()":"bea43a22","PROTOCOL_FEE_BPS()":"be378228","claimVested(uint256,uint256)":"dfff7967","deposit(uint256)":"b6b55f25","depositedNFTs(uint256)":"5204472d","emergencyMint(address,uint256)":"43785dc9","heldNFTs(uint256)":"16d812f6","onERC721Received(address,address,uint256,bytes)":"150b7a02","owner()":"8da5cb5b","pause()":"8456cb59","paused()":"5c975abb","protocolTreasury()":"803db96d","redeem(uint256)":"db006a75","renounceOwnership()":"715018a6","setNFTContract(address)":"a7ccabdf","sonicNFT()":"15cfc88e","totalAssets()":"01e1d114","transferOwnership(address)":"f2fde38b","underlyingToken()":"2495a599","unpause()":"3f4ba83a","vS()":"aa30c4b7"},"id":47}