{"abi":[{"type":"constructor","inputs":[{"name":"_vsToken","type":"address","internalType":"address"},{"name":"_underlyingToken","type":"address","internalType":"address"}],"stateMutability":"nonpayable"},{"type":"function","name":"KEEPER_INCENTIVE_BPS","inputs":[],"outputs":[{"name":"","type":"uint256","internalType":"uint256"}],"stateMutability":"view"},{"type":"function","name":"claimVested","inputs":[{"name":"startIndex","type":"uint256","internalType":"uint256"},{"name":"count","type":"uint256","internalType":"uint256"}],"outputs":[],"stateMutability":"nonpayable"},{"type":"function","name":"deposit","inputs":[{"name":"nftId","type":"uint256","internalType":"uint256"}],"outputs":[],"stateMutability":"nonpayable"},{"type":"function","name":"heldNFTs","inputs":[{"name":"","type":"uint256","internalType":"uint256"}],"outputs":[{"name":"","type":"uint256","internalType":"uint256"}],"stateMutability":"view"},{"type":"function","name":"onERC721Received","inputs":[{"name":"","type":"address","internalType":"address"},{"name":"","type":"address","internalType":"address"},{"name":"","type":"uint256","internalType":"uint256"},{"name":"","type":"bytes","internalType":"bytes"}],"outputs":[{"name":"","type":"bytes4","internalType":"bytes4"}],"stateMutability":"nonpayable"},{"type":"function","name":"owner","inputs":[],"outputs":[{"name":"","type":"address","internalType":"address"}],"stateMutability":"view"},{"type":"function","name":"redeem","inputs":[{"name":"amount","type":"uint256","internalType":"uint256"}],"outputs":[],"stateMutability":"nonpayable"},{"type":"function","name":"renounceOwnership","inputs":[],"outputs":[],"stateMutability":"nonpayable"},{"type":"function","name":"setNFTContract","inputs":[{"name":"_sonicNFT","type":"address","internalType":"address"}],"outputs":[],"stateMutability":"nonpayable"},{"type":"function","name":"sonicNFT","inputs":[],"outputs":[{"name":"","type":"address","internalType":"address"}],"stateMutability":"view"},{"type":"function","name":"totalAssets","inputs":[],"outputs":[{"name":"","type":"uint256","internalType":"uint256"}],"stateMutability":"view"},{"type":"function","name":"transferOwnership","inputs":[{"name":"newOwner","type":"address","internalType":"address"}],"outputs":[],"stateMutability":"nonpayable"},{"type":"function","name":"underlyingToken","inputs":[],"outputs":[{"name":"","type":"address","internalType":"address"}],"stateMutability":"view"},{"type":"function","name":"vS","inputs":[],"outputs":[{"name":"","type":"address","internalType":"contract VSToken"}],"stateMutability":"view"},{"type":"event","name":"NFTContractSet","inputs":[{"name":"nftContract","type":"address","indexed":true,"internalType":"address"}],"anonymous":false},{"type":"event","name":"NFTDeposited","inputs":[{"name":"user","type":"address","indexed":true,"internalType":"address"},{"name":"nftId","type":"uint256","indexed":true,"internalType":"uint256"},{"name":"amountMinted","type":"uint256","indexed":false,"internalType":"uint256"}],"anonymous":false},{"type":"event","name":"OwnershipTransferred","inputs":[{"name":"previousOwner","type":"address","indexed":true,"internalType":"address"},{"name":"newOwner","type":"address","indexed":true,"internalType":"address"}],"anonymous":false},{"type":"event","name":"Redeemed","inputs":[{"name":"user","type":"address","indexed":true,"internalType":"address"},{"name":"vsAmount","type":"uint256","indexed":false,"internalType":"uint256"},{"name":"underlyingAmount","type":"uint256","indexed":false,"internalType":"uint256"}],"anonymous":false},{"type":"event","name":"VestedTokensClaimed","inputs":[{"name":"caller","type":"address","indexed":true,"internalType":"address"},{"name":"totalAmount","type":"uint256","indexed":false,"internalType":"uint256"},{"name":"incentivePaid","type":"uint256","indexed":false,"internalType":"uint256"}],"anonymous":false},{"type":"error","name":"OwnableInvalidOwner","inputs":[{"name":"owner","type":"address","internalType":"address"}]},{"type":"error","name":"OwnableUnauthorizedAccount","inputs":[{"name":"account","type":"address","internalType":"address"}]}],"bytecode":{"object":"0x60a060405234801561000f575f5ffd5b50604051611d4b380380611d4b8339818101604052810190610031919061024c565b335f73ffffffffffffffffffffffffffffffffffffffff168173ffffffffffffffffffffffffffffffffffffffff16036100a2575f6040517f1e4fbdf70000000000000000000000000000000000000000000000000000000081526004016100999190610299565b60405180910390fd5b6100b18161012d60201b60201c565b508160015f6101000a81548173ffffffffffffffffffffffffffffffffffffffff021916908373ffffffffffffffffffffffffffffffffffffffff1602179055508073ffffffffffffffffffffffffffffffffffffffff1660808173ffffffffffffffffffffffffffffffffffffffff168152505050506102b2565b5f5f5f9054906101000a900473ffffffffffffffffffffffffffffffffffffffff169050815f5f6101000a81548173ffffffffffffffffffffffffffffffffffffffff021916908373ffffffffffffffffffffffffffffffffffffffff1602179055508173ffffffffffffffffffffffffffffffffffffffff168173ffffffffffffffffffffffffffffffffffffffff167f8be0079c531659141344cd1fd0a4f28419497f9722a3daafe3b4186f6b6457e060405160405180910390a35050565b5f5ffd5b5f73ffffffffffffffffffffffffffffffffffffffff82169050919050565b5f61021b826101f2565b9050919050565b61022b81610211565b8114610235575f5ffd5b50565b5f8151905061024681610222565b92915050565b5f5f60408385031215610262576102616101ee565b5b5f61026f85828601610238565b925050602061028085828601610238565b9150509250929050565b61029381610211565b82525050565b5f6020820190506102ac5f83018461028a565b92915050565b608051611a656102e65f395f81816102990152818161038e015281816108de01528181610b300152610da10152611a655ff3fe608060405234801561000f575f5ffd5b50600436106100e8575f3560e01c8063a7ccabdf1161008a578063bea43a2211610064578063bea43a2214610224578063db006a7514610242578063dfff79671461025e578063f2fde38b1461027a576100e8565b8063a7ccabdf146101ce578063aa30c4b7146101ea578063b6b55f2514610208576100e8565b806316d812f6116100c657806316d812f6146101585780632495a59914610188578063715018a6146101a65780638da5cb5b146101b0576100e8565b806301e1d114146100ec578063150b7a021461010a57806315cfc88e1461013a575b5f5ffd5b6100f4610296565b604051610101919061107f565b60405180910390f35b610124600480360381019061011f9190611269565b610334565b6040516101319190611323565b60405180910390f35b610142610347565b60405161014f919061134b565b60405180910390f35b610172600480360381019061016d9190611364565b61036c565b60405161017f919061107f565b60405180910390f35b61019061038c565b60405161019d919061134b565b60405180910390f35b6101ae6103b0565b005b6101b86103c3565b6040516101c5919061134b565b60405180910390f35b6101e860048036038101906101e3919061138f565b6103ea565b005b6101f2610575565b6040516101ff9190611415565b60405180910390f35b610222600480360381019061021d9190611364565b61059a565b005b61022c610894565b604051610239919061107f565b60405180910390f35b61025c60048036038101906102579190611364565b610899565b005b6102786004803603810190610273919061142e565b610c20565b005b610294600480360381019061028f919061138f565b610e94565b005b5f7f000000000000000000000000000000000000000000000000000000000000000073ffffffffffffffffffffffffffffffffffffffff166370a08231306040518263ffffffff1660e01b81526004016102f0919061134b565b602060405180830381865afa15801561030b573d5f5f3e3d5ffd5b505050506040513d601f19601f8201168201806040525081019061032f9190611480565b905090565b5f63150b7a0260e01b9050949350505050565b60025f9054906101000a900473ffffffffffffffffffffffffffffffffffffffff1681565b6003818154811061037b575f80fd5b905f5260205f20015f915090505481565b7f000000000000000000000000000000000000000000000000000000000000000081565b6103b8610f18565b6103c15f610f9f565b565b5f5f5f9054906101000a900473ffffffffffffffffffffffffffffffffffffffff16905090565b6103f2610f18565b5f73ffffffffffffffffffffffffffffffffffffffff1660025f9054906101000a900473ffffffffffffffffffffffffffffffffffffffff1673ffffffffffffffffffffffffffffffffffffffff1614610481576040517f08c379a000000000000000000000000000000000000000000000000000000000815260040161047890611505565b60405180910390fd5b5f73ffffffffffffffffffffffffffffffffffffffff168173ffffffffffffffffffffffffffffffffffffffff16036104ef576040517f08c379a00000000000000000000000000000000000000000000000000000000081526004016104e690611593565b60405180910390fd5b8060025f6101000a81548173ffffffffffffffffffffffffffffffffffffffff021916908373ffffffffffffffffffffffffffffffffffffffff1602179055508073ffffffffffffffffffffffffffffffffffffffff167f5a6a54be6929433a25d1b5103e7dea8d9440b7903216e380344a320ca1cdd85f60405160405180910390a250565b60015f9054906101000a900473ffffffffffffffffffffffffffffffffffffffff1681565b5f73ffffffffffffffffffffffffffffffffffffffff1660025f9054906101000a900473ffffffffffffffffffffffffffffffffffffffff1673ffffffffffffffffffffffffffffffffffffffff1603610629576040517f08c379a0000000000000000000000000000000000000000000000000000000008152600401610620906115fb565b60405180910390fd5b60025f9054906101000a900473ffffffffffffffffffffffffffffffffffffffff1673ffffffffffffffffffffffffffffffffffffffff166342842e0e3330846040518463ffffffff1660e01b815260040161068793929190611619565b5f604051808303815f87803b15801561069e575f5ffd5b505af11580156106b0573d5f5f3e3d5ffd5b50505050600381908060018154018082558091505060019003905f5260205f20015f90919091909150555f60025f9054906101000a900473ffffffffffffffffffffffffffffffffffffffff1673ffffffffffffffffffffffffffffffffffffffff1663f0e40662836040518263ffffffff1660e01b8152600401610735919061107f565b602060405180830381865afa158015610750573d5f5f3e3d5ffd5b505050506040513d601f19601f820116820180604052508101906107749190611480565b90505f81116107b8576040517f08c379a00000000000000000000000000000000000000000000000000000000081526004016107af90611698565b60405180910390fd5b60015f9054906101000a900473ffffffffffffffffffffffffffffffffffffffff1673ffffffffffffffffffffffffffffffffffffffff166340c10f1933836040518363ffffffff1660e01b81526004016108149291906116b6565b5f604051808303815f87803b15801561082b575f5ffd5b505af115801561083d573d5f5f3e3d5ffd5b50505050813373ffffffffffffffffffffffffffffffffffffffff167fdeba2d4291edd2e29ef127ea6e31f12ebb9adc96b42605081927d379bdcb8bed83604051610888919061107f565b60405180910390a35050565b600581565b5f81116108db576040517f08c379a00000000000000000000000000000000000000000000000000000000081526004016108d290611727565b60405180910390fd5b5f7f000000000000000000000000000000000000000000000000000000000000000073ffffffffffffffffffffffffffffffffffffffff166370a08231306040518263ffffffff1660e01b8152600401610935919061134b565b602060405180830381865afa158015610950573d5f5f3e3d5ffd5b505050506040513d601f19601f820116820180604052508101906109749190611480565b90505f60015f9054906101000a900473ffffffffffffffffffffffffffffffffffffffff1673ffffffffffffffffffffffffffffffffffffffff166318160ddd6040518163ffffffff1660e01b8152600401602060405180830381865afa1580156109e1573d5f5f3e3d5ffd5b505050506040513d601f19601f82011682018060405250810190610a059190611480565b90505f8111610a49576040517f08c379a0000000000000000000000000000000000000000000000000000000008152600401610a409061178f565b60405180910390fd5b5f818385610a5791906117da565b610a619190611848565b90505f8111610aa5576040517f08c379a0000000000000000000000000000000000000000000000000000000008152600401610a9c906118c2565b60405180910390fd5b60015f9054906101000a900473ffffffffffffffffffffffffffffffffffffffff1673ffffffffffffffffffffffffffffffffffffffff16639dc29fac33866040518363ffffffff1660e01b8152600401610b019291906116b6565b5f604051808303815f87803b158015610b18575f5ffd5b505af1158015610b2a573d5f5f3e3d5ffd5b505050507f000000000000000000000000000000000000000000000000000000000000000073ffffffffffffffffffffffffffffffffffffffff1663a9059cbb33836040518363ffffffff1660e01b8152600401610b899291906116b6565b6020604051808303815f875af1158015610ba5573d5f5f3e3d5ffd5b505050506040513d601f19601f82011682018060405250810190610bc99190611915565b503373ffffffffffffffffffffffffffffffffffffffff167ff3a670cd3af7d64b488926880889d08a8585a138ff455227af6737339a1ec2628583604051610c12929190611940565b60405180910390a250505050565b5f5f90505f8284610c319190611967565b9050600380549050811115610c7b576040517f08c379a0000000000000000000000000000000000000000000000000000000008152600401610c72906119e4565b60405180910390fd5b5f8490505b81811015610d6b575f60038281548110610c9d57610c9c611a02565b5b905f5260205f20015490505f60025f9054906101000a900473ffffffffffffffffffffffffffffffffffffffff1673ffffffffffffffffffffffffffffffffffffffff16637935510b836040518263ffffffff1660e01b8152600401610d03919061107f565b6020604051808303815f875af1158015610d1f573d5f5f3e3d5ffd5b505050506040513d601f19601f82011682018060405250810190610d439190611480565b90505f811115610d5c578085610d599190611967565b94505b50508080600101915050610c80565b505f8203610d7a575050610e90565b5f612710600584610d8b91906117da565b610d959190611848565b90505f811115610e3c577f000000000000000000000000000000000000000000000000000000000000000073ffffffffffffffffffffffffffffffffffffffff1663a9059cbb33836040518363ffffffff1660e01b8152600401610dfa9291906116b6565b6020604051808303815f875af1158015610e16573d5f5f3e3d5ffd5b505050506040513d601f19601f82011682018060405250810190610e3a9190611915565b505b3373ffffffffffffffffffffffffffffffffffffffff167f6c4474f5353aa538dd7698fa19be2149fc1d9fee5ab8a6af3de07ca84b7f28c78483604051610e84929190611940565b60405180910390a25050505b5050565b610e9c610f18565b5f73ffffffffffffffffffffffffffffffffffffffff168173ffffffffffffffffffffffffffffffffffffffff1603610f0c575f6040517f1e4fbdf7000000000000000000000000000000000000000000000000000000008152600401610f03919061134b565b60405180910390fd5b610f1581610f9f565b50565b610f20611060565b73ffffffffffffffffffffffffffffffffffffffff16610f3e6103c3565b73ffffffffffffffffffffffffffffffffffffffff1614610f9d57610f61611060565b6040517f118cdaa7000000000000000000000000000000000000000000000000000000008152600401610f94919061134b565b60405180910390fd5b565b5f5f5f9054906101000a900473ffffffffffffffffffffffffffffffffffffffff169050815f5f6101000a81548173ffffffffffffffffffffffffffffffffffffffff021916908373ffffffffffffffffffffffffffffffffffffffff1602179055508173ffffffffffffffffffffffffffffffffffffffff168173ffffffffffffffffffffffffffffffffffffffff167f8be0079c531659141344cd1fd0a4f28419497f9722a3daafe3b4186f6b6457e060405160405180910390a35050565b5f33905090565b5f819050919050565b61107981611067565b82525050565b5f6020820190506110925f830184611070565b92915050565b5f604051905090565b5f5ffd5b5f5ffd5b5f73ffffffffffffffffffffffffffffffffffffffff82169050919050565b5f6110d2826110a9565b9050919050565b6110e2816110c8565b81146110ec575f5ffd5b50565b5f813590506110fd816110d9565b92915050565b61110c81611067565b8114611116575f5ffd5b50565b5f8135905061112781611103565b92915050565b5f5ffd5b5f5ffd5b5f601f19601f8301169050919050565b7f4e487b71000000000000000000000000000000000000000000000000000000005f52604160045260245ffd5b61117b82611135565b810181811067ffffffffffffffff8211171561119a57611199611145565b5b80604052505050565b5f6111ac611098565b90506111b88282611172565b919050565b5f67ffffffffffffffff8211156111d7576111d6611145565b5b6111e082611135565b9050602081019050919050565b828183375f83830152505050565b5f61120d611208846111bd565b6111a3565b90508281526020810184848401111561122957611228611131565b5b6112348482856111ed565b509392505050565b5f82601f8301126112505761124f61112d565b5b81356112608482602086016111fb565b91505092915050565b5f5f5f5f60808587031215611281576112806110a1565b5b5f61128e878288016110ef565b945050602061129f878288016110ef565b93505060406112b087828801611119565b925050606085013567ffffffffffffffff8111156112d1576112d06110a5565b5b6112dd8782880161123c565b91505092959194509250565b5f7fffffffff0000000000000000000000000000000000000000000000000000000082169050919050565b61131d816112e9565b82525050565b5f6020820190506113365f830184611314565b92915050565b611345816110c8565b82525050565b5f60208201905061135e5f83018461133c565b92915050565b5f60208284031215611379576113786110a1565b5b5f61138684828501611119565b91505092915050565b5f602082840312156113a4576113a36110a1565b5b5f6113b1848285016110ef565b91505092915050565b5f819050919050565b5f6113dd6113d86113d3846110a9565b6113ba565b6110a9565b9050919050565b5f6113ee826113c3565b9050919050565b5f6113ff826113e4565b9050919050565b61140f816113f5565b82525050565b5f6020820190506114285f830184611406565b92915050565b5f5f60408385031215611444576114436110a1565b5b5f61145185828601611119565b925050602061146285828601611119565b9150509250929050565b5f8151905061147a81611103565b92915050565b5f60208284031215611495576114946110a1565b5b5f6114a28482850161146c565b91505092915050565b5f82825260208201905092915050565b7f4e465420636f6e747261637420616c72656164792073657400000000000000005f82015250565b5f6114ef6018836114ab565b91506114fa826114bb565b602082019050919050565b5f6020820190508181035f83015261151c816114e3565b9050919050565b7f4e465420636f6e74726163742063616e6e6f74206265207a65726f20616464725f8201527f6573730000000000000000000000000000000000000000000000000000000000602082015250565b5f61157d6023836114ab565b915061158882611523565b604082019050919050565b5f6020820190508181035f8301526115aa81611571565b9050919050565b7f4e465420636f6e7472616374206e6f74207365740000000000000000000000005f82015250565b5f6115e56014836114ab565b91506115f0826115b1565b602082019050919050565b5f6020820190508181035f830152611612816115d9565b9050919050565b5f60608201905061162c5f83018661133c565b611639602083018561133c565b6116466040830184611070565b949350505050565b7f4e465420686173206e6f2076616c7565000000000000000000000000000000005f82015250565b5f6116826010836114ab565b915061168d8261164e565b602082019050919050565b5f6020820190508181035f8301526116af81611676565b9050919050565b5f6040820190506116c95f83018561133c565b6116d66020830184611070565b9392505050565b7f43616e6e6f742072656465656d203000000000000000000000000000000000005f82015250565b5f611711600f836114ab565b915061171c826116dd565b602082019050919050565b5f6020820190508181035f83015261173e81611705565b9050919050565b7f4e6f20765320746f6b656e7320696e2063697263756c6174696f6e00000000005f82015250565b5f611779601b836114ab565b915061178482611745565b602082019050919050565b5f6020820190508181035f8301526117a68161176d565b9050919050565b7f4e487b71000000000000000000000000000000000000000000000000000000005f52601160045260245ffd5b5f6117e482611067565b91506117ef83611067565b92508282026117fd81611067565b91508282048414831517611814576118136117ad565b5b5092915050565b7f4e487b71000000000000000000000000000000000000000000000000000000005f52601260045260245ffd5b5f61185282611067565b915061185d83611067565b92508261186d5761186c61181b565b5b828204905092915050565b7f4e6f20756e6465726c79696e672061737365747320746f2072656465656d00005f82015250565b5f6118ac601e836114ab565b91506118b782611878565b602082019050919050565b5f6020820190508181035f8301526118d9816118a0565b9050919050565b5f8115159050919050565b6118f4816118e0565b81146118fe575f5ffd5b50565b5f8151905061190f816118eb565b92915050565b5f6020828403121561192a576119296110a1565b5b5f61193784828501611901565b91505092915050565b5f6040820190506119535f830185611070565b6119606020830184611070565b9392505050565b5f61197182611067565b915061197c83611067565b9250828201905080821115611994576119936117ad565b5b92915050565b7f496e646578206f7574206f6620626f756e6473000000000000000000000000005f82015250565b5f6119ce6013836114ab565b91506119d98261199a565b602082019050919050565b5f6020820190508181035f8301526119fb816119c2565b9050919050565b7f4e487b71000000000000000000000000000000000000000000000000000000005f52603260045260245ffdfea2646970667358221220512cd149d1401f2cd245e8fe636cae7ba2d0ee60871f601220d48f07d1bb7cc064736f6c634300081c0033","linkReferences":{}},"methodIdentifiers":{"KEEPER_INCENTIVE_BPS()":"bea43a22","claimVested(uint256,uint256)":"dfff7967","deposit(uint256)":"b6b55f25","heldNFTs(uint256)":"16d812f6","onERC721Received(address,address,uint256,bytes)":"150b7a02","owner()":"8da5cb5b","redeem(uint256)":"db006a75","renounceOwnership()":"715018a6","setNFTContract(address)":"a7ccabdf","sonicNFT()":"15cfc88e","totalAssets()":"01e1d114","transferOwnership(address)":"f2fde38b","underlyingToken()":"2495a599","vS()":"aa30c4b7"},"id":40}