{"abi":[{"type":"constructor","inputs":[],"stateMutability":"nonpayable"},{"type":"function","name":"VESTING_PERIOD","inputs":[],"outputs":[{"name":"","type":"uint256","internalType":"uint256"}],"stateMutability":"view"},{"type":"function","name":"approve","inputs":[{"name":"to","type":"address","internalType":"address"},{"name":"tokenId","type":"uint256","internalType":"uint256"}],"outputs":[],"stateMutability":"nonpayable"},{"type":"function","name":"balanceOf","inputs":[{"name":"owner","type":"address","internalType":"address"}],"outputs":[{"name":"","type":"uint256","internalType":"uint256"}],"stateMutability":"view"},{"type":"function","name":"claimable","inputs":[{"name":"tokenId","type":"uint256","internalType":"uint256"}],"outputs":[{"name":"","type":"uint256","internalType":"uint256"}],"stateMutability":"view"},{"type":"function","name":"getApproved","inputs":[{"name":"tokenId","type":"uint256","internalType":"uint256"}],"outputs":[{"name":"","type":"address","internalType":"address"}],"stateMutability":"view"},{"type":"function","name":"isApprovedForAll","inputs":[{"name":"owner","type":"address","internalType":"address"},{"name":"operator","type":"address","internalType":"address"}],"outputs":[{"name":"","type":"bool","internalType":"bool"}],"stateMutability":"view"},{"type":"function","name":"mint","inputs":[{"name":"to","type":"address","internalType":"address"},{"name":"totalS","type":"uint256","internalType":"uint256"}],"outputs":[{"name":"","type":"uint256","internalType":"uint256"}],"stateMutability":"nonpayable"},{"type":"function","name":"name","inputs":[],"outputs":[{"name":"","type":"string","internalType":"string"}],"stateMutability":"view"},{"type":"function","name":"nextId","inputs":[],"outputs":[{"name":"","type":"uint256","internalType":"uint256"}],"stateMutability":"view"},{"type":"function","name":"ownerOf","inputs":[{"name":"tokenId","type":"uint256","internalType":"uint256"}],"outputs":[{"name":"","type":"address","internalType":"address"}],"stateMutability":"view"},{"type":"function","name":"penalty","inputs":[{"name":"tokenId","type":"uint256","internalType":"uint256"}],"outputs":[{"name":"","type":"uint256","internalType":"uint256"}],"stateMutability":"view"},{"type":"function","name":"safeTransferFrom","inputs":[{"name":"from","type":"address","internalType":"address"},{"name":"to","type":"address","internalType":"address"},{"name":"tokenId","type":"uint256","internalType":"uint256"}],"outputs":[],"stateMutability":"nonpayable"},{"type":"function","name":"safeTransferFrom","inputs":[{"name":"from","type":"address","internalType":"address"},{"name":"to","type":"address","internalType":"address"},{"name":"tokenId","type":"uint256","internalType":"uint256"},{"name":"data","type":"bytes","internalType":"bytes"}],"outputs":[],"stateMutability":"nonpayable"},{"type":"function","name":"setApprovalForAll","inputs":[{"name":"operator","type":"address","internalType":"address"},{"name":"approved","type":"bool","internalType":"bool"}],"outputs":[],"stateMutability":"nonpayable"},{"type":"function","name":"supportsInterface","inputs":[{"name":"interfaceId","type":"bytes4","internalType":"bytes4"}],"outputs":[{"name":"","type":"bool","internalType":"bool"}],"stateMutability":"view"},{"type":"function","name":"symbol","inputs":[],"outputs":[{"name":"","type":"string","internalType":"string"}],"stateMutability":"view"},{"type":"function","name":"tokenURI","inputs":[{"name":"tokenId","type":"uint256","internalType":"uint256"}],"outputs":[{"name":"","type":"string","internalType":"string"}],"stateMutability":"view"},{"type":"function","name":"transferFrom","inputs":[{"name":"from","type":"address","internalType":"address"},{"name":"to","type":"address","internalType":"address"},{"name":"tokenId","type":"uint256","internalType":"uint256"}],"outputs":[],"stateMutability":"nonpayable"},{"type":"function","name":"vestingInfo","inputs":[{"name":"","type":"uint256","internalType":"uint256"}],"outputs":[{"name":"totalS","type":"uint256","internalType":"uint256"},{"name":"startTime","type":"uint256","internalType":"uint256"}],"stateMutability":"view"},{"type":"event","name":"Approval","inputs":[{"name":"owner","type":"address","indexed":true,"internalType":"address"},{"name":"approved","type":"address","indexed":true,"internalType":"address"},{"name":"tokenId","type":"uint256","indexed":true,"internalType":"uint256"}],"anonymous":false},{"type":"event","name":"ApprovalForAll","inputs":[{"name":"owner","type":"address","indexed":true,"internalType":"address"},{"name":"operator","type":"address","indexed":true,"internalType":"address"},{"name":"approved","type":"bool","indexed":false,"internalType":"bool"}],"anonymous":false},{"type":"event","name":"Transfer","inputs":[{"name":"from","type":"address","indexed":true,"internalType":"address"},{"name":"to","type":"address","indexed":true,"internalType":"address"},{"name":"tokenId","type":"uint256","indexed":true,"internalType":"uint256"}],"anonymous":false},{"type":"error","name":"ERC721IncorrectOwner","inputs":[{"name":"sender","type":"address","internalType":"address"},{"name":"tokenId","type":"uint256","internalType":"uint256"},{"name":"owner","type":"address","internalType":"address"}]},{"type":"error","name":"ERC721InsufficientApproval","inputs":[{"name":"operator","type":"address","internalType":"address"},{"name":"tokenId","type":"uint256","internalType":"uint256"}]},{"type":"error","name":"ERC721InvalidApprover","inputs":[{"name":"approver","type":"address","internalType":"address"}]},{"type":"error","name":"ERC721InvalidOperator","inputs":[{"name":"operator","type":"address","internalType":"address"}]},{"type":"error","name":"ERC721InvalidOwner","inputs":[{"name":"owner","type":"address","internalType":"address"}]},{"type":"error","name":"ERC721InvalidReceiver","inputs":[{"name":"receiver","type":"address","internalType":"address"}]},{"type":"error","name":"ERC721InvalidSender","inputs":[{"name":"sender","type":"address","internalType":"address"}]},{"type":"error","name":"ERC721NonexistentToken","inputs":[{"name":"tokenId","type":"uint256","internalType":"uint256"}]}],"bytecode":{"object":"0x608060405234801561000f575f5ffd5b506040518060400160405280600981526020017f4d6f636b20664e465400000000000000000000000000000000000000000000008152506040518060400160405280600481526020017f664e465400000000000000000000000000000000000000000000000000000000815250815f908161008a91906102df565b50806001908161009a91906102df565b5050506103ae565b5f81519050919050565b7f4e487b71000000000000000000000000000000000000000000000000000000005f52604160045260245ffd5b7f4e487b71000000000000000000000000000000000000000000000000000000005f52602260045260245ffd5b5f600282049050600182168061011d57607f821691505b6020821081036101305761012f6100d9565b5b50919050565b5f819050815f5260205f209050919050565b5f6020601f8301049050919050565b5f82821b905092915050565b5f600883026101927fffffffffffffffffffffffffffffffffffffffffffffffffffffffffffffffff82610157565b61019c8683610157565b95508019841693508086168417925050509392505050565b5f819050919050565b5f819050919050565b5f6101e06101db6101d6846101b4565b6101bd565b6101b4565b9050919050565b5f819050919050565b6101f9836101c6565b61020d610205826101e7565b848454610163565b825550505050565b5f5f905090565b610224610215565b61022f8184846101f0565b505050565b5b81811015610252576102475f8261021c565b600181019050610235565b5050565b601f8211156102975761026881610136565b61027184610148565b81016020851015610280578190505b61029461028c85610148565b830182610234565b50505b505050565b5f82821c905092915050565b5f6102b75f198460080261029c565b1980831691505092915050565b5f6102cf83836102a8565b9150826002028217905092915050565b6102e8826100a2565b67ffffffffffffffff811115610301576103006100ac565b5b61030b8254610106565b610316828285610256565b5f60209050601f831160018114610347575f8415610335578287015190505b61033f85826102c4565b8655506103a6565b601f19841661035586610136565b5f5b8281101561037c57848901518255600182019150602085019450602081019050610357565b868310156103995784890151610395601f8916826102a8565b8355505b6001600288020188555050505b505050505050565b61212f806103bb5f395ff3fe608060405234801561000f575f5ffd5b506004361061011f575f3560e01c80636352211e116100ab578063a22cb4651161006f578063a22cb46514610340578063b88d4fde1461035c578063c87b56dd14610378578063d1d58b25146103a8578063e985e9c5146103d85761011f565b80636352211e1461026157806366ffcf5f146102915780636f9064d7146102c257806370a08231146102f257806395d89b41146103225761011f565b8063095ea7b3116100f2578063095ea7b3146101bf57806323b872dd146101db57806340c10f19146101f757806342842e0e1461022757806361b8ce8c146102435761011f565b80630197d9721461012357806301ffc9a71461014157806306fdde0314610171578063081812fc1461018f575b5f5ffd5b61012b610408565b604051610138919061184d565b60405180910390f35b61015b600480360381019061015691906118cc565b610410565b6040516101689190611911565b60405180910390f35b6101796104f1565b604051610186919061199a565b60405180910390f35b6101a960048036038101906101a491906119e4565b610580565b6040516101b69190611a4e565b60405180910390f35b6101d960048036038101906101d49190611a91565b61059b565b005b6101f560048036038101906101f09190611acf565b6105b1565b005b610211600480360381019061020c9190611a91565b6106b0565b60405161021e919061184d565b60405180910390f35b610241600480360381019061023c9190611acf565b610719565b005b61024b610738565b604051610258919061184d565b60405180910390f35b61027b600480360381019061027691906119e4565b61073e565b6040516102889190611a4e565b60405180910390f35b6102ab60048036038101906102a691906119e4565b61074f565b6040516102b9929190611b1f565b60405180910390f35b6102dc60048036038101906102d791906119e4565b61076f565b6040516102e9919061184d565b60405180910390f35b61030c60048036038101906103079190611b46565b610826565b604051610319919061184d565b60405180910390f35b61032a6108dc565b604051610337919061199a565b60405180910390f35b61035a60048036038101906103559190611b9b565b61096c565b005b61037660048036038101906103719190611d05565b610982565b005b610392600480360381019061038d91906119e4565b6109a7565b60405161039f919061199a565b60405180910390f35b6103c260048036038101906103bd91906119e4565b610a0d565b6040516103cf919061184d565b60405180910390f35b6103f260048036038101906103ed9190611d85565b610aa7565b6040516103ff9190611911565b60405180910390f35b630163f50081565b5f7f80ac58cd000000000000000000000000000000000000000000000000000000007bffffffffffffffffffffffffffffffffffffffffffffffffffffffff1916827bffffffffffffffffffffffffffffffffffffffffffffffffffffffff191614806104da57507f5b5e139f000000000000000000000000000000000000000000000000000000007bffffffffffffffffffffffffffffffffffffffffffffffffffffffff1916827bffffffffffffffffffffffffffffffffffffffffffffffffffffffff1916145b806104ea57506104e982610b35565b5b9050919050565b60605f80546104ff90611df0565b80601f016020809104026020016040519081016040528092919081815260200182805461052b90611df0565b80156105765780601f1061054d57610100808354040283529160200191610576565b820191905f5260205f20905b81548152906001019060200180831161055957829003601f168201915b5050505050905090565b5f61058a82610b9e565b5061059482610c24565b9050919050565b6105ad82826105a8610c5d565b610c64565b5050565b5f73ffffffffffffffffffffffffffffffffffffffff168273ffffffffffffffffffffffffffffffffffffffff1603610621575f6040517f64a0ae920000000000000000000000000000000000000000000000000000000081526004016106189190611a4e565b60405180910390fd5b5f610634838361062f610c5d565b610c76565b90508373ffffffffffffffffffffffffffffffffffffffff168173ffffffffffffffffffffffffffffffffffffffff16146106aa578382826040517f64283d7b0000000000000000000000000000000000000000000000000000000081526004016106a193929190611e20565b60405180910390fd5b50505050565b5f5f60065f8154809291906106c490611e82565b9190505590506106d48482610e81565b60405180604001604052808481526020014281525060075f8381526020019081526020015f205f820151815f0155602082015181600101559050508091505092915050565b61073383838360405180602001604052805f815250610982565b505050565b60065481565b5f61074882610b9e565b9050919050565b6007602052805f5260405f205f91509050805f0154908060010154905082565b5f5f60075f8481526020019081526020015f206040518060400160405290815f82015481526020016001820154815250509050806020015142116107be57670de0b6b3a7640000915050610821565b5f8160200151426107cf9190611ec9565b9050630163f50081106107e6575f92505050610821565b630163f50081670de0b6b3a76400006107ff9190611efc565b6108099190611f6a565b670de0b6b3a764000061081c9190611ec9565b925050505b919050565b5f5f73ffffffffffffffffffffffffffffffffffffffff168273ffffffffffffffffffffffffffffffffffffffff1603610897575f6040517f89c62b6400000000000000000000000000000000000000000000000000000000815260040161088e9190611a4e565b60405180910390fd5b60035f8373ffffffffffffffffffffffffffffffffffffffff1673ffffffffffffffffffffffffffffffffffffffff1681526020019081526020015f20549050919050565b6060600180546108eb90611df0565b80601f016020809104026020016040519081016040528092919081815260200182805461091790611df0565b80156109625780601f1061093957610100808354040283529160200191610962565b820191905f5260205f20905b81548152906001019060200180831161094557829003601f168201915b5050505050905090565b61097e610977610c5d565b8383610f74565b5050565b61098d8484846105b1565b6109a1610998610c5d565b858585856110dd565b50505050565b60606109b282610b9e565b505f6109bc611289565b90505f8151116109da5760405180602001604052805f815250610a05565b806109e48461129f565b6040516020016109f5929190611fd4565b6040516020818303038152906040525b915050919050565b5f5f60075f8481526020019081526020015f206040518060400160405290815f8201548152602001600182015481525050905080602001514211610a54575f915050610aa2565b5f816020015142610a659190611ec9565b9050630163f5008110610a7f57815f015192505050610aa2565b630163f50081835f0151610a939190611efc565b610a9d9190611f6a565b925050505b919050565b5f60055f8473ffffffffffffffffffffffffffffffffffffffff1673ffffffffffffffffffffffffffffffffffffffff1681526020019081526020015f205f8373ffffffffffffffffffffffffffffffffffffffff1673ffffffffffffffffffffffffffffffffffffffff1681526020019081526020015f205f9054906101000a900460ff16905092915050565b5f7f01ffc9a7000000000000000000000000000000000000000000000000000000007bffffffffffffffffffffffffffffffffffffffffffffffffffffffff1916827bffffffffffffffffffffffffffffffffffffffffffffffffffffffff1916149050919050565b5f5f610ba983611369565b90505f73ffffffffffffffffffffffffffffffffffffffff168173ffffffffffffffffffffffffffffffffffffffff1603610c1b57826040517f7e273289000000000000000000000000000000000000000000000000000000008152600401610c12919061184d565b60405180910390fd5b80915050919050565b5f60045f8381526020019081526020015f205f9054906101000a900473ffffffffffffffffffffffffffffffffffffffff169050919050565b5f33905090565b610c7183838360016113a2565b505050565b5f5f610c8184611369565b90505f73ffffffffffffffffffffffffffffffffffffffff168373ffffffffffffffffffffffffffffffffffffffff1614610cc257610cc1818486611561565b5b5f73ffffffffffffffffffffffffffffffffffffffff168173ffffffffffffffffffffffffffffffffffffffff1614610d4d57610d015f855f5f6113a2565b600160035f8373ffffffffffffffffffffffffffffffffffffffff1673ffffffffffffffffffffffffffffffffffffffff1681526020019081526020015f205f82825403925050819055505b5f73ffffffffffffffffffffffffffffffffffffffff168573ffffffffffffffffffffffffffffffffffffffff1614610dcc57600160035f8773ffffffffffffffffffffffffffffffffffffffff1673ffffffffffffffffffffffffffffffffffffffff1681526020019081526020015f205f82825401925050819055505b8460025f8681526020019081526020015f205f6101000a81548173ffffffffffffffffffffffffffffffffffffffff021916908373ffffffffffffffffffffffffffffffffffffffff160217905550838573ffffffffffffffffffffffffffffffffffffffff168273ffffffffffffffffffffffffffffffffffffffff167fddf252ad1be2c89b69c2b068fc378daa952ba7f163c4a11628f55a4df523b3ef60405160405180910390a4809150509392505050565b5f73ffffffffffffffffffffffffffffffffffffffff168273ffffffffffffffffffffffffffffffffffffffff1603610ef1575f6040517f64a0ae92000000000000000000000000000000000000000000000000000000008152600401610ee89190611a4e565b60405180910390fd5b5f610efd83835f610c76565b90505f73ffffffffffffffffffffffffffffffffffffffff168173ffffffffffffffffffffffffffffffffffffffff1614610f6f575f6040517f73c6ac6e000000000000000000000000000000000000000000000000000000008152600401610f669190611a4e565b60405180910390fd5b505050565b5f73ffffffffffffffffffffffffffffffffffffffff168273ffffffffffffffffffffffffffffffffffffffff1603610fe457816040517f5b08ba18000000000000000000000000000000000000000000000000000000008152600401610fdb9190611a4e565b60405180910390fd5b8060055f8573ffffffffffffffffffffffffffffffffffffffff1673ffffffffffffffffffffffffffffffffffffffff1681526020019081526020015f205f8473ffffffffffffffffffffffffffffffffffffffff1673ffffffffffffffffffffffffffffffffffffffff1681526020019081526020015f205f6101000a81548160ff0219169083151502179055508173ffffffffffffffffffffffffffffffffffffffff168373ffffffffffffffffffffffffffffffffffffffff167f17307eab39ab6107e8899845ad3d59bd9653f200f220920489ca2b5937696c31836040516110d09190611911565b60405180910390a3505050565b5f8373ffffffffffffffffffffffffffffffffffffffff163b1115611282578273ffffffffffffffffffffffffffffffffffffffff1663150b7a02868685856040518563ffffffff1660e01b815260040161113b9493929190612049565b6020604051808303815f875af192505050801561117657506040513d601f19601f8201168201806040525081019061117391906120a7565b60015b6111f7573d805f81146111a4576040519150601f19603f3d011682016040523d82523d5f602084013e6111a9565b606091505b505f8151036111ef57836040517f64a0ae920000000000000000000000000000000000000000000000000000000081526004016111e69190611a4e565b60405180910390fd5b805160208201fd5b63150b7a0260e01b7bffffffffffffffffffffffffffffffffffffffffffffffffffffffff1916817bffffffffffffffffffffffffffffffffffffffffffffffffffffffff19161461128057836040517f64a0ae920000000000000000000000000000000000000000000000000000000081526004016112779190611a4e565b60405180910390fd5b505b5050505050565b606060405180602001604052805f815250905090565b60605f60016112ad84611624565b0190505f8167ffffffffffffffff8111156112cb576112ca611be1565b5b6040519080825280601f01601f1916602001820160405280156112fd5781602001600182028036833780820191505090505b5090505f82602083010190505b60011561135e578080600190039150507f3031323334353637383961626364656600000000000000000000000000000000600a86061a8153600a858161135357611352611f3d565b5b0494505f850361130a575b819350505050919050565b5f60025f8381526020019081526020015f205f9054906101000a900473ffffffffffffffffffffffffffffffffffffffff169050919050565b80806113da57505f73ffffffffffffffffffffffffffffffffffffffff168273ffffffffffffffffffffffffffffffffffffffff1614155b1561150c575f6113e984610b9e565b90505f73ffffffffffffffffffffffffffffffffffffffff168373ffffffffffffffffffffffffffffffffffffffff161415801561145357508273ffffffffffffffffffffffffffffffffffffffff168173ffffffffffffffffffffffffffffffffffffffff1614155b801561146657506114648184610aa7565b155b156114a857826040517fa9fbf51f00000000000000000000000000000000000000000000000000000000815260040161149f9190611a4e565b60405180910390fd5b811561150a57838573ffffffffffffffffffffffffffffffffffffffff168273ffffffffffffffffffffffffffffffffffffffff167f8c5be1e5ebec7d5bd14f71427d1e84f3dd0314c0f7b2291e5b200ac8c7c3b92560405160405180910390a45b505b8360045f8581526020019081526020015f205f6101000a81548173ffffffffffffffffffffffffffffffffffffffff021916908373ffffffffffffffffffffffffffffffffffffffff16021790555050505050565b61156c838383611775565b61161f575f73ffffffffffffffffffffffffffffffffffffffff168373ffffffffffffffffffffffffffffffffffffffff16036115e057806040517f7e2732890000000000000000000000000000000000000000000000000000000081526004016115d7919061184d565b60405180910390fd5b81816040517f177e802f0000000000000000000000000000000000000000000000000000000081526004016116169291906120d2565b60405180910390fd5b505050565b5f5f5f90507a184f03e93ff9f4daa797ed6e38ed64bf6a1f0100000000000000008310611680577a184f03e93ff9f4daa797ed6e38ed64bf6a1f010000000000000000838161167657611675611f3d565b5b0492506040810190505b6d04ee2d6d415b85acef810000000083106116bd576d04ee2d6d415b85acef810000000083816116b3576116b2611f3d565b5b0492506020810190505b662386f26fc1000083106116ec57662386f26fc1000083816116e2576116e1611f3d565b5b0492506010810190505b6305f5e1008310611715576305f5e100838161170b5761170a611f3d565b5b0492506008810190505b612710831061173a5761271083816117305761172f611f3d565b5b0492506004810190505b6064831061175d576064838161175357611752611f3d565b5b0492506002810190505b600a831061176c576001810190505b80915050919050565b5f5f73ffffffffffffffffffffffffffffffffffffffff168373ffffffffffffffffffffffffffffffffffffffff161415801561182c57508273ffffffffffffffffffffffffffffffffffffffff168473ffffffffffffffffffffffffffffffffffffffff1614806117ed57506117ec8484610aa7565b5b8061182b57508273ffffffffffffffffffffffffffffffffffffffff1661181383610c24565b73ffffffffffffffffffffffffffffffffffffffff16145b5b90509392505050565b5f819050919050565b61184781611835565b82525050565b5f6020820190506118605f83018461183e565b92915050565b5f604051905090565b5f5ffd5b5f5ffd5b5f7fffffffff0000000000000000000000000000000000000000000000000000000082169050919050565b6118ab81611877565b81146118b5575f5ffd5b50565b5f813590506118c6816118a2565b92915050565b5f602082840312156118e1576118e061186f565b5b5f6118ee848285016118b8565b91505092915050565b5f8115159050919050565b61190b816118f7565b82525050565b5f6020820190506119245f830184611902565b92915050565b5f81519050919050565b5f82825260208201905092915050565b8281835e5f83830152505050565b5f601f19601f8301169050919050565b5f61196c8261192a565b6119768185611934565b9350611986818560208601611944565b61198f81611952565b840191505092915050565b5f6020820190508181035f8301526119b28184611962565b905092915050565b6119c381611835565b81146119cd575f5ffd5b50565b5f813590506119de816119ba565b92915050565b5f602082840312156119f9576119f861186f565b5b5f611a06848285016119d0565b91505092915050565b5f73ffffffffffffffffffffffffffffffffffffffff82169050919050565b5f611a3882611a0f565b9050919050565b611a4881611a2e565b82525050565b5f602082019050611a615f830184611a3f565b92915050565b611a7081611a2e565b8114611a7a575f5ffd5b50565b5f81359050611a8b81611a67565b92915050565b5f5f60408385031215611aa757611aa661186f565b5b5f611ab485828601611a7d565b9250506020611ac5858286016119d0565b9150509250929050565b5f5f5f60608486031215611ae657611ae561186f565b5b5f611af386828701611a7d565b9350506020611b0486828701611a7d565b9250506040611b15868287016119d0565b9150509250925092565b5f604082019050611b325f83018561183e565b611b3f602083018461183e565b9392505050565b5f60208284031215611b5b57611b5a61186f565b5b5f611b6884828501611a7d565b91505092915050565b611b7a816118f7565b8114611b84575f5ffd5b50565b5f81359050611b9581611b71565b92915050565b5f5f60408385031215611bb157611bb061186f565b5b5f611bbe85828601611a7d565b9250506020611bcf85828601611b87565b9150509250929050565b5f5ffd5b5f5ffd5b7f4e487b71000000000000000000000000000000000000000000000000000000005f52604160045260245ffd5b611c1782611952565b810181811067ffffffffffffffff82111715611c3657611c35611be1565b5b80604052505050565b5f611c48611866565b9050611c548282611c0e565b919050565b5f67ffffffffffffffff821115611c7357611c72611be1565b5b611c7c82611952565b9050602081019050919050565b828183375f83830152505050565b5f611ca9611ca484611c59565b611c3f565b905082815260208101848484011115611cc557611cc4611bdd565b5b611cd0848285611c89565b509392505050565b5f82601f830112611cec57611ceb611bd9565b5b8135611cfc848260208601611c97565b91505092915050565b5f5f5f5f60808587031215611d1d57611d1c61186f565b5b5f611d2a87828801611a7d565b9450506020611d3b87828801611a7d565b9350506040611d4c878288016119d0565b925050606085013567ffffffffffffffff811115611d6d57611d6c611873565b5b611d7987828801611cd8565b91505092959194509250565b5f5f60408385031215611d9b57611d9a61186f565b5b5f611da885828601611a7d565b9250506020611db985828601611a7d565b9150509250929050565b7f4e487b71000000000000000000000000000000000000000000000000000000005f52602260045260245ffd5b5f6002820490506001821680611e0757607f821691505b602082108103611e1a57611e19611dc3565b5b50919050565b5f606082019050611e335f830186611a3f565b611e40602083018561183e565b611e4d6040830184611a3f565b949350505050565b7f4e487b71000000000000000000000000000000000000000000000000000000005f52601160045260245ffd5b5f611e8c82611835565b91507fffffffffffffffffffffffffffffffffffffffffffffffffffffffffffffffff8203611ebe57611ebd611e55565b5b600182019050919050565b5f611ed382611835565b9150611ede83611835565b9250828203905081811115611ef657611ef5611e55565b5b92915050565b5f611f0682611835565b9150611f1183611835565b9250828202611f1f81611835565b91508282048414831517611f3657611f35611e55565b5b5092915050565b7f4e487b71000000000000000000000000000000000000000000000000000000005f52601260045260245ffd5b5f611f7482611835565b9150611f7f83611835565b925082611f8f57611f8e611f3d565b5b828204905092915050565b5f81905092915050565b5f611fae8261192a565b611fb88185611f9a565b9350611fc8818560208601611944565b80840191505092915050565b5f611fdf8285611fa4565b9150611feb8284611fa4565b91508190509392505050565b5f81519050919050565b5f82825260208201905092915050565b5f61201b82611ff7565b6120258185612001565b9350612035818560208601611944565b61203e81611952565b840191505092915050565b5f60808201905061205c5f830187611a3f565b6120696020830186611a3f565b612076604083018561183e565b81810360608301526120888184612011565b905095945050505050565b5f815190506120a1816118a2565b92915050565b5f602082840312156120bc576120bb61186f565b5b5f6120c984828501612093565b91505092915050565b5f6040820190506120e55f830185611a3f565b6120f2602083018461183e565b939250505056fea26469706673582212209f6f17ed9a979573e938cdd62e2112bfa39d0e0d5dfab24caa58fc126bcec94164736f6c634300081c0033","linkReferences":{}},"methodIdentifiers":{"VESTING_PERIOD()":"0197d972","approve(address,uint256)":"095ea7b3","balanceOf(address)":"70a08231","claimable(uint256)":"d1d58b25","getApproved(uint256)":"081812fc","isApprovedForAll(address,address)":"e985e9c5","mint(address,uint256)":"40c10f19","name()":"06fdde03","nextId()":"61b8ce8c","ownerOf(uint256)":"6352211e","penalty(uint256)":"6f9064d7","safeTransferFrom(address,address,uint256)":"42842e0e","safeTransferFrom(address,address,uint256,bytes)":"b88d4fde","setApprovalForAll(address,bool)":"a22cb465","supportsInterface(bytes4)":"01ffc9a7","symbol()":"95d89b41","tokenURI(uint256)":"c87b56dd","transferFrom(address,address,uint256)":"23b872dd","vestingInfo(uint256)":"66ffcf5f"},"id":43}