{"abi":[{"type":"constructor","inputs":[],"stateMutability":"nonpayable"},{"type":"function","name":"approve","inputs":[{"name":"to","type":"address","internalType":"address"},{"name":"tokenId","type":"uint256","internalType":"uint256"}],"outputs":[],"stateMutability":"nonpayable"},{"type":"function","name":"balanceOf","inputs":[{"name":"owner","type":"address","internalType":"address"}],"outputs":[{"name":"","type":"uint256","internalType":"uint256"}],"stateMutability":"view"},{"type":"function","name":"getApproved","inputs":[{"name":"tokenId","type":"uint256","internalType":"uint256"}],"outputs":[{"name":"","type":"address","internalType":"address"}],"stateMutability":"view"},{"type":"function","name":"isApprovedForAll","inputs":[{"name":"owner","type":"address","internalType":"address"},{"name":"operator","type":"address","internalType":"address"}],"outputs":[{"name":"","type":"bool","internalType":"bool"}],"stateMutability":"view"},{"type":"function","name":"mint","inputs":[{"name":"to","type":"address","internalType":"address"}],"outputs":[{"name":"","type":"uint256","internalType":"uint256"}],"stateMutability":"nonpayable"},{"type":"function","name":"name","inputs":[],"outputs":[{"name":"","type":"string","internalType":"string"}],"stateMutability":"view"},{"type":"function","name":"nextId","inputs":[],"outputs":[{"name":"","type":"uint256","internalType":"uint256"}],"stateMutability":"view"},{"type":"function","name":"ownerOf","inputs":[{"name":"tokenId","type":"uint256","internalType":"uint256"}],"outputs":[{"name":"","type":"address","internalType":"address"}],"stateMutability":"view"},{"type":"function","name":"safeTransferFrom","inputs":[{"name":"from","type":"address","internalType":"address"},{"name":"to","type":"address","internalType":"address"},{"name":"tokenId","type":"uint256","internalType":"uint256"}],"outputs":[],"stateMutability":"nonpayable"},{"type":"function","name":"safeTransferFrom","inputs":[{"name":"from","type":"address","internalType":"address"},{"name":"to","type":"address","internalType":"address"},{"name":"tokenId","type":"uint256","internalType":"uint256"},{"name":"data","type":"bytes","internalType":"bytes"}],"outputs":[],"stateMutability":"nonpayable"},{"type":"function","name":"setApprovalForAll","inputs":[{"name":"operator","type":"address","internalType":"address"},{"name":"approved","type":"bool","internalType":"bool"}],"outputs":[],"stateMutability":"nonpayable"},{"type":"function","name":"supportsInterface","inputs":[{"name":"interfaceId","type":"bytes4","internalType":"bytes4"}],"outputs":[{"name":"","type":"bool","internalType":"bool"}],"stateMutability":"view"},{"type":"function","name":"symbol","inputs":[],"outputs":[{"name":"","type":"string","internalType":"string"}],"stateMutability":"view"},{"type":"function","name":"tokenURI","inputs":[{"name":"tokenId","type":"uint256","internalType":"uint256"}],"outputs":[{"name":"","type":"string","internalType":"string"}],"stateMutability":"view"},{"type":"function","name":"transferFrom","inputs":[{"name":"from","type":"address","internalType":"address"},{"name":"to","type":"address","internalType":"address"},{"name":"tokenId","type":"uint256","internalType":"uint256"}],"outputs":[],"stateMutability":"nonpayable"},{"type":"event","name":"Approval","inputs":[{"name":"owner","type":"address","indexed":true,"internalType":"address"},{"name":"approved","type":"address","indexed":true,"internalType":"address"},{"name":"tokenId","type":"uint256","indexed":true,"internalType":"uint256"}],"anonymous":false},{"type":"event","name":"ApprovalForAll","inputs":[{"name":"owner","type":"address","indexed":true,"internalType":"address"},{"name":"operator","type":"address","indexed":true,"internalType":"address"},{"name":"approved","type":"bool","indexed":false,"internalType":"bool"}],"anonymous":false},{"type":"event","name":"Transfer","inputs":[{"name":"from","type":"address","indexed":true,"internalType":"address"},{"name":"to","type":"address","indexed":true,"internalType":"address"},{"name":"tokenId","type":"uint256","indexed":true,"internalType":"uint256"}],"anonymous":false},{"type":"error","name":"ERC721IncorrectOwner","inputs":[{"name":"sender","type":"address","internalType":"address"},{"name":"tokenId","type":"uint256","internalType":"uint256"},{"name":"owner","type":"address","internalType":"address"}]},{"type":"error","name":"ERC721InsufficientApproval","inputs":[{"name":"operator","type":"address","internalType":"address"},{"name":"tokenId","type":"uint256","internalType":"uint256"}]},{"type":"error","name":"ERC721InvalidApprover","inputs":[{"name":"approver","type":"address","internalType":"address"}]},{"type":"error","name":"ERC721InvalidOperator","inputs":[{"name":"operator","type":"address","internalType":"address"}]},{"type":"error","name":"ERC721InvalidOwner","inputs":[{"name":"owner","type":"address","internalType":"address"}]},{"type":"error","name":"ERC721InvalidReceiver","inputs":[{"name":"receiver","type":"address","internalType":"address"}]},{"type":"error","name":"ERC721InvalidSender","inputs":[{"name":"sender","type":"address","internalType":"address"}]},{"type":"error","name":"ERC721NonexistentToken","inputs":[{"name":"tokenId","type":"uint256","internalType":"uint256"}]}],"bytecode":{"object":"0x608060405234801561000f575f5ffd5b506040518060400160405280600981526020017f4d6f636b20664e465400000000000000000000000000000000000000000000008152506040518060400160405280600481526020017f664e465400000000000000000000000000000000000000000000000000000000815250815f908161008a91906102df565b50806001908161009a91906102df565b5050506103ae565b5f81519050919050565b7f4e487b71000000000000000000000000000000000000000000000000000000005f52604160045260245ffd5b7f4e487b71000000000000000000000000000000000000000000000000000000005f52602260045260245ffd5b5f600282049050600182168061011d57607f821691505b6020821081036101305761012f6100d9565b5b50919050565b5f819050815f5260205f209050919050565b5f6020601f8301049050919050565b5f82821b905092915050565b5f600883026101927fffffffffffffffffffffffffffffffffffffffffffffffffffffffffffffffff82610157565b61019c8683610157565b95508019841693508086168417925050509392505050565b5f819050919050565b5f819050919050565b5f6101e06101db6101d6846101b4565b6101bd565b6101b4565b9050919050565b5f819050919050565b6101f9836101c6565b61020d610205826101e7565b848454610163565b825550505050565b5f5f905090565b610224610215565b61022f8184846101f0565b505050565b5b81811015610252576102475f8261021c565b600181019050610235565b5050565b601f8211156102975761026881610136565b61027184610148565b81016020851015610280578190505b61029461028c85610148565b830182610234565b50505b505050565b5f82821c905092915050565b5f6102b75f198460080261029c565b1980831691505092915050565b5f6102cf83836102a8565b9150826002028217905092915050565b6102e8826100a2565b67ffffffffffffffff811115610301576103006100ac565b5b61030b8254610106565b610316828285610256565b5f60209050601f831160018114610347575f8415610335578287015190505b61033f85826102c4565b8655506103a6565b601f19841661035586610136565b5f5b8281101561037c57848901518255600182019150602085019450602081019050610357565b868310156103995784890151610395601f8916826102a8565b8355505b6001600288020188555050505b505050505050565b611dd4806103bb5f395ff3fe608060405234801561000f575f5ffd5b50600436106100f3575f3560e01c80636352211e11610095578063a22cb46511610064578063a22cb46514610295578063b88d4fde146102b1578063c87b56dd146102cd578063e985e9c5146102fd576100f3565b80636352211e146101e75780636a6278421461021757806370a082311461024757806395d89b4114610277576100f3565b8063095ea7b3116100d1578063095ea7b31461017557806323b872dd1461019157806342842e0e146101ad57806361b8ce8c146101c9576100f3565b806301ffc9a7146100f757806306fdde0314610127578063081812fc14610145575b5f5ffd5b610111600480360381019061010c919061160b565b61032d565b60405161011e9190611650565b60405180910390f35b61012f61040e565b60405161013c91906116d9565b60405180910390f35b61015f600480360381019061015a919061172c565b61049d565b60405161016c9190611796565b60405180910390f35b61018f600480360381019061018a91906117d9565b6104b8565b005b6101ab60048036038101906101a69190611817565b6104ce565b005b6101c760048036038101906101c29190611817565b6105cd565b005b6101d16105ec565b6040516101de9190611876565b60405180910390f35b61020160048036038101906101fc919061172c565b6105f2565b60405161020e9190611796565b60405180910390f35b610231600480360381019061022c919061188f565b610603565b60405161023e9190611876565b60405180910390f35b610261600480360381019061025c919061188f565b610630565b60405161026e9190611876565b60405180910390f35b61027f6106e6565b60405161028c91906116d9565b60405180910390f35b6102af60048036038101906102aa91906118e4565b610776565b005b6102cb60048036038101906102c69190611a4e565b61078c565b005b6102e760048036038101906102e2919061172c565b6107b1565b6040516102f491906116d9565b60405180910390f35b61031760048036038101906103129190611ace565b610817565b6040516103249190611650565b60405180910390f35b5f7f80ac58cd000000000000000000000000000000000000000000000000000000007bffffffffffffffffffffffffffffffffffffffffffffffffffffffff1916827bffffffffffffffffffffffffffffffffffffffffffffffffffffffff191614806103f757507f5b5e139f000000000000000000000000000000000000000000000000000000007bffffffffffffffffffffffffffffffffffffffffffffffffffffffff1916827bffffffffffffffffffffffffffffffffffffffffffffffffffffffff1916145b806104075750610406826108a5565b5b9050919050565b60605f805461041c90611b39565b80601f016020809104026020016040519081016040528092919081815260200182805461044890611b39565b80156104935780601f1061046a57610100808354040283529160200191610493565b820191905f5260205f20905b81548152906001019060200180831161047657829003601f168201915b5050505050905090565b5f6104a78261090e565b506104b182610994565b9050919050565b6104ca82826104c56109cd565b6109d4565b5050565b5f73ffffffffffffffffffffffffffffffffffffffff168273ffffffffffffffffffffffffffffffffffffffff160361053e575f6040517f64a0ae920000000000000000000000000000000000000000000000000000000081526004016105359190611796565b60405180910390fd5b5f610551838361054c6109cd565b6109e6565b90508373ffffffffffffffffffffffffffffffffffffffff168173ffffffffffffffffffffffffffffffffffffffff16146105c7578382826040517f64283d7b0000000000000000000000000000000000000000000000000000000081526004016105be93929190611b69565b60405180910390fd5b50505050565b6105e783838360405180602001604052805f81525061078c565b505050565b60065481565b5f6105fc8261090e565b9050919050565b5f5f60065f81548092919061061790611bcb565b9190505590506106278382610bf1565b80915050919050565b5f5f73ffffffffffffffffffffffffffffffffffffffff168273ffffffffffffffffffffffffffffffffffffffff16036106a1575f6040517f89c62b640000000000000000000000000000000000000000000000000000000081526004016106989190611796565b60405180910390fd5b60035f8373ffffffffffffffffffffffffffffffffffffffff1673ffffffffffffffffffffffffffffffffffffffff1681526020019081526020015f20549050919050565b6060600180546106f590611b39565b80601f016020809104026020016040519081016040528092919081815260200182805461072190611b39565b801561076c5780601f106107435761010080835404028352916020019161076c565b820191905f5260205f20905b81548152906001019060200180831161074f57829003601f168201915b5050505050905090565b6107886107816109cd565b8383610ce4565b5050565b6107978484846104ce565b6107ab6107a26109cd565b85858585610e4d565b50505050565b60606107bc8261090e565b505f6107c6610ff9565b90505f8151116107e45760405180602001604052805f81525061080f565b806107ee8461100f565b6040516020016107ff929190611c4c565b6040516020818303038152906040525b915050919050565b5f60055f8473ffffffffffffffffffffffffffffffffffffffff1673ffffffffffffffffffffffffffffffffffffffff1681526020019081526020015f205f8373ffffffffffffffffffffffffffffffffffffffff1673ffffffffffffffffffffffffffffffffffffffff1681526020019081526020015f205f9054906101000a900460ff16905092915050565b5f7f01ffc9a7000000000000000000000000000000000000000000000000000000007bffffffffffffffffffffffffffffffffffffffffffffffffffffffff1916827bffffffffffffffffffffffffffffffffffffffffffffffffffffffff1916149050919050565b5f5f610919836110d9565b90505f73ffffffffffffffffffffffffffffffffffffffff168173ffffffffffffffffffffffffffffffffffffffff160361098b57826040517f7e2732890000000000000000000000000000000000000000000000000000000081526004016109829190611876565b60405180910390fd5b80915050919050565b5f60045f8381526020019081526020015f205f9054906101000a900473ffffffffffffffffffffffffffffffffffffffff169050919050565b5f33905090565b6109e18383836001611112565b505050565b5f5f6109f1846110d9565b90505f73ffffffffffffffffffffffffffffffffffffffff168373ffffffffffffffffffffffffffffffffffffffff1614610a3257610a318184866112d1565b5b5f73ffffffffffffffffffffffffffffffffffffffff168173ffffffffffffffffffffffffffffffffffffffff1614610abd57610a715f855f5f611112565b600160035f8373ffffffffffffffffffffffffffffffffffffffff1673ffffffffffffffffffffffffffffffffffffffff1681526020019081526020015f205f82825403925050819055505b5f73ffffffffffffffffffffffffffffffffffffffff168573ffffffffffffffffffffffffffffffffffffffff1614610b3c57600160035f8773ffffffffffffffffffffffffffffffffffffffff1673ffffffffffffffffffffffffffffffffffffffff1681526020019081526020015f205f82825401925050819055505b8460025f8681526020019081526020015f205f6101000a81548173ffffffffffffffffffffffffffffffffffffffff021916908373ffffffffffffffffffffffffffffffffffffffff160217905550838573ffffffffffffffffffffffffffffffffffffffff168273ffffffffffffffffffffffffffffffffffffffff167fddf252ad1be2c89b69c2b068fc378daa952ba7f163c4a11628f55a4df523b3ef60405160405180910390a4809150509392505050565b5f73ffffffffffffffffffffffffffffffffffffffff168273ffffffffffffffffffffffffffffffffffffffff1603610c61575f6040517f64a0ae92000000000000000000000000000000000000000000000000000000008152600401610c589190611796565b60405180910390fd5b5f610c6d83835f6109e6565b90505f73ffffffffffffffffffffffffffffffffffffffff168173ffffffffffffffffffffffffffffffffffffffff1614610cdf575f6040517f73c6ac6e000000000000000000000000000000000000000000000000000000008152600401610cd69190611796565b60405180910390fd5b505050565b5f73ffffffffffffffffffffffffffffffffffffffff168273ffffffffffffffffffffffffffffffffffffffff1603610d5457816040517f5b08ba18000000000000000000000000000000000000000000000000000000008152600401610d4b9190611796565b60405180910390fd5b8060055f8573ffffffffffffffffffffffffffffffffffffffff1673ffffffffffffffffffffffffffffffffffffffff1681526020019081526020015f205f8473ffffffffffffffffffffffffffffffffffffffff1673ffffffffffffffffffffffffffffffffffffffff1681526020019081526020015f205f6101000a81548160ff0219169083151502179055508173ffffffffffffffffffffffffffffffffffffffff168373ffffffffffffffffffffffffffffffffffffffff167f17307eab39ab6107e8899845ad3d59bd9653f200f220920489ca2b5937696c3183604051610e409190611650565b60405180910390a3505050565b5f8373ffffffffffffffffffffffffffffffffffffffff163b1115610ff2578273ffffffffffffffffffffffffffffffffffffffff1663150b7a02868685856040518563ffffffff1660e01b8152600401610eab9493929190611cc1565b6020604051808303815f875af1925050508015610ee657506040513d601f19601f82011682018060405250810190610ee39190611d1f565b60015b610f67573d805f8114610f14576040519150601f19603f3d011682016040523d82523d5f602084013e610f19565b606091505b505f815103610f5f57836040517f64a0ae92000000000000000000000000000000000000000000000000000000008152600401610f569190611796565b60405180910390fd5b805160208201fd5b63150b7a0260e01b7bffffffffffffffffffffffffffffffffffffffffffffffffffffffff1916817bffffffffffffffffffffffffffffffffffffffffffffffffffffffff191614610ff057836040517f64a0ae92000000000000000000000000000000000000000000000000000000008152600401610fe79190611796565b60405180910390fd5b505b5050505050565b606060405180602001604052805f815250905090565b60605f600161101d84611394565b0190505f8167ffffffffffffffff81111561103b5761103a61192a565b5b6040519080825280601f01601f19166020018201604052801561106d5781602001600182028036833780820191505090505b5090505f82602083010190505b6001156110ce578080600190039150507f3031323334353637383961626364656600000000000000000000000000000000600a86061a8153600a85816110c3576110c2611d4a565b5b0494505f850361107a575b819350505050919050565b5f60025f8381526020019081526020015f205f9054906101000a900473ffffffffffffffffffffffffffffffffffffffff169050919050565b808061114a57505f73ffffffffffffffffffffffffffffffffffffffff168273ffffffffffffffffffffffffffffffffffffffff1614155b1561127c575f6111598461090e565b90505f73ffffffffffffffffffffffffffffffffffffffff168373ffffffffffffffffffffffffffffffffffffffff16141580156111c357508273ffffffffffffffffffffffffffffffffffffffff168173ffffffffffffffffffffffffffffffffffffffff1614155b80156111d657506111d48184610817565b155b1561121857826040517fa9fbf51f00000000000000000000000000000000000000000000000000000000815260040161120f9190611796565b60405180910390fd5b811561127a57838573ffffffffffffffffffffffffffffffffffffffff168273ffffffffffffffffffffffffffffffffffffffff167f8c5be1e5ebec7d5bd14f71427d1e84f3dd0314c0f7b2291e5b200ac8c7c3b92560405160405180910390a45b505b8360045f8581526020019081526020015f205f6101000a81548173ffffffffffffffffffffffffffffffffffffffff021916908373ffffffffffffffffffffffffffffffffffffffff16021790555050505050565b6112dc8383836114e5565b61138f575f73ffffffffffffffffffffffffffffffffffffffff168373ffffffffffffffffffffffffffffffffffffffff160361135057806040517f7e2732890000000000000000000000000000000000000000000000000000000081526004016113479190611876565b60405180910390fd5b81816040517f177e802f000000000000000000000000000000000000000000000000000000008152600401611386929190611d77565b60405180910390fd5b505050565b5f5f5f90507a184f03e93ff9f4daa797ed6e38ed64bf6a1f01000000000000000083106113f0577a184f03e93ff9f4daa797ed6e38ed64bf6a1f01000000000000000083816113e6576113e5611d4a565b5b0492506040810190505b6d04ee2d6d415b85acef8100000000831061142d576d04ee2d6d415b85acef8100000000838161142357611422611d4a565b5b0492506020810190505b662386f26fc10000831061145c57662386f26fc10000838161145257611451611d4a565b5b0492506010810190505b6305f5e1008310611485576305f5e100838161147b5761147a611d4a565b5b0492506008810190505b61271083106114aa5761271083816114a05761149f611d4a565b5b0492506004810190505b606483106114cd57606483816114c3576114c2611d4a565b5b0492506002810190505b600a83106114dc576001810190505b80915050919050565b5f5f73ffffffffffffffffffffffffffffffffffffffff168373ffffffffffffffffffffffffffffffffffffffff161415801561159c57508273ffffffffffffffffffffffffffffffffffffffff168473ffffffffffffffffffffffffffffffffffffffff16148061155d575061155c8484610817565b5b8061159b57508273ffffffffffffffffffffffffffffffffffffffff1661158383610994565b73ffffffffffffffffffffffffffffffffffffffff16145b5b90509392505050565b5f604051905090565b5f5ffd5b5f5ffd5b5f7fffffffff0000000000000000000000000000000000000000000000000000000082169050919050565b6115ea816115b6565b81146115f4575f5ffd5b50565b5f81359050611605816115e1565b92915050565b5f602082840312156116205761161f6115ae565b5b5f61162d848285016115f7565b91505092915050565b5f8115159050919050565b61164a81611636565b82525050565b5f6020820190506116635f830184611641565b92915050565b5f81519050919050565b5f82825260208201905092915050565b8281835e5f83830152505050565b5f601f19601f8301169050919050565b5f6116ab82611669565b6116b58185611673565b93506116c5818560208601611683565b6116ce81611691565b840191505092915050565b5f6020820190508181035f8301526116f181846116a1565b905092915050565b5f819050919050565b61170b816116f9565b8114611715575f5ffd5b50565b5f8135905061172681611702565b92915050565b5f60208284031215611741576117406115ae565b5b5f61174e84828501611718565b91505092915050565b5f73ffffffffffffffffffffffffffffffffffffffff82169050919050565b5f61178082611757565b9050919050565b61179081611776565b82525050565b5f6020820190506117a95f830184611787565b92915050565b6117b881611776565b81146117c2575f5ffd5b50565b5f813590506117d3816117af565b92915050565b5f5f604083850312156117ef576117ee6115ae565b5b5f6117fc858286016117c5565b925050602061180d85828601611718565b9150509250929050565b5f5f5f6060848603121561182e5761182d6115ae565b5b5f61183b868287016117c5565b935050602061184c868287016117c5565b925050604061185d86828701611718565b9150509250925092565b611870816116f9565b82525050565b5f6020820190506118895f830184611867565b92915050565b5f602082840312156118a4576118a36115ae565b5b5f6118b1848285016117c5565b91505092915050565b6118c381611636565b81146118cd575f5ffd5b50565b5f813590506118de816118ba565b92915050565b5f5f604083850312156118fa576118f96115ae565b5b5f611907858286016117c5565b9250506020611918858286016118d0565b9150509250929050565b5f5ffd5b5f5ffd5b7f4e487b71000000000000000000000000000000000000000000000000000000005f52604160045260245ffd5b61196082611691565b810181811067ffffffffffffffff8211171561197f5761197e61192a565b5b80604052505050565b5f6119916115a5565b905061199d8282611957565b919050565b5f67ffffffffffffffff8211156119bc576119bb61192a565b5b6119c582611691565b9050602081019050919050565b828183375f83830152505050565b5f6119f26119ed846119a2565b611988565b905082815260208101848484011115611a0e57611a0d611926565b5b611a198482856119d2565b509392505050565b5f82601f830112611a3557611a34611922565b5b8135611a458482602086016119e0565b91505092915050565b5f5f5f5f60808587031215611a6657611a656115ae565b5b5f611a73878288016117c5565b9450506020611a84878288016117c5565b9350506040611a9587828801611718565b925050606085013567ffffffffffffffff811115611ab657611ab56115b2565b5b611ac287828801611a21565b91505092959194509250565b5f5f60408385031215611ae457611ae36115ae565b5b5f611af1858286016117c5565b9250506020611b02858286016117c5565b9150509250929050565b7f4e487b71000000000000000000000000000000000000000000000000000000005f52602260045260245ffd5b5f6002820490506001821680611b5057607f821691505b602082108103611b6357611b62611b0c565b5b50919050565b5f606082019050611b7c5f830186611787565b611b896020830185611867565b611b966040830184611787565b949350505050565b7f4e487b71000000000000000000000000000000000000000000000000000000005f52601160045260245ffd5b5f611bd5826116f9565b91507fffffffffffffffffffffffffffffffffffffffffffffffffffffffffffffffff8203611c0757611c06611b9e565b5b600182019050919050565b5f81905092915050565b5f611c2682611669565b611c308185611c12565b9350611c40818560208601611683565b80840191505092915050565b5f611c578285611c1c565b9150611c638284611c1c565b91508190509392505050565b5f81519050919050565b5f82825260208201905092915050565b5f611c9382611c6f565b611c9d8185611c79565b9350611cad818560208601611683565b611cb681611691565b840191505092915050565b5f608082019050611cd45f830187611787565b611ce16020830186611787565b611cee6040830185611867565b8181036060830152611d008184611c89565b905095945050505050565b5f81519050611d19816115e1565b92915050565b5f60208284031215611d3457611d336115ae565b5b5f611d4184828501611d0b565b91505092915050565b7f4e487b71000000000000000000000000000000000000000000000000000000005f52601260045260245ffd5b5f604082019050611d8a5f830185611787565b611d976020830184611867565b939250505056fea26469706673582212207fd2cf9d2c079adbbd2b13821d49cc95c72182777c7e7330cfb52729402e794b64736f6c634300081c0033","linkReferences":{}},"methodIdentifiers":{"approve(address,uint256)":"095ea7b3","balanceOf(address)":"70a08231","getApproved(uint256)":"081812fc","isApprovedForAll(address,address)":"e985e9c5","mint(address)":"6a627842","name()":"06fdde03","nextId()":"61b8ce8c","ownerOf(uint256)":"6352211e","safeTransferFrom(address,address,uint256)":"42842e0e","safeTransferFrom(address,address,uint256,bytes)":"b88d4fde","setApprovalForAll(address,bool)":"a22cb465","supportsInterface(bytes4)":"01ffc9a7","symbol()":"95d89b41","tokenURI(uint256)":"c87b56dd","transferFrom(address,address,uint256)":"23b872dd"},"id":47}