{"abi":[{"type":"constructor","inputs":[{"name":"_underlyingToken","type":"address","internalType":"address"}],"stateMutability":"nonpayable"},{"type":"function","name":"approve","inputs":[{"name":"to","type":"address","internalType":"address"},{"name":"tokenId","type":"uint256","internalType":"uint256"}],"outputs":[],"stateMutability":"nonpayable"},{"type":"function","name":"balanceOf","inputs":[{"name":"owner","type":"address","internalType":"address"}],"outputs":[{"name":"","type":"uint256","internalType":"uint256"}],"stateMutability":"view"},{"type":"function","name":"claimDelegates","inputs":[{"name":"","type":"uint256","internalType":"uint256"}],"outputs":[{"name":"","type":"address","internalType":"address"}],"stateMutability":"view"},{"type":"function","name":"claimVestedTokens","inputs":[{"name":"tokenId","type":"uint256","internalType":"uint256"}],"outputs":[{"name":"","type":"uint256","internalType":"uint256"}],"stateMutability":"nonpayable"},{"type":"function","name":"claimable","inputs":[{"name":"tokenId","type":"uint256","internalType":"uint256"}],"outputs":[{"name":"","type":"uint256","internalType":"uint256"}],"stateMutability":"view"},{"type":"function","name":"fund","inputs":[{"name":"amount","type":"uint256","internalType":"uint256"}],"outputs":[],"stateMutability":"nonpayable"},{"type":"function","name":"getApproved","inputs":[{"name":"tokenId","type":"uint256","internalType":"uint256"}],"outputs":[{"name":"","type":"address","internalType":"address"}],"stateMutability":"view"},{"type":"function","name":"getTotalAmount","inputs":[{"name":"tokenId","type":"uint256","internalType":"uint256"}],"outputs":[{"name":"","type":"uint256","internalType":"uint256"}],"stateMutability":"view"},{"type":"function","name":"getVestedAmount","inputs":[{"name":"tokenId","type":"uint256","internalType":"uint256"}],"outputs":[{"name":"","type":"uint256","internalType":"uint256"}],"stateMutability":"view"},{"type":"function","name":"isApprovedForAll","inputs":[{"name":"owner","type":"address","internalType":"address"},{"name":"operator","type":"address","internalType":"address"}],"outputs":[{"name":"","type":"bool","internalType":"bool"}],"stateMutability":"view"},{"type":"function","name":"name","inputs":[],"outputs":[{"name":"","type":"string","internalType":"string"}],"stateMutability":"view"},{"type":"function","name":"owner","inputs":[],"outputs":[{"name":"","type":"address","internalType":"address"}],"stateMutability":"view"},{"type":"function","name":"ownerOf","inputs":[{"name":"tokenId","type":"uint256","internalType":"uint256"}],"outputs":[{"name":"","type":"address","internalType":"address"}],"stateMutability":"view"},{"type":"function","name":"renounceOwnership","inputs":[],"outputs":[],"stateMutability":"nonpayable"},{"type":"function","name":"safeMint","inputs":[{"name":"to","type":"address","internalType":"address"},{"name":"principalAmount","type":"uint256","internalType":"uint256"},{"name":"vestingDuration","type":"uint256","internalType":"uint256"}],"outputs":[],"stateMutability":"nonpayable"},{"type":"function","name":"safeTransferFrom","inputs":[{"name":"from","type":"address","internalType":"address"},{"name":"to","type":"address","internalType":"address"},{"name":"tokenId","type":"uint256","internalType":"uint256"}],"outputs":[],"stateMutability":"nonpayable"},{"type":"function","name":"safeTransferFrom","inputs":[{"name":"from","type":"address","internalType":"address"},{"name":"to","type":"address","internalType":"address"},{"name":"tokenId","type":"uint256","internalType":"uint256"},{"name":"data","type":"bytes","internalType":"bytes"}],"outputs":[],"stateMutability":"nonpayable"},{"type":"function","name":"setApprovalForAll","inputs":[{"name":"operator","type":"address","internalType":"address"},{"name":"approved","type":"bool","internalType":"bool"}],"outputs":[],"stateMutability":"nonpayable"},{"type":"function","name":"setClaimDelegate","inputs":[{"name":"tokenId","type":"uint256","internalType":"uint256"},{"name":"delegate","type":"address","internalType":"address"}],"outputs":[],"stateMutability":"nonpayable"},{"type":"function","name":"supportsInterface","inputs":[{"name":"interfaceId","type":"bytes4","internalType":"bytes4"}],"outputs":[{"name":"","type":"bool","internalType":"bool"}],"stateMutability":"view"},{"type":"function","name":"symbol","inputs":[],"outputs":[{"name":"","type":"string","internalType":"string"}],"stateMutability":"view"},{"type":"function","name":"tokenURI","inputs":[{"name":"tokenId","type":"uint256","internalType":"uint256"}],"outputs":[{"name":"","type":"string","internalType":"string"}],"stateMutability":"view"},{"type":"function","name":"transferFrom","inputs":[{"name":"from","type":"address","internalType":"address"},{"name":"to","type":"address","internalType":"address"},{"name":"tokenId","type":"uint256","internalType":"uint256"}],"outputs":[],"stateMutability":"nonpayable"},{"type":"function","name":"transferOwnership","inputs":[{"name":"newOwner","type":"address","internalType":"address"}],"outputs":[],"stateMutability":"nonpayable"},{"type":"function","name":"underlyingToken","inputs":[],"outputs":[{"name":"","type":"address","internalType":"contract IERC20"}],"stateMutability":"view"},{"type":"function","name":"vestingSchedules","inputs":[{"name":"","type":"uint256","internalType":"uint256"}],"outputs":[{"name":"principalAmount","type":"uint256","internalType":"uint256"},{"name":"vestingStart","type":"uint256","internalType":"uint256"},{"name":"vestingDuration","type":"uint256","internalType":"uint256"},{"name":"claimedAmount","type":"uint256","internalType":"uint256"}],"stateMutability":"view"},{"type":"event","name":"Approval","inputs":[{"name":"owner","type":"address","indexed":true,"internalType":"address"},{"name":"approved","type":"address","indexed":true,"internalType":"address"},{"name":"tokenId","type":"uint256","indexed":true,"internalType":"uint256"}],"anonymous":false},{"type":"event","name":"ApprovalForAll","inputs":[{"name":"owner","type":"address","indexed":true,"internalType":"address"},{"name":"operator","type":"address","indexed":true,"internalType":"address"},{"name":"approved","type":"bool","indexed":false,"internalType":"bool"}],"anonymous":false},{"type":"event","name":"OwnershipTransferred","inputs":[{"name":"previousOwner","type":"address","indexed":true,"internalType":"address"},{"name":"newOwner","type":"address","indexed":true,"internalType":"address"}],"anonymous":false},{"type":"event","name":"Transfer","inputs":[{"name":"from","type":"address","indexed":true,"internalType":"address"},{"name":"to","type":"address","indexed":true,"internalType":"address"},{"name":"tokenId","type":"uint256","indexed":true,"internalType":"uint256"}],"anonymous":false},{"type":"error","name":"ERC721IncorrectOwner","inputs":[{"name":"sender","type":"address","internalType":"address"},{"name":"tokenId","type":"uint256","internalType":"uint256"},{"name":"owner","type":"address","internalType":"address"}]},{"type":"error","name":"ERC721InsufficientApproval","inputs":[{"name":"operator","type":"address","internalType":"address"},{"name":"tokenId","type":"uint256","internalType":"uint256"}]},{"type":"error","name":"ERC721InvalidApprover","inputs":[{"name":"approver","type":"address","internalType":"address"}]},{"type":"error","name":"ERC721InvalidOperator","inputs":[{"name":"operator","type":"address","internalType":"address"}]},{"type":"error","name":"ERC721InvalidOwner","inputs":[{"name":"owner","type":"address","internalType":"address"}]},{"type":"error","name":"ERC721InvalidReceiver","inputs":[{"name":"receiver","type":"address","internalType":"address"}]},{"type":"error","name":"ERC721InvalidSender","inputs":[{"name":"sender","type":"address","internalType":"address"}]},{"type":"error","name":"ERC721NonexistentToken","inputs":[{"name":"tokenId","type":"uint256","internalType":"uint256"}]},{"type":"error","name":"OwnableInvalidOwner","inputs":[{"name":"owner","type":"address","internalType":"address"}]},{"type":"error","name":"OwnableUnauthorizedAccount","inputs":[{"name":"account","type":"address","internalType":"address"}]}],"bytecode":{"object":"0x60a060405234801561000f575f5ffd5b506040516132933803806132938339818101604052810190610031919061029a565b336040518060400160405280600e81526020017f4d6f636b20536f6e6963204e46540000000000000000000000000000000000008152506040518060400160405280600581526020017f6d534e4654000000000000000000000000000000000000000000000000000000815250815f90816100ac9190610502565b5080600190816100bc9190610502565b5050505f73ffffffffffffffffffffffffffffffffffffffff168173ffffffffffffffffffffffffffffffffffffffff160361012f575f6040517f1e4fbdf700000000000000000000000000000000000000000000000000000000815260040161012691906105e0565b60405180910390fd5b61013e8161017960201b60201c565b508073ffffffffffffffffffffffffffffffffffffffff1660808173ffffffffffffffffffffffffffffffffffffffff1681525050506105f9565b5f60065f9054906101000a900473ffffffffffffffffffffffffffffffffffffffff1690508160065f6101000a81548173ffffffffffffffffffffffffffffffffffffffff021916908373ffffffffffffffffffffffffffffffffffffffff1602179055508173ffffffffffffffffffffffffffffffffffffffff168173ffffffffffffffffffffffffffffffffffffffff167f8be0079c531659141344cd1fd0a4f28419497f9722a3daafe3b4186f6b6457e060405160405180910390a35050565b5f5ffd5b5f73ffffffffffffffffffffffffffffffffffffffff82169050919050565b5f61026982610240565b9050919050565b6102798161025f565b8114610283575f5ffd5b50565b5f8151905061029481610270565b92915050565b5f602082840312156102af576102ae61023c565b5b5f6102bc84828501610286565b91505092915050565b5f81519050919050565b7f4e487b71000000000000000000000000000000000000000000000000000000005f52604160045260245ffd5b7f4e487b71000000000000000000000000000000000000000000000000000000005f52602260045260245ffd5b5f600282049050600182168061034057607f821691505b602082108103610353576103526102fc565b5b50919050565b5f819050815f5260205f209050919050565b5f6020601f8301049050919050565b5f82821b905092915050565b5f600883026103b57fffffffffffffffffffffffffffffffffffffffffffffffffffffffffffffffff8261037a565b6103bf868361037a565b95508019841693508086168417925050509392505050565b5f819050919050565b5f819050919050565b5f6104036103fe6103f9846103d7565b6103e0565b6103d7565b9050919050565b5f819050919050565b61041c836103e9565b6104306104288261040a565b848454610386565b825550505050565b5f5f905090565b610447610438565b610452818484610413565b505050565b5b818110156104755761046a5f8261043f565b600181019050610458565b5050565b601f8211156104ba5761048b81610359565b6104948461036b565b810160208510156104a3578190505b6104b76104af8561036b565b830182610457565b50505b505050565b5f82821c905092915050565b5f6104da5f19846008026104bf565b1980831691505092915050565b5f6104f283836104cb565b9150826002028217905092915050565b61050b826102c5565b67ffffffffffffffff811115610524576105236102cf565b5b61052e8254610329565b610539828285610479565b5f60209050601f83116001811461056a575f8415610558578287015190505b61056285826104e7565b8655506105c9565b601f19841661057886610359565b5f5b8281101561059f5784890151825560018201915060208501945060208101905061057a565b868310156105bc57848901516105b8601f8916826104cb565b8355505b6001600288020188555050505b505050505050565b6105da8161025f565b82525050565b5f6020820190506105f35f8301846105d1565b92915050565b608051612c7461061f5f395f81816107f301528181610b650152610e690152612c745ff3fe608060405234801561000f575f5ffd5b506004361061018c575f3560e01c80638da5cb5b116100dc578063c87b56dd11610095578063d1d58b251161006f578063d1d58b25146104a5578063e985e9c5146104d5578063f0e4066214610505578063f2fde38b146105355761018c565b8063c87b56dd14610429578063ca1d209d14610459578063cafeedf6146104755761018c565b80638da5cb5b1461036957806395d89b4114610387578063a22cb465146103a5578063b88d4fde146103c1578063bc160bf6146103dd578063c6b84b09146103f95761018c565b806324eeedf6116101495780636d3cbe21116101235780636d3cbe21146102cc57806370a08231146102ff578063715018a61461032f5780637935510b146103395761018c565b806324eeedf61461026457806342842e0e146102805780636352211e1461029c5761018c565b806301ffc9a71461019057806306fdde03146101c0578063081812fc146101de578063095ea7b31461020e57806323b872dd1461022a5780632495a59914610246575b5f5ffd5b6101aa60048036038101906101a591906120bd565b610551565b6040516101b79190612102565b60405180910390f35b6101c8610632565b6040516101d5919061218b565b60405180910390f35b6101f860048036038101906101f391906121de565b6106c1565b6040516102059190612248565b60405180910390f35b6102286004803603810190610223919061228b565b6106dc565b005b610244600480360381019061023f91906122c9565b6106f2565b005b61024e6107f1565b60405161025b9190612374565b60405180910390f35b61027e6004803603810190610279919061238d565b610815565b005b61029a600480360381019061029591906122c9565b6108a1565b005b6102b660048036038101906102b191906121de565b6108c0565b6040516102c39190612248565b60405180910390f35b6102e660048036038101906102e191906121de565b6108d1565b6040516102f694939291906123ec565b60405180910390f35b6103196004803603810190610314919061242f565b6108fd565b604051610326919061245a565b60405180910390f35b6103376109b3565b005b610353600480360381019061034e91906121de565b6109c6565b604051610360919061245a565b60405180910390f35b610371610c0d565b60405161037e9190612248565b60405180910390f35b61038f610c35565b60405161039c919061218b565b60405180910390f35b6103bf60048036038101906103ba919061249d565b610cc5565b005b6103db60048036038101906103d69190612607565b610cdb565b005b6103f760048036038101906103f29190612687565b610d00565b005b610413600480360381019061040e91906121de565b610dc9565b6040516104209190612248565b60405180910390f35b610443600480360381019061043e91906121de565b610df9565b604051610450919061218b565b60405180910390f35b610473600480360381019061046e91906121de565b610e5f565b005b61048f600480360381019061048a91906121de565b610f08565b60405161049c919061245a565b60405180910390f35b6104bf60048036038101906104ba91906121de565b610f85565b6040516104cc919061245a565b60405180910390f35b6104ef60048036038101906104ea91906126c5565b610fd5565b6040516104fc9190612102565b60405180910390f35b61051f600480360381019061051a91906121de565b611063565b60405161052c919061245a565b60405180910390f35b61054f600480360381019061054a919061242f565b61107f565b005b5f7f80ac58cd000000000000000000000000000000000000000000000000000000007bffffffffffffffffffffffffffffffffffffffffffffffffffffffff1916827bffffffffffffffffffffffffffffffffffffffffffffffffffffffff1916148061061b57507f5b5e139f000000000000000000000000000000000000000000000000000000007bffffffffffffffffffffffffffffffffffffffffffffffffffffffff1916827bffffffffffffffffffffffffffffffffffffffffffffffffffffffff1916145b8061062b575061062a82611103565b5b9050919050565b60605f805461064090612730565b80601f016020809104026020016040519081016040528092919081815260200182805461066c90612730565b80156106b75780601f1061068e576101008083540402835291602001916106b7565b820191905f5260205f20905b81548152906001019060200180831161069a57829003601f168201915b5050505050905090565b5f6106cb8261116c565b506106d5826111f2565b9050919050565b6106ee82826106e961122b565b611232565b5050565b5f73ffffffffffffffffffffffffffffffffffffffff168273ffffffffffffffffffffffffffffffffffffffff1603610762575f6040517f64a0ae920000000000000000000000000000000000000000000000000000000081526004016107599190612248565b60405180910390fd5b5f610775838361077061122b565b611244565b90508373ffffffffffffffffffffffffffffffffffffffff168173ffffffffffffffffffffffffffffffffffffffff16146107eb578382826040517f64283d7b0000000000000000000000000000000000000000000000000000000081526004016107e293929190612760565b60405180910390fd5b50505050565b7f000000000000000000000000000000000000000000000000000000000000000081565b61081d61130e565b5f60075f815480929190610830906127c2565b9190505590506108408482611395565b60405180608001604052808481526020014281526020018381526020015f81525060085f8381526020019081526020015f205f820151815f015560208201518160010155604082015181600201556060820151816003015590505050505050565b6108bb83838360405180602001604052805f815250610cdb565b505050565b5f6108ca8261116c565b9050919050565b6008602052805f5260405f205f91509050805f0154908060010154908060020154908060030154905084565b5f5f73ffffffffffffffffffffffffffffffffffffffff168273ffffffffffffffffffffffffffffffffffffffff160361096e575f6040517f89c62b640000000000000000000000000000000000000000000000000000000081526004016109659190612248565b60405180910390fd5b60035f8373ffffffffffffffffffffffffffffffffffffffff1673ffffffffffffffffffffffffffffffffffffffff1681526020019081526020015f20549050919050565b6109bb61130e565b6109c45f6113b2565b565b5f5f6109d1836108c0565b90505f60095f8581526020019081526020015f205f9054906101000a900473ffffffffffffffffffffffffffffffffffffffff1690508173ffffffffffffffffffffffffffffffffffffffff163373ffffffffffffffffffffffffffffffffffffffff161480610a6c57508073ffffffffffffffffffffffffffffffffffffffff163373ffffffffffffffffffffffffffffffffffffffff16145b610aab576040517f08c379a0000000000000000000000000000000000000000000000000000000008152600401610aa290612853565b60405180910390fd5b5f60085f8681526020019081526020015f2090505f610ac986610f85565b90505f811115610c015780826003015f828254610ae69190612871565b925050819055505f8373ffffffffffffffffffffffffffffffffffffffff163373ffffffffffffffffffffffffffffffffffffffff16148015610b5557505f73ffffffffffffffffffffffffffffffffffffffff168473ffffffffffffffffffffffffffffffffffffffff1614155b610b5f5784610b61565b835b90507f000000000000000000000000000000000000000000000000000000000000000073ffffffffffffffffffffffffffffffffffffffff1663a9059cbb82846040518363ffffffff1660e01b8152600401610bbe9291906128a4565b6020604051808303815f875af1158015610bda573d5f5f3e3d5ffd5b505050506040513d601f19601f82011682018060405250810190610bfe91906128df565b50505b80945050505050919050565b5f60065f9054906101000a900473ffffffffffffffffffffffffffffffffffffffff16905090565b606060018054610c4490612730565b80601f0160208091040260200160405190810160405280929190818152602001828054610c7090612730565b8015610cbb5780601f10610c9257610100808354040283529160200191610cbb565b820191905f5260205f20905b815481529060010190602001808311610c9e57829003601f168201915b5050505050905090565b610cd7610cd061122b565b8383611475565b5050565b610ce68484846106f2565b610cfa610cf161122b565b858585856115de565b50505050565b3373ffffffffffffffffffffffffffffffffffffffff16610d20836108c0565b73ffffffffffffffffffffffffffffffffffffffff1614610d76576040517f08c379a0000000000000000000000000000000000000000000000000000000008152600401610d6d90612954565b60405180910390fd5b8060095f8481526020019081526020015f205f6101000a81548173ffffffffffffffffffffffffffffffffffffffff021916908373ffffffffffffffffffffffffffffffffffffffff1602179055505050565b6009602052805f5260405f205f915054906101000a900473ffffffffffffffffffffffffffffffffffffffff1681565b6060610e048261116c565b505f610e0e61178a565b90505f815111610e2c5760405180602001604052805f815250610e57565b80610e36846117a0565b604051602001610e479291906129ac565b6040516020818303038152906040525b915050919050565b610e6761130e565b7f000000000000000000000000000000000000000000000000000000000000000073ffffffffffffffffffffffffffffffffffffffff166323b872dd3330846040518463ffffffff1660e01b8152600401610ec4939291906129cf565b6020604051808303815f875af1158015610ee0573d5f5f3e3d5ffd5b505050506040513d601f19601f82011682018060405250810190610f0491906128df565b5050565b5f5f60085f8481526020019081526020015f2090508060010154421015610f32575f915050610f80565b5f816001015442610f439190612a04565b905081600201548110610f5d57815f015492505050610f80565b816002015481835f0154610f719190612a37565b610f7b9190612aa5565b925050505b919050565b5f5f60085f8481526020019081526020015f2090505f610fa484610f08565b905081600301548111610fbb575f92505050610fd0565b816003015481610fcb9190612a04565b925050505b919050565b5f60055f8473ffffffffffffffffffffffffffffffffffffffff1673ffffffffffffffffffffffffffffffffffffffff1681526020019081526020015f205f8373ffffffffffffffffffffffffffffffffffffffff1673ffffffffffffffffffffffffffffffffffffffff1681526020019081526020015f205f9054906101000a900460ff16905092915050565b5f60085f8381526020019081526020015f205f01549050919050565b61108761130e565b5f73ffffffffffffffffffffffffffffffffffffffff168173ffffffffffffffffffffffffffffffffffffffff16036110f7575f6040517f1e4fbdf70000000000000000000000000000000000000000000000000000000081526004016110ee9190612248565b60405180910390fd5b611100816113b2565b50565b5f7f01ffc9a7000000000000000000000000000000000000000000000000000000007bffffffffffffffffffffffffffffffffffffffffffffffffffffffff1916827bffffffffffffffffffffffffffffffffffffffffffffffffffffffff1916149050919050565b5f5f6111778361186a565b90505f73ffffffffffffffffffffffffffffffffffffffff168173ffffffffffffffffffffffffffffffffffffffff16036111e957826040517f7e2732890000000000000000000000000000000000000000000000000000000081526004016111e0919061245a565b60405180910390fd5b80915050919050565b5f60045f8381526020019081526020015f205f9054906101000a900473ffffffffffffffffffffffffffffffffffffffff169050919050565b5f33905090565b61123f83838360016118a3565b505050565b5f5f61124f8461186a565b90505f73ffffffffffffffffffffffffffffffffffffffff168173ffffffffffffffffffffffffffffffffffffffff16141580156112b957505f73ffffffffffffffffffffffffffffffffffffffff168573ffffffffffffffffffffffffffffffffffffffff1614155b156112f9576040517f08c379a00000000000000000000000000000000000000000000000000000000081526004016112f090612b45565b60405180910390fd5b611304858585611a62565b9150509392505050565b61131661122b565b73ffffffffffffffffffffffffffffffffffffffff16611334610c0d565b73ffffffffffffffffffffffffffffffffffffffff16146113935761135761122b565b6040517f118cdaa700000000000000000000000000000000000000000000000000000000815260040161138a9190612248565b60405180910390fd5b565b6113ae828260405180602001604052805f815250611c6d565b5050565b5f60065f9054906101000a900473ffffffffffffffffffffffffffffffffffffffff1690508160065f6101000a81548173ffffffffffffffffffffffffffffffffffffffff021916908373ffffffffffffffffffffffffffffffffffffffff1602179055508173ffffffffffffffffffffffffffffffffffffffff168173ffffffffffffffffffffffffffffffffffffffff167f8be0079c531659141344cd1fd0a4f28419497f9722a3daafe3b4186f6b6457e060405160405180910390a35050565b5f73ffffffffffffffffffffffffffffffffffffffff168273ffffffffffffffffffffffffffffffffffffffff16036114e557816040517f5b08ba180000000000000000000000000000000000000000000000000000000081526004016114dc9190612248565b60405180910390fd5b8060055f8573ffffffffffffffffffffffffffffffffffffffff1673ffffffffffffffffffffffffffffffffffffffff1681526020019081526020015f205f8473ffffffffffffffffffffffffffffffffffffffff1673ffffffffffffffffffffffffffffffffffffffff1681526020019081526020015f205f6101000a81548160ff0219169083151502179055508173ffffffffffffffffffffffffffffffffffffffff168373ffffffffffffffffffffffffffffffffffffffff167f17307eab39ab6107e8899845ad3d59bd9653f200f220920489ca2b5937696c31836040516115d19190612102565b60405180910390a3505050565b5f8373ffffffffffffffffffffffffffffffffffffffff163b1115611783578273ffffffffffffffffffffffffffffffffffffffff1663150b7a02868685856040518563ffffffff1660e01b815260040161163c9493929190612bb5565b6020604051808303815f875af192505050801561167757506040513d601f19601f820116820180604052508101906116749190612c13565b60015b6116f8573d805f81146116a5576040519150601f19603f3d011682016040523d82523d5f602084013e6116aa565b606091505b505f8151036116f057836040517f64a0ae920000000000000000000000000000000000000000000000000000000081526004016116e79190612248565b60405180910390fd5b805160208201fd5b63150b7a0260e01b7bffffffffffffffffffffffffffffffffffffffffffffffffffffffff1916817bffffffffffffffffffffffffffffffffffffffffffffffffffffffff19161461178157836040517f64a0ae920000000000000000000000000000000000000000000000000000000081526004016117789190612248565b60405180910390fd5b505b5050505050565b606060405180602001604052805f815250905090565b60605f60016117ae84611c90565b0190505f8167ffffffffffffffff8111156117cc576117cb6124e3565b5b6040519080825280601f01601f1916602001820160405280156117fe5781602001600182028036833780820191505090505b5090505f82602083010190505b60011561185f578080600190039150507f3031323334353637383961626364656600000000000000000000000000000000600a86061a8153600a858161185457611853612a78565b5b0494505f850361180b575b819350505050919050565b5f60025f8381526020019081526020015f205f9054906101000a900473ffffffffffffffffffffffffffffffffffffffff169050919050565b80806118db57505f73ffffffffffffffffffffffffffffffffffffffff168273ffffffffffffffffffffffffffffffffffffffff1614155b15611a0d575f6118ea8461116c565b90505f73ffffffffffffffffffffffffffffffffffffffff168373ffffffffffffffffffffffffffffffffffffffff161415801561195457508273ffffffffffffffffffffffffffffffffffffffff168173ffffffffffffffffffffffffffffffffffffffff1614155b801561196757506119658184610fd5565b155b156119a957826040517fa9fbf51f0000000000000000000000000000000000000000000000000000000081526004016119a09190612248565b60405180910390fd5b8115611a0b57838573ffffffffffffffffffffffffffffffffffffffff168273ffffffffffffffffffffffffffffffffffffffff167f8c5be1e5ebec7d5bd14f71427d1e84f3dd0314c0f7b2291e5b200ac8c7c3b92560405160405180910390a45b505b8360045f8581526020019081526020015f205f6101000a81548173ffffffffffffffffffffffffffffffffffffffff021916908373ffffffffffffffffffffffffffffffffffffffff16021790555050505050565b5f5f611a6d8461186a565b90505f73ffffffffffffffffffffffffffffffffffffffff168373ffffffffffffffffffffffffffffffffffffffff1614611aae57611aad818486611de1565b5b5f73ffffffffffffffffffffffffffffffffffffffff168173ffffffffffffffffffffffffffffffffffffffff1614611b3957611aed5f855f5f6118a3565b600160035f8373ffffffffffffffffffffffffffffffffffffffff1673ffffffffffffffffffffffffffffffffffffffff1681526020019081526020015f205f82825403925050819055505b5f73ffffffffffffffffffffffffffffffffffffffff168573ffffffffffffffffffffffffffffffffffffffff1614611bb857600160035f8773ffffffffffffffffffffffffffffffffffffffff1673ffffffffffffffffffffffffffffffffffffffff1681526020019081526020015f205f82825401925050819055505b8460025f8681526020019081526020015f205f6101000a81548173ffffffffffffffffffffffffffffffffffffffff021916908373ffffffffffffffffffffffffffffffffffffffff160217905550838573ffffffffffffffffffffffffffffffffffffffff168273ffffffffffffffffffffffffffffffffffffffff167fddf252ad1be2c89b69c2b068fc378daa952ba7f163c4a11628f55a4df523b3ef60405160405180910390a4809150509392505050565b611c778383611ea4565b611c8b611c8261122b565b5f8585856115de565b505050565b5f5f5f90507a184f03e93ff9f4daa797ed6e38ed64bf6a1f0100000000000000008310611cec577a184f03e93ff9f4daa797ed6e38ed64bf6a1f0100000000000000008381611ce257611ce1612a78565b5b0492506040810190505b6d04ee2d6d415b85acef81000000008310611d29576d04ee2d6d415b85acef81000000008381611d1f57611d1e612a78565b5b0492506020810190505b662386f26fc100008310611d5857662386f26fc100008381611d4e57611d4d612a78565b5b0492506010810190505b6305f5e1008310611d81576305f5e1008381611d7757611d76612a78565b5b0492506008810190505b6127108310611da6576127108381611d9c57611d9b612a78565b5b0492506004810190505b60648310611dc95760648381611dbf57611dbe612a78565b5b0492506002810190505b600a8310611dd8576001810190505b80915050919050565b611dec838383611f97565b611e9f575f73ffffffffffffffffffffffffffffffffffffffff168373ffffffffffffffffffffffffffffffffffffffff1603611e6057806040517f7e273289000000000000000000000000000000000000000000000000000000008152600401611e57919061245a565b60405180910390fd5b81816040517f177e802f000000000000000000000000000000000000000000000000000000008152600401611e969291906128a4565b60405180910390fd5b505050565b5f73ffffffffffffffffffffffffffffffffffffffff168273ffffffffffffffffffffffffffffffffffffffff1603611f14575f6040517f64a0ae92000000000000000000000000000000000000000000000000000000008152600401611f0b9190612248565b60405180910390fd5b5f611f2083835f611244565b90505f73ffffffffffffffffffffffffffffffffffffffff168173ffffffffffffffffffffffffffffffffffffffff1614611f92575f6040517f73c6ac6e000000000000000000000000000000000000000000000000000000008152600401611f899190612248565b60405180910390fd5b505050565b5f5f73ffffffffffffffffffffffffffffffffffffffff168373ffffffffffffffffffffffffffffffffffffffff161415801561204e57508273ffffffffffffffffffffffffffffffffffffffff168473ffffffffffffffffffffffffffffffffffffffff16148061200f575061200e8484610fd5565b5b8061204d57508273ffffffffffffffffffffffffffffffffffffffff16612035836111f2565b73ffffffffffffffffffffffffffffffffffffffff16145b5b90509392505050565b5f604051905090565b5f5ffd5b5f5ffd5b5f7fffffffff0000000000000000000000000000000000000000000000000000000082169050919050565b61209c81612068565b81146120a6575f5ffd5b50565b5f813590506120b781612093565b92915050565b5f602082840312156120d2576120d1612060565b5b5f6120df848285016120a9565b91505092915050565b5f8115159050919050565b6120fc816120e8565b82525050565b5f6020820190506121155f8301846120f3565b92915050565b5f81519050919050565b5f82825260208201905092915050565b8281835e5f83830152505050565b5f601f19601f8301169050919050565b5f61215d8261211b565b6121678185612125565b9350612177818560208601612135565b61218081612143565b840191505092915050565b5f6020820190508181035f8301526121a38184612153565b905092915050565b5f819050919050565b6121bd816121ab565b81146121c7575f5ffd5b50565b5f813590506121d8816121b4565b92915050565b5f602082840312156121f3576121f2612060565b5b5f612200848285016121ca565b91505092915050565b5f73ffffffffffffffffffffffffffffffffffffffff82169050919050565b5f61223282612209565b9050919050565b61224281612228565b82525050565b5f60208201905061225b5f830184612239565b92915050565b61226a81612228565b8114612274575f5ffd5b50565b5f8135905061228581612261565b92915050565b5f5f604083850312156122a1576122a0612060565b5b5f6122ae85828601612277565b92505060206122bf858286016121ca565b9150509250929050565b5f5f5f606084860312156122e0576122df612060565b5b5f6122ed86828701612277565b93505060206122fe86828701612277565b925050604061230f868287016121ca565b9150509250925092565b5f819050919050565b5f61233c61233761233284612209565b612319565b612209565b9050919050565b5f61234d82612322565b9050919050565b5f61235e82612343565b9050919050565b61236e81612354565b82525050565b5f6020820190506123875f830184612365565b92915050565b5f5f5f606084860312156123a4576123a3612060565b5b5f6123b186828701612277565b93505060206123c2868287016121ca565b92505060406123d3868287016121ca565b9150509250925092565b6123e6816121ab565b82525050565b5f6080820190506123ff5f8301876123dd565b61240c60208301866123dd565b61241960408301856123dd565b61242660608301846123dd565b95945050505050565b5f6020828403121561244457612443612060565b5b5f61245184828501612277565b91505092915050565b5f60208201905061246d5f8301846123dd565b92915050565b61247c816120e8565b8114612486575f5ffd5b50565b5f8135905061249781612473565b92915050565b5f5f604083850312156124b3576124b2612060565b5b5f6124c085828601612277565b92505060206124d185828601612489565b9150509250929050565b5f5ffd5b5f5ffd5b7f4e487b71000000000000000000000000000000000000000000000000000000005f52604160045260245ffd5b61251982612143565b810181811067ffffffffffffffff82111715612538576125376124e3565b5b80604052505050565b5f61254a612057565b90506125568282612510565b919050565b5f67ffffffffffffffff821115612575576125746124e3565b5b61257e82612143565b9050602081019050919050565b828183375f83830152505050565b5f6125ab6125a68461255b565b612541565b9050828152602081018484840111156125c7576125c66124df565b5b6125d284828561258b565b509392505050565b5f82601f8301126125ee576125ed6124db565b5b81356125fe848260208601612599565b91505092915050565b5f5f5f5f6080858703121561261f5761261e612060565b5b5f61262c87828801612277565b945050602061263d87828801612277565b935050604061264e878288016121ca565b925050606085013567ffffffffffffffff81111561266f5761266e612064565b5b61267b878288016125da565b91505092959194509250565b5f5f6040838503121561269d5761269c612060565b5b5f6126aa858286016121ca565b92505060206126bb85828601612277565b9150509250929050565b5f5f604083850312156126db576126da612060565b5b5f6126e885828601612277565b92505060206126f985828601612277565b9150509250929050565b7f4e487b71000000000000000000000000000000000000000000000000000000005f52602260045260245ffd5b5f600282049050600182168061274757607f821691505b60208210810361275a57612759612703565b5b50919050565b5f6060820190506127735f830186612239565b61278060208301856123dd565b61278d6040830184612239565b949350505050565b7f4e487b71000000000000000000000000000000000000000000000000000000005f52601160045260245ffd5b5f6127cc826121ab565b91507fffffffffffffffffffffffffffffffffffffffffffffffffffffffffffffffff82036127fe576127fd612795565b5b600182019050919050565b7f4e6f7420617574686f72697a656420746f20636c61696d0000000000000000005f82015250565b5f61283d601783612125565b915061284882612809565b602082019050919050565b5f6020820190508181035f83015261286a81612831565b9050919050565b5f61287b826121ab565b9150612886836121ab565b925082820190508082111561289e5761289d612795565b5b92915050565b5f6040820190506128b75f830185612239565b6128c460208301846123dd565b9392505050565b5f815190506128d981612473565b92915050565b5f602082840312156128f4576128f3612060565b5b5f612901848285016128cb565b91505092915050565b7f4f6e6c79206f776e65722063616e2064656c65676174650000000000000000005f82015250565b5f61293e601783612125565b91506129498261290a565b602082019050919050565b5f6020820190508181035f83015261296b81612932565b9050919050565b5f81905092915050565b5f6129868261211b565b6129908185612972565b93506129a0818560208601612135565b80840191505092915050565b5f6129b7828561297c565b91506129c3828461297c565b91508190509392505050565b5f6060820190506129e25f830186612239565b6129ef6020830185612239565b6129fc60408301846123dd565b949350505050565b5f612a0e826121ab565b9150612a19836121ab565b9250828203905081811115612a3157612a30612795565b5b92915050565b5f612a41826121ab565b9150612a4c836121ab565b9250828202612a5a816121ab565b91508282048414831517612a7157612a70612795565b5b5092915050565b7f4e487b71000000000000000000000000000000000000000000000000000000005f52601260045260245ffd5b5f612aaf826121ab565b9150612aba836121ab565b925082612aca57612ac9612a78565b5b828204905092915050565b7f5472616e73666572732064697361626c65643a20736f756c626f756e64204e465f8201527f5400000000000000000000000000000000000000000000000000000000000000602082015250565b5f612b2f602183612125565b9150612b3a82612ad5565b604082019050919050565b5f6020820190508181035f830152612b5c81612b23565b9050919050565b5f81519050919050565b5f82825260208201905092915050565b5f612b8782612b63565b612b918185612b6d565b9350612ba1818560208601612135565b612baa81612143565b840191505092915050565b5f608082019050612bc85f830187612239565b612bd56020830186612239565b612be260408301856123dd565b8181036060830152612bf48184612b7d565b905095945050505050565b5f81519050612c0d81612093565b92915050565b5f60208284031215612c2857612c27612060565b5b5f612c3584828501612bff565b9150509291505056fea26469706673582212209880add6bb8a55a57b5ab8d87af3c50724cd354732131b55a9f64c6f6e5d6ca864736f6c634300081c0033","linkReferences":{}},"methodIdentifiers":{"approve(address,uint256)":"095ea7b3","balanceOf(address)":"70a08231","claimDelegates(uint256)":"c6b84b09","claimVestedTokens(uint256)":"7935510b","claimable(uint256)":"d1d58b25","fund(uint256)":"ca1d209d","getApproved(uint256)":"081812fc","getTotalAmount(uint256)":"f0e40662","getVestedAmount(uint256)":"cafeedf6","isApprovedForAll(address,address)":"e985e9c5","name()":"06fdde03","owner()":"8da5cb5b","ownerOf(uint256)":"6352211e","renounceOwnership()":"715018a6","safeMint(address,uint256,uint256)":"24eeedf6","safeTransferFrom(address,address,uint256)":"42842e0e","safeTransferFrom(address,address,uint256,bytes)":"b88d4fde","setApprovalForAll(address,bool)":"a22cb465","setClaimDelegate(uint256,address)":"bc160bf6","supportsInterface(bytes4)":"01ffc9a7","symbol()":"95d89b41","tokenURI(uint256)":"c87b56dd","transferFrom(address,address,uint256)":"23b872dd","transferOwnership(address)":"f2fde38b","underlyingToken()":"2495a599","vestingSchedules(uint256)":"6d3cbe21"},"id":45}